{
    "contractName": "ZombieFactory",
    "abi": [
        {
            "inputs": [],
            "stateMutability": "nonpayable",
            "type": "constructor"
        },
        {
            "inputs": [
                {
                    "internalType": "bytes",
                    "name": "_address",
                    "type": "bytes"
                }
            ],
            "name": "bytesToAddress",
            "outputs": [
                {
                    "internalType": "address",
                    "name": "",
                    "type": "address"
                }
            ],
            "stateMutability": "pure",
            "type": "function"
        },
        {
            "inputs": [],
            "name": "send50",
            "outputs": [],
            "stateMutability": "payable",
            "type": "function"
        }
    ],
    "bytecode": "608060405234801561001057600080fd5b50600080546001600160a01b031916331790556102dd806100326000396000f3fe6080604052600436106100295760003560e01c806342526e4e1461002e578063bc945e8c1461006a575b600080fd5b34801561003a57600080fd5b5061004e610049366004610151565b610074565b6040516001600160a01b03909116815260200160405180910390f35b6100726100da565b005b60008080805b60148160ff1610156100d15761009261010084610218565b9250848160ff16815181106100a9576100a9610247565b016020015160f81c91506100bd828461025d565b9250806100c981610288565b91505061007a565b50909392505050565b6000546001600160a01b031633146100f157600080fd5b604051737ee1e68cca33be7ae84b55959a641b2f320e507e908190600090674563918244f400009082818181858883f19350505050158015610137573d6000803e3d6000fd5b5050565b634e487b7160e01b600052604160045260246000fd5b60006020828403121561016357600080fd5b813567ffffffffffffffff8082111561017b57600080fd5b818401915084601f83011261018f57600080fd5b8135818111156101a1576101a161013b565b604051601f8201601f19908116603f011681019083821181831017156101c9576101c961013b565b816040528281528760208487010111156101e257600080fd5b826020860160208301376000928101602001929092525095945050505050565b634e487b7160e01b600052601160045260246000fd5b60006001600160a01b038281168482168115158284048211161561023e5761023e610202565b02949350505050565b634e487b7160e01b600052603260045260246000fd5b60006001600160a01b0382811684821680830382111561027f5761027f610202565b01949350505050565b600060ff821660ff810361029e5761029e610202565b6001019291505056fea2646970667358221220dd76b6b3319a9ab45387274b974e61619a1e243eadac14f79c9f3b3db638128564736f6c634300080e0033",
    "sourcePath": "d:/kyoungil/Blockchain_based_Fintech/supplementary/dapp/0527/cryptoZomibeSend.sol",
    "compiler": {
        "name": "solc",
        "version": "0.8.14+commit.80d49f37"
    },
    "functionHashes": {
        "bytesToAddress(bytes)": "42526e4e",
        "send50()": "bc945e8c"
    },
    "gasEstimates": {
        "creation": {
            "codeDepositCost": "146600",
            "executionCost": "24425",
            "totalCost": "171025"
        },
        "external": {
            "bytesToAddress(bytes)": "infinite",
            "send50()": "infinite"
        }
    }
}