{
	"enumTest.sol": {
		"EnumTest": {
			"abi": [
				{
					"constant": false,
					"inputs": [],
					"name": "setGoStraight",
					"outputs": [],
					"payable": false,
					"stateMutability": "nonpayable",
					"type": "function"
				},
				{
					"constant": true,
					"inputs": [],
					"name": "getChoice",
					"outputs": [
						{
							"name": "",
							"type": "uint8"
						}
					],
					"payable": false,
					"stateMutability": "view",
					"type": "function"
				},
				{
					"constant": true,
					"inputs": [],
					"name": "getDefaultChoice",
					"outputs": [
						{
							"name": "",
							"type": "uint8"
						}
					],
					"payable": false,
					"stateMutability": "view",
					"type": "function"
				},
				{
					"constant": false,
					"inputs": [],
					"name": "setGoRight",
					"outputs": [],
					"payable": false,
					"stateMutability": "nonpayable",
					"type": "function"
				},
				{
					"constant": false,
					"inputs": [],
					"name": "setGoLeft",
					"outputs": [],
					"payable": false,
					"stateMutability": "nonpayable",
					"type": "function"
				},
				{
					"constant": false,
					"inputs": [],
					"name": "setSitStill",
					"outputs": [],
					"payable": false,
					"stateMutability": "nonpayable",
					"type": "function"
				}
			],
			"devdoc": {
				"methods": {}
			},
			"evm": {
				"assembly": "    /* \"enumTest.sol\":28:750  contract EnumTest {\r... */\n  mstore(0x40, 0x80)\n    /* \"enumTest.sol\":173:196  ActionChoice.GoStraight */\n  0x2\n    /* \"enumTest.sol\":144:196  ActionChoice defaultChoice = ActionChoice.GoStraight */\n  0x0\n  exp(0x100, 0x1)\n  dup2\n  sload\n  dup2\n  0xff\n  mul\n  not\n  and\n  swap1\n  dup4\n  0x3\n  dup2\n  gt\n  iszero\n  tag_1\n  jumpi\n  invalid\ntag_1:\n  mul\n  or\n  swap1\n  sstore\n  pop\n    /* \"enumTest.sol\":28:750  contract EnumTest {\r... */\n  callvalue\n    /* \"--CODEGEN--\":8:17   */\n  dup1\n    /* \"--CODEGEN--\":5:7   */\n  iszero\n  tag_2\n  jumpi\n    /* \"--CODEGEN--\":30:31   */\n  0x0\n    /* \"--CODEGEN--\":27:28   */\n  dup1\n    /* \"--CODEGEN--\":20:32   */\n  revert\n    /* \"--CODEGEN--\":5:7   */\ntag_2:\n    /* \"enumTest.sol\":28:750  contract EnumTest {\r... */\n  pop\n  dataSize(sub_0)\n  dup1\n  dataOffset(sub_0)\n  0x0\n  codecopy\n  0x0\n  return\nstop\n\nsub_0: assembly {\n        /* \"enumTest.sol\":28:750  contract EnumTest {\r... */\n      mstore(0x40, 0x80)\n      jumpi(tag_1, lt(calldatasize, 0x4))\n      calldataload(0x0)\n      0x100000000000000000000000000000000000000000000000000000000\n      swap1\n      div\n      0xffffffff\n      and\n      dup1\n      0x46aadaa5\n      eq\n      tag_2\n      jumpi\n      dup1\n      0x67cb61b6\n      eq\n      tag_3\n      jumpi\n      dup1\n      0x843f7258\n      eq\n      tag_4\n      jumpi\n      dup1\n      0x8a387600\n      eq\n      tag_5\n      jumpi\n      dup1\n      0xbb1b1795\n      eq\n      tag_6\n      jumpi\n      dup1\n      0xc7c10fd6\n      eq\n      tag_7\n      jumpi\n    tag_1:\n      0x0\n      dup1\n      revert\n        /* \"enumTest.sol\":205:288  function setGoStraight() public {\r... */\n    tag_2:\n      callvalue\n        /* \"--CODEGEN--\":8:17   */\n      dup1\n        /* \"--CODEGEN--\":5:7   */\n      iszero\n      tag_8\n      jumpi\n        /* \"--CODEGEN--\":30:31   */\n      0x0\n        /* \"--CODEGEN--\":27:28   */\n      dup1\n        /* \"--CODEGEN--\":20:32   */\n      revert\n        /* \"--CODEGEN--\":5:7   */\n    tag_8:\n        /* \"enumTest.sol\":205:288  function setGoStraight() public {\r... */\n      pop\n      tag_9\n      jump(tag_10)\n    tag_9:\n      stop\n        /* \"enumTest.sol\":551:639  function getChoice() public view returns (ActionChoice) {\r... */\n    tag_3:\n      callvalue\n        /* \"--CODEGEN--\":8:17   */\n      dup1\n        /* \"--CODEGEN--\":5:7   */\n      iszero\n      tag_11\n      jumpi\n        /* \"--CODEGEN--\":30:31   */\n      0x0\n        /* \"--CODEGEN--\":27:28   */\n      dup1\n        /* \"--CODEGEN--\":20:32   */\n      revert\n        /* \"--CODEGEN--\":5:7   */\n    tag_11:\n        /* \"enumTest.sol\":551:639  function getChoice() public view returns (ActionChoice) {\r... */\n      pop\n      tag_12\n      jump(tag_13)\n    tag_12:\n      mload(0x40)\n      dup1\n      dup3\n      0x3\n      dup2\n      gt\n      iszero\n      tag_14\n      jumpi\n      invalid\n    tag_14:\n      0xff\n      and\n      dup2\n      mstore\n      0x20\n      add\n      swap2\n      pop\n      pop\n      mload(0x40)\n      dup1\n      swap2\n      sub\n      swap1\n      return\n        /* \"enumTest.sol\":645:747  function getDefaultChoice() public view returns (ActionChoice) {\r... */\n    tag_4:\n      callvalue\n        /* \"--CODEGEN--\":8:17   */\n      dup1\n        /* \"--CODEGEN--\":5:7   */\n      iszero\n      tag_15\n      jumpi\n        /* \"--CODEGEN--\":30:31   */\n      0x0\n        /* \"--CODEGEN--\":27:28   */\n      dup1\n        /* \"--CODEGEN--\":20:32   */\n      revert\n        /* \"--CODEGEN--\":5:7   */\n    tag_15:\n        /* \"enumTest.sol\":645:747  function getDefaultChoice() public view returns (ActionChoice) {\r... */\n      pop\n      tag_16\n      jump(tag_17)\n    tag_16:\n      mload(0x40)\n      dup1\n      dup3\n      0x3\n      dup2\n      gt\n      iszero\n      tag_18\n      jumpi\n      invalid\n    tag_18:\n      0xff\n      and\n      dup2\n      mstore\n      0x20\n      add\n      swap2\n      pop\n      pop\n      mload(0x40)\n      dup1\n      swap2\n      sub\n      swap1\n      return\n        /* \"enumTest.sol\":379:456  function setGoRight() public {\r... */\n    tag_5:\n      callvalue\n        /* \"--CODEGEN--\":8:17   */\n      dup1\n        /* \"--CODEGEN--\":5:7   */\n      iszero\n      tag_19\n      jumpi\n        /* \"--CODEGEN--\":30:31   */\n      0x0\n        /* \"--CODEGEN--\":27:28   */\n      dup1\n        /* \"--CODEGEN--\":20:32   */\n      revert\n        /* \"--CODEGEN--\":5:7   */\n    tag_19:\n        /* \"enumTest.sol\":379:456  function setGoRight() public {\r... */\n      pop\n      tag_20\n      jump(tag_21)\n    tag_20:\n      stop\n        /* \"enumTest.sol\":296:371  function setGoLeft() public {\r... */\n    tag_6:\n      callvalue\n        /* \"--CODEGEN--\":8:17   */\n      dup1\n        /* \"--CODEGEN--\":5:7   */\n      iszero\n      tag_22\n      jumpi\n        /* \"--CODEGEN--\":30:31   */\n      0x0\n        /* \"--CODEGEN--\":27:28   */\n      dup1\n        /* \"--CODEGEN--\":20:32   */\n      revert\n        /* \"--CODEGEN--\":5:7   */\n    tag_22:\n        /* \"enumTest.sol\":296:371  function setGoLeft() public {\r... */\n      pop\n      tag_23\n      jump(tag_24)\n    tag_23:\n      stop\n        /* \"enumTest.sol\":464:543  function setSitStill() public {\r... */\n    tag_7:\n      callvalue\n        /* \"--CODEGEN--\":8:17   */\n      dup1\n        /* \"--CODEGEN--\":5:7   */\n      iszero\n      tag_25\n      jumpi\n        /* \"--CODEGEN--\":30:31   */\n      0x0\n        /* \"--CODEGEN--\":27:28   */\n      dup1\n        /* \"--CODEGEN--\":20:32   */\n      revert\n        /* \"--CODEGEN--\":5:7   */\n    tag_25:\n        /* \"enumTest.sol\":464:543  function setSitStill() public {\r... */\n      pop\n      tag_26\n      jump(tag_27)\n    tag_26:\n      stop\n        /* \"enumTest.sol\":205:288  function setGoStraight() public {\r... */\n    tag_10:\n        /* \"enumTest.sol\":257:280  ActionChoice.GoStraight */\n      0x2\n        /* \"enumTest.sol\":248:254  choice */\n      0x0\n      dup1\n        /* \"enumTest.sol\":248:280  choice = ActionChoice.GoStraight */\n      0x100\n      exp\n      dup2\n      sload\n      dup2\n      0xff\n      mul\n      not\n      and\n      swap1\n      dup4\n      0x3\n      dup2\n      gt\n      iszero\n      tag_29\n      jumpi\n      invalid\n    tag_29:\n      mul\n      or\n      swap1\n      sstore\n      pop\n        /* \"enumTest.sol\":205:288  function setGoStraight() public {\r... */\n      jump\t// out\n        /* \"enumTest.sol\":551:639  function getChoice() public view returns (ActionChoice) {\r... */\n    tag_13:\n        /* \"enumTest.sol\":593:605  ActionChoice */\n      0x0\n        /* \"enumTest.sol\":625:631  choice */\n      dup1\n      0x0\n      swap1\n      sload\n      swap1\n      0x100\n      exp\n      swap1\n      div\n      0xff\n      and\n        /* \"enumTest.sol\":618:631  return choice */\n      swap1\n      pop\n        /* \"enumTest.sol\":551:639  function getChoice() public view returns (ActionChoice) {\r... */\n      swap1\n      jump\t// out\n        /* \"enumTest.sol\":645:747  function getDefaultChoice() public view returns (ActionChoice) {\r... */\n    tag_17:\n        /* \"enumTest.sol\":694:706  ActionChoice */\n      0x0\n        /* \"enumTest.sol\":726:739  defaultChoice */\n      dup1\n      0x1\n      swap1\n      sload\n      swap1\n      0x100\n      exp\n      swap1\n      div\n      0xff\n      and\n        /* \"enumTest.sol\":719:739  return defaultChoice */\n      swap1\n      pop\n        /* \"enumTest.sol\":645:747  function getDefaultChoice() public view returns (ActionChoice) {\r... */\n      swap1\n      jump\t// out\n        /* \"enumTest.sol\":379:456  function setGoRight() public {\r... */\n    tag_21:\n        /* \"enumTest.sol\":428:448  ActionChoice.GoRight */\n      0x1\n        /* \"enumTest.sol\":419:425  choice */\n      0x0\n      dup1\n        /* \"enumTest.sol\":419:448  choice = ActionChoice.GoRight */\n      0x100\n      exp\n      dup2\n      sload\n      dup2\n      0xff\n      mul\n      not\n      and\n      swap1\n      dup4\n      0x3\n      dup2\n      gt\n      iszero\n      tag_33\n      jumpi\n      invalid\n    tag_33:\n      mul\n      or\n      swap1\n      sstore\n      pop\n        /* \"enumTest.sol\":379:456  function setGoRight() public {\r... */\n      jump\t// out\n        /* \"enumTest.sol\":296:371  function setGoLeft() public {\r... */\n    tag_24:\n        /* \"enumTest.sol\":344:363  ActionChoice.GoLeft */\n      0x0\n        /* \"enumTest.sol\":335:341  choice */\n      dup1\n      0x0\n        /* \"enumTest.sol\":335:363  choice = ActionChoice.GoLeft */\n      0x100\n      exp\n      dup2\n      sload\n      dup2\n      0xff\n      mul\n      not\n      and\n      swap1\n      dup4\n      0x3\n      dup2\n      gt\n      iszero\n      tag_35\n      jumpi\n      invalid\n    tag_35:\n      mul\n      or\n      swap1\n      sstore\n      pop\n        /* \"enumTest.sol\":296:371  function setGoLeft() public {\r... */\n      jump\t// out\n        /* \"enumTest.sol\":464:543  function setSitStill() public {\r... */\n    tag_27:\n        /* \"enumTest.sol\":514:535  ActionChoice.SitStill */\n      0x3\n        /* \"enumTest.sol\":505:511  choice */\n      0x0\n      dup1\n        /* \"enumTest.sol\":505:535  choice = ActionChoice.SitStill */\n      0x100\n      exp\n      dup2\n      sload\n      dup2\n      0xff\n      mul\n      not\n      and\n      swap1\n      dup4\n      0x3\n      dup2\n      gt\n      iszero\n      tag_37\n      jumpi\n      invalid\n    tag_37:\n      mul\n      or\n      swap1\n      sstore\n      pop\n        /* \"enumTest.sol\":464:543  function setSitStill() public {\r... */\n      jump\t// out\n\n    auxdata: 0xa165627a7a723058201b698adf83fe646fc204ff5d5421b7153f5adde382bddbcc6534abd022146d970029\n}\n",
				"bytecode": {
					"linkReferences": {},
					"object": "60806040526002600060016101000a81548160ff0219169083600381111561002357fe5b021790555034801561003457600080fd5b50610237806100446000396000f300608060405260043610610078576000357c0100000000000000000000000000000000000000000000000000000000900463ffffffff16806346aadaa51461007d57806367cb61b614610094578063843f7258146100cd5780638a38760014610106578063bb1b17951461011d578063c7c10fd614610134575b600080fd5b34801561008957600080fd5b5061009261014b565b005b3480156100a057600080fd5b506100a9610170565b604051808260038111156100b957fe5b60ff16815260200191505060405180910390f35b3480156100d957600080fd5b506100e2610186565b604051808260038111156100f257fe5b60ff16815260200191505060405180910390f35b34801561011257600080fd5b5061011b61019c565b005b34801561012957600080fd5b506101326101c1565b005b34801561014057600080fd5b506101496101e6565b005b60026000806101000a81548160ff0219169083600381111561016957fe5b0217905550565b60008060009054906101000a900460ff16905090565b60008060019054906101000a900460ff16905090565b60016000806101000a81548160ff021916908360038111156101ba57fe5b0217905550565b60008060006101000a81548160ff021916908360038111156101df57fe5b0217905550565b60036000806101000a81548160ff0219169083600381111561020457fe5b02179055505600a165627a7a723058201b698adf83fe646fc204ff5d5421b7153f5adde382bddbcc6534abd022146d970029",
					"opcodes": "PUSH1 0x80 PUSH1 0x40 MSTORE PUSH1 0x2 PUSH1 0x0 PUSH1 0x1 PUSH2 0x100 EXP DUP2 SLOAD DUP2 PUSH1 0xFF MUL NOT AND SWAP1 DUP4 PUSH1 0x3 DUP2 GT ISZERO PUSH2 0x23 JUMPI INVALID JUMPDEST MUL OR SWAP1 SSTORE POP CALLVALUE DUP1 ISZERO PUSH2 0x34 JUMPI PUSH1 0x0 DUP1 REVERT JUMPDEST POP PUSH2 0x237 DUP1 PUSH2 0x44 PUSH1 0x0 CODECOPY PUSH1 0x0 RETURN STOP PUSH1 0x80 PUSH1 0x40 MSTORE PUSH1 0x4 CALLDATASIZE LT PUSH2 0x78 JUMPI PUSH1 0x0 CALLDATALOAD PUSH29 0x100000000000000000000000000000000000000000000000000000000 SWAP1 DIV PUSH4 0xFFFFFFFF AND DUP1 PUSH4 0x46AADAA5 EQ PUSH2 0x7D JUMPI DUP1 PUSH4 0x67CB61B6 EQ PUSH2 0x94 JUMPI DUP1 PUSH4 0x843F7258 EQ PUSH2 0xCD JUMPI DUP1 PUSH4 0x8A387600 EQ PUSH2 0x106 JUMPI DUP1 PUSH4 0xBB1B1795 EQ PUSH2 0x11D JUMPI DUP1 PUSH4 0xC7C10FD6 EQ PUSH2 0x134 JUMPI JUMPDEST PUSH1 0x0 DUP1 REVERT JUMPDEST CALLVALUE DUP1 ISZERO PUSH2 0x89 JUMPI PUSH1 0x0 DUP1 REVERT JUMPDEST POP PUSH2 0x92 PUSH2 0x14B JUMP JUMPDEST STOP JUMPDEST CALLVALUE DUP1 ISZERO PUSH2 0xA0 JUMPI PUSH1 0x0 DUP1 REVERT JUMPDEST POP PUSH2 0xA9 PUSH2 0x170 JUMP JUMPDEST PUSH1 0x40 MLOAD DUP1 DUP3 PUSH1 0x3 DUP2 GT ISZERO PUSH2 0xB9 JUMPI INVALID JUMPDEST PUSH1 0xFF AND DUP2 MSTORE PUSH1 0x20 ADD SWAP2 POP POP PUSH1 0x40 MLOAD DUP1 SWAP2 SUB SWAP1 RETURN JUMPDEST CALLVALUE DUP1 ISZERO PUSH2 0xD9 JUMPI PUSH1 0x0 DUP1 REVERT JUMPDEST POP PUSH2 0xE2 PUSH2 0x186 JUMP JUMPDEST PUSH1 0x40 MLOAD DUP1 DUP3 PUSH1 0x3 DUP2 GT ISZERO PUSH2 0xF2 JUMPI INVALID JUMPDEST PUSH1 0xFF AND DUP2 MSTORE PUSH1 0x20 ADD SWAP2 POP POP PUSH1 0x40 MLOAD DUP1 SWAP2 SUB SWAP1 RETURN JUMPDEST CALLVALUE DUP1 ISZERO PUSH2 0x112 JUMPI PUSH1 0x0 DUP1 REVERT JUMPDEST POP PUSH2 0x11B PUSH2 0x19C JUMP JUMPDEST STOP JUMPDEST CALLVALUE DUP1 ISZERO PUSH2 0x129 JUMPI PUSH1 0x0 DUP1 REVERT JUMPDEST POP PUSH2 0x132 PUSH2 0x1C1 JUMP JUMPDEST STOP JUMPDEST CALLVALUE DUP1 ISZERO PUSH2 0x140 JUMPI PUSH1 0x0 DUP1 REVERT JUMPDEST POP PUSH2 0x149 PUSH2 0x1E6 JUMP JUMPDEST STOP JUMPDEST PUSH1 0x2 PUSH1 0x0 DUP1 PUSH2 0x100 EXP DUP2 SLOAD DUP2 PUSH1 0xFF MUL NOT AND SWAP1 DUP4 PUSH1 0x3 DUP2 GT ISZERO PUSH2 0x169 JUMPI INVALID JUMPDEST MUL OR SWAP1 SSTORE POP JUMP JUMPDEST PUSH1 0x0 DUP1 PUSH1 0x0 SWAP1 SLOAD SWAP1 PUSH2 0x100 EXP SWAP1 DIV PUSH1 0xFF AND SWAP1 POP SWAP1 JUMP JUMPDEST PUSH1 0x0 DUP1 PUSH1 0x1 SWAP1 SLOAD SWAP1 PUSH2 0x100 EXP SWAP1 DIV PUSH1 0xFF AND SWAP1 POP SWAP1 JUMP JUMPDEST PUSH1 0x1 PUSH1 0x0 DUP1 PUSH2 0x100 EXP DUP2 SLOAD DUP2 PUSH1 0xFF MUL NOT AND SWAP1 DUP4 PUSH1 0x3 DUP2 GT ISZERO PUSH2 0x1BA JUMPI INVALID JUMPDEST MUL OR SWAP1 SSTORE POP JUMP JUMPDEST PUSH1 0x0 DUP1 PUSH1 0x0 PUSH2 0x100 EXP DUP2 SLOAD DUP2 PUSH1 0xFF MUL NOT AND SWAP1 DUP4 PUSH1 0x3 DUP2 GT ISZERO PUSH2 0x1DF JUMPI INVALID JUMPDEST MUL OR SWAP1 SSTORE POP JUMP JUMPDEST PUSH1 0x3 PUSH1 0x0 DUP1 PUSH2 0x100 EXP DUP2 SLOAD DUP2 PUSH1 0xFF MUL NOT AND SWAP1 DUP4 PUSH1 0x3 DUP2 GT ISZERO PUSH2 0x204 JUMPI INVALID JUMPDEST MUL OR SWAP1 SSTORE POP JUMP STOP LOG1 PUSH6 0x627A7A723058 KECCAK256 SHL PUSH10 0x8ADF83FE646FC204FF5D SLOAD 0x21 0xb7 ISZERO 0x3f GAS 0xdd 0xe3 DUP3 0xbd 0xdb 0xcc PUSH6 0x34ABD022146D SWAP8 STOP 0x29 "
				},
				"gasEstimates": {
					"creation": {
						"codeDepositCost": "113400",
						"executionCost": "20496",
						"totalCost": "133896"
					},
					"external": {
						"getChoice()": "492",
						"getDefaultChoice()": "564",
						"setGoLeft()": "20508",
						"setGoRight()": "20486",
						"setGoStraight()": "20420",
						"setSitStill()": "20530"
					}
				},
				"methodIdentifiers": {
					"getChoice()": "67cb61b6",
					"getDefaultChoice()": "843f7258",
					"setGoLeft()": "bb1b1795",
					"setGoRight()": "8a387600",
					"setGoStraight()": "46aadaa5",
					"setSitStill()": "c7c10fd6"
				}
			},
			"userdoc": {
				"methods": {}
			}
		}
	}
}