{
	"CreateConOtherConExam.sol": {
		"CarFactory": {
			"abi": [
				{
					"inputs": [],
					"stateMutability": "nonpayable",
					"type": "constructor"
				},
				{
					"inputs": [
						{
							"internalType": "uint256",
							"name": "",
							"type": "uint256"
						}
					],
					"name": "cars",
					"outputs": [
						{
							"internalType": "contract Car",
							"name": "",
							"type": "address"
						}
					],
					"stateMutability": "view",
					"type": "function"
				},
				{
					"inputs": [
						{
							"internalType": "address",
							"name": "_owner",
							"type": "address"
						},
						{
							"internalType": "string",
							"name": "_model",
							"type": "string"
						},
						{
							"internalType": "bytes32",
							"name": "_salt",
							"type": "bytes32"
						}
					],
					"name": "create2AndSendEther",
					"outputs": [],
					"stateMutability": "payable",
					"type": "function"
				},
				{
					"inputs": [
						{
							"internalType": "address",
							"name": "_owner",
							"type": "address"
						},
						{
							"internalType": "string",
							"name": "_model",
							"type": "string"
						}
					],
					"name": "createAndSendEther",
					"outputs": [],
					"stateMutability": "payable",
					"type": "function"
				},
				{
					"inputs": [
						{
							"internalType": "address",
							"name": "_owner",
							"type": "address"
						},
						{
							"internalType": "string",
							"name": "_model",
							"type": "string"
						}
					],
					"name": "createCar",
					"outputs": [],
					"stateMutability": "nonpayable",
					"type": "function"
				},
				{
					"inputs": [
						{
							"internalType": "address",
							"name": "_owner",
							"type": "address"
						},
						{
							"internalType": "string",
							"name": "_model",
							"type": "string"
						},
						{
							"internalType": "bytes32",
							"name": "_salt",
							"type": "bytes32"
						}
					],
					"name": "createCar2",
					"outputs": [],
					"stateMutability": "nonpayable",
					"type": "function"
				},
				{
					"inputs": [
						{
							"internalType": "uint256",
							"name": "_index",
							"type": "uint256"
						}
					],
					"name": "getCar",
					"outputs": [
						{
							"internalType": "address",
							"name": "owner",
							"type": "address"
						},
						{
							"internalType": "string",
							"name": "model",
							"type": "string"
						},
						{
							"internalType": "address",
							"name": "carAddr",
							"type": "address"
						},
						{
							"internalType": "uint256",
							"name": "balance",
							"type": "uint256"
						}
					],
					"stateMutability": "view",
					"type": "function"
				},
				{
					"inputs": [],
					"name": "mySalt",
					"outputs": [
						{
							"internalType": "bytes32",
							"name": "",
							"type": "bytes32"
						}
					],
					"stateMutability": "view",
					"type": "function"
				}
			],
			"devdoc": {
				"kind": "dev",
				"methods": {},
				"version": 1
			},
			"evm": {
				"assembly": "    /* \"CreateConOtherConExam.sol\":348:1605  contract CarFactory {... */\n  mstore(0x40, 0x80)\n    /* \"CreateConOtherConExam.sol\":403:467  constructor() {... */\n  callvalue\n  dup1\n  iszero\n  tag_1\n  jumpi\n  0x00\n  dup1\n  revert\ntag_1:\n  pop\n    /* \"CreateConOtherConExam.sol\":437:459  keccak256(\"ForSalt@~\") */\n  0x190fea64075acfd1b0ad55dbaed3e48e13387796c27e8d9f1faa85d5af109ace\n    /* \"CreateConOtherConExam.sol\":428:434  mySalt */\n  0x00\n    /* \"CreateConOtherConExam.sol\":428:459  mySalt = keccak256(\"ForSalt@~\") */\n  dup2\n  swap1\n  sstore\n  pop\n    /* \"CreateConOtherConExam.sol\":348:1605  contract CarFactory {... */\n  dataSize(sub_0)\n  dup1\n  dataOffset(sub_0)\n  0x00\n  codecopy\n  0x00\n  return\nstop\n\nsub_0: assembly {\n        /* \"CreateConOtherConExam.sol\":348:1605  contract CarFactory {... */\n      mstore(0x40, 0x80)\n      jumpi(tag_1, lt(calldatasize, 0x04))\n      shr(0xe0, calldataload(0x00))\n      dup1\n      0xa429f47d\n      gt\n      tag_9\n      jumpi\n      dup1\n      0xa429f47d\n      eq\n      tag_5\n      jumpi\n      dup1\n      0xa5e57b47\n      eq\n      tag_6\n      jumpi\n      dup1\n      0xc33cd615\n      eq\n      tag_7\n      jumpi\n      dup1\n      0xf7746e36\n      eq\n      tag_8\n      jumpi\n      jump(tag_1)\n    tag_9:\n      dup1\n      0x3d4b3015\n      eq\n      tag_2\n      jumpi\n      dup1\n      0x517548e2\n      eq\n      tag_3\n      jumpi\n      dup1\n      0x5e8be190\n      eq\n      tag_4\n      jumpi\n    tag_1:\n      0x00\n      dup1\n      revert\n        /* \"CreateConOtherConExam.sol\":1051:1293  function create2AndSendEther(... */\n    tag_2:\n      tag_10\n      0x04\n      dup1\n      calldatasize\n      sub\n      dup2\n      add\n      swap1\n      tag_11\n      swap2\n      swap1\n      tag_12\n      jump\t// in\n    tag_11:\n      tag_13\n      jump\t// in\n    tag_10:\n      stop\n        /* \"CreateConOtherConExam.sol\":375:396  bytes32 public mySalt */\n    tag_3:\n      callvalue\n      dup1\n      iszero\n      tag_14\n      jumpi\n      0x00\n      dup1\n      revert\n    tag_14:\n      pop\n      tag_15\n      tag_16\n      jump\t// in\n    tag_15:\n      mload(0x40)\n      tag_17\n      swap2\n      swap1\n      tag_18\n      jump\t// in\n    tag_17:\n      mload(0x40)\n      dup1\n      swap2\n      sub\n      swap1\n      return\n        /* \"CreateConOtherConExam.sol\":1301:1602  function getCar(uint _index) public view returns (... */\n    tag_4:\n      callvalue\n      dup1\n      iszero\n      tag_19\n      jumpi\n      0x00\n      dup1\n      revert\n    tag_19:\n      pop\n      tag_20\n      0x04\n      dup1\n      calldatasize\n      sub\n      dup2\n      add\n      swap1\n      tag_21\n      swap2\n      swap1\n      tag_22\n      jump\t// in\n    tag_21:\n      tag_23\n      jump\t// in\n    tag_20:\n      mload(0x40)\n      tag_24\n      swap5\n      swap4\n      swap3\n      swap2\n      swap1\n      tag_25\n      jump\t// in\n    tag_24:\n      mload(0x40)\n      dup1\n      swap2\n      sub\n      swap1\n      return\n        /* \"CreateConOtherConExam.sol\":836:1043  function createCar2(... */\n    tag_5:\n      callvalue\n      dup1\n      iszero\n      tag_26\n      jumpi\n      0x00\n      dup1\n      revert\n    tag_26:\n      pop\n      tag_27\n      0x04\n      dup1\n      calldatasize\n      sub\n      dup2\n      add\n      swap1\n      tag_28\n      swap2\n      swap1\n      tag_12\n      jump\t// in\n    tag_28:\n      tag_29\n      jump\t// in\n    tag_27:\n      stop\n        /* \"CreateConOtherConExam.sol\":499:642  function createCar(address _owner, string memory _model) public {... */\n    tag_6:\n      callvalue\n      dup1\n      iszero\n      tag_30\n      jumpi\n      0x00\n      dup1\n      revert\n    tag_30:\n      pop\n      tag_31\n      0x04\n      dup1\n      calldatasize\n      sub\n      dup2\n      add\n      swap1\n      tag_32\n      swap2\n      swap1\n      tag_33\n      jump\t// in\n    tag_32:\n      tag_34\n      jump\t// in\n    tag_31:\n      stop\n        /* \"CreateConOtherConExam.sol\":650:828  function createAndSendEther(address _owner, string memory _model) public payable {... */\n    tag_7:\n      tag_35\n      0x04\n      dup1\n      calldatasize\n      sub\n      dup2\n      add\n      swap1\n      tag_36\n      swap2\n      swap1\n      tag_33\n      jump\t// in\n    tag_36:\n      tag_37\n      jump\t// in\n    tag_35:\n      stop\n        /* \"CreateConOtherConExam.sol\":473:490  Car[] public cars */\n    tag_8:\n      callvalue\n      dup1\n      iszero\n      tag_38\n      jumpi\n      0x00\n      dup1\n      revert\n    tag_38:\n      pop\n      tag_39\n      0x04\n      dup1\n      calldatasize\n      sub\n      dup2\n      add\n      swap1\n      tag_40\n      swap2\n      swap1\n      tag_22\n      jump\t// in\n    tag_40:\n      tag_41\n      jump\t// in\n    tag_39:\n      mload(0x40)\n      tag_42\n      swap2\n      swap1\n      tag_43\n      jump\t// in\n    tag_42:\n      mload(0x40)\n      dup1\n      swap2\n      sub\n      swap1\n      return\n        /* \"CreateConOtherConExam.sol\":1051:1293  function create2AndSendEther(... */\n    tag_13:\n        /* \"CreateConOtherConExam.sol\":1193:1200  Car car */\n      0x00\n        /* \"CreateConOtherConExam.sol\":1220:1229  msg.value */\n      callvalue\n        /* \"CreateConOtherConExam.sol\":1237:1243  mySalt */\n      sload(0x00)\n        /* \"CreateConOtherConExam.sol\":1203:1260  (new Car){value: msg.value, salt: mySalt}(_owner, _model) */\n      swap1\n        /* \"CreateConOtherConExam.sol\":1245:1251  _owner */\n      dup6\n        /* \"CreateConOtherConExam.sol\":1253:1259  _model */\n      dup6\n        /* \"CreateConOtherConExam.sol\":1203:1260  (new Car){value: msg.value, salt: mySalt}(_owner, _model) */\n      mload(0x40)\n      tag_45\n      swap1\n      tag_46\n      jump\t// in\n    tag_45:\n      tag_47\n      swap3\n      swap2\n      swap1\n      tag_48\n      jump\t// in\n    tag_47:\n      dup3\n      swap1\n      mload(0x40)\n      dup1\n      swap2\n      sub\n      swap1\n      dup4\n      create2\n      swap1\n      pop\n      swap1\n      pop\n      dup1\n      iszero\n      dup1\n      iszero\n      tag_49\n      jumpi\n      returndatasize\n      0x00\n      dup1\n      returndatacopy\n      revert(0x00, returndatasize)\n    tag_49:\n      pop\n        /* \"CreateConOtherConExam.sol\":1193:1260  Car car = (new Car){value: msg.value, salt: mySalt}(_owner, _model) */\n      swap1\n      pop\n        /* \"CreateConOtherConExam.sol\":1271:1275  cars */\n      0x01\n        /* \"CreateConOtherConExam.sol\":1281:1284  car */\n      dup2\n        /* \"CreateConOtherConExam.sol\":1271:1285  cars.push(car) */\n      swap1\n      dup1\n      0x01\n      dup2\n      sload\n      add\n      dup1\n      dup3\n      sstore\n      dup1\n      swap2\n      pop\n      pop\n      0x01\n      swap1\n      sub\n      swap1\n      0x00\n      mstore\n      keccak256(0x00, 0x20)\n      add\n      0x00\n      swap1\n      swap2\n      swap1\n      swap2\n      swap1\n      swap2\n      0x0100\n      exp\n      dup2\n      sload\n      dup2\n      0xffffffffffffffffffffffffffffffffffffffff\n      mul\n      not\n      and\n      swap1\n      dup4\n      0xffffffffffffffffffffffffffffffffffffffff\n      and\n      mul\n      or\n      swap1\n      sstore\n      pop\n        /* \"CreateConOtherConExam.sol\":1182:1293  {... */\n      pop\n        /* \"CreateConOtherConExam.sol\":1051:1293  function create2AndSendEther(... */\n      pop\n      pop\n      pop\n      jump\t// out\n        /* \"CreateConOtherConExam.sol\":375:396  bytes32 public mySalt */\n    tag_16:\n      sload(0x00)\n      dup2\n      jump\t// out\n        /* \"CreateConOtherConExam.sol\":1301:1602  function getCar(uint _index) public view returns (... */\n    tag_23:\n        /* \"CreateConOtherConExam.sol\":1361:1374  address owner */\n      0x00\n        /* \"CreateConOtherConExam.sol\":1386:1405  string memory model */\n      0x60\n        /* \"CreateConOtherConExam.sol\":1417:1432  address carAddr */\n      0x00\n        /* \"CreateConOtherConExam.sol\":1444:1456  uint balance */\n      dup1\n        /* \"CreateConOtherConExam.sol\":1483:1490  Car car */\n      0x00\n        /* \"CreateConOtherConExam.sol\":1493:1497  cars */\n      0x01\n        /* \"CreateConOtherConExam.sol\":1498:1504  _index */\n      dup7\n        /* \"CreateConOtherConExam.sol\":1493:1505  cars[_index] */\n      dup2\n      sload\n      dup2\n      lt\n      tag_52\n      jumpi\n      tag_53\n      tag_54\n      jump\t// in\n    tag_53:\n    tag_52:\n      swap1\n      0x00\n      mstore\n      keccak256(0x00, 0x20)\n      add\n      0x00\n      swap1\n      sload\n      swap1\n      0x0100\n      exp\n      swap1\n      div\n      0xffffffffffffffffffffffffffffffffffffffff\n      and\n        /* \"CreateConOtherConExam.sol\":1483:1505  Car car = cars[_index] */\n      swap1\n      pop\n        /* \"CreateConOtherConExam.sol\":1528:1531  car */\n      dup1\n        /* \"CreateConOtherConExam.sol\":1528:1537  car.owner */\n      0xffffffffffffffffffffffffffffffffffffffff\n      and\n      0x8da5cb5b\n        /* \"CreateConOtherConExam.sol\":1528:1539  car.owner() */\n      mload(0x40)\n      dup2\n      0xffffffff\n      and\n      0xe0\n      shl\n      dup2\n      mstore\n      0x04\n      add\n      0x20\n      mload(0x40)\n      dup1\n      dup4\n      sub\n      dup2\n      dup7\n      gas\n      staticcall\n      iszero\n      dup1\n      iszero\n      tag_57\n      jumpi\n      returndatasize\n      0x00\n      dup1\n      returndatacopy\n      revert(0x00, returndatasize)\n    tag_57:\n      pop\n      pop\n      pop\n      pop\n      mload(0x40)\n      returndatasize\n      not(0x1f)\n      0x1f\n      dup3\n      add\n      and\n      dup3\n      add\n      dup1\n      0x40\n      mstore\n      pop\n      dup2\n      add\n      swap1\n      tag_58\n      swap2\n      swap1\n      tag_59\n      jump\t// in\n    tag_58:\n        /* \"CreateConOtherConExam.sol\":1541:1544  car */\n      dup2\n        /* \"CreateConOtherConExam.sol\":1541:1550  car.model */\n      0xffffffffffffffffffffffffffffffffffffffff\n      and\n      0x0ad9d052\n        /* \"CreateConOtherConExam.sol\":1541:1552  car.model() */\n      mload(0x40)\n      dup2\n      0xffffffff\n      and\n      0xe0\n      shl\n      dup2\n      mstore\n      0x04\n      add\n      0x00\n      mload(0x40)\n      dup1\n      dup4\n      sub\n      dup2\n      dup7\n      gas\n      staticcall\n      iszero\n      dup1\n      iszero\n      tag_61\n      jumpi\n      returndatasize\n      0x00\n      dup1\n      returndatacopy\n      revert(0x00, returndatasize)\n    tag_61:\n      pop\n      pop\n      pop\n      pop\n      mload(0x40)\n      returndatasize\n      0x00\n      dup3\n      returndatacopy\n      returndatasize\n      not(0x1f)\n      0x1f\n      dup3\n      add\n      and\n      dup3\n      add\n      dup1\n      0x40\n      mstore\n      pop\n      dup2\n      add\n      swap1\n      tag_62\n      swap2\n      swap1\n      tag_63\n      jump\t// in\n    tag_62:\n        /* \"CreateConOtherConExam.sol\":1554:1557  car */\n      dup3\n        /* \"CreateConOtherConExam.sol\":1554:1565  car.carAddr */\n      0xffffffffffffffffffffffffffffffffffffffff\n      and\n      0x514fa676\n        /* \"CreateConOtherConExam.sol\":1554:1567  car.carAddr() */\n      mload(0x40)\n      dup2\n      0xffffffff\n      and\n      0xe0\n      shl\n      dup2\n      mstore\n      0x04\n      add\n      0x20\n      mload(0x40)\n      dup1\n      dup4\n      sub\n      dup2\n      dup7\n      gas\n      staticcall\n      iszero\n      dup1\n      iszero\n      tag_65\n      jumpi\n      returndatasize\n      0x00\n      dup1\n      returndatacopy\n      revert(0x00, returndatasize)\n    tag_65:\n      pop\n      pop\n      pop\n      pop\n      mload(0x40)\n      returndatasize\n      not(0x1f)\n      0x1f\n      dup3\n      add\n      and\n      dup3\n      add\n      dup1\n      0x40\n      mstore\n      pop\n      dup2\n      add\n      swap1\n      tag_66\n      swap2\n      swap1\n      tag_59\n      jump\t// in\n    tag_66:\n        /* \"CreateConOtherConExam.sol\":1577:1580  car */\n      dup4\n        /* \"CreateConOtherConExam.sol\":1569:1589  address(car).balance */\n      0xffffffffffffffffffffffffffffffffffffffff\n      and\n      balance\n        /* \"CreateConOtherConExam.sol\":1520:1590  return (car.owner(), car.model(), car.carAddr(), address(car).balance) */\n      swap5\n      pop\n      swap5\n      pop\n      swap5\n      pop\n      swap5\n      pop\n      pop\n        /* \"CreateConOtherConExam.sol\":1301:1602  function getCar(uint _index) public view returns (... */\n      swap2\n      swap4\n      pop\n      swap2\n      swap4\n      jump\t// out\n        /* \"CreateConOtherConExam.sol\":836:1043  function createCar2(... */\n    tag_29:\n        /* \"CreateConOtherConExam.sol\":961:968  Car car */\n      0x00\n        /* \"CreateConOtherConExam.sol\":987:993  mySalt */\n      dup1\n      sload\n        /* \"CreateConOtherConExam.sol\":995:1001  _owner */\n      dup5\n        /* \"CreateConOtherConExam.sol\":1003:1009  _model */\n      dup5\n        /* \"CreateConOtherConExam.sol\":971:1010  (new Car){salt: mySalt}(_owner, _model) */\n      mload(0x40)\n      tag_68\n      swap1\n      tag_46\n      jump\t// in\n    tag_68:\n      tag_69\n      swap3\n      swap2\n      swap1\n      tag_48\n      jump\t// in\n    tag_69:\n      dup2\n      swap1\n      mload(0x40)\n      dup1\n      swap2\n      sub\n      swap1\n      0x00\n      create2\n      swap1\n      pop\n      dup1\n      iszero\n      dup1\n      iszero\n      tag_70\n      jumpi\n      returndatasize\n      0x00\n      dup1\n      returndatacopy\n      revert(0x00, returndatasize)\n    tag_70:\n      pop\n        /* \"CreateConOtherConExam.sol\":961:1010  Car car = (new Car){salt: mySalt}(_owner, _model) */\n      swap1\n      pop\n        /* \"CreateConOtherConExam.sol\":1021:1025  cars */\n      0x01\n        /* \"CreateConOtherConExam.sol\":1031:1034  car */\n      dup2\n        /* \"CreateConOtherConExam.sol\":1021:1035  cars.push(car) */\n      swap1\n      dup1\n      0x01\n      dup2\n      sload\n      add\n      dup1\n      dup3\n      sstore\n      dup1\n      swap2\n      pop\n      pop\n      0x01\n      swap1\n      sub\n      swap1\n      0x00\n      mstore\n      keccak256(0x00, 0x20)\n      add\n      0x00\n      swap1\n      swap2\n      swap1\n      swap2\n      swap1\n      swap2\n      0x0100\n      exp\n      dup2\n      sload\n      dup2\n      0xffffffffffffffffffffffffffffffffffffffff\n      mul\n      not\n      and\n      swap1\n      dup4\n      0xffffffffffffffffffffffffffffffffffffffff\n      and\n      mul\n      or\n      swap1\n      sstore\n      pop\n        /* \"CreateConOtherConExam.sol\":950:1043  {... */\n      pop\n        /* \"CreateConOtherConExam.sol\":836:1043  function createCar2(... */\n      pop\n      pop\n      pop\n      jump\t// out\n        /* \"CreateConOtherConExam.sol\":499:642  function createCar(address _owner, string memory _model) public {... */\n    tag_34:\n        /* \"CreateConOtherConExam.sol\":574:581  Car car */\n      0x00\n        /* \"CreateConOtherConExam.sol\":593:599  _owner */\n      dup3\n        /* \"CreateConOtherConExam.sol\":601:607  _model */\n      dup3\n        /* \"CreateConOtherConExam.sol\":584:608  new Car (_owner, _model) */\n      mload(0x40)\n      tag_73\n      swap1\n      tag_46\n      jump\t// in\n    tag_73:\n      tag_74\n      swap3\n      swap2\n      swap1\n      tag_48\n      jump\t// in\n    tag_74:\n      mload(0x40)\n      dup1\n      swap2\n      sub\n      swap1\n      0x00\n      create\n      dup1\n      iszero\n      dup1\n      iszero\n      tag_75\n      jumpi\n      returndatasize\n      0x00\n      dup1\n      returndatacopy\n      revert(0x00, returndatasize)\n    tag_75:\n      pop\n        /* \"CreateConOtherConExam.sol\":574:608  Car car = new Car (_owner, _model) */\n      swap1\n      pop\n        /* \"CreateConOtherConExam.sol\":619:623  cars */\n      0x01\n        /* \"CreateConOtherConExam.sol\":629:632  car */\n      dup2\n        /* \"CreateConOtherConExam.sol\":619:633  cars.push(car) */\n      swap1\n      dup1\n      0x01\n      dup2\n      sload\n      add\n      dup1\n      dup3\n      sstore\n      dup1\n      swap2\n      pop\n      pop\n      0x01\n      swap1\n      sub\n      swap1\n      0x00\n      mstore\n      keccak256(0x00, 0x20)\n      add\n      0x00\n      swap1\n      swap2\n      swap1\n      swap2\n      swap1\n      swap2\n      0x0100\n      exp\n      dup2\n      sload\n      dup2\n      0xffffffffffffffffffffffffffffffffffffffff\n      mul\n      not\n      and\n      swap1\n      dup4\n      0xffffffffffffffffffffffffffffffffffffffff\n      and\n      mul\n      or\n      swap1\n      sstore\n      pop\n        /* \"CreateConOtherConExam.sol\":563:642  {... */\n      pop\n        /* \"CreateConOtherConExam.sol\":499:642  function createCar(address _owner, string memory _model) public {... */\n      pop\n      pop\n      jump\t// out\n        /* \"CreateConOtherConExam.sol\":650:828  function createAndSendEther(address _owner, string memory _model) public payable {... */\n    tag_37:\n        /* \"CreateConOtherConExam.sol\":742:749  Car car */\n      0x00\n        /* \"CreateConOtherConExam.sol\":769:778  msg.value */\n      callvalue\n        /* \"CreateConOtherConExam.sol\":780:786  _owner */\n      dup4\n        /* \"CreateConOtherConExam.sol\":788:794  _model */\n      dup4\n        /* \"CreateConOtherConExam.sol\":752:795  (new Car){value: msg.value}(_owner, _model) */\n      mload(0x40)\n      tag_78\n      swap1\n      tag_46\n      jump\t// in\n    tag_78:\n      tag_79\n      swap3\n      swap2\n      swap1\n      tag_48\n      jump\t// in\n    tag_79:\n      mload(0x40)\n      dup1\n      swap2\n      sub\n      swap1\n      dup3\n      create\n      swap1\n      pop\n      dup1\n      iszero\n      dup1\n      iszero\n      tag_80\n      jumpi\n      returndatasize\n      0x00\n      dup1\n      returndatacopy\n      revert(0x00, returndatasize)\n    tag_80:\n      pop\n        /* \"CreateConOtherConExam.sol\":742:795  Car car = (new Car){value: msg.value}(_owner, _model) */\n      swap1\n      pop\n        /* \"CreateConOtherConExam.sol\":806:810  cars */\n      0x01\n        /* \"CreateConOtherConExam.sol\":816:819  car */\n      dup2\n        /* \"CreateConOtherConExam.sol\":806:820  cars.push(car) */\n      swap1\n      dup1\n      0x01\n      dup2\n      sload\n      add\n      dup1\n      dup3\n      sstore\n      dup1\n      swap2\n      pop\n      pop\n      0x01\n      swap1\n      sub\n      swap1\n      0x00\n      mstore\n      keccak256(0x00, 0x20)\n      add\n      0x00\n      swap1\n      swap2\n      swap1\n      swap2\n      swap1\n      swap2\n      0x0100\n      exp\n      dup2\n      sload\n      dup2\n      0xffffffffffffffffffffffffffffffffffffffff\n      mul\n      not\n      and\n      swap1\n      dup4\n      0xffffffffffffffffffffffffffffffffffffffff\n      and\n      mul\n      or\n      swap1\n      sstore\n      pop\n        /* \"CreateConOtherConExam.sol\":731:828  {... */\n      pop\n        /* \"CreateConOtherConExam.sol\":650:828  function createAndSendEther(address _owner, string memory _model) public payable {... */\n      pop\n      pop\n      jump\t// out\n        /* \"CreateConOtherConExam.sol\":473:490  Car[] public cars */\n    tag_41:\n      0x01\n      dup2\n      dup2\n      sload\n      dup2\n      lt\n      tag_82\n      jumpi\n      0x00\n      dup1\n      revert\n    tag_82:\n      swap1\n      0x00\n      mstore\n      keccak256(0x00, 0x20)\n      add\n      0x00\n      swap2\n      pop\n      sload\n      swap1\n      0x0100\n      exp\n      swap1\n      div\n      0xffffffffffffffffffffffffffffffffffffffff\n      and\n      dup2\n      jump\t// out\n    tag_46:\n      dataSize(sub_0)\n      dup1\n      dataOffset(sub_0)\n      dup4\n      codecopy\n      add\n      swap1\n      jump\t// out\n        /* \"#utility.yul\":7:82   */\n    tag_84:\n        /* \"#utility.yul\":40:46   */\n      0x00\n        /* \"#utility.yul\":73:75   */\n      0x40\n        /* \"#utility.yul\":67:76   */\n      mload\n        /* \"#utility.yul\":57:76   */\n      swap1\n      pop\n        /* \"#utility.yul\":7:82   */\n      swap1\n      jump\t// out\n        /* \"#utility.yul\":88:205   */\n    tag_85:\n        /* \"#utility.yul\":197:198   */\n      0x00\n        /* \"#utility.yul\":194:195   */\n      dup1\n        /* \"#utility.yul\":187:199   */\n      revert\n        /* \"#utility.yul\":211:328   */\n    tag_86:\n        /* \"#utility.yul\":320:321   */\n      0x00\n        /* \"#utility.yul\":317:318   */\n      dup1\n        /* \"#utility.yul\":310:322   */\n      revert\n        /* \"#utility.yul\":334:460   */\n    tag_87:\n        /* \"#utility.yul\":371:378   */\n      0x00\n        /* \"#utility.yul\":411:453   */\n      0xffffffffffffffffffffffffffffffffffffffff\n        /* \"#utility.yul\":404:409   */\n      dup3\n        /* \"#utility.yul\":400:454   */\n      and\n        /* \"#utility.yul\":389:454   */\n      swap1\n      pop\n        /* \"#utility.yul\":334:460   */\n      swap2\n      swap1\n      pop\n      jump\t// out\n        /* \"#utility.yul\":466:562   */\n    tag_88:\n        /* \"#utility.yul\":503:510   */\n      0x00\n        /* \"#utility.yul\":532:556   */\n      tag_128\n        /* \"#utility.yul\":550:555   */\n      dup3\n        /* \"#utility.yul\":532:556   */\n      tag_87\n      jump\t// in\n    tag_128:\n        /* \"#utility.yul\":521:556   */\n      swap1\n      pop\n        /* \"#utility.yul\":466:562   */\n      swap2\n      swap1\n      pop\n      jump\t// out\n        /* \"#utility.yul\":568:690   */\n    tag_89:\n        /* \"#utility.yul\":641:665   */\n      tag_130\n        /* \"#utility.yul\":659:664   */\n      dup2\n        /* \"#utility.yul\":641:665   */\n      tag_88\n      jump\t// in\n    tag_130:\n        /* \"#utility.yul\":634:639   */\n      dup2\n        /* \"#utility.yul\":631:666   */\n      eq\n        /* \"#utility.yul\":621:684   */\n      tag_131\n      jumpi\n        /* \"#utility.yul\":680:681   */\n      0x00\n        /* \"#utility.yul\":677:678   */\n      dup1\n        /* \"#utility.yul\":670:682   */\n      revert\n        /* \"#utility.yul\":621:684   */\n    tag_131:\n        /* \"#utility.yul\":568:690   */\n      pop\n      jump\t// out\n        /* \"#utility.yul\":696:835   */\n    tag_90:\n        /* \"#utility.yul\":742:747   */\n      0x00\n        /* \"#utility.yul\":780:786   */\n      dup2\n        /* \"#utility.yul\":767:787   */\n      calldataload\n        /* \"#utility.yul\":758:787   */\n      swap1\n      pop\n        /* \"#utility.yul\":796:829   */\n      tag_133\n        /* \"#utility.yul\":823:828   */\n      dup2\n        /* \"#utility.yul\":796:829   */\n      tag_89\n      jump\t// in\n    tag_133:\n        /* \"#utility.yul\":696:835   */\n      swap3\n      swap2\n      pop\n      pop\n      jump\t// out\n        /* \"#utility.yul\":841:958   */\n    tag_91:\n        /* \"#utility.yul\":950:951   */\n      0x00\n        /* \"#utility.yul\":947:948   */\n      dup1\n        /* \"#utility.yul\":940:952   */\n      revert\n        /* \"#utility.yul\":964:1081   */\n    tag_92:\n        /* \"#utility.yul\":1073:1074   */\n      0x00\n        /* \"#utility.yul\":1070:1071   */\n      dup1\n        /* \"#utility.yul\":1063:1075   */\n      revert\n        /* \"#utility.yul\":1087:1189   */\n    tag_93:\n        /* \"#utility.yul\":1128:1134   */\n      0x00\n        /* \"#utility.yul\":1179:1181   */\n      0x1f\n        /* \"#utility.yul\":1175:1182   */\n      not\n        /* \"#utility.yul\":1170:1172   */\n      0x1f\n        /* \"#utility.yul\":1163:1168   */\n      dup4\n        /* \"#utility.yul\":1159:1173   */\n      add\n        /* \"#utility.yul\":1155:1183   */\n      and\n        /* \"#utility.yul\":1145:1183   */\n      swap1\n      pop\n        /* \"#utility.yul\":1087:1189   */\n      swap2\n      swap1\n      pop\n      jump\t// out\n        /* \"#utility.yul\":1195:1375   */\n    tag_94:\n        /* \"#utility.yul\":1243:1320   */\n      0x4e487b7100000000000000000000000000000000000000000000000000000000\n        /* \"#utility.yul\":1240:1241   */\n      0x00\n        /* \"#utility.yul\":1233:1321   */\n      mstore\n        /* \"#utility.yul\":1340:1344   */\n      0x41\n        /* \"#utility.yul\":1337:1338   */\n      0x04\n        /* \"#utility.yul\":1330:1345   */\n      mstore\n        /* \"#utility.yul\":1364:1368   */\n      0x24\n        /* \"#utility.yul\":1361:1362   */\n      0x00\n        /* \"#utility.yul\":1354:1369   */\n      revert\n        /* \"#utility.yul\":1381:1662   */\n    tag_95:\n        /* \"#utility.yul\":1464:1491   */\n      tag_139\n        /* \"#utility.yul\":1486:1490   */\n      dup3\n        /* \"#utility.yul\":1464:1491   */\n      tag_93\n      jump\t// in\n    tag_139:\n        /* \"#utility.yul\":1456:1462   */\n      dup2\n        /* \"#utility.yul\":1452:1492   */\n      add\n        /* \"#utility.yul\":1594:1600   */\n      dup2\n        /* \"#utility.yul\":1582:1592   */\n      dup2\n        /* \"#utility.yul\":1579:1601   */\n      lt\n        /* \"#utility.yul\":1558:1576   */\n      0xffffffffffffffff\n        /* \"#utility.yul\":1546:1556   */\n      dup3\n        /* \"#utility.yul\":1543:1577   */\n      gt\n        /* \"#utility.yul\":1540:1602   */\n      or\n        /* \"#utility.yul\":1537:1625   */\n      iszero\n      tag_140\n      jumpi\n        /* \"#utility.yul\":1605:1623   */\n      tag_141\n      tag_94\n      jump\t// in\n    tag_141:\n        /* \"#utility.yul\":1537:1625   */\n    tag_140:\n        /* \"#utility.yul\":1645:1655   */\n      dup1\n        /* \"#utility.yul\":1641:1643   */\n      0x40\n        /* \"#utility.yul\":1634:1656   */\n      mstore\n        /* \"#utility.yul\":1424:1662   */\n      pop\n        /* \"#utility.yul\":1381:1662   */\n      pop\n      pop\n      jump\t// out\n        /* \"#utility.yul\":1668:1797   */\n    tag_96:\n        /* \"#utility.yul\":1702:1708   */\n      0x00\n        /* \"#utility.yul\":1729:1749   */\n      tag_143\n      tag_84\n      jump\t// in\n    tag_143:\n        /* \"#utility.yul\":1719:1749   */\n      swap1\n      pop\n        /* \"#utility.yul\":1758:1791   */\n      tag_144\n        /* \"#utility.yul\":1786:1790   */\n      dup3\n        /* \"#utility.yul\":1778:1784   */\n      dup3\n        /* \"#utility.yul\":1758:1791   */\n      tag_95\n      jump\t// in\n    tag_144:\n        /* \"#utility.yul\":1668:1797   */\n      swap2\n      swap1\n      pop\n      jump\t// out\n        /* \"#utility.yul\":1803:2111   */\n    tag_97:\n        /* \"#utility.yul\":1865:1869   */\n      0x00\n        /* \"#utility.yul\":1955:1973   */\n      0xffffffffffffffff\n        /* \"#utility.yul\":1947:1953   */\n      dup3\n        /* \"#utility.yul\":1944:1974   */\n      gt\n        /* \"#utility.yul\":1941:1997   */\n      iszero\n      tag_146\n      jumpi\n        /* \"#utility.yul\":1977:1995   */\n      tag_147\n      tag_94\n      jump\t// in\n    tag_147:\n        /* \"#utility.yul\":1941:1997   */\n    tag_146:\n        /* \"#utility.yul\":2015:2044   */\n      tag_148\n        /* \"#utility.yul\":2037:2043   */\n      dup3\n        /* \"#utility.yul\":2015:2044   */\n      tag_93\n      jump\t// in\n    tag_148:\n        /* \"#utility.yul\":2007:2044   */\n      swap1\n      pop\n        /* \"#utility.yul\":2099:2103   */\n      0x20\n        /* \"#utility.yul\":2093:2097   */\n      dup2\n        /* \"#utility.yul\":2089:2104   */\n      add\n        /* \"#utility.yul\":2081:2104   */\n      swap1\n      pop\n        /* \"#utility.yul\":1803:2111   */\n      swap2\n      swap1\n      pop\n      jump\t// out\n        /* \"#utility.yul\":2117:2271   */\n    tag_98:\n        /* \"#utility.yul\":2201:2207   */\n      dup3\n        /* \"#utility.yul\":2196:2199   */\n      dup2\n        /* \"#utility.yul\":2191:2194   */\n      dup4\n        /* \"#utility.yul\":2178:2208   */\n      calldatacopy\n        /* \"#utility.yul\":2263:2264   */\n      0x00\n        /* \"#utility.yul\":2254:2260   */\n      dup4\n        /* \"#utility.yul\":2249:2252   */\n      dup4\n        /* \"#utility.yul\":2245:2261   */\n      add\n        /* \"#utility.yul\":2238:2265   */\n      mstore\n        /* \"#utility.yul\":2117:2271   */\n      pop\n      pop\n      pop\n      jump\t// out\n        /* \"#utility.yul\":2277:2689   */\n    tag_99:\n        /* \"#utility.yul\":2355:2360   */\n      0x00\n        /* \"#utility.yul\":2380:2446   */\n      tag_151\n        /* \"#utility.yul\":2396:2445   */\n      tag_152\n        /* \"#utility.yul\":2438:2444   */\n      dup5\n        /* \"#utility.yul\":2396:2445   */\n      tag_97\n      jump\t// in\n    tag_152:\n        /* \"#utility.yul\":2380:2446   */\n      tag_96\n      jump\t// in\n    tag_151:\n        /* \"#utility.yul\":2371:2446   */\n      swap1\n      pop\n        /* \"#utility.yul\":2469:2475   */\n      dup3\n        /* \"#utility.yul\":2462:2467   */\n      dup2\n        /* \"#utility.yul\":2455:2476   */\n      mstore\n        /* \"#utility.yul\":2507:2511   */\n      0x20\n        /* \"#utility.yul\":2500:2505   */\n      dup2\n        /* \"#utility.yul\":2496:2512   */\n      add\n        /* \"#utility.yul\":2545:2548   */\n      dup5\n        /* \"#utility.yul\":2536:2542   */\n      dup5\n        /* \"#utility.yul\":2531:2534   */\n      dup5\n        /* \"#utility.yul\":2527:2543   */\n      add\n        /* \"#utility.yul\":2524:2549   */\n      gt\n        /* \"#utility.yul\":2521:2633   */\n      iszero\n      tag_153\n      jumpi\n        /* \"#utility.yul\":2552:2631   */\n      tag_154\n      tag_92\n      jump\t// in\n    tag_154:\n        /* \"#utility.yul\":2521:2633   */\n    tag_153:\n        /* \"#utility.yul\":2642:2683   */\n      tag_155\n        /* \"#utility.yul\":2676:2682   */\n      dup5\n        /* \"#utility.yul\":2671:2674   */\n      dup3\n        /* \"#utility.yul\":2666:2669   */\n      dup6\n        /* \"#utility.yul\":2642:2683   */\n      tag_98\n      jump\t// in\n    tag_155:\n        /* \"#utility.yul\":2361:2689   */\n      pop\n        /* \"#utility.yul\":2277:2689   */\n      swap4\n      swap3\n      pop\n      pop\n      pop\n      jump\t// out\n        /* \"#utility.yul\":2709:3049   */\n    tag_100:\n        /* \"#utility.yul\":2765:2770   */\n      0x00\n        /* \"#utility.yul\":2814:2817   */\n      dup3\n        /* \"#utility.yul\":2807:2811   */\n      0x1f\n        /* \"#utility.yul\":2799:2805   */\n      dup4\n        /* \"#utility.yul\":2795:2812   */\n      add\n        /* \"#utility.yul\":2791:2818   */\n      slt\n        /* \"#utility.yul\":2781:2903   */\n      tag_157\n      jumpi\n        /* \"#utility.yul\":2822:2901   */\n      tag_158\n      tag_91\n      jump\t// in\n    tag_158:\n        /* \"#utility.yul\":2781:2903   */\n    tag_157:\n        /* \"#utility.yul\":2939:2945   */\n      dup2\n        /* \"#utility.yul\":2926:2946   */\n      calldataload\n        /* \"#utility.yul\":2964:3043   */\n      tag_159\n        /* \"#utility.yul\":3039:3042   */\n      dup5\n        /* \"#utility.yul\":3031:3037   */\n      dup3\n        /* \"#utility.yul\":3024:3028   */\n      0x20\n        /* \"#utility.yul\":3016:3022   */\n      dup7\n        /* \"#utility.yul\":3012:3029   */\n      add\n        /* \"#utility.yul\":2964:3043   */\n      tag_99\n      jump\t// in\n    tag_159:\n        /* \"#utility.yul\":2955:3043   */\n      swap2\n      pop\n        /* \"#utility.yul\":2771:3049   */\n      pop\n        /* \"#utility.yul\":2709:3049   */\n      swap3\n      swap2\n      pop\n      pop\n      jump\t// out\n        /* \"#utility.yul\":3055:3132   */\n    tag_101:\n        /* \"#utility.yul\":3092:3099   */\n      0x00\n        /* \"#utility.yul\":3121:3126   */\n      dup2\n        /* \"#utility.yul\":3110:3126   */\n      swap1\n      pop\n        /* \"#utility.yul\":3055:3132   */\n      swap2\n      swap1\n      pop\n      jump\t// out\n        /* \"#utility.yul\":3138:3260   */\n    tag_102:\n        /* \"#utility.yul\":3211:3235   */\n      tag_162\n        /* \"#utility.yul\":3229:3234   */\n      dup2\n        /* \"#utility.yul\":3211:3235   */\n      tag_101\n      jump\t// in\n    tag_162:\n        /* \"#utility.yul\":3204:3209   */\n      dup2\n        /* \"#utility.yul\":3201:3236   */\n      eq\n        /* \"#utility.yul\":3191:3254   */\n      tag_163\n      jumpi\n        /* \"#utility.yul\":3250:3251   */\n      0x00\n        /* \"#utility.yul\":3247:3248   */\n      dup1\n        /* \"#utility.yul\":3240:3252   */\n      revert\n        /* \"#utility.yul\":3191:3254   */\n    tag_163:\n        /* \"#utility.yul\":3138:3260   */\n      pop\n      jump\t// out\n        /* \"#utility.yul\":3266:3405   */\n    tag_103:\n        /* \"#utility.yul\":3312:3317   */\n      0x00\n        /* \"#utility.yul\":3350:3356   */\n      dup2\n        /* \"#utility.yul\":3337:3357   */\n      calldataload\n        /* \"#utility.yul\":3328:3357   */\n      swap1\n      pop\n        /* \"#utility.yul\":3366:3399   */\n      tag_165\n        /* \"#utility.yul\":3393:3398   */\n      dup2\n        /* \"#utility.yul\":3366:3399   */\n      tag_102\n      jump\t// in\n    tag_165:\n        /* \"#utility.yul\":3266:3405   */\n      swap3\n      swap2\n      pop\n      pop\n      jump\t// out\n        /* \"#utility.yul\":3411:4210   */\n    tag_12:\n        /* \"#utility.yul\":3498:3504   */\n      0x00\n        /* \"#utility.yul\":3506:3512   */\n      dup1\n        /* \"#utility.yul\":3514:3520   */\n      0x00\n        /* \"#utility.yul\":3563:3565   */\n      0x60\n        /* \"#utility.yul\":3551:3560   */\n      dup5\n        /* \"#utility.yul\":3542:3549   */\n      dup7\n        /* \"#utility.yul\":3538:3561   */\n      sub\n        /* \"#utility.yul\":3534:3566   */\n      slt\n        /* \"#utility.yul\":3531:3650   */\n      iszero\n      tag_167\n      jumpi\n        /* \"#utility.yul\":3569:3648   */\n      tag_168\n      tag_85\n      jump\t// in\n    tag_168:\n        /* \"#utility.yul\":3531:3650   */\n    tag_167:\n        /* \"#utility.yul\":3689:3690   */\n      0x00\n        /* \"#utility.yul\":3714:3767   */\n      tag_169\n        /* \"#utility.yul\":3759:3766   */\n      dup7\n        /* \"#utility.yul\":3750:3756   */\n      dup3\n        /* \"#utility.yul\":3739:3748   */\n      dup8\n        /* \"#utility.yul\":3735:3757   */\n      add\n        /* \"#utility.yul\":3714:3767   */\n      tag_90\n      jump\t// in\n    tag_169:\n        /* \"#utility.yul\":3704:3767   */\n      swap4\n      pop\n        /* \"#utility.yul\":3660:3777   */\n      pop\n        /* \"#utility.yul\":3844:3846   */\n      0x20\n        /* \"#utility.yul\":3833:3842   */\n      dup5\n        /* \"#utility.yul\":3829:3847   */\n      add\n        /* \"#utility.yul\":3816:3848   */\n      calldataload\n        /* \"#utility.yul\":3875:3893   */\n      0xffffffffffffffff\n        /* \"#utility.yul\":3867:3873   */\n      dup2\n        /* \"#utility.yul\":3864:3894   */\n      gt\n        /* \"#utility.yul\":3861:3978   */\n      iszero\n      tag_170\n      jumpi\n        /* \"#utility.yul\":3897:3976   */\n      tag_171\n      tag_86\n      jump\t// in\n    tag_171:\n        /* \"#utility.yul\":3861:3978   */\n    tag_170:\n        /* \"#utility.yul\":4002:4065   */\n      tag_172\n        /* \"#utility.yul\":4057:4064   */\n      dup7\n        /* \"#utility.yul\":4048:4054   */\n      dup3\n        /* \"#utility.yul\":4037:4046   */\n      dup8\n        /* \"#utility.yul\":4033:4055   */\n      add\n        /* \"#utility.yul\":4002:4065   */\n      tag_100\n      jump\t// in\n    tag_172:\n        /* \"#utility.yul\":3992:4065   */\n      swap3\n      pop\n        /* \"#utility.yul\":3787:4075   */\n      pop\n        /* \"#utility.yul\":4114:4116   */\n      0x40\n        /* \"#utility.yul\":4140:4193   */\n      tag_173\n        /* \"#utility.yul\":4185:4192   */\n      dup7\n        /* \"#utility.yul\":4176:4182   */\n      dup3\n        /* \"#utility.yul\":4165:4174   */\n      dup8\n        /* \"#utility.yul\":4161:4183   */\n      add\n        /* \"#utility.yul\":4140:4193   */\n      tag_103\n      jump\t// in\n    tag_173:\n        /* \"#utility.yul\":4130:4193   */\n      swap2\n      pop\n        /* \"#utility.yul\":4085:4203   */\n      pop\n        /* \"#utility.yul\":3411:4210   */\n      swap3\n      pop\n      swap3\n      pop\n      swap3\n      jump\t// out\n        /* \"#utility.yul\":4216:4334   */\n    tag_104:\n        /* \"#utility.yul\":4303:4327   */\n      tag_175\n        /* \"#utility.yul\":4321:4326   */\n      dup2\n        /* \"#utility.yul\":4303:4327   */\n      tag_101\n      jump\t// in\n    tag_175:\n        /* \"#utility.yul\":4298:4301   */\n      dup3\n        /* \"#utility.yul\":4291:4328   */\n      mstore\n        /* \"#utility.yul\":4216:4334   */\n      pop\n      pop\n      jump\t// out\n        /* \"#utility.yul\":4340:4562   */\n    tag_18:\n        /* \"#utility.yul\":4433:4437   */\n      0x00\n        /* \"#utility.yul\":4471:4473   */\n      0x20\n        /* \"#utility.yul\":4460:4469   */\n      dup3\n        /* \"#utility.yul\":4456:4474   */\n      add\n        /* \"#utility.yul\":4448:4474   */\n      swap1\n      pop\n        /* \"#utility.yul\":4484:4555   */\n      tag_177\n        /* \"#utility.yul\":4552:4553   */\n      0x00\n        /* \"#utility.yul\":4541:4550   */\n      dup4\n        /* \"#utility.yul\":4537:4554   */\n      add\n        /* \"#utility.yul\":4528:4534   */\n      dup5\n        /* \"#utility.yul\":4484:4555   */\n      tag_104\n      jump\t// in\n    tag_177:\n        /* \"#utility.yul\":4340:4562   */\n      swap3\n      swap2\n      pop\n      pop\n      jump\t// out\n        /* \"#utility.yul\":4568:4645   */\n    tag_105:\n        /* \"#utility.yul\":4605:4612   */\n      0x00\n        /* \"#utility.yul\":4634:4639   */\n      dup2\n        /* \"#utility.yul\":4623:4639   */\n      swap1\n      pop\n        /* \"#utility.yul\":4568:4645   */\n      swap2\n      swap1\n      pop\n      jump\t// out\n        /* \"#utility.yul\":4651:4773   */\n    tag_106:\n        /* \"#utility.yul\":4724:4748   */\n      tag_180\n        /* \"#utility.yul\":4742:4747   */\n      dup2\n        /* \"#utility.yul\":4724:4748   */\n      tag_105\n      jump\t// in\n    tag_180:\n        /* \"#utility.yul\":4717:4722   */\n      dup2\n        /* \"#utility.yul\":4714:4749   */\n      eq\n        /* \"#utility.yul\":4704:4767   */\n      tag_181\n      jumpi\n        /* \"#utility.yul\":4763:4764   */\n      0x00\n        /* \"#utility.yul\":4760:4761   */\n      dup1\n        /* \"#utility.yul\":4753:4765   */\n      revert\n        /* \"#utility.yul\":4704:4767   */\n    tag_181:\n        /* \"#utility.yul\":4651:4773   */\n      pop\n      jump\t// out\n        /* \"#utility.yul\":4779:4918   */\n    tag_107:\n        /* \"#utility.yul\":4825:4830   */\n      0x00\n        /* \"#utility.yul\":4863:4869   */\n      dup2\n        /* \"#utility.yul\":4850:4870   */\n      calldataload\n        /* \"#utility.yul\":4841:4870   */\n      swap1\n      pop\n        /* \"#utility.yul\":4879:4912   */\n      tag_183\n        /* \"#utility.yul\":4906:4911   */\n      dup2\n        /* \"#utility.yul\":4879:4912   */\n      tag_106\n      jump\t// in\n    tag_183:\n        /* \"#utility.yul\":4779:4918   */\n      swap3\n      swap2\n      pop\n      pop\n      jump\t// out\n        /* \"#utility.yul\":4924:5253   */\n    tag_22:\n        /* \"#utility.yul\":4983:4989   */\n      0x00\n        /* \"#utility.yul\":5032:5034   */\n      0x20\n        /* \"#utility.yul\":5020:5029   */\n      dup3\n        /* \"#utility.yul\":5011:5018   */\n      dup5\n        /* \"#utility.yul\":5007:5030   */\n      sub\n        /* \"#utility.yul\":5003:5035   */\n      slt\n        /* \"#utility.yul\":5000:5119   */\n      iszero\n      tag_185\n      jumpi\n        /* \"#utility.yul\":5038:5117   */\n      tag_186\n      tag_85\n      jump\t// in\n    tag_186:\n        /* \"#utility.yul\":5000:5119   */\n    tag_185:\n        /* \"#utility.yul\":5158:5159   */\n      0x00\n        /* \"#utility.yul\":5183:5236   */\n      tag_187\n        /* \"#utility.yul\":5228:5235   */\n      dup5\n        /* \"#utility.yul\":5219:5225   */\n      dup3\n        /* \"#utility.yul\":5208:5217   */\n      dup6\n        /* \"#utility.yul\":5204:5226   */\n      add\n        /* \"#utility.yul\":5183:5236   */\n      tag_107\n      jump\t// in\n    tag_187:\n        /* \"#utility.yul\":5173:5236   */\n      swap2\n      pop\n        /* \"#utility.yul\":5129:5246   */\n      pop\n        /* \"#utility.yul\":4924:5253   */\n      swap3\n      swap2\n      pop\n      pop\n      jump\t// out\n        /* \"#utility.yul\":5259:5377   */\n    tag_108:\n        /* \"#utility.yul\":5346:5370   */\n      tag_189\n        /* \"#utility.yul\":5364:5369   */\n      dup2\n        /* \"#utility.yul\":5346:5370   */\n      tag_88\n      jump\t// in\n    tag_189:\n        /* \"#utility.yul\":5341:5344   */\n      dup3\n        /* \"#utility.yul\":5334:5371   */\n      mstore\n        /* \"#utility.yul\":5259:5377   */\n      pop\n      pop\n      jump\t// out\n        /* \"#utility.yul\":5383:5482   */\n    tag_109:\n        /* \"#utility.yul\":5435:5441   */\n      0x00\n        /* \"#utility.yul\":5469:5474   */\n      dup2\n        /* \"#utility.yul\":5463:5475   */\n      mload\n        /* \"#utility.yul\":5453:5475   */\n      swap1\n      pop\n        /* \"#utility.yul\":5383:5482   */\n      swap2\n      swap1\n      pop\n      jump\t// out\n        /* \"#utility.yul\":5488:5657   */\n    tag_110:\n        /* \"#utility.yul\":5572:5583   */\n      0x00\n        /* \"#utility.yul\":5606:5612   */\n      dup3\n        /* \"#utility.yul\":5601:5604   */\n      dup3\n        /* \"#utility.yul\":5594:5613   */\n      mstore\n        /* \"#utility.yul\":5646:5650   */\n      0x20\n        /* \"#utility.yul\":5641:5644   */\n      dup3\n        /* \"#utility.yul\":5637:5651   */\n      add\n        /* \"#utility.yul\":5622:5651   */\n      swap1\n      pop\n        /* \"#utility.yul\":5488:5657   */\n      swap3\n      swap2\n      pop\n      pop\n      jump\t// out\n        /* \"#utility.yul\":5663:5970   */\n    tag_111:\n        /* \"#utility.yul\":5731:5732   */\n      0x00\n        /* \"#utility.yul\":5741:5854   */\n    tag_193:\n        /* \"#utility.yul\":5755:5761   */\n      dup4\n        /* \"#utility.yul\":5752:5753   */\n      dup2\n        /* \"#utility.yul\":5749:5762   */\n      lt\n        /* \"#utility.yul\":5741:5854   */\n      iszero\n      tag_195\n      jumpi\n        /* \"#utility.yul\":5840:5841   */\n      dup1\n        /* \"#utility.yul\":5835:5838   */\n      dup3\n        /* \"#utility.yul\":5831:5842   */\n      add\n        /* \"#utility.yul\":5825:5843   */\n      mload\n        /* \"#utility.yul\":5821:5822   */\n      dup2\n        /* \"#utility.yul\":5816:5819   */\n      dup5\n        /* \"#utility.yul\":5812:5823   */\n      add\n        /* \"#utility.yul\":5805:5844   */\n      mstore\n        /* \"#utility.yul\":5777:5779   */\n      0x20\n        /* \"#utility.yul\":5774:5775   */\n      dup2\n        /* \"#utility.yul\":5770:5780   */\n      add\n        /* \"#utility.yul\":5765:5780   */\n      swap1\n      pop\n        /* \"#utility.yul\":5741:5854   */\n      jump(tag_193)\n    tag_195:\n        /* \"#utility.yul\":5872:5878   */\n      dup4\n        /* \"#utility.yul\":5869:5870   */\n      dup2\n        /* \"#utility.yul\":5866:5879   */\n      gt\n        /* \"#utility.yul\":5863:5964   */\n      iszero\n      tag_196\n      jumpi\n        /* \"#utility.yul\":5952:5953   */\n      0x00\n        /* \"#utility.yul\":5943:5949   */\n      dup5\n        /* \"#utility.yul\":5938:5941   */\n      dup5\n        /* \"#utility.yul\":5934:5950   */\n      add\n        /* \"#utility.yul\":5927:5954   */\n      mstore\n        /* \"#utility.yul\":5863:5964   */\n    tag_196:\n        /* \"#utility.yul\":5712:5970   */\n      pop\n        /* \"#utility.yul\":5663:5970   */\n      pop\n      pop\n      pop\n      jump\t// out\n        /* \"#utility.yul\":5976:6340   */\n    tag_112:\n        /* \"#utility.yul\":6064:6067   */\n      0x00\n        /* \"#utility.yul\":6092:6131   */\n      tag_198\n        /* \"#utility.yul\":6125:6130   */\n      dup3\n        /* \"#utility.yul\":6092:6131   */\n      tag_109\n      jump\t// in\n    tag_198:\n        /* \"#utility.yul\":6147:6218   */\n      tag_199\n        /* \"#utility.yul\":6211:6217   */\n      dup2\n        /* \"#utility.yul\":6206:6209   */\n      dup6\n        /* \"#utility.yul\":6147:6218   */\n      tag_110\n      jump\t// in\n    tag_199:\n        /* \"#utility.yul\":6140:6218   */\n      swap4\n      pop\n        /* \"#utility.yul\":6227:6279   */\n      tag_200\n        /* \"#utility.yul\":6272:6278   */\n      dup2\n        /* \"#utility.yul\":6267:6270   */\n      dup6\n        /* \"#utility.yul\":6260:6264   */\n      0x20\n        /* \"#utility.yul\":6253:6258   */\n      dup7\n        /* \"#utility.yul\":6249:6265   */\n      add\n        /* \"#utility.yul\":6227:6279   */\n      tag_111\n      jump\t// in\n    tag_200:\n        /* \"#utility.yul\":6304:6333   */\n      tag_201\n        /* \"#utility.yul\":6326:6332   */\n      dup2\n        /* \"#utility.yul\":6304:6333   */\n      tag_93\n      jump\t// in\n    tag_201:\n        /* \"#utility.yul\":6299:6302   */\n      dup5\n        /* \"#utility.yul\":6295:6334   */\n      add\n        /* \"#utility.yul\":6288:6334   */\n      swap2\n      pop\n        /* \"#utility.yul\":6068:6340   */\n      pop\n        /* \"#utility.yul\":5976:6340   */\n      swap3\n      swap2\n      pop\n      pop\n      jump\t// out\n        /* \"#utility.yul\":6346:6464   */\n    tag_113:\n        /* \"#utility.yul\":6433:6457   */\n      tag_203\n        /* \"#utility.yul\":6451:6456   */\n      dup2\n        /* \"#utility.yul\":6433:6457   */\n      tag_105\n      jump\t// in\n    tag_203:\n        /* \"#utility.yul\":6428:6431   */\n      dup3\n        /* \"#utility.yul\":6421:6458   */\n      mstore\n        /* \"#utility.yul\":6346:6464   */\n      pop\n      pop\n      jump\t// out\n        /* \"#utility.yul\":6470:7114   */\n    tag_25:\n        /* \"#utility.yul\":6667:6671   */\n      0x00\n        /* \"#utility.yul\":6705:6708   */\n      0x80\n        /* \"#utility.yul\":6694:6703   */\n      dup3\n        /* \"#utility.yul\":6690:6709   */\n      add\n        /* \"#utility.yul\":6682:6709   */\n      swap1\n      pop\n        /* \"#utility.yul\":6719:6790   */\n      tag_205\n        /* \"#utility.yul\":6787:6788   */\n      0x00\n        /* \"#utility.yul\":6776:6785   */\n      dup4\n        /* \"#utility.yul\":6772:6789   */\n      add\n        /* \"#utility.yul\":6763:6769   */\n      dup8\n        /* \"#utility.yul\":6719:6790   */\n      tag_108\n      jump\t// in\n    tag_205:\n        /* \"#utility.yul\":6837:6846   */\n      dup2\n        /* \"#utility.yul\":6831:6835   */\n      dup2\n        /* \"#utility.yul\":6827:6847   */\n      sub\n        /* \"#utility.yul\":6822:6824   */\n      0x20\n        /* \"#utility.yul\":6811:6820   */\n      dup4\n        /* \"#utility.yul\":6807:6825   */\n      add\n        /* \"#utility.yul\":6800:6848   */\n      mstore\n        /* \"#utility.yul\":6865:6943   */\n      tag_206\n        /* \"#utility.yul\":6938:6942   */\n      dup2\n        /* \"#utility.yul\":6929:6935   */\n      dup7\n        /* \"#utility.yul\":6865:6943   */\n      tag_112\n      jump\t// in\n    tag_206:\n        /* \"#utility.yul\":6857:6943   */\n      swap1\n      pop\n        /* \"#utility.yul\":6953:7025   */\n      tag_207\n        /* \"#utility.yul\":7021:7023   */\n      0x40\n        /* \"#utility.yul\":7010:7019   */\n      dup4\n        /* \"#utility.yul\":7006:7024   */\n      add\n        /* \"#utility.yul\":6997:7003   */\n      dup6\n        /* \"#utility.yul\":6953:7025   */\n      tag_108\n      jump\t// in\n    tag_207:\n        /* \"#utility.yul\":7035:7107   */\n      tag_208\n        /* \"#utility.yul\":7103:7105   */\n      0x60\n        /* \"#utility.yul\":7092:7101   */\n      dup4\n        /* \"#utility.yul\":7088:7106   */\n      add\n        /* \"#utility.yul\":7079:7085   */\n      dup5\n        /* \"#utility.yul\":7035:7107   */\n      tag_113\n      jump\t// in\n    tag_208:\n        /* \"#utility.yul\":6470:7114   */\n      swap6\n      swap5\n      pop\n      pop\n      pop\n      pop\n      pop\n      jump\t// out\n        /* \"#utility.yul\":7120:7774   */\n    tag_33:\n        /* \"#utility.yul\":7198:7204   */\n      0x00\n        /* \"#utility.yul\":7206:7212   */\n      dup1\n        /* \"#utility.yul\":7255:7257   */\n      0x40\n        /* \"#utility.yul\":7243:7252   */\n      dup4\n        /* \"#utility.yul\":7234:7241   */\n      dup6\n        /* \"#utility.yul\":7230:7253   */\n      sub\n        /* \"#utility.yul\":7226:7258   */\n      slt\n        /* \"#utility.yul\":7223:7342   */\n      iszero\n      tag_210\n      jumpi\n        /* \"#utility.yul\":7261:7340   */\n      tag_211\n      tag_85\n      jump\t// in\n    tag_211:\n        /* \"#utility.yul\":7223:7342   */\n    tag_210:\n        /* \"#utility.yul\":7381:7382   */\n      0x00\n        /* \"#utility.yul\":7406:7459   */\n      tag_212\n        /* \"#utility.yul\":7451:7458   */\n      dup6\n        /* \"#utility.yul\":7442:7448   */\n      dup3\n        /* \"#utility.yul\":7431:7440   */\n      dup7\n        /* \"#utility.yul\":7427:7449   */\n      add\n        /* \"#utility.yul\":7406:7459   */\n      tag_90\n      jump\t// in\n    tag_212:\n        /* \"#utility.yul\":7396:7459   */\n      swap3\n      pop\n        /* \"#utility.yul\":7352:7469   */\n      pop\n        /* \"#utility.yul\":7536:7538   */\n      0x20\n        /* \"#utility.yul\":7525:7534   */\n      dup4\n        /* \"#utility.yul\":7521:7539   */\n      add\n        /* \"#utility.yul\":7508:7540   */\n      calldataload\n        /* \"#utility.yul\":7567:7585   */\n      0xffffffffffffffff\n        /* \"#utility.yul\":7559:7565   */\n      dup2\n        /* \"#utility.yul\":7556:7586   */\n      gt\n        /* \"#utility.yul\":7553:7670   */\n      iszero\n      tag_213\n      jumpi\n        /* \"#utility.yul\":7589:7668   */\n      tag_214\n      tag_86\n      jump\t// in\n    tag_214:\n        /* \"#utility.yul\":7553:7670   */\n    tag_213:\n        /* \"#utility.yul\":7694:7757   */\n      tag_215\n        /* \"#utility.yul\":7749:7756   */\n      dup6\n        /* \"#utility.yul\":7740:7746   */\n      dup3\n        /* \"#utility.yul\":7729:7738   */\n      dup7\n        /* \"#utility.yul\":7725:7747   */\n      add\n        /* \"#utility.yul\":7694:7757   */\n      tag_100\n      jump\t// in\n    tag_215:\n        /* \"#utility.yul\":7684:7757   */\n      swap2\n      pop\n        /* \"#utility.yul\":7479:7767   */\n      pop\n        /* \"#utility.yul\":7120:7774   */\n      swap3\n      pop\n      swap3\n      swap1\n      pop\n      jump\t// out\n        /* \"#utility.yul\":7780:7840   */\n    tag_114:\n        /* \"#utility.yul\":7808:7811   */\n      0x00\n        /* \"#utility.yul\":7829:7834   */\n      dup2\n        /* \"#utility.yul\":7822:7834   */\n      swap1\n      pop\n        /* \"#utility.yul\":7780:7840   */\n      swap2\n      swap1\n      pop\n      jump\t// out\n        /* \"#utility.yul\":7846:7988   */\n    tag_115:\n        /* \"#utility.yul\":7896:7905   */\n      0x00\n        /* \"#utility.yul\":7929:7982   */\n      tag_218\n        /* \"#utility.yul\":7947:7981   */\n      tag_219\n        /* \"#utility.yul\":7956:7980   */\n      tag_220\n        /* \"#utility.yul\":7974:7979   */\n      dup5\n        /* \"#utility.yul\":7956:7980   */\n      tag_87\n      jump\t// in\n    tag_220:\n        /* \"#utility.yul\":7947:7981   */\n      tag_114\n      jump\t// in\n    tag_219:\n        /* \"#utility.yul\":7929:7982   */\n      tag_87\n      jump\t// in\n    tag_218:\n        /* \"#utility.yul\":7916:7982   */\n      swap1\n      pop\n        /* \"#utility.yul\":7846:7988   */\n      swap2\n      swap1\n      pop\n      jump\t// out\n        /* \"#utility.yul\":7994:8120   */\n    tag_116:\n        /* \"#utility.yul\":8044:8053   */\n      0x00\n        /* \"#utility.yul\":8077:8114   */\n      tag_222\n        /* \"#utility.yul\":8108:8113   */\n      dup3\n        /* \"#utility.yul\":8077:8114   */\n      tag_115\n      jump\t// in\n    tag_222:\n        /* \"#utility.yul\":8064:8114   */\n      swap1\n      pop\n        /* \"#utility.yul\":7994:8120   */\n      swap2\n      swap1\n      pop\n      jump\t// out\n        /* \"#utility.yul\":8126:8262   */\n    tag_117:\n        /* \"#utility.yul\":8186:8195   */\n      0x00\n        /* \"#utility.yul\":8219:8256   */\n      tag_224\n        /* \"#utility.yul\":8250:8255   */\n      dup3\n        /* \"#utility.yul\":8219:8256   */\n      tag_116\n      jump\t// in\n    tag_224:\n        /* \"#utility.yul\":8206:8256   */\n      swap1\n      pop\n        /* \"#utility.yul\":8126:8262   */\n      swap2\n      swap1\n      pop\n      jump\t// out\n        /* \"#utility.yul\":8268:8419   */\n    tag_118:\n        /* \"#utility.yul\":8365:8412   */\n      tag_226\n        /* \"#utility.yul\":8406:8411   */\n      dup2\n        /* \"#utility.yul\":8365:8412   */\n      tag_117\n      jump\t// in\n    tag_226:\n        /* \"#utility.yul\":8360:8363   */\n      dup3\n        /* \"#utility.yul\":8353:8413   */\n      mstore\n        /* \"#utility.yul\":8268:8419   */\n      pop\n      pop\n      jump\t// out\n        /* \"#utility.yul\":8425:8667   */\n    tag_43:\n        /* \"#utility.yul\":8528:8532   */\n      0x00\n        /* \"#utility.yul\":8566:8568   */\n      0x20\n        /* \"#utility.yul\":8555:8564   */\n      dup3\n        /* \"#utility.yul\":8551:8569   */\n      add\n        /* \"#utility.yul\":8543:8569   */\n      swap1\n      pop\n        /* \"#utility.yul\":8579:8660   */\n      tag_228\n        /* \"#utility.yul\":8657:8658   */\n      0x00\n        /* \"#utility.yul\":8646:8655   */\n      dup4\n        /* \"#utility.yul\":8642:8659   */\n      add\n        /* \"#utility.yul\":8633:8639   */\n      dup5\n        /* \"#utility.yul\":8579:8660   */\n      tag_118\n      jump\t// in\n    tag_228:\n        /* \"#utility.yul\":8425:8667   */\n      swap3\n      swap2\n      pop\n      pop\n      jump\t// out\n        /* \"#utility.yul\":8673:9096   */\n    tag_48:\n        /* \"#utility.yul\":8814:8818   */\n      0x00\n        /* \"#utility.yul\":8852:8854   */\n      0x40\n        /* \"#utility.yul\":8841:8850   */\n      dup3\n        /* \"#utility.yul\":8837:8855   */\n      add\n        /* \"#utility.yul\":8829:8855   */\n      swap1\n      pop\n        /* \"#utility.yul\":8865:8936   */\n      tag_230\n        /* \"#utility.yul\":8933:8934   */\n      0x00\n        /* \"#utility.yul\":8922:8931   */\n      dup4\n        /* \"#utility.yul\":8918:8935   */\n      add\n        /* \"#utility.yul\":8909:8915   */\n      dup6\n        /* \"#utility.yul\":8865:8936   */\n      tag_108\n      jump\t// in\n    tag_230:\n        /* \"#utility.yul\":8983:8992   */\n      dup2\n        /* \"#utility.yul\":8977:8981   */\n      dup2\n        /* \"#utility.yul\":8973:8993   */\n      sub\n        /* \"#utility.yul\":8968:8970   */\n      0x20\n        /* \"#utility.yul\":8957:8966   */\n      dup4\n        /* \"#utility.yul\":8953:8971   */\n      add\n        /* \"#utility.yul\":8946:8994   */\n      mstore\n        /* \"#utility.yul\":9011:9089   */\n      tag_231\n        /* \"#utility.yul\":9084:9088   */\n      dup2\n        /* \"#utility.yul\":9075:9081   */\n      dup5\n        /* \"#utility.yul\":9011:9089   */\n      tag_112\n      jump\t// in\n    tag_231:\n        /* \"#utility.yul\":9003:9089   */\n      swap1\n      pop\n        /* \"#utility.yul\":8673:9096   */\n      swap4\n      swap3\n      pop\n      pop\n      pop\n      jump\t// out\n        /* \"#utility.yul\":9102:9282   */\n    tag_54:\n        /* \"#utility.yul\":9150:9227   */\n      0x4e487b7100000000000000000000000000000000000000000000000000000000\n        /* \"#utility.yul\":9147:9148   */\n      0x00\n        /* \"#utility.yul\":9140:9228   */\n      mstore\n        /* \"#utility.yul\":9247:9251   */\n      0x32\n        /* \"#utility.yul\":9244:9245   */\n      0x04\n        /* \"#utility.yul\":9237:9252   */\n      mstore\n        /* \"#utility.yul\":9271:9275   */\n      0x24\n        /* \"#utility.yul\":9268:9269   */\n      0x00\n        /* \"#utility.yul\":9261:9276   */\n      revert\n        /* \"#utility.yul\":9288:9431   */\n    tag_119:\n        /* \"#utility.yul\":9345:9350   */\n      0x00\n        /* \"#utility.yul\":9376:9382   */\n      dup2\n        /* \"#utility.yul\":9370:9383   */\n      mload\n        /* \"#utility.yul\":9361:9383   */\n      swap1\n      pop\n        /* \"#utility.yul\":9392:9425   */\n      tag_234\n        /* \"#utility.yul\":9419:9424   */\n      dup2\n        /* \"#utility.yul\":9392:9425   */\n      tag_89\n      jump\t// in\n    tag_234:\n        /* \"#utility.yul\":9288:9431   */\n      swap3\n      swap2\n      pop\n      pop\n      jump\t// out\n        /* \"#utility.yul\":9437:9788   */\n    tag_59:\n        /* \"#utility.yul\":9507:9513   */\n      0x00\n        /* \"#utility.yul\":9556:9558   */\n      0x20\n        /* \"#utility.yul\":9544:9553   */\n      dup3\n        /* \"#utility.yul\":9535:9542   */\n      dup5\n        /* \"#utility.yul\":9531:9554   */\n      sub\n        /* \"#utility.yul\":9527:9559   */\n      slt\n        /* \"#utility.yul\":9524:9643   */\n      iszero\n      tag_236\n      jumpi\n        /* \"#utility.yul\":9562:9641   */\n      tag_237\n      tag_85\n      jump\t// in\n    tag_237:\n        /* \"#utility.yul\":9524:9643   */\n    tag_236:\n        /* \"#utility.yul\":9682:9683   */\n      0x00\n        /* \"#utility.yul\":9707:9771   */\n      tag_238\n        /* \"#utility.yul\":9763:9770   */\n      dup5\n        /* \"#utility.yul\":9754:9760   */\n      dup3\n        /* \"#utility.yul\":9743:9752   */\n      dup6\n        /* \"#utility.yul\":9739:9761   */\n      add\n        /* \"#utility.yul\":9707:9771   */\n      tag_119\n      jump\t// in\n    tag_238:\n        /* \"#utility.yul\":9697:9771   */\n      swap2\n      pop\n        /* \"#utility.yul\":9653:9781   */\n      pop\n        /* \"#utility.yul\":9437:9788   */\n      swap3\n      swap2\n      pop\n      pop\n      jump\t// out\n        /* \"#utility.yul\":9794:10215   */\n    tag_120:\n        /* \"#utility.yul\":9883:9888   */\n      0x00\n        /* \"#utility.yul\":9908:9974   */\n      tag_240\n        /* \"#utility.yul\":9924:9973   */\n      tag_241\n        /* \"#utility.yul\":9966:9972   */\n      dup5\n        /* \"#utility.yul\":9924:9973   */\n      tag_97\n      jump\t// in\n    tag_241:\n        /* \"#utility.yul\":9908:9974   */\n      tag_96\n      jump\t// in\n    tag_240:\n        /* \"#utility.yul\":9899:9974   */\n      swap1\n      pop\n        /* \"#utility.yul\":9997:10003   */\n      dup3\n        /* \"#utility.yul\":9990:9995   */\n      dup2\n        /* \"#utility.yul\":9983:10004   */\n      mstore\n        /* \"#utility.yul\":10035:10039   */\n      0x20\n        /* \"#utility.yul\":10028:10033   */\n      dup2\n        /* \"#utility.yul\":10024:10040   */\n      add\n        /* \"#utility.yul\":10073:10076   */\n      dup5\n        /* \"#utility.yul\":10064:10070   */\n      dup5\n        /* \"#utility.yul\":10059:10062   */\n      dup5\n        /* \"#utility.yul\":10055:10071   */\n      add\n        /* \"#utility.yul\":10052:10077   */\n      gt\n        /* \"#utility.yul\":10049:10161   */\n      iszero\n      tag_242\n      jumpi\n        /* \"#utility.yul\":10080:10159   */\n      tag_243\n      tag_92\n      jump\t// in\n    tag_243:\n        /* \"#utility.yul\":10049:10161   */\n    tag_242:\n        /* \"#utility.yul\":10170:10209   */\n      tag_244\n        /* \"#utility.yul\":10202:10208   */\n      dup5\n        /* \"#utility.yul\":10197:10200   */\n      dup3\n        /* \"#utility.yul\":10192:10195   */\n      dup6\n        /* \"#utility.yul\":10170:10209   */\n      tag_111\n      jump\t// in\n    tag_244:\n        /* \"#utility.yul\":9889:10215   */\n      pop\n        /* \"#utility.yul\":9794:10215   */\n      swap4\n      swap3\n      pop\n      pop\n      pop\n      jump\t// out\n        /* \"#utility.yul\":10235:10590   */\n    tag_121:\n        /* \"#utility.yul\":10302:10307   */\n      0x00\n        /* \"#utility.yul\":10351:10354   */\n      dup3\n        /* \"#utility.yul\":10344:10348   */\n      0x1f\n        /* \"#utility.yul\":10336:10342   */\n      dup4\n        /* \"#utility.yul\":10332:10349   */\n      add\n        /* \"#utility.yul\":10328:10355   */\n      slt\n        /* \"#utility.yul\":10318:10440   */\n      tag_246\n      jumpi\n        /* \"#utility.yul\":10359:10438   */\n      tag_247\n      tag_91\n      jump\t// in\n    tag_247:\n        /* \"#utility.yul\":10318:10440   */\n    tag_246:\n        /* \"#utility.yul\":10469:10475   */\n      dup2\n        /* \"#utility.yul\":10463:10476   */\n      mload\n        /* \"#utility.yul\":10494:10584   */\n      tag_248\n        /* \"#utility.yul\":10580:10583   */\n      dup5\n        /* \"#utility.yul\":10572:10578   */\n      dup3\n        /* \"#utility.yul\":10565:10569   */\n      0x20\n        /* \"#utility.yul\":10557:10563   */\n      dup7\n        /* \"#utility.yul\":10553:10570   */\n      add\n        /* \"#utility.yul\":10494:10584   */\n      tag_120\n      jump\t// in\n    tag_248:\n        /* \"#utility.yul\":10485:10584   */\n      swap2\n      pop\n        /* \"#utility.yul\":10308:10590   */\n      pop\n        /* \"#utility.yul\":10235:10590   */\n      swap3\n      swap2\n      pop\n      pop\n      jump\t// out\n        /* \"#utility.yul\":10596:11120   */\n    tag_63:\n        /* \"#utility.yul\":10676:10682   */\n      0x00\n        /* \"#utility.yul\":10725:10727   */\n      0x20\n        /* \"#utility.yul\":10713:10722   */\n      dup3\n        /* \"#utility.yul\":10704:10711   */\n      dup5\n        /* \"#utility.yul\":10700:10723   */\n      sub\n        /* \"#utility.yul\":10696:10728   */\n      slt\n        /* \"#utility.yul\":10693:10812   */\n      iszero\n      tag_250\n      jumpi\n        /* \"#utility.yul\":10731:10810   */\n      tag_251\n      tag_85\n      jump\t// in\n    tag_251:\n        /* \"#utility.yul\":10693:10812   */\n    tag_250:\n        /* \"#utility.yul\":10872:10873   */\n      0x00\n        /* \"#utility.yul\":10861:10870   */\n      dup3\n        /* \"#utility.yul\":10857:10874   */\n      add\n        /* \"#utility.yul\":10851:10875   */\n      mload\n        /* \"#utility.yul\":10902:10920   */\n      0xffffffffffffffff\n        /* \"#utility.yul\":10894:10900   */\n      dup2\n        /* \"#utility.yul\":10891:10921   */\n      gt\n        /* \"#utility.yul\":10888:11005   */\n      iszero\n      tag_252\n      jumpi\n        /* \"#utility.yul\":10924:11003   */\n      tag_253\n      tag_86\n      jump\t// in\n    tag_253:\n        /* \"#utility.yul\":10888:11005   */\n    tag_252:\n        /* \"#utility.yul\":11029:11103   */\n      tag_254\n        /* \"#utility.yul\":11095:11102   */\n      dup5\n        /* \"#utility.yul\":11086:11092   */\n      dup3\n        /* \"#utility.yul\":11075:11084   */\n      dup6\n        /* \"#utility.yul\":11071:11093   */\n      add\n        /* \"#utility.yul\":11029:11103   */\n      tag_121\n      jump\t// in\n    tag_254:\n        /* \"#utility.yul\":11019:11103   */\n      swap2\n      pop\n        /* \"#utility.yul\":10822:11113   */\n      pop\n        /* \"#utility.yul\":10596:11120   */\n      swap3\n      swap2\n      pop\n      pop\n      jump\t// out\n    stop\n\n    sub_0: assembly {\n            /* \"CreateConOtherConExam.sol\":62:344  contract Car {... */\n          mstore(0x40, 0x80)\n            /* \"CreateConOtherConExam.sol\":168:341  constructor(address _owner, string memory _model) payable {... */\n          mload(0x40)\n          sub(codesize, bytecodeSize)\n          dup1\n          bytecodeSize\n          dup4\n          codecopy\n          dup2\n          dup2\n          add\n          0x40\n          mstore\n          dup2\n          add\n          swap1\n          tag_1\n          swap2\n          swap1\n          tag_2\n          jump\t// in\n        tag_1:\n            /* \"CreateConOtherConExam.sol\":245:251  _owner */\n          dup2\n            /* \"CreateConOtherConExam.sol\":237:242  owner */\n          0x00\n          dup1\n            /* \"CreateConOtherConExam.sol\":237:251  owner = _owner */\n          0x0100\n          exp\n          dup2\n          sload\n          dup2\n          0xffffffffffffffffffffffffffffffffffffffff\n          mul\n          not\n          and\n          swap1\n          dup4\n          0xffffffffffffffffffffffffffffffffffffffff\n          and\n          mul\n          or\n          swap1\n          sstore\n          pop\n            /* \"CreateConOtherConExam.sol\":270:276  _model */\n          dup1\n            /* \"CreateConOtherConExam.sol\":262:267  model */\n          0x01\n            /* \"CreateConOtherConExam.sol\":262:276  model = _model */\n          swap1\n          dup1\n          mload\n          swap1\n          0x20\n          add\n          swap1\n          tag_5\n          swap3\n          swap2\n          swap1\n          tag_6\n          jump\t// in\n        tag_5:\n          pop\n            /* \"CreateConOtherConExam.sol\":305:315  msg.sender */\n          caller\n            /* \"CreateConOtherConExam.sol\":287:294  carAddr */\n          0x02\n          0x00\n            /* \"CreateConOtherConExam.sol\":287:316  carAddr = address(msg.sender) */\n          0x0100\n          exp\n          dup2\n          sload\n          dup2\n          0xffffffffffffffffffffffffffffffffffffffff\n          mul\n          not\n          and\n          swap1\n          dup4\n          0xffffffffffffffffffffffffffffffffffffffff\n          and\n          mul\n          or\n          swap1\n          sstore\n          pop\n            /* \"CreateConOtherConExam.sol\":168:341  constructor(address _owner, string memory _model) payable {... */\n          pop\n          pop\n            /* \"CreateConOtherConExam.sol\":62:344  contract Car {... */\n          jump(tag_7)\n        tag_6:\n          dup3\n          dup1\n          sload\n          tag_8\n          swap1\n          tag_9\n          jump\t// in\n        tag_8:\n          swap1\n          0x00\n          mstore\n          keccak256(0x00, 0x20)\n          swap1\n          0x1f\n          add\n          0x20\n          swap1\n          div\n          dup2\n          add\n          swap3\n          dup3\n          tag_11\n          jumpi\n          0x00\n          dup6\n          sstore\n          jump(tag_10)\n        tag_11:\n          dup3\n          0x1f\n          lt\n          tag_12\n          jumpi\n          dup1\n          mload\n          not(0xff)\n          and\n          dup4\n          dup1\n          add\n          or\n          dup6\n          sstore\n          jump(tag_10)\n        tag_12:\n          dup3\n          dup1\n          add\n          0x01\n          add\n          dup6\n          sstore\n          dup3\n          iszero\n          tag_10\n          jumpi\n          swap2\n          dup3\n          add\n        tag_13:\n          dup3\n          dup2\n          gt\n          iszero\n          tag_14\n          jumpi\n          dup3\n          mload\n          dup3\n          sstore\n          swap2\n          0x20\n          add\n          swap2\n          swap1\n          0x01\n          add\n          swap1\n          jump(tag_13)\n        tag_14:\n        tag_10:\n          pop\n          swap1\n          pop\n          tag_15\n          swap2\n          swap1\n          tag_16\n          jump\t// in\n        tag_15:\n          pop\n          swap1\n          jump\t// out\n        tag_16:\n        tag_17:\n          dup1\n          dup3\n          gt\n          iszero\n          tag_18\n          jumpi\n          0x00\n          dup2\n          0x00\n          swap1\n          sstore\n          pop\n          0x01\n          add\n          jump(tag_17)\n        tag_18:\n          pop\n          swap1\n          jump\t// out\n            /* \"#utility.yul\":7:82   */\n        tag_19:\n            /* \"#utility.yul\":40:46   */\n          0x00\n            /* \"#utility.yul\":73:75   */\n          0x40\n            /* \"#utility.yul\":67:76   */\n          mload\n            /* \"#utility.yul\":57:76   */\n          swap1\n          pop\n            /* \"#utility.yul\":7:82   */\n          swap1\n          jump\t// out\n            /* \"#utility.yul\":88:205   */\n        tag_20:\n            /* \"#utility.yul\":197:198   */\n          0x00\n            /* \"#utility.yul\":194:195   */\n          dup1\n            /* \"#utility.yul\":187:199   */\n          revert\n            /* \"#utility.yul\":211:328   */\n        tag_21:\n            /* \"#utility.yul\":320:321   */\n          0x00\n            /* \"#utility.yul\":317:318   */\n          dup1\n            /* \"#utility.yul\":310:322   */\n          revert\n            /* \"#utility.yul\":334:460   */\n        tag_22:\n            /* \"#utility.yul\":371:378   */\n          0x00\n            /* \"#utility.yul\":411:453   */\n          0xffffffffffffffffffffffffffffffffffffffff\n            /* \"#utility.yul\":404:409   */\n          dup3\n            /* \"#utility.yul\":400:454   */\n          and\n            /* \"#utility.yul\":389:454   */\n          swap1\n          pop\n            /* \"#utility.yul\":334:460   */\n          swap2\n          swap1\n          pop\n          jump\t// out\n            /* \"#utility.yul\":466:562   */\n        tag_23:\n            /* \"#utility.yul\":503:510   */\n          0x00\n            /* \"#utility.yul\":532:556   */\n          tag_43\n            /* \"#utility.yul\":550:555   */\n          dup3\n            /* \"#utility.yul\":532:556   */\n          tag_22\n          jump\t// in\n        tag_43:\n            /* \"#utility.yul\":521:556   */\n          swap1\n          pop\n            /* \"#utility.yul\":466:562   */\n          swap2\n          swap1\n          pop\n          jump\t// out\n            /* \"#utility.yul\":568:690   */\n        tag_24:\n            /* \"#utility.yul\":641:665   */\n          tag_45\n            /* \"#utility.yul\":659:664   */\n          dup2\n            /* \"#utility.yul\":641:665   */\n          tag_23\n          jump\t// in\n        tag_45:\n            /* \"#utility.yul\":634:639   */\n          dup2\n            /* \"#utility.yul\":631:666   */\n          eq\n            /* \"#utility.yul\":621:684   */\n          tag_46\n          jumpi\n            /* \"#utility.yul\":680:681   */\n          0x00\n            /* \"#utility.yul\":677:678   */\n          dup1\n            /* \"#utility.yul\":670:682   */\n          revert\n            /* \"#utility.yul\":621:684   */\n        tag_46:\n            /* \"#utility.yul\":568:690   */\n          pop\n          jump\t// out\n            /* \"#utility.yul\":696:839   */\n        tag_25:\n            /* \"#utility.yul\":753:758   */\n          0x00\n            /* \"#utility.yul\":784:790   */\n          dup2\n            /* \"#utility.yul\":778:791   */\n          mload\n            /* \"#utility.yul\":769:791   */\n          swap1\n          pop\n            /* \"#utility.yul\":800:833   */\n          tag_48\n            /* \"#utility.yul\":827:832   */\n          dup2\n            /* \"#utility.yul\":800:833   */\n          tag_24\n          jump\t// in\n        tag_48:\n            /* \"#utility.yul\":696:839   */\n          swap3\n          swap2\n          pop\n          pop\n          jump\t// out\n            /* \"#utility.yul\":845:962   */\n        tag_26:\n            /* \"#utility.yul\":954:955   */\n          0x00\n            /* \"#utility.yul\":951:952   */\n          dup1\n            /* \"#utility.yul\":944:956   */\n          revert\n            /* \"#utility.yul\":968:1085   */\n        tag_27:\n            /* \"#utility.yul\":1077:1078   */\n          0x00\n            /* \"#utility.yul\":1074:1075   */\n          dup1\n            /* \"#utility.yul\":1067:1079   */\n          revert\n            /* \"#utility.yul\":1091:1193   */\n        tag_28:\n            /* \"#utility.yul\":1132:1138   */\n          0x00\n            /* \"#utility.yul\":1183:1185   */\n          0x1f\n            /* \"#utility.yul\":1179:1186   */\n          not\n            /* \"#utility.yul\":1174:1176   */\n          0x1f\n            /* \"#utility.yul\":1167:1172   */\n          dup4\n            /* \"#utility.yul\":1163:1177   */\n          add\n            /* \"#utility.yul\":1159:1187   */\n          and\n            /* \"#utility.yul\":1149:1187   */\n          swap1\n          pop\n            /* \"#utility.yul\":1091:1193   */\n          swap2\n          swap1\n          pop\n          jump\t// out\n            /* \"#utility.yul\":1199:1379   */\n        tag_29:\n            /* \"#utility.yul\":1247:1324   */\n          0x4e487b7100000000000000000000000000000000000000000000000000000000\n            /* \"#utility.yul\":1244:1245   */\n          0x00\n            /* \"#utility.yul\":1237:1325   */\n          mstore\n            /* \"#utility.yul\":1344:1348   */\n          0x41\n            /* \"#utility.yul\":1341:1342   */\n          0x04\n            /* \"#utility.yul\":1334:1349   */\n          mstore\n            /* \"#utility.yul\":1368:1372   */\n          0x24\n            /* \"#utility.yul\":1365:1366   */\n          0x00\n            /* \"#utility.yul\":1358:1373   */\n          revert\n            /* \"#utility.yul\":1385:1666   */\n        tag_30:\n            /* \"#utility.yul\":1468:1495   */\n          tag_54\n            /* \"#utility.yul\":1490:1494   */\n          dup3\n            /* \"#utility.yul\":1468:1495   */\n          tag_28\n          jump\t// in\n        tag_54:\n            /* \"#utility.yul\":1460:1466   */\n          dup2\n            /* \"#utility.yul\":1456:1496   */\n          add\n            /* \"#utility.yul\":1598:1604   */\n          dup2\n            /* \"#utility.yul\":1586:1596   */\n          dup2\n            /* \"#utility.yul\":1583:1605   */\n          lt\n            /* \"#utility.yul\":1562:1580   */\n          0xffffffffffffffff\n            /* \"#utility.yul\":1550:1560   */\n          dup3\n            /* \"#utility.yul\":1547:1581   */\n          gt\n            /* \"#utility.yul\":1544:1606   */\n          or\n            /* \"#utility.yul\":1541:1629   */\n          iszero\n          tag_55\n          jumpi\n            /* \"#utility.yul\":1609:1627   */\n          tag_56\n          tag_29\n          jump\t// in\n        tag_56:\n            /* \"#utility.yul\":1541:1629   */\n        tag_55:\n            /* \"#utility.yul\":1649:1659   */\n          dup1\n            /* \"#utility.yul\":1645:1647   */\n          0x40\n            /* \"#utility.yul\":1638:1660   */\n          mstore\n            /* \"#utility.yul\":1428:1666   */\n          pop\n            /* \"#utility.yul\":1385:1666   */\n          pop\n          pop\n          jump\t// out\n            /* \"#utility.yul\":1672:1801   */\n        tag_31:\n            /* \"#utility.yul\":1706:1712   */\n          0x00\n            /* \"#utility.yul\":1733:1753   */\n          tag_58\n          tag_19\n          jump\t// in\n        tag_58:\n            /* \"#utility.yul\":1723:1753   */\n          swap1\n          pop\n            /* \"#utility.yul\":1762:1795   */\n          tag_59\n            /* \"#utility.yul\":1790:1794   */\n          dup3\n            /* \"#utility.yul\":1782:1788   */\n          dup3\n            /* \"#utility.yul\":1762:1795   */\n          tag_30\n          jump\t// in\n        tag_59:\n            /* \"#utility.yul\":1672:1801   */\n          swap2\n          swap1\n          pop\n          jump\t// out\n            /* \"#utility.yul\":1807:2115   */\n        tag_32:\n            /* \"#utility.yul\":1869:1873   */\n          0x00\n            /* \"#utility.yul\":1959:1977   */\n          0xffffffffffffffff\n            /* \"#utility.yul\":1951:1957   */\n          dup3\n            /* \"#utility.yul\":1948:1978   */\n          gt\n            /* \"#utility.yul\":1945:2001   */\n          iszero\n          tag_61\n          jumpi\n            /* \"#utility.yul\":1981:1999   */\n          tag_62\n          tag_29\n          jump\t// in\n        tag_62:\n            /* \"#utility.yul\":1945:2001   */\n        tag_61:\n            /* \"#utility.yul\":2019:2048   */\n          tag_63\n            /* \"#utility.yul\":2041:2047   */\n          dup3\n            /* \"#utility.yul\":2019:2048   */\n          tag_28\n          jump\t// in\n        tag_63:\n            /* \"#utility.yul\":2011:2048   */\n          swap1\n          pop\n            /* \"#utility.yul\":2103:2107   */\n          0x20\n            /* \"#utility.yul\":2097:2101   */\n          dup2\n            /* \"#utility.yul\":2093:2108   */\n          add\n            /* \"#utility.yul\":2085:2108   */\n          swap1\n          pop\n            /* \"#utility.yul\":1807:2115   */\n          swap2\n          swap1\n          pop\n          jump\t// out\n            /* \"#utility.yul\":2121:2428   */\n        tag_33:\n            /* \"#utility.yul\":2189:2190   */\n          0x00\n            /* \"#utility.yul\":2199:2312   */\n        tag_65:\n            /* \"#utility.yul\":2213:2219   */\n          dup4\n            /* \"#utility.yul\":2210:2211   */\n          dup2\n            /* \"#utility.yul\":2207:2220   */\n          lt\n            /* \"#utility.yul\":2199:2312   */\n          iszero\n          tag_67\n          jumpi\n            /* \"#utility.yul\":2298:2299   */\n          dup1\n            /* \"#utility.yul\":2293:2296   */\n          dup3\n            /* \"#utility.yul\":2289:2300   */\n          add\n            /* \"#utility.yul\":2283:2301   */\n          mload\n            /* \"#utility.yul\":2279:2280   */\n          dup2\n            /* \"#utility.yul\":2274:2277   */\n          dup5\n            /* \"#utility.yul\":2270:2281   */\n          add\n            /* \"#utility.yul\":2263:2302   */\n          mstore\n            /* \"#utility.yul\":2235:2237   */\n          0x20\n            /* \"#utility.yul\":2232:2233   */\n          dup2\n            /* \"#utility.yul\":2228:2238   */\n          add\n            /* \"#utility.yul\":2223:2238   */\n          swap1\n          pop\n            /* \"#utility.yul\":2199:2312   */\n          jump(tag_65)\n        tag_67:\n            /* \"#utility.yul\":2330:2336   */\n          dup4\n            /* \"#utility.yul\":2327:2328   */\n          dup2\n            /* \"#utility.yul\":2324:2337   */\n          gt\n            /* \"#utility.yul\":2321:2422   */\n          iszero\n          tag_68\n          jumpi\n            /* \"#utility.yul\":2410:2411   */\n          0x00\n            /* \"#utility.yul\":2401:2407   */\n          dup5\n            /* \"#utility.yul\":2396:2399   */\n          dup5\n            /* \"#utility.yul\":2392:2408   */\n          add\n            /* \"#utility.yul\":2385:2412   */\n          mstore\n            /* \"#utility.yul\":2321:2422   */\n        tag_68:\n            /* \"#utility.yul\":2170:2428   */\n          pop\n            /* \"#utility.yul\":2121:2428   */\n          pop\n          pop\n          pop\n          jump\t// out\n            /* \"#utility.yul\":2434:2855   */\n        tag_34:\n            /* \"#utility.yul\":2523:2528   */\n          0x00\n            /* \"#utility.yul\":2548:2614   */\n          tag_70\n            /* \"#utility.yul\":2564:2613   */\n          tag_71\n            /* \"#utility.yul\":2606:2612   */\n          dup5\n            /* \"#utility.yul\":2564:2613   */\n          tag_32\n          jump\t// in\n        tag_71:\n            /* \"#utility.yul\":2548:2614   */\n          tag_31\n          jump\t// in\n        tag_70:\n            /* \"#utility.yul\":2539:2614   */\n          swap1\n          pop\n            /* \"#utility.yul\":2637:2643   */\n          dup3\n            /* \"#utility.yul\":2630:2635   */\n          dup2\n            /* \"#utility.yul\":2623:2644   */\n          mstore\n            /* \"#utility.yul\":2675:2679   */\n          0x20\n            /* \"#utility.yul\":2668:2673   */\n          dup2\n            /* \"#utility.yul\":2664:2680   */\n          add\n            /* \"#utility.yul\":2713:2716   */\n          dup5\n            /* \"#utility.yul\":2704:2710   */\n          dup5\n            /* \"#utility.yul\":2699:2702   */\n          dup5\n            /* \"#utility.yul\":2695:2711   */\n          add\n            /* \"#utility.yul\":2692:2717   */\n          gt\n            /* \"#utility.yul\":2689:2801   */\n          iszero\n          tag_72\n          jumpi\n            /* \"#utility.yul\":2720:2799   */\n          tag_73\n          tag_27\n          jump\t// in\n        tag_73:\n            /* \"#utility.yul\":2689:2801   */\n        tag_72:\n            /* \"#utility.yul\":2810:2849   */\n          tag_74\n            /* \"#utility.yul\":2842:2848   */\n          dup5\n            /* \"#utility.yul\":2837:2840   */\n          dup3\n            /* \"#utility.yul\":2832:2835   */\n          dup6\n            /* \"#utility.yul\":2810:2849   */\n          tag_33\n          jump\t// in\n        tag_74:\n            /* \"#utility.yul\":2529:2855   */\n          pop\n            /* \"#utility.yul\":2434:2855   */\n          swap4\n          swap3\n          pop\n          pop\n          pop\n          jump\t// out\n            /* \"#utility.yul\":2875:3230   */\n        tag_35:\n            /* \"#utility.yul\":2942:2947   */\n          0x00\n            /* \"#utility.yul\":2991:2994   */\n          dup3\n            /* \"#utility.yul\":2984:2988   */\n          0x1f\n            /* \"#utility.yul\":2976:2982   */\n          dup4\n            /* \"#utility.yul\":2972:2989   */\n          add\n            /* \"#utility.yul\":2968:2995   */\n          slt\n            /* \"#utility.yul\":2958:3080   */\n          tag_76\n          jumpi\n            /* \"#utility.yul\":2999:3078   */\n          tag_77\n          tag_26\n          jump\t// in\n        tag_77:\n            /* \"#utility.yul\":2958:3080   */\n        tag_76:\n            /* \"#utility.yul\":3109:3115   */\n          dup2\n            /* \"#utility.yul\":3103:3116   */\n          mload\n            /* \"#utility.yul\":3134:3224   */\n          tag_78\n            /* \"#utility.yul\":3220:3223   */\n          dup5\n            /* \"#utility.yul\":3212:3218   */\n          dup3\n            /* \"#utility.yul\":3205:3209   */\n          0x20\n            /* \"#utility.yul\":3197:3203   */\n          dup7\n            /* \"#utility.yul\":3193:3210   */\n          add\n            /* \"#utility.yul\":3134:3224   */\n          tag_34\n          jump\t// in\n        tag_78:\n            /* \"#utility.yul\":3125:3224   */\n          swap2\n          pop\n            /* \"#utility.yul\":2948:3230   */\n          pop\n            /* \"#utility.yul\":2875:3230   */\n          swap3\n          swap2\n          pop\n          pop\n          jump\t// out\n            /* \"#utility.yul\":3236:3916   */\n        tag_2:\n            /* \"#utility.yul\":3325:3331   */\n          0x00\n            /* \"#utility.yul\":3333:3339   */\n          dup1\n            /* \"#utility.yul\":3382:3384   */\n          0x40\n            /* \"#utility.yul\":3370:3379   */\n          dup4\n            /* \"#utility.yul\":3361:3368   */\n          dup6\n            /* \"#utility.yul\":3357:3380   */\n          sub\n            /* \"#utility.yul\":3353:3385   */\n          slt\n            /* \"#utility.yul\":3350:3469   */\n          iszero\n          tag_80\n          jumpi\n            /* \"#utility.yul\":3388:3467   */\n          tag_81\n          tag_20\n          jump\t// in\n        tag_81:\n            /* \"#utility.yul\":3350:3469   */\n        tag_80:\n            /* \"#utility.yul\":3508:3509   */\n          0x00\n            /* \"#utility.yul\":3533:3597   */\n          tag_82\n            /* \"#utility.yul\":3589:3596   */\n          dup6\n            /* \"#utility.yul\":3580:3586   */\n          dup3\n            /* \"#utility.yul\":3569:3578   */\n          dup7\n            /* \"#utility.yul\":3565:3587   */\n          add\n            /* \"#utility.yul\":3533:3597   */\n          tag_25\n          jump\t// in\n        tag_82:\n            /* \"#utility.yul\":3523:3597   */\n          swap3\n          pop\n            /* \"#utility.yul\":3479:3607   */\n          pop\n            /* \"#utility.yul\":3667:3669   */\n          0x20\n            /* \"#utility.yul\":3656:3665   */\n          dup4\n            /* \"#utility.yul\":3652:3670   */\n          add\n            /* \"#utility.yul\":3646:3671   */\n          mload\n            /* \"#utility.yul\":3698:3716   */\n          0xffffffffffffffff\n            /* \"#utility.yul\":3690:3696   */\n          dup2\n            /* \"#utility.yul\":3687:3717   */\n          gt\n            /* \"#utility.yul\":3684:3801   */\n          iszero\n          tag_83\n          jumpi\n            /* \"#utility.yul\":3720:3799   */\n          tag_84\n          tag_21\n          jump\t// in\n        tag_84:\n            /* \"#utility.yul\":3684:3801   */\n        tag_83:\n            /* \"#utility.yul\":3825:3899   */\n          tag_85\n            /* \"#utility.yul\":3891:3898   */\n          dup6\n            /* \"#utility.yul\":3882:3888   */\n          dup3\n            /* \"#utility.yul\":3871:3880   */\n          dup7\n            /* \"#utility.yul\":3867:3889   */\n          add\n            /* \"#utility.yul\":3825:3899   */\n          tag_35\n          jump\t// in\n        tag_85:\n            /* \"#utility.yul\":3815:3899   */\n          swap2\n          pop\n            /* \"#utility.yul\":3617:3909   */\n          pop\n            /* \"#utility.yul\":3236:3916   */\n          swap3\n          pop\n          swap3\n          swap1\n          pop\n          jump\t// out\n            /* \"#utility.yul\":3922:4102   */\n        tag_36:\n            /* \"#utility.yul\":3970:4047   */\n          0x4e487b7100000000000000000000000000000000000000000000000000000000\n            /* \"#utility.yul\":3967:3968   */\n          0x00\n            /* \"#utility.yul\":3960:4048   */\n          mstore\n            /* \"#utility.yul\":4067:4071   */\n          0x22\n            /* \"#utility.yul\":4064:4065   */\n          0x04\n            /* \"#utility.yul\":4057:4072   */\n          mstore\n            /* \"#utility.yul\":4091:4095   */\n          0x24\n            /* \"#utility.yul\":4088:4089   */\n          0x00\n            /* \"#utility.yul\":4081:4096   */\n          revert\n            /* \"#utility.yul\":4108:4428   */\n        tag_9:\n            /* \"#utility.yul\":4152:4158   */\n          0x00\n            /* \"#utility.yul\":4189:4190   */\n          0x02\n            /* \"#utility.yul\":4183:4187   */\n          dup3\n            /* \"#utility.yul\":4179:4191   */\n          div\n            /* \"#utility.yul\":4169:4191   */\n          swap1\n          pop\n            /* \"#utility.yul\":4236:4237   */\n          0x01\n            /* \"#utility.yul\":4230:4234   */\n          dup3\n            /* \"#utility.yul\":4226:4238   */\n          and\n            /* \"#utility.yul\":4257:4275   */\n          dup1\n            /* \"#utility.yul\":4247:4328   */\n          tag_88\n          jumpi\n            /* \"#utility.yul\":4313:4317   */\n          0x7f\n            /* \"#utility.yul\":4305:4311   */\n          dup3\n            /* \"#utility.yul\":4301:4318   */\n          and\n            /* \"#utility.yul\":4291:4318   */\n          swap2\n          pop\n            /* \"#utility.yul\":4247:4328   */\n        tag_88:\n            /* \"#utility.yul\":4375:4377   */\n          0x20\n            /* \"#utility.yul\":4367:4373   */\n          dup3\n            /* \"#utility.yul\":4364:4378   */\n          lt\n            /* \"#utility.yul\":4344:4362   */\n          dup2\n            /* \"#utility.yul\":4341:4379   */\n          sub\n            /* \"#utility.yul\":4338:4422   */\n          tag_89\n          jumpi\n            /* \"#utility.yul\":4394:4412   */\n          tag_90\n          tag_36\n          jump\t// in\n        tag_90:\n            /* \"#utility.yul\":4338:4422   */\n        tag_89:\n            /* \"#utility.yul\":4159:4428   */\n          pop\n            /* \"#utility.yul\":4108:4428   */\n          swap2\n          swap1\n          pop\n          jump\t// out\n            /* \"CreateConOtherConExam.sol\":62:344  contract Car {... */\n        tag_7:\n          dataSize(sub_0)\n          dup1\n          dataOffset(sub_0)\n          0x00\n          codecopy\n          0x00\n          return\n        stop\n\n        sub_0: assembly {\n                /* \"CreateConOtherConExam.sol\":62:344  contract Car {... */\n              mstore(0x40, 0x80)\n              callvalue\n              dup1\n              iszero\n              tag_1\n              jumpi\n              0x00\n              dup1\n              revert\n            tag_1:\n              pop\n              jumpi(tag_2, lt(calldatasize, 0x04))\n              shr(0xe0, calldataload(0x00))\n              dup1\n              0x0ad9d052\n              eq\n              tag_3\n              jumpi\n              dup1\n              0x514fa676\n              eq\n              tag_4\n              jumpi\n              dup1\n              0x8da5cb5b\n              eq\n              tag_5\n              jumpi\n            tag_2:\n              0x00\n              dup1\n              revert\n                /* \"CreateConOtherConExam.sol\":109:128  string public model */\n            tag_3:\n              tag_6\n              tag_7\n              jump\t// in\n            tag_6:\n              mload(0x40)\n              tag_8\n              swap2\n              swap1\n              tag_9\n              jump\t// in\n            tag_8:\n              mload(0x40)\n              dup1\n              swap2\n              sub\n              swap1\n              return\n                /* \"CreateConOtherConExam.sol\":135:157  address public carAddr */\n            tag_4:\n              tag_10\n              tag_11\n              jump\t// in\n            tag_10:\n              mload(0x40)\n              tag_12\n              swap2\n              swap1\n              tag_13\n              jump\t// in\n            tag_12:\n              mload(0x40)\n              dup1\n              swap2\n              sub\n              swap1\n              return\n                /* \"CreateConOtherConExam.sol\":82:102  address public owner */\n            tag_5:\n              tag_14\n              tag_15\n              jump\t// in\n            tag_14:\n              mload(0x40)\n              tag_16\n              swap2\n              swap1\n              tag_13\n              jump\t// in\n            tag_16:\n              mload(0x40)\n              dup1\n              swap2\n              sub\n              swap1\n              return\n                /* \"CreateConOtherConExam.sol\":109:128  string public model */\n            tag_7:\n              0x01\n              dup1\n              sload\n              tag_17\n              swap1\n              tag_18\n              jump\t// in\n            tag_17:\n              dup1\n              0x1f\n              add\n              0x20\n              dup1\n              swap2\n              div\n              mul\n              0x20\n              add\n              mload(0x40)\n              swap1\n              dup2\n              add\n              0x40\n              mstore\n              dup1\n              swap3\n              swap2\n              swap1\n              dup2\n              dup2\n              mstore\n              0x20\n              add\n              dup3\n              dup1\n              sload\n              tag_19\n              swap1\n              tag_18\n              jump\t// in\n            tag_19:\n              dup1\n              iszero\n              tag_20\n              jumpi\n              dup1\n              0x1f\n              lt\n              tag_21\n              jumpi\n              0x0100\n              dup1\n              dup4\n              sload\n              div\n              mul\n              dup4\n              mstore\n              swap2\n              0x20\n              add\n              swap2\n              jump(tag_20)\n            tag_21:\n              dup3\n              add\n              swap2\n              swap1\n              0x00\n              mstore\n              keccak256(0x00, 0x20)\n              swap1\n            tag_22:\n              dup2\n              sload\n              dup2\n              mstore\n              swap1\n              0x01\n              add\n              swap1\n              0x20\n              add\n              dup1\n              dup4\n              gt\n              tag_22\n              jumpi\n              dup3\n              swap1\n              sub\n              0x1f\n              and\n              dup3\n              add\n              swap2\n            tag_20:\n              pop\n              pop\n              pop\n              pop\n              pop\n              dup2\n              jump\t// out\n                /* \"CreateConOtherConExam.sol\":135:157  address public carAddr */\n            tag_11:\n              0x02\n              0x00\n              swap1\n              sload\n              swap1\n              0x0100\n              exp\n              swap1\n              div\n              0xffffffffffffffffffffffffffffffffffffffff\n              and\n              dup2\n              jump\t// out\n                /* \"CreateConOtherConExam.sol\":82:102  address public owner */\n            tag_15:\n              0x00\n              dup1\n              sload\n              swap1\n              0x0100\n              exp\n              swap1\n              div\n              0xffffffffffffffffffffffffffffffffffffffff\n              and\n              dup2\n              jump\t// out\n                /* \"#utility.yul\":7:106   */\n            tag_23:\n                /* \"#utility.yul\":59:65   */\n              0x00\n                /* \"#utility.yul\":93:98   */\n              dup2\n                /* \"#utility.yul\":87:99   */\n              mload\n                /* \"#utility.yul\":77:99   */\n              swap1\n              pop\n                /* \"#utility.yul\":7:106   */\n              swap2\n              swap1\n              pop\n              jump\t// out\n                /* \"#utility.yul\":112:281   */\n            tag_24:\n                /* \"#utility.yul\":196:207   */\n              0x00\n                /* \"#utility.yul\":230:236   */\n              dup3\n                /* \"#utility.yul\":225:228   */\n              dup3\n                /* \"#utility.yul\":218:237   */\n              mstore\n                /* \"#utility.yul\":270:274   */\n              0x20\n                /* \"#utility.yul\":265:268   */\n              dup3\n                /* \"#utility.yul\":261:275   */\n              add\n                /* \"#utility.yul\":246:275   */\n              swap1\n              pop\n                /* \"#utility.yul\":112:281   */\n              swap3\n              swap2\n              pop\n              pop\n              jump\t// out\n                /* \"#utility.yul\":287:594   */\n            tag_25:\n                /* \"#utility.yul\":355:356   */\n              0x00\n                /* \"#utility.yul\":365:478   */\n            tag_36:\n                /* \"#utility.yul\":379:385   */\n              dup4\n                /* \"#utility.yul\":376:377   */\n              dup2\n                /* \"#utility.yul\":373:386   */\n              lt\n                /* \"#utility.yul\":365:478   */\n              iszero\n              tag_38\n              jumpi\n                /* \"#utility.yul\":464:465   */\n              dup1\n                /* \"#utility.yul\":459:462   */\n              dup3\n                /* \"#utility.yul\":455:466   */\n              add\n                /* \"#utility.yul\":449:467   */\n              mload\n                /* \"#utility.yul\":445:446   */\n              dup2\n                /* \"#utility.yul\":440:443   */\n              dup5\n                /* \"#utility.yul\":436:447   */\n              add\n                /* \"#utility.yul\":429:468   */\n              mstore\n                /* \"#utility.yul\":401:403   */\n              0x20\n                /* \"#utility.yul\":398:399   */\n              dup2\n                /* \"#utility.yul\":394:404   */\n              add\n                /* \"#utility.yul\":389:404   */\n              swap1\n              pop\n                /* \"#utility.yul\":365:478   */\n              jump(tag_36)\n            tag_38:\n                /* \"#utility.yul\":496:502   */\n              dup4\n                /* \"#utility.yul\":493:494   */\n              dup2\n                /* \"#utility.yul\":490:503   */\n              gt\n                /* \"#utility.yul\":487:588   */\n              iszero\n              tag_39\n              jumpi\n                /* \"#utility.yul\":576:577   */\n              0x00\n                /* \"#utility.yul\":567:573   */\n              dup5\n                /* \"#utility.yul\":562:565   */\n              dup5\n                /* \"#utility.yul\":558:574   */\n              add\n                /* \"#utility.yul\":551:578   */\n              mstore\n                /* \"#utility.yul\":487:588   */\n            tag_39:\n                /* \"#utility.yul\":336:594   */\n              pop\n                /* \"#utility.yul\":287:594   */\n              pop\n              pop\n              pop\n              jump\t// out\n                /* \"#utility.yul\":600:702   */\n            tag_26:\n                /* \"#utility.yul\":641:647   */\n              0x00\n                /* \"#utility.yul\":692:694   */\n              0x1f\n                /* \"#utility.yul\":688:695   */\n              not\n                /* \"#utility.yul\":683:685   */\n              0x1f\n                /* \"#utility.yul\":676:681   */\n              dup4\n                /* \"#utility.yul\":672:686   */\n              add\n                /* \"#utility.yul\":668:696   */\n              and\n                /* \"#utility.yul\":658:696   */\n              swap1\n              pop\n                /* \"#utility.yul\":600:702   */\n              swap2\n              swap1\n              pop\n              jump\t// out\n                /* \"#utility.yul\":708:1072   */\n            tag_27:\n                /* \"#utility.yul\":796:799   */\n              0x00\n                /* \"#utility.yul\":824:863   */\n              tag_42\n                /* \"#utility.yul\":857:862   */\n              dup3\n                /* \"#utility.yul\":824:863   */\n              tag_23\n              jump\t// in\n            tag_42:\n                /* \"#utility.yul\":879:950   */\n              tag_43\n                /* \"#utility.yul\":943:949   */\n              dup2\n                /* \"#utility.yul\":938:941   */\n              dup6\n                /* \"#utility.yul\":879:950   */\n              tag_24\n              jump\t// in\n            tag_43:\n                /* \"#utility.yul\":872:950   */\n              swap4\n              pop\n                /* \"#utility.yul\":959:1011   */\n              tag_44\n                /* \"#utility.yul\":1004:1010   */\n              dup2\n                /* \"#utility.yul\":999:1002   */\n              dup6\n                /* \"#utility.yul\":992:996   */\n              0x20\n                /* \"#utility.yul\":985:990   */\n              dup7\n                /* \"#utility.yul\":981:997   */\n              add\n                /* \"#utility.yul\":959:1011   */\n              tag_25\n              jump\t// in\n            tag_44:\n                /* \"#utility.yul\":1036:1065   */\n              tag_45\n                /* \"#utility.yul\":1058:1064   */\n              dup2\n                /* \"#utility.yul\":1036:1065   */\n              tag_26\n              jump\t// in\n            tag_45:\n                /* \"#utility.yul\":1031:1034   */\n              dup5\n                /* \"#utility.yul\":1027:1066   */\n              add\n                /* \"#utility.yul\":1020:1066   */\n              swap2\n              pop\n                /* \"#utility.yul\":800:1072   */\n              pop\n                /* \"#utility.yul\":708:1072   */\n              swap3\n              swap2\n              pop\n              pop\n              jump\t// out\n                /* \"#utility.yul\":1078:1391   */\n            tag_9:\n                /* \"#utility.yul\":1191:1195   */\n              0x00\n                /* \"#utility.yul\":1229:1231   */\n              0x20\n                /* \"#utility.yul\":1218:1227   */\n              dup3\n                /* \"#utility.yul\":1214:1232   */\n              add\n                /* \"#utility.yul\":1206:1232   */\n              swap1\n              pop\n                /* \"#utility.yul\":1278:1287   */\n              dup2\n                /* \"#utility.yul\":1272:1276   */\n              dup2\n                /* \"#utility.yul\":1268:1288   */\n              sub\n                /* \"#utility.yul\":1264:1265   */\n              0x00\n                /* \"#utility.yul\":1253:1262   */\n              dup4\n                /* \"#utility.yul\":1249:1266   */\n              add\n                /* \"#utility.yul\":1242:1289   */\n              mstore\n                /* \"#utility.yul\":1306:1384   */\n              tag_47\n                /* \"#utility.yul\":1379:1383   */\n              dup2\n                /* \"#utility.yul\":1370:1376   */\n              dup5\n                /* \"#utility.yul\":1306:1384   */\n              tag_27\n              jump\t// in\n            tag_47:\n                /* \"#utility.yul\":1298:1384   */\n              swap1\n              pop\n                /* \"#utility.yul\":1078:1391   */\n              swap3\n              swap2\n              pop\n              pop\n              jump\t// out\n                /* \"#utility.yul\":1397:1523   */\n            tag_28:\n                /* \"#utility.yul\":1434:1441   */\n              0x00\n                /* \"#utility.yul\":1474:1516   */\n              0xffffffffffffffffffffffffffffffffffffffff\n                /* \"#utility.yul\":1467:1472   */\n              dup3\n                /* \"#utility.yul\":1463:1517   */\n              and\n                /* \"#utility.yul\":1452:1517   */\n              swap1\n              pop\n                /* \"#utility.yul\":1397:1523   */\n              swap2\n              swap1\n              pop\n              jump\t// out\n                /* \"#utility.yul\":1529:1625   */\n            tag_29:\n                /* \"#utility.yul\":1566:1573   */\n              0x00\n                /* \"#utility.yul\":1595:1619   */\n              tag_50\n                /* \"#utility.yul\":1613:1618   */\n              dup3\n                /* \"#utility.yul\":1595:1619   */\n              tag_28\n              jump\t// in\n            tag_50:\n                /* \"#utility.yul\":1584:1619   */\n              swap1\n              pop\n                /* \"#utility.yul\":1529:1625   */\n              swap2\n              swap1\n              pop\n              jump\t// out\n                /* \"#utility.yul\":1631:1749   */\n            tag_30:\n                /* \"#utility.yul\":1718:1742   */\n              tag_52\n                /* \"#utility.yul\":1736:1741   */\n              dup2\n                /* \"#utility.yul\":1718:1742   */\n              tag_29\n              jump\t// in\n            tag_52:\n                /* \"#utility.yul\":1713:1716   */\n              dup3\n                /* \"#utility.yul\":1706:1743   */\n              mstore\n                /* \"#utility.yul\":1631:1749   */\n              pop\n              pop\n              jump\t// out\n                /* \"#utility.yul\":1755:1977   */\n            tag_13:\n                /* \"#utility.yul\":1848:1852   */\n              0x00\n                /* \"#utility.yul\":1886:1888   */\n              0x20\n                /* \"#utility.yul\":1875:1884   */\n              dup3\n                /* \"#utility.yul\":1871:1889   */\n              add\n                /* \"#utility.yul\":1863:1889   */\n              swap1\n              pop\n                /* \"#utility.yul\":1899:1970   */\n              tag_54\n                /* \"#utility.yul\":1967:1968   */\n              0x00\n                /* \"#utility.yul\":1956:1965   */\n              dup4\n                /* \"#utility.yul\":1952:1969   */\n              add\n                /* \"#utility.yul\":1943:1949   */\n              dup5\n                /* \"#utility.yul\":1899:1970   */\n              tag_30\n              jump\t// in\n            tag_54:\n                /* \"#utility.yul\":1755:1977   */\n              swap3\n              swap2\n              pop\n              pop\n              jump\t// out\n                /* \"#utility.yul\":1983:2163   */\n            tag_31:\n                /* \"#utility.yul\":2031:2108   */\n              0x4e487b7100000000000000000000000000000000000000000000000000000000\n                /* \"#utility.yul\":2028:2029   */\n              0x00\n                /* \"#utility.yul\":2021:2109   */\n              mstore\n                /* \"#utility.yul\":2128:2132   */\n              0x22\n                /* \"#utility.yul\":2125:2126   */\n              0x04\n                /* \"#utility.yul\":2118:2133   */\n              mstore\n                /* \"#utility.yul\":2152:2156   */\n              0x24\n                /* \"#utility.yul\":2149:2150   */\n              0x00\n                /* \"#utility.yul\":2142:2157   */\n              revert\n                /* \"#utility.yul\":2169:2489   */\n            tag_18:\n                /* \"#utility.yul\":2213:2219   */\n              0x00\n                /* \"#utility.yul\":2250:2251   */\n              0x02\n                /* \"#utility.yul\":2244:2248   */\n              dup3\n                /* \"#utility.yul\":2240:2252   */\n              div\n                /* \"#utility.yul\":2230:2252   */\n              swap1\n              pop\n                /* \"#utility.yul\":2297:2298   */\n              0x01\n                /* \"#utility.yul\":2291:2295   */\n              dup3\n                /* \"#utility.yul\":2287:2299   */\n              and\n                /* \"#utility.yul\":2318:2336   */\n              dup1\n                /* \"#utility.yul\":2308:2389   */\n              tag_57\n              jumpi\n                /* \"#utility.yul\":2374:2378   */\n              0x7f\n                /* \"#utility.yul\":2366:2372   */\n              dup3\n                /* \"#utility.yul\":2362:2379   */\n              and\n                /* \"#utility.yul\":2352:2379   */\n              swap2\n              pop\n                /* \"#utility.yul\":2308:2389   */\n            tag_57:\n                /* \"#utility.yul\":2436:2438   */\n              0x20\n                /* \"#utility.yul\":2428:2434   */\n              dup3\n                /* \"#utility.yul\":2425:2439   */\n              lt\n                /* \"#utility.yul\":2405:2423   */\n              dup2\n                /* \"#utility.yul\":2402:2440   */\n              sub\n                /* \"#utility.yul\":2399:2483   */\n              tag_58\n              jumpi\n                /* \"#utility.yul\":2455:2473   */\n              tag_59\n              tag_31\n              jump\t// in\n            tag_59:\n                /* \"#utility.yul\":2399:2483   */\n            tag_58:\n                /* \"#utility.yul\":2220:2489   */\n              pop\n                /* \"#utility.yul\":2169:2489   */\n              swap2\n              swap1\n              pop\n              jump\t// out\n\n            auxdata: 0xa2646970667358221220a87be0ed6578b40ed7c4643fbc7dc6099add9ad2f0c599f8c903fcdf791aee0c64736f6c634300080d0033\n        }\n    }\n\n    auxdata: 0xa2646970667358221220441017d1d0d067635fdc9b9cf0c6ec3348b09340d12cf4ae5b8592a7b1a3d72e64736f6c634300080d0033\n}\n",
				"bytecode": {
					"linkReferences": {},
					"object": "608060405234801561001057600080fd5b507f190fea64075acfd1b0ad55dbaed3e48e13387796c27e8d9f1faa85d5af109ace6000819055506114b1806100476000396000f3fe6080604052600436106200007a5760003560e01c8063a429f47d1162000055578063a429f47d1462000116578063a5e57b471462000144578063c33cd6151462000172578063f7746e361462000192576200007a565b80633d4b3015146200007f578063517548e2146200009f5780635e8be19014620000cf575b600080fd5b6200009d6004803603810190620000979190620008c0565b620001d6565b005b348015620000ac57600080fd5b50620000b762000288565b604051620000c691906200094c565b60405180910390f35b348015620000dc57600080fd5b50620000fb6004803603810190620000f59190620009a4565b6200028e565b6040516200010d949392919062000a8b565b60405180910390f35b3480156200012357600080fd5b506200014260048036038101906200013c9190620008c0565b6200045e565b005b3480156200015157600080fd5b506200017060048036038101906200016a919062000adf565b6200050c565b005b6200019060048036038101906200018a919062000adf565b620005b3565b005b3480156200019f57600080fd5b50620001be6004803603810190620001b89190620009a4565b6200065c565b604051620001cd919062000bb0565b60405180910390f35b600034600054908585604051620001ed906200069c565b620001fa92919062000bcd565b82906040518091039083f590509050801580156200021c573d6000803e3d6000fd5b5090506001819080600181540180825580915050600190039060005260206000200160009091909190916101000a81548173ffffffffffffffffffffffffffffffffffffffff021916908373ffffffffffffffffffffffffffffffffffffffff16021790555050505050565b60005481565b60006060600080600060018681548110620002ae57620002ad62000c01565b5b9060005260206000200160009054906101000a900473ffffffffffffffffffffffffffffffffffffffff1690508073ffffffffffffffffffffffffffffffffffffffff16638da5cb5b6040518163ffffffff1660e01b8152600401602060405180830381865afa15801562000327573d6000803e3d6000fd5b505050506040513d601f19601f820116820180604052508101906200034d919062000c47565b8173ffffffffffffffffffffffffffffffffffffffff16630ad9d0526040518163ffffffff1660e01b8152600401600060405180830381865afa15801562000399573d6000803e3d6000fd5b505050506040513d6000823e3d601f19601f82011682018060405250810190620003c4919062000cf7565b8273ffffffffffffffffffffffffffffffffffffffff1663514fa6766040518163ffffffff1660e01b8152600401602060405180830381865afa15801562000410573d6000803e3d6000fd5b505050506040513d601f19601f8201168201806040525081019062000436919062000c47565b8373ffffffffffffffffffffffffffffffffffffffff16319450945094509450509193509193565b60008054848460405162000472906200069c565b6200047f92919062000bcd565b8190604051809103906000f5905080158015620004a0573d6000803e3d6000fd5b5090506001819080600181540180825580915050600190039060005260206000200160009091909190916101000a81548173ffffffffffffffffffffffffffffffffffffffff021916908373ffffffffffffffffffffffffffffffffffffffff16021790555050505050565b600082826040516200051e906200069c565b6200052b92919062000bcd565b604051809103906000f08015801562000548573d6000803e3d6000fd5b5090506001819080600181540180825580915050600190039060005260206000200160009091909190916101000a81548173ffffffffffffffffffffffffffffffffffffffff021916908373ffffffffffffffffffffffffffffffffffffffff160217905550505050565b6000348383604051620005c6906200069c565b620005d392919062000bcd565b6040518091039082f0905080158015620005f1573d6000803e3d6000fd5b5090506001819080600181540180825580915050600190039060005260206000200160009091909190916101000a81548173ffffffffffffffffffffffffffffffffffffffff021916908373ffffffffffffffffffffffffffffffffffffffff160217905550505050565b600181815481106200066d57600080fd5b906000526020600020016000915054906101000a900473ffffffffffffffffffffffffffffffffffffffff1681565b6107338062000d4983390190565b6000604051905090565b600080fd5b600080fd5b600073ffffffffffffffffffffffffffffffffffffffff82169050919050565b6000620006eb82620006be565b9050919050565b620006fd81620006de565b81146200070957600080fd5b50565b6000813590506200071d81620006f2565b92915050565b600080fd5b600080fd5b6000601f19601f8301169050919050565b7f4e487b7100000000000000000000000000000000000000000000000000000000600052604160045260246000fd5b62000778826200072d565b810181811067ffffffffffffffff821117156200079a57620007996200073e565b5b80604052505050565b6000620007af620006aa565b9050620007bd82826200076d565b919050565b600067ffffffffffffffff821115620007e057620007df6200073e565b5b620007eb826200072d565b9050602081019050919050565b82818337600083830152505050565b60006200081e6200081884620007c2565b620007a3565b9050828152602081018484840111156200083d576200083c62000728565b5b6200084a848285620007f8565b509392505050565b600082601f8301126200086a576200086962000723565b5b81356200087c84826020860162000807565b91505092915050565b6000819050919050565b6200089a8162000885565b8114620008a657600080fd5b50565b600081359050620008ba816200088f565b92915050565b600080600060608486031215620008dc57620008db620006b4565b5b6000620008ec868287016200070c565b935050602084013567ffffffffffffffff81111562000910576200090f620006b9565b5b6200091e8682870162000852565b92505060406200093186828701620008a9565b9150509250925092565b620009468162000885565b82525050565b60006020820190506200096360008301846200093b565b92915050565b6000819050919050565b6200097e8162000969565b81146200098a57600080fd5b50565b6000813590506200099e8162000973565b92915050565b600060208284031215620009bd57620009bc620006b4565b5b6000620009cd848285016200098d565b91505092915050565b620009e181620006de565b82525050565b600081519050919050565b600082825260208201905092915050565b60005b8381101562000a2357808201518184015260208101905062000a06565b8381111562000a33576000848401525b50505050565b600062000a4682620009e7565b62000a528185620009f2565b935062000a6481856020860162000a03565b62000a6f816200072d565b840191505092915050565b62000a858162000969565b82525050565b600060808201905062000aa26000830187620009d6565b818103602083015262000ab6818662000a39565b905062000ac76040830185620009d6565b62000ad6606083018462000a7a565b95945050505050565b6000806040838503121562000af95762000af8620006b4565b5b600062000b09858286016200070c565b925050602083013567ffffffffffffffff81111562000b2d5762000b2c620006b9565b5b62000b3b8582860162000852565b9150509250929050565b6000819050919050565b600062000b7062000b6a62000b6484620006be565b62000b45565b620006be565b9050919050565b600062000b848262000b4f565b9050919050565b600062000b988262000b77565b9050919050565b62000baa8162000b8b565b82525050565b600060208201905062000bc7600083018462000b9f565b92915050565b600060408201905062000be46000830185620009d6565b818103602083015262000bf8818462000a39565b90509392505050565b7f4e487b7100000000000000000000000000000000000000000000000000000000600052603260045260246000fd5b60008151905062000c4181620006f2565b92915050565b60006020828403121562000c605762000c5f620006b4565b5b600062000c708482850162000c30565b91505092915050565b600062000c9062000c8a84620007c2565b620007a3565b90508281526020810184848401111562000caf5762000cae62000728565b5b62000cbc84828562000a03565b509392505050565b600082601f83011262000cdc5762000cdb62000723565b5b815162000cee84826020860162000c79565b91505092915050565b60006020828403121562000d105762000d0f620006b4565b5b600082015167ffffffffffffffff81111562000d315762000d30620006b9565b5b62000d3f8482850162000cc4565b9150509291505056fe608060405260405161073338038061073383398181016040528101906100259190610343565b816000806101000a81548173ffffffffffffffffffffffffffffffffffffffff021916908373ffffffffffffffffffffffffffffffffffffffff160217905550806001908051906020019061007b9291906100c4565b5033600260006101000a81548173ffffffffffffffffffffffffffffffffffffffff021916908373ffffffffffffffffffffffffffffffffffffffff16021790555050506103ff565b8280546100d0906103ce565b90600052602060002090601f0160209004810192826100f25760008555610139565b82601f1061010b57805160ff1916838001178555610139565b82800160010185558215610139579182015b8281111561013857825182559160200191906001019061011d565b5b509050610146919061014a565b5090565b5b8082111561016357600081600090555060010161014b565b5090565b6000604051905090565b600080fd5b600080fd5b600073ffffffffffffffffffffffffffffffffffffffff82169050919050565b60006101a68261017b565b9050919050565b6101b68161019b565b81146101c157600080fd5b50565b6000815190506101d3816101ad565b92915050565b600080fd5b600080fd5b6000601f19601f8301169050919050565b7f4e487b7100000000000000000000000000000000000000000000000000000000600052604160045260246000fd5b61022c826101e3565b810181811067ffffffffffffffff8211171561024b5761024a6101f4565b5b80604052505050565b600061025e610167565b905061026a8282610223565b919050565b600067ffffffffffffffff82111561028a576102896101f4565b5b610293826101e3565b9050602081019050919050565b60005b838110156102be5780820151818401526020810190506102a3565b838111156102cd576000848401525b50505050565b60006102e66102e18461026f565b610254565b905082815260208101848484011115610302576103016101de565b5b61030d8482856102a0565b509392505050565b600082601f83011261032a576103296101d9565b5b815161033a8482602086016102d3565b91505092915050565b6000806040838503121561035a57610359610171565b5b6000610368858286016101c4565b925050602083015167ffffffffffffffff81111561038957610388610176565b5b61039585828601610315565b9150509250929050565b7f4e487b7100000000000000000000000000000000000000000000000000000000600052602260045260246000fd5b600060028204905060018216806103e657607f821691505b6020821081036103f9576103f861039f565b5b50919050565b6103258061040e6000396000f3fe608060405234801561001057600080fd5b50600436106100415760003560e01c80630ad9d05214610046578063514fa676146100645780638da5cb5b14610082575b600080fd5b61004e6100a0565b60405161005b9190610211565b60405180910390f35b61006c61012e565b6040516100799190610274565b60405180910390f35b61008a610154565b6040516100979190610274565b60405180910390f35b600180546100ad906102be565b80601f01602080910402602001604051908101604052809291908181526020018280546100d9906102be565b80156101265780601f106100fb57610100808354040283529160200191610126565b820191906000526020600020905b81548152906001019060200180831161010957829003601f168201915b505050505081565b600260009054906101000a900473ffffffffffffffffffffffffffffffffffffffff1681565b60008054906101000a900473ffffffffffffffffffffffffffffffffffffffff1681565b600081519050919050565b600082825260208201905092915050565b60005b838110156101b2578082015181840152602081019050610197565b838111156101c1576000848401525b50505050565b6000601f19601f8301169050919050565b60006101e382610178565b6101ed8185610183565b93506101fd818560208601610194565b610206816101c7565b840191505092915050565b6000602082019050818103600083015261022b81846101d8565b905092915050565b600073ffffffffffffffffffffffffffffffffffffffff82169050919050565b600061025e82610233565b9050919050565b61026e81610253565b82525050565b60006020820190506102896000830184610265565b92915050565b7f4e487b7100000000000000000000000000000000000000000000000000000000600052602260045260246000fd5b600060028204905060018216806102d657607f821691505b6020821081036102e9576102e861028f565b5b5091905056fea2646970667358221220a87be0ed6578b40ed7c4643fbc7dc6099add9ad2f0c599f8c903fcdf791aee0c64736f6c634300080d0033a2646970667358221220441017d1d0d067635fdc9b9cf0c6ec3348b09340d12cf4ae5b8592a7b1a3d72e64736f6c634300080d0033",
					"opcodes": "PUSH1 0x80 PUSH1 0x40 MSTORE CALLVALUE DUP1 ISZERO PUSH2 0x10 JUMPI PUSH1 0x0 DUP1 REVERT JUMPDEST POP PUSH32 0x190FEA64075ACFD1B0AD55DBAED3E48E13387796C27E8D9F1FAA85D5AF109ACE PUSH1 0x0 DUP2 SWAP1 SSTORE POP PUSH2 0x14B1 DUP1 PUSH2 0x47 PUSH1 0x0 CODECOPY PUSH1 0x0 RETURN INVALID PUSH1 0x80 PUSH1 0x40 MSTORE PUSH1 0x4 CALLDATASIZE LT PUSH3 0x7A JUMPI PUSH1 0x0 CALLDATALOAD PUSH1 0xE0 SHR DUP1 PUSH4 0xA429F47D GT PUSH3 0x55 JUMPI DUP1 PUSH4 0xA429F47D EQ PUSH3 0x116 JUMPI DUP1 PUSH4 0xA5E57B47 EQ PUSH3 0x144 JUMPI DUP1 PUSH4 0xC33CD615 EQ PUSH3 0x172 JUMPI DUP1 PUSH4 0xF7746E36 EQ PUSH3 0x192 JUMPI PUSH3 0x7A JUMP JUMPDEST DUP1 PUSH4 0x3D4B3015 EQ PUSH3 0x7F JUMPI DUP1 PUSH4 0x517548E2 EQ PUSH3 0x9F JUMPI DUP1 PUSH4 0x5E8BE190 EQ PUSH3 0xCF JUMPI JUMPDEST PUSH1 0x0 DUP1 REVERT JUMPDEST PUSH3 0x9D PUSH1 0x4 DUP1 CALLDATASIZE SUB DUP2 ADD SWAP1 PUSH3 0x97 SWAP2 SWAP1 PUSH3 0x8C0 JUMP JUMPDEST PUSH3 0x1D6 JUMP JUMPDEST STOP JUMPDEST CALLVALUE DUP1 ISZERO PUSH3 0xAC JUMPI PUSH1 0x0 DUP1 REVERT JUMPDEST POP PUSH3 0xB7 PUSH3 0x288 JUMP JUMPDEST PUSH1 0x40 MLOAD PUSH3 0xC6 SWAP2 SWAP1 PUSH3 0x94C JUMP JUMPDEST PUSH1 0x40 MLOAD DUP1 SWAP2 SUB SWAP1 RETURN JUMPDEST CALLVALUE DUP1 ISZERO PUSH3 0xDC JUMPI PUSH1 0x0 DUP1 REVERT JUMPDEST POP PUSH3 0xFB PUSH1 0x4 DUP1 CALLDATASIZE SUB DUP2 ADD SWAP1 PUSH3 0xF5 SWAP2 SWAP1 PUSH3 0x9A4 JUMP JUMPDEST PUSH3 0x28E JUMP JUMPDEST PUSH1 0x40 MLOAD PUSH3 0x10D SWAP5 SWAP4 SWAP3 SWAP2 SWAP1 PUSH3 0xA8B JUMP JUMPDEST PUSH1 0x40 MLOAD DUP1 SWAP2 SUB SWAP1 RETURN JUMPDEST CALLVALUE DUP1 ISZERO PUSH3 0x123 JUMPI PUSH1 0x0 DUP1 REVERT JUMPDEST POP PUSH3 0x142 PUSH1 0x4 DUP1 CALLDATASIZE SUB DUP2 ADD SWAP1 PUSH3 0x13C SWAP2 SWAP1 PUSH3 0x8C0 JUMP JUMPDEST PUSH3 0x45E JUMP JUMPDEST STOP JUMPDEST CALLVALUE DUP1 ISZERO PUSH3 0x151 JUMPI PUSH1 0x0 DUP1 REVERT JUMPDEST POP PUSH3 0x170 PUSH1 0x4 DUP1 CALLDATASIZE SUB DUP2 ADD SWAP1 PUSH3 0x16A SWAP2 SWAP1 PUSH3 0xADF JUMP JUMPDEST PUSH3 0x50C JUMP JUMPDEST STOP JUMPDEST PUSH3 0x190 PUSH1 0x4 DUP1 CALLDATASIZE SUB DUP2 ADD SWAP1 PUSH3 0x18A SWAP2 SWAP1 PUSH3 0xADF JUMP JUMPDEST PUSH3 0x5B3 JUMP JUMPDEST STOP JUMPDEST CALLVALUE DUP1 ISZERO PUSH3 0x19F JUMPI PUSH1 0x0 DUP1 REVERT JUMPDEST POP PUSH3 0x1BE PUSH1 0x4 DUP1 CALLDATASIZE SUB DUP2 ADD SWAP1 PUSH3 0x1B8 SWAP2 SWAP1 PUSH3 0x9A4 JUMP JUMPDEST PUSH3 0x65C JUMP JUMPDEST PUSH1 0x40 MLOAD PUSH3 0x1CD SWAP2 SWAP1 PUSH3 0xBB0 JUMP JUMPDEST PUSH1 0x40 MLOAD DUP1 SWAP2 SUB SWAP1 RETURN JUMPDEST PUSH1 0x0 CALLVALUE PUSH1 0x0 SLOAD SWAP1 DUP6 DUP6 PUSH1 0x40 MLOAD PUSH3 0x1ED SWAP1 PUSH3 0x69C JUMP JUMPDEST PUSH3 0x1FA SWAP3 SWAP2 SWAP1 PUSH3 0xBCD JUMP JUMPDEST DUP3 SWAP1 PUSH1 0x40 MLOAD DUP1 SWAP2 SUB SWAP1 DUP4 CREATE2 SWAP1 POP SWAP1 POP DUP1 ISZERO DUP1 ISZERO PUSH3 0x21C JUMPI RETURNDATASIZE PUSH1 0x0 DUP1 RETURNDATACOPY RETURNDATASIZE PUSH1 0x0 REVERT JUMPDEST POP SWAP1 POP PUSH1 0x1 DUP2 SWAP1 DUP1 PUSH1 0x1 DUP2 SLOAD ADD DUP1 DUP3 SSTORE DUP1 SWAP2 POP POP PUSH1 0x1 SWAP1 SUB SWAP1 PUSH1 0x0 MSTORE PUSH1 0x20 PUSH1 0x0 KECCAK256 ADD PUSH1 0x0 SWAP1 SWAP2 SWAP1 SWAP2 SWAP1 SWAP2 PUSH2 0x100 EXP DUP2 SLOAD DUP2 PUSH20 0xFFFFFFFFFFFFFFFFFFFFFFFFFFFFFFFFFFFFFFFF MUL NOT AND SWAP1 DUP4 PUSH20 0xFFFFFFFFFFFFFFFFFFFFFFFFFFFFFFFFFFFFFFFF AND MUL OR SWAP1 SSTORE POP POP POP POP POP JUMP JUMPDEST PUSH1 0x0 SLOAD DUP2 JUMP JUMPDEST PUSH1 0x0 PUSH1 0x60 PUSH1 0x0 DUP1 PUSH1 0x0 PUSH1 0x1 DUP7 DUP2 SLOAD DUP2 LT PUSH3 0x2AE JUMPI PUSH3 0x2AD PUSH3 0xC01 JUMP JUMPDEST JUMPDEST SWAP1 PUSH1 0x0 MSTORE PUSH1 0x20 PUSH1 0x0 KECCAK256 ADD PUSH1 0x0 SWAP1 SLOAD SWAP1 PUSH2 0x100 EXP SWAP1 DIV PUSH20 0xFFFFFFFFFFFFFFFFFFFFFFFFFFFFFFFFFFFFFFFF AND SWAP1 POP DUP1 PUSH20 0xFFFFFFFFFFFFFFFFFFFFFFFFFFFFFFFFFFFFFFFF AND PUSH4 0x8DA5CB5B PUSH1 0x40 MLOAD DUP2 PUSH4 0xFFFFFFFF AND PUSH1 0xE0 SHL DUP2 MSTORE PUSH1 0x4 ADD PUSH1 0x20 PUSH1 0x40 MLOAD DUP1 DUP4 SUB DUP2 DUP7 GAS STATICCALL ISZERO DUP1 ISZERO PUSH3 0x327 JUMPI RETURNDATASIZE PUSH1 0x0 DUP1 RETURNDATACOPY RETURNDATASIZE PUSH1 0x0 REVERT JUMPDEST POP POP POP POP PUSH1 0x40 MLOAD RETURNDATASIZE PUSH1 0x1F NOT PUSH1 0x1F DUP3 ADD AND DUP3 ADD DUP1 PUSH1 0x40 MSTORE POP DUP2 ADD SWAP1 PUSH3 0x34D SWAP2 SWAP1 PUSH3 0xC47 JUMP JUMPDEST DUP2 PUSH20 0xFFFFFFFFFFFFFFFFFFFFFFFFFFFFFFFFFFFFFFFF AND PUSH4 0xAD9D052 PUSH1 0x40 MLOAD DUP2 PUSH4 0xFFFFFFFF AND PUSH1 0xE0 SHL DUP2 MSTORE PUSH1 0x4 ADD PUSH1 0x0 PUSH1 0x40 MLOAD DUP1 DUP4 SUB DUP2 DUP7 GAS STATICCALL ISZERO DUP1 ISZERO PUSH3 0x399 JUMPI RETURNDATASIZE PUSH1 0x0 DUP1 RETURNDATACOPY RETURNDATASIZE PUSH1 0x0 REVERT JUMPDEST POP POP POP POP PUSH1 0x40 MLOAD RETURNDATASIZE PUSH1 0x0 DUP3 RETURNDATACOPY RETURNDATASIZE PUSH1 0x1F NOT PUSH1 0x1F DUP3 ADD AND DUP3 ADD DUP1 PUSH1 0x40 MSTORE POP DUP2 ADD SWAP1 PUSH3 0x3C4 SWAP2 SWAP1 PUSH3 0xCF7 JUMP JUMPDEST DUP3 PUSH20 0xFFFFFFFFFFFFFFFFFFFFFFFFFFFFFFFFFFFFFFFF AND PUSH4 0x514FA676 PUSH1 0x40 MLOAD DUP2 PUSH4 0xFFFFFFFF AND PUSH1 0xE0 SHL DUP2 MSTORE PUSH1 0x4 ADD PUSH1 0x20 PUSH1 0x40 MLOAD DUP1 DUP4 SUB DUP2 DUP7 GAS STATICCALL ISZERO DUP1 ISZERO PUSH3 0x410 JUMPI RETURNDATASIZE PUSH1 0x0 DUP1 RETURNDATACOPY RETURNDATASIZE PUSH1 0x0 REVERT JUMPDEST POP POP POP POP PUSH1 0x40 MLOAD RETURNDATASIZE PUSH1 0x1F NOT PUSH1 0x1F DUP3 ADD AND DUP3 ADD DUP1 PUSH1 0x40 MSTORE POP DUP2 ADD SWAP1 PUSH3 0x436 SWAP2 SWAP1 PUSH3 0xC47 JUMP JUMPDEST DUP4 PUSH20 0xFFFFFFFFFFFFFFFFFFFFFFFFFFFFFFFFFFFFFFFF AND BALANCE SWAP5 POP SWAP5 POP SWAP5 POP SWAP5 POP POP SWAP2 SWAP4 POP SWAP2 SWAP4 JUMP JUMPDEST PUSH1 0x0 DUP1 SLOAD DUP5 DUP5 PUSH1 0x40 MLOAD PUSH3 0x472 SWAP1 PUSH3 0x69C JUMP JUMPDEST PUSH3 0x47F SWAP3 SWAP2 SWAP1 PUSH3 0xBCD JUMP JUMPDEST DUP2 SWAP1 PUSH1 0x40 MLOAD DUP1 SWAP2 SUB SWAP1 PUSH1 0x0 CREATE2 SWAP1 POP DUP1 ISZERO DUP1 ISZERO PUSH3 0x4A0 JUMPI RETURNDATASIZE PUSH1 0x0 DUP1 RETURNDATACOPY RETURNDATASIZE PUSH1 0x0 REVERT JUMPDEST POP SWAP1 POP PUSH1 0x1 DUP2 SWAP1 DUP1 PUSH1 0x1 DUP2 SLOAD ADD DUP1 DUP3 SSTORE DUP1 SWAP2 POP POP PUSH1 0x1 SWAP1 SUB SWAP1 PUSH1 0x0 MSTORE PUSH1 0x20 PUSH1 0x0 KECCAK256 ADD PUSH1 0x0 SWAP1 SWAP2 SWAP1 SWAP2 SWAP1 SWAP2 PUSH2 0x100 EXP DUP2 SLOAD DUP2 PUSH20 0xFFFFFFFFFFFFFFFFFFFFFFFFFFFFFFFFFFFFFFFF MUL NOT AND SWAP1 DUP4 PUSH20 0xFFFFFFFFFFFFFFFFFFFFFFFFFFFFFFFFFFFFFFFF AND MUL OR SWAP1 SSTORE POP POP POP POP POP JUMP JUMPDEST PUSH1 0x0 DUP3 DUP3 PUSH1 0x40 MLOAD PUSH3 0x51E SWAP1 PUSH3 0x69C JUMP JUMPDEST PUSH3 0x52B SWAP3 SWAP2 SWAP1 PUSH3 0xBCD JUMP JUMPDEST PUSH1 0x40 MLOAD DUP1 SWAP2 SUB SWAP1 PUSH1 0x0 CREATE DUP1 ISZERO DUP1 ISZERO PUSH3 0x548 JUMPI RETURNDATASIZE PUSH1 0x0 DUP1 RETURNDATACOPY RETURNDATASIZE PUSH1 0x0 REVERT JUMPDEST POP SWAP1 POP PUSH1 0x1 DUP2 SWAP1 DUP1 PUSH1 0x1 DUP2 SLOAD ADD DUP1 DUP3 SSTORE DUP1 SWAP2 POP POP PUSH1 0x1 SWAP1 SUB SWAP1 PUSH1 0x0 MSTORE PUSH1 0x20 PUSH1 0x0 KECCAK256 ADD PUSH1 0x0 SWAP1 SWAP2 SWAP1 SWAP2 SWAP1 SWAP2 PUSH2 0x100 EXP DUP2 SLOAD DUP2 PUSH20 0xFFFFFFFFFFFFFFFFFFFFFFFFFFFFFFFFFFFFFFFF MUL NOT AND SWAP1 DUP4 PUSH20 0xFFFFFFFFFFFFFFFFFFFFFFFFFFFFFFFFFFFFFFFF AND MUL OR SWAP1 SSTORE POP POP POP POP JUMP JUMPDEST PUSH1 0x0 CALLVALUE DUP4 DUP4 PUSH1 0x40 MLOAD PUSH3 0x5C6 SWAP1 PUSH3 0x69C JUMP JUMPDEST PUSH3 0x5D3 SWAP3 SWAP2 SWAP1 PUSH3 0xBCD JUMP JUMPDEST PUSH1 0x40 MLOAD DUP1 SWAP2 SUB SWAP1 DUP3 CREATE SWAP1 POP DUP1 ISZERO DUP1 ISZERO PUSH3 0x5F1 JUMPI RETURNDATASIZE PUSH1 0x0 DUP1 RETURNDATACOPY RETURNDATASIZE PUSH1 0x0 REVERT JUMPDEST POP SWAP1 POP PUSH1 0x1 DUP2 SWAP1 DUP1 PUSH1 0x1 DUP2 SLOAD ADD DUP1 DUP3 SSTORE DUP1 SWAP2 POP POP PUSH1 0x1 SWAP1 SUB SWAP1 PUSH1 0x0 MSTORE PUSH1 0x20 PUSH1 0x0 KECCAK256 ADD PUSH1 0x0 SWAP1 SWAP2 SWAP1 SWAP2 SWAP1 SWAP2 PUSH2 0x100 EXP DUP2 SLOAD DUP2 PUSH20 0xFFFFFFFFFFFFFFFFFFFFFFFFFFFFFFFFFFFFFFFF MUL NOT AND SWAP1 DUP4 PUSH20 0xFFFFFFFFFFFFFFFFFFFFFFFFFFFFFFFFFFFFFFFF AND MUL OR SWAP1 SSTORE POP POP POP POP JUMP JUMPDEST PUSH1 0x1 DUP2 DUP2 SLOAD DUP2 LT PUSH3 0x66D JUMPI PUSH1 0x0 DUP1 REVERT JUMPDEST SWAP1 PUSH1 0x0 MSTORE PUSH1 0x20 PUSH1 0x0 KECCAK256 ADD PUSH1 0x0 SWAP2 POP SLOAD SWAP1 PUSH2 0x100 EXP SWAP1 DIV PUSH20 0xFFFFFFFFFFFFFFFFFFFFFFFFFFFFFFFFFFFFFFFF AND DUP2 JUMP JUMPDEST PUSH2 0x733 DUP1 PUSH3 0xD49 DUP4 CODECOPY ADD SWAP1 JUMP JUMPDEST PUSH1 0x0 PUSH1 0x40 MLOAD SWAP1 POP SWAP1 JUMP JUMPDEST PUSH1 0x0 DUP1 REVERT JUMPDEST PUSH1 0x0 DUP1 REVERT JUMPDEST PUSH1 0x0 PUSH20 0xFFFFFFFFFFFFFFFFFFFFFFFFFFFFFFFFFFFFFFFF DUP3 AND SWAP1 POP SWAP2 SWAP1 POP JUMP JUMPDEST PUSH1 0x0 PUSH3 0x6EB DUP3 PUSH3 0x6BE JUMP JUMPDEST SWAP1 POP SWAP2 SWAP1 POP JUMP JUMPDEST PUSH3 0x6FD DUP2 PUSH3 0x6DE JUMP JUMPDEST DUP2 EQ PUSH3 0x709 JUMPI PUSH1 0x0 DUP1 REVERT JUMPDEST POP JUMP JUMPDEST PUSH1 0x0 DUP2 CALLDATALOAD SWAP1 POP PUSH3 0x71D DUP2 PUSH3 0x6F2 JUMP JUMPDEST SWAP3 SWAP2 POP POP JUMP JUMPDEST PUSH1 0x0 DUP1 REVERT JUMPDEST PUSH1 0x0 DUP1 REVERT JUMPDEST PUSH1 0x0 PUSH1 0x1F NOT PUSH1 0x1F DUP4 ADD AND SWAP1 POP SWAP2 SWAP1 POP JUMP JUMPDEST PUSH32 0x4E487B7100000000000000000000000000000000000000000000000000000000 PUSH1 0x0 MSTORE PUSH1 0x41 PUSH1 0x4 MSTORE PUSH1 0x24 PUSH1 0x0 REVERT JUMPDEST PUSH3 0x778 DUP3 PUSH3 0x72D JUMP JUMPDEST DUP2 ADD DUP2 DUP2 LT PUSH8 0xFFFFFFFFFFFFFFFF DUP3 GT OR ISZERO PUSH3 0x79A JUMPI PUSH3 0x799 PUSH3 0x73E JUMP JUMPDEST JUMPDEST DUP1 PUSH1 0x40 MSTORE POP POP POP JUMP JUMPDEST PUSH1 0x0 PUSH3 0x7AF PUSH3 0x6AA JUMP JUMPDEST SWAP1 POP PUSH3 0x7BD DUP3 DUP3 PUSH3 0x76D JUMP JUMPDEST SWAP2 SWAP1 POP JUMP JUMPDEST PUSH1 0x0 PUSH8 0xFFFFFFFFFFFFFFFF DUP3 GT ISZERO PUSH3 0x7E0 JUMPI PUSH3 0x7DF PUSH3 0x73E JUMP JUMPDEST JUMPDEST PUSH3 0x7EB DUP3 PUSH3 0x72D JUMP JUMPDEST SWAP1 POP PUSH1 0x20 DUP2 ADD SWAP1 POP SWAP2 SWAP1 POP JUMP JUMPDEST DUP3 DUP2 DUP4 CALLDATACOPY PUSH1 0x0 DUP4 DUP4 ADD MSTORE POP POP POP JUMP JUMPDEST PUSH1 0x0 PUSH3 0x81E PUSH3 0x818 DUP5 PUSH3 0x7C2 JUMP JUMPDEST PUSH3 0x7A3 JUMP JUMPDEST SWAP1 POP DUP3 DUP2 MSTORE PUSH1 0x20 DUP2 ADD DUP5 DUP5 DUP5 ADD GT ISZERO PUSH3 0x83D JUMPI PUSH3 0x83C PUSH3 0x728 JUMP JUMPDEST JUMPDEST PUSH3 0x84A DUP5 DUP3 DUP6 PUSH3 0x7F8 JUMP JUMPDEST POP SWAP4 SWAP3 POP POP POP JUMP JUMPDEST PUSH1 0x0 DUP3 PUSH1 0x1F DUP4 ADD SLT PUSH3 0x86A JUMPI PUSH3 0x869 PUSH3 0x723 JUMP JUMPDEST JUMPDEST DUP2 CALLDATALOAD PUSH3 0x87C DUP5 DUP3 PUSH1 0x20 DUP7 ADD PUSH3 0x807 JUMP JUMPDEST SWAP2 POP POP SWAP3 SWAP2 POP POP JUMP JUMPDEST PUSH1 0x0 DUP2 SWAP1 POP SWAP2 SWAP1 POP JUMP JUMPDEST PUSH3 0x89A DUP2 PUSH3 0x885 JUMP JUMPDEST DUP2 EQ PUSH3 0x8A6 JUMPI PUSH1 0x0 DUP1 REVERT JUMPDEST POP JUMP JUMPDEST PUSH1 0x0 DUP2 CALLDATALOAD SWAP1 POP PUSH3 0x8BA DUP2 PUSH3 0x88F JUMP JUMPDEST SWAP3 SWAP2 POP POP JUMP JUMPDEST PUSH1 0x0 DUP1 PUSH1 0x0 PUSH1 0x60 DUP5 DUP7 SUB SLT ISZERO PUSH3 0x8DC JUMPI PUSH3 0x8DB PUSH3 0x6B4 JUMP JUMPDEST JUMPDEST PUSH1 0x0 PUSH3 0x8EC DUP7 DUP3 DUP8 ADD PUSH3 0x70C JUMP JUMPDEST SWAP4 POP POP PUSH1 0x20 DUP5 ADD CALLDATALOAD PUSH8 0xFFFFFFFFFFFFFFFF DUP2 GT ISZERO PUSH3 0x910 JUMPI PUSH3 0x90F PUSH3 0x6B9 JUMP JUMPDEST JUMPDEST PUSH3 0x91E DUP7 DUP3 DUP8 ADD PUSH3 0x852 JUMP JUMPDEST SWAP3 POP POP PUSH1 0x40 PUSH3 0x931 DUP7 DUP3 DUP8 ADD PUSH3 0x8A9 JUMP JUMPDEST SWAP2 POP POP SWAP3 POP SWAP3 POP SWAP3 JUMP JUMPDEST PUSH3 0x946 DUP2 PUSH3 0x885 JUMP JUMPDEST DUP3 MSTORE POP POP JUMP JUMPDEST PUSH1 0x0 PUSH1 0x20 DUP3 ADD SWAP1 POP PUSH3 0x963 PUSH1 0x0 DUP4 ADD DUP5 PUSH3 0x93B JUMP JUMPDEST SWAP3 SWAP2 POP POP JUMP JUMPDEST PUSH1 0x0 DUP2 SWAP1 POP SWAP2 SWAP1 POP JUMP JUMPDEST PUSH3 0x97E DUP2 PUSH3 0x969 JUMP JUMPDEST DUP2 EQ PUSH3 0x98A JUMPI PUSH1 0x0 DUP1 REVERT JUMPDEST POP JUMP JUMPDEST PUSH1 0x0 DUP2 CALLDATALOAD SWAP1 POP PUSH3 0x99E DUP2 PUSH3 0x973 JUMP JUMPDEST SWAP3 SWAP2 POP POP JUMP JUMPDEST PUSH1 0x0 PUSH1 0x20 DUP3 DUP5 SUB SLT ISZERO PUSH3 0x9BD JUMPI PUSH3 0x9BC PUSH3 0x6B4 JUMP JUMPDEST JUMPDEST PUSH1 0x0 PUSH3 0x9CD DUP5 DUP3 DUP6 ADD PUSH3 0x98D JUMP JUMPDEST SWAP2 POP POP SWAP3 SWAP2 POP POP JUMP JUMPDEST PUSH3 0x9E1 DUP2 PUSH3 0x6DE JUMP JUMPDEST DUP3 MSTORE POP POP JUMP JUMPDEST PUSH1 0x0 DUP2 MLOAD SWAP1 POP SWAP2 SWAP1 POP JUMP JUMPDEST PUSH1 0x0 DUP3 DUP3 MSTORE PUSH1 0x20 DUP3 ADD SWAP1 POP SWAP3 SWAP2 POP POP JUMP JUMPDEST PUSH1 0x0 JUMPDEST DUP4 DUP2 LT ISZERO PUSH3 0xA23 JUMPI DUP1 DUP3 ADD MLOAD DUP2 DUP5 ADD MSTORE PUSH1 0x20 DUP2 ADD SWAP1 POP PUSH3 0xA06 JUMP JUMPDEST DUP4 DUP2 GT ISZERO PUSH3 0xA33 JUMPI PUSH1 0x0 DUP5 DUP5 ADD MSTORE JUMPDEST POP POP POP POP JUMP JUMPDEST PUSH1 0x0 PUSH3 0xA46 DUP3 PUSH3 0x9E7 JUMP JUMPDEST PUSH3 0xA52 DUP2 DUP6 PUSH3 0x9F2 JUMP JUMPDEST SWAP4 POP PUSH3 0xA64 DUP2 DUP6 PUSH1 0x20 DUP7 ADD PUSH3 0xA03 JUMP JUMPDEST PUSH3 0xA6F DUP2 PUSH3 0x72D JUMP JUMPDEST DUP5 ADD SWAP2 POP POP SWAP3 SWAP2 POP POP JUMP JUMPDEST PUSH3 0xA85 DUP2 PUSH3 0x969 JUMP JUMPDEST DUP3 MSTORE POP POP JUMP JUMPDEST PUSH1 0x0 PUSH1 0x80 DUP3 ADD SWAP1 POP PUSH3 0xAA2 PUSH1 0x0 DUP4 ADD DUP8 PUSH3 0x9D6 JUMP JUMPDEST DUP2 DUP2 SUB PUSH1 0x20 DUP4 ADD MSTORE PUSH3 0xAB6 DUP2 DUP7 PUSH3 0xA39 JUMP JUMPDEST SWAP1 POP PUSH3 0xAC7 PUSH1 0x40 DUP4 ADD DUP6 PUSH3 0x9D6 JUMP JUMPDEST PUSH3 0xAD6 PUSH1 0x60 DUP4 ADD DUP5 PUSH3 0xA7A JUMP JUMPDEST SWAP6 SWAP5 POP POP POP POP POP JUMP JUMPDEST PUSH1 0x0 DUP1 PUSH1 0x40 DUP4 DUP6 SUB SLT ISZERO PUSH3 0xAF9 JUMPI PUSH3 0xAF8 PUSH3 0x6B4 JUMP JUMPDEST JUMPDEST PUSH1 0x0 PUSH3 0xB09 DUP6 DUP3 DUP7 ADD PUSH3 0x70C JUMP JUMPDEST SWAP3 POP POP PUSH1 0x20 DUP4 ADD CALLDATALOAD PUSH8 0xFFFFFFFFFFFFFFFF DUP2 GT ISZERO PUSH3 0xB2D JUMPI PUSH3 0xB2C PUSH3 0x6B9 JUMP JUMPDEST JUMPDEST PUSH3 0xB3B DUP6 DUP3 DUP7 ADD PUSH3 0x852 JUMP JUMPDEST SWAP2 POP POP SWAP3 POP SWAP3 SWAP1 POP JUMP JUMPDEST PUSH1 0x0 DUP2 SWAP1 POP SWAP2 SWAP1 POP JUMP JUMPDEST PUSH1 0x0 PUSH3 0xB70 PUSH3 0xB6A PUSH3 0xB64 DUP5 PUSH3 0x6BE JUMP JUMPDEST PUSH3 0xB45 JUMP JUMPDEST PUSH3 0x6BE JUMP JUMPDEST SWAP1 POP SWAP2 SWAP1 POP JUMP JUMPDEST PUSH1 0x0 PUSH3 0xB84 DUP3 PUSH3 0xB4F JUMP JUMPDEST SWAP1 POP SWAP2 SWAP1 POP JUMP JUMPDEST PUSH1 0x0 PUSH3 0xB98 DUP3 PUSH3 0xB77 JUMP JUMPDEST SWAP1 POP SWAP2 SWAP1 POP JUMP JUMPDEST PUSH3 0xBAA DUP2 PUSH3 0xB8B JUMP JUMPDEST DUP3 MSTORE POP POP JUMP JUMPDEST PUSH1 0x0 PUSH1 0x20 DUP3 ADD SWAP1 POP PUSH3 0xBC7 PUSH1 0x0 DUP4 ADD DUP5 PUSH3 0xB9F JUMP JUMPDEST SWAP3 SWAP2 POP POP JUMP JUMPDEST PUSH1 0x0 PUSH1 0x40 DUP3 ADD SWAP1 POP PUSH3 0xBE4 PUSH1 0x0 DUP4 ADD DUP6 PUSH3 0x9D6 JUMP JUMPDEST DUP2 DUP2 SUB PUSH1 0x20 DUP4 ADD MSTORE PUSH3 0xBF8 DUP2 DUP5 PUSH3 0xA39 JUMP JUMPDEST SWAP1 POP SWAP4 SWAP3 POP POP POP JUMP JUMPDEST PUSH32 0x4E487B7100000000000000000000000000000000000000000000000000000000 PUSH1 0x0 MSTORE PUSH1 0x32 PUSH1 0x4 MSTORE PUSH1 0x24 PUSH1 0x0 REVERT JUMPDEST PUSH1 0x0 DUP2 MLOAD SWAP1 POP PUSH3 0xC41 DUP2 PUSH3 0x6F2 JUMP JUMPDEST SWAP3 SWAP2 POP POP JUMP JUMPDEST PUSH1 0x0 PUSH1 0x20 DUP3 DUP5 SUB SLT ISZERO PUSH3 0xC60 JUMPI PUSH3 0xC5F PUSH3 0x6B4 JUMP JUMPDEST JUMPDEST PUSH1 0x0 PUSH3 0xC70 DUP5 DUP3 DUP6 ADD PUSH3 0xC30 JUMP JUMPDEST SWAP2 POP POP SWAP3 SWAP2 POP POP JUMP JUMPDEST PUSH1 0x0 PUSH3 0xC90 PUSH3 0xC8A DUP5 PUSH3 0x7C2 JUMP JUMPDEST PUSH3 0x7A3 JUMP JUMPDEST SWAP1 POP DUP3 DUP2 MSTORE PUSH1 0x20 DUP2 ADD DUP5 DUP5 DUP5 ADD GT ISZERO PUSH3 0xCAF JUMPI PUSH3 0xCAE PUSH3 0x728 JUMP JUMPDEST JUMPDEST PUSH3 0xCBC DUP5 DUP3 DUP6 PUSH3 0xA03 JUMP JUMPDEST POP SWAP4 SWAP3 POP POP POP JUMP JUMPDEST PUSH1 0x0 DUP3 PUSH1 0x1F DUP4 ADD SLT PUSH3 0xCDC JUMPI PUSH3 0xCDB PUSH3 0x723 JUMP JUMPDEST JUMPDEST DUP2 MLOAD PUSH3 0xCEE DUP5 DUP3 PUSH1 0x20 DUP7 ADD PUSH3 0xC79 JUMP JUMPDEST SWAP2 POP POP SWAP3 SWAP2 POP POP JUMP JUMPDEST PUSH1 0x0 PUSH1 0x20 DUP3 DUP5 SUB SLT ISZERO PUSH3 0xD10 JUMPI PUSH3 0xD0F PUSH3 0x6B4 JUMP JUMPDEST JUMPDEST PUSH1 0x0 DUP3 ADD MLOAD PUSH8 0xFFFFFFFFFFFFFFFF DUP2 GT ISZERO PUSH3 0xD31 JUMPI PUSH3 0xD30 PUSH3 0x6B9 JUMP JUMPDEST JUMPDEST PUSH3 0xD3F DUP5 DUP3 DUP6 ADD PUSH3 0xCC4 JUMP JUMPDEST SWAP2 POP POP SWAP3 SWAP2 POP POP JUMP INVALID PUSH1 0x80 PUSH1 0x40 MSTORE PUSH1 0x40 MLOAD PUSH2 0x733 CODESIZE SUB DUP1 PUSH2 0x733 DUP4 CODECOPY DUP2 DUP2 ADD PUSH1 0x40 MSTORE DUP2 ADD SWAP1 PUSH2 0x25 SWAP2 SWAP1 PUSH2 0x343 JUMP JUMPDEST DUP2 PUSH1 0x0 DUP1 PUSH2 0x100 EXP DUP2 SLOAD DUP2 PUSH20 0xFFFFFFFFFFFFFFFFFFFFFFFFFFFFFFFFFFFFFFFF MUL NOT AND SWAP1 DUP4 PUSH20 0xFFFFFFFFFFFFFFFFFFFFFFFFFFFFFFFFFFFFFFFF AND MUL OR SWAP1 SSTORE POP DUP1 PUSH1 0x1 SWAP1 DUP1 MLOAD SWAP1 PUSH1 0x20 ADD SWAP1 PUSH2 0x7B SWAP3 SWAP2 SWAP1 PUSH2 0xC4 JUMP JUMPDEST POP CALLER PUSH1 0x2 PUSH1 0x0 PUSH2 0x100 EXP DUP2 SLOAD DUP2 PUSH20 0xFFFFFFFFFFFFFFFFFFFFFFFFFFFFFFFFFFFFFFFF MUL NOT AND SWAP1 DUP4 PUSH20 0xFFFFFFFFFFFFFFFFFFFFFFFFFFFFFFFFFFFFFFFF AND MUL OR SWAP1 SSTORE POP POP POP PUSH2 0x3FF JUMP JUMPDEST DUP3 DUP1 SLOAD PUSH2 0xD0 SWAP1 PUSH2 0x3CE JUMP JUMPDEST SWAP1 PUSH1 0x0 MSTORE PUSH1 0x20 PUSH1 0x0 KECCAK256 SWAP1 PUSH1 0x1F ADD PUSH1 0x20 SWAP1 DIV DUP2 ADD SWAP3 DUP3 PUSH2 0xF2 JUMPI PUSH1 0x0 DUP6 SSTORE PUSH2 0x139 JUMP JUMPDEST DUP3 PUSH1 0x1F LT PUSH2 0x10B JUMPI DUP1 MLOAD PUSH1 0xFF NOT AND DUP4 DUP1 ADD OR DUP6 SSTORE PUSH2 0x139 JUMP JUMPDEST DUP3 DUP1 ADD PUSH1 0x1 ADD DUP6 SSTORE DUP3 ISZERO PUSH2 0x139 JUMPI SWAP2 DUP3 ADD JUMPDEST DUP3 DUP2 GT ISZERO PUSH2 0x138 JUMPI DUP3 MLOAD DUP3 SSTORE SWAP2 PUSH1 0x20 ADD SWAP2 SWAP1 PUSH1 0x1 ADD SWAP1 PUSH2 0x11D JUMP JUMPDEST JUMPDEST POP SWAP1 POP PUSH2 0x146 SWAP2 SWAP1 PUSH2 0x14A JUMP JUMPDEST POP SWAP1 JUMP JUMPDEST JUMPDEST DUP1 DUP3 GT ISZERO PUSH2 0x163 JUMPI PUSH1 0x0 DUP2 PUSH1 0x0 SWAP1 SSTORE POP PUSH1 0x1 ADD PUSH2 0x14B JUMP JUMPDEST POP SWAP1 JUMP JUMPDEST PUSH1 0x0 PUSH1 0x40 MLOAD SWAP1 POP SWAP1 JUMP JUMPDEST PUSH1 0x0 DUP1 REVERT JUMPDEST PUSH1 0x0 DUP1 REVERT JUMPDEST PUSH1 0x0 PUSH20 0xFFFFFFFFFFFFFFFFFFFFFFFFFFFFFFFFFFFFFFFF DUP3 AND SWAP1 POP SWAP2 SWAP1 POP JUMP JUMPDEST PUSH1 0x0 PUSH2 0x1A6 DUP3 PUSH2 0x17B JUMP JUMPDEST SWAP1 POP SWAP2 SWAP1 POP JUMP JUMPDEST PUSH2 0x1B6 DUP2 PUSH2 0x19B JUMP JUMPDEST DUP2 EQ PUSH2 0x1C1 JUMPI PUSH1 0x0 DUP1 REVERT JUMPDEST POP JUMP JUMPDEST PUSH1 0x0 DUP2 MLOAD SWAP1 POP PUSH2 0x1D3 DUP2 PUSH2 0x1AD JUMP JUMPDEST SWAP3 SWAP2 POP POP JUMP JUMPDEST PUSH1 0x0 DUP1 REVERT JUMPDEST PUSH1 0x0 DUP1 REVERT JUMPDEST PUSH1 0x0 PUSH1 0x1F NOT PUSH1 0x1F DUP4 ADD AND SWAP1 POP SWAP2 SWAP1 POP JUMP JUMPDEST PUSH32 0x4E487B7100000000000000000000000000000000000000000000000000000000 PUSH1 0x0 MSTORE PUSH1 0x41 PUSH1 0x4 MSTORE PUSH1 0x24 PUSH1 0x0 REVERT JUMPDEST PUSH2 0x22C DUP3 PUSH2 0x1E3 JUMP JUMPDEST DUP2 ADD DUP2 DUP2 LT PUSH8 0xFFFFFFFFFFFFFFFF DUP3 GT OR ISZERO PUSH2 0x24B JUMPI PUSH2 0x24A PUSH2 0x1F4 JUMP JUMPDEST JUMPDEST DUP1 PUSH1 0x40 MSTORE POP POP POP JUMP JUMPDEST PUSH1 0x0 PUSH2 0x25E PUSH2 0x167 JUMP JUMPDEST SWAP1 POP PUSH2 0x26A DUP3 DUP3 PUSH2 0x223 JUMP JUMPDEST SWAP2 SWAP1 POP JUMP JUMPDEST PUSH1 0x0 PUSH8 0xFFFFFFFFFFFFFFFF DUP3 GT ISZERO PUSH2 0x28A JUMPI PUSH2 0x289 PUSH2 0x1F4 JUMP JUMPDEST JUMPDEST PUSH2 0x293 DUP3 PUSH2 0x1E3 JUMP JUMPDEST SWAP1 POP PUSH1 0x20 DUP2 ADD SWAP1 POP SWAP2 SWAP1 POP JUMP JUMPDEST PUSH1 0x0 JUMPDEST DUP4 DUP2 LT ISZERO PUSH2 0x2BE JUMPI DUP1 DUP3 ADD MLOAD DUP2 DUP5 ADD MSTORE PUSH1 0x20 DUP2 ADD SWAP1 POP PUSH2 0x2A3 JUMP JUMPDEST DUP4 DUP2 GT ISZERO PUSH2 0x2CD JUMPI PUSH1 0x0 DUP5 DUP5 ADD MSTORE JUMPDEST POP POP POP POP JUMP JUMPDEST PUSH1 0x0 PUSH2 0x2E6 PUSH2 0x2E1 DUP5 PUSH2 0x26F JUMP JUMPDEST PUSH2 0x254 JUMP JUMPDEST SWAP1 POP DUP3 DUP2 MSTORE PUSH1 0x20 DUP2 ADD DUP5 DUP5 DUP5 ADD GT ISZERO PUSH2 0x302 JUMPI PUSH2 0x301 PUSH2 0x1DE JUMP JUMPDEST JUMPDEST PUSH2 0x30D DUP5 DUP3 DUP6 PUSH2 0x2A0 JUMP JUMPDEST POP SWAP4 SWAP3 POP POP POP JUMP JUMPDEST PUSH1 0x0 DUP3 PUSH1 0x1F DUP4 ADD SLT PUSH2 0x32A JUMPI PUSH2 0x329 PUSH2 0x1D9 JUMP JUMPDEST JUMPDEST DUP2 MLOAD PUSH2 0x33A DUP5 DUP3 PUSH1 0x20 DUP7 ADD PUSH2 0x2D3 JUMP JUMPDEST SWAP2 POP POP SWAP3 SWAP2 POP POP JUMP JUMPDEST PUSH1 0x0 DUP1 PUSH1 0x40 DUP4 DUP6 SUB SLT ISZERO PUSH2 0x35A JUMPI PUSH2 0x359 PUSH2 0x171 JUMP JUMPDEST JUMPDEST PUSH1 0x0 PUSH2 0x368 DUP6 DUP3 DUP7 ADD PUSH2 0x1C4 JUMP JUMPDEST SWAP3 POP POP PUSH1 0x20 DUP4 ADD MLOAD PUSH8 0xFFFFFFFFFFFFFFFF DUP2 GT ISZERO PUSH2 0x389 JUMPI PUSH2 0x388 PUSH2 0x176 JUMP JUMPDEST JUMPDEST PUSH2 0x395 DUP6 DUP3 DUP7 ADD PUSH2 0x315 JUMP JUMPDEST SWAP2 POP POP SWAP3 POP SWAP3 SWAP1 POP JUMP JUMPDEST PUSH32 0x4E487B7100000000000000000000000000000000000000000000000000000000 PUSH1 0x0 MSTORE PUSH1 0x22 PUSH1 0x4 MSTORE PUSH1 0x24 PUSH1 0x0 REVERT JUMPDEST PUSH1 0x0 PUSH1 0x2 DUP3 DIV SWAP1 POP PUSH1 0x1 DUP3 AND DUP1 PUSH2 0x3E6 JUMPI PUSH1 0x7F DUP3 AND SWAP2 POP JUMPDEST PUSH1 0x20 DUP3 LT DUP2 SUB PUSH2 0x3F9 JUMPI PUSH2 0x3F8 PUSH2 0x39F JUMP JUMPDEST JUMPDEST POP SWAP2 SWAP1 POP JUMP JUMPDEST PUSH2 0x325 DUP1 PUSH2 0x40E PUSH1 0x0 CODECOPY PUSH1 0x0 RETURN INVALID PUSH1 0x80 PUSH1 0x40 MSTORE CALLVALUE DUP1 ISZERO PUSH2 0x10 JUMPI PUSH1 0x0 DUP1 REVERT JUMPDEST POP PUSH1 0x4 CALLDATASIZE LT PUSH2 0x41 JUMPI PUSH1 0x0 CALLDATALOAD PUSH1 0xE0 SHR DUP1 PUSH4 0xAD9D052 EQ PUSH2 0x46 JUMPI DUP1 PUSH4 0x514FA676 EQ PUSH2 0x64 JUMPI DUP1 PUSH4 0x8DA5CB5B EQ PUSH2 0x82 JUMPI JUMPDEST PUSH1 0x0 DUP1 REVERT JUMPDEST PUSH2 0x4E PUSH2 0xA0 JUMP JUMPDEST PUSH1 0x40 MLOAD PUSH2 0x5B SWAP2 SWAP1 PUSH2 0x211 JUMP JUMPDEST PUSH1 0x40 MLOAD DUP1 SWAP2 SUB SWAP1 RETURN JUMPDEST PUSH2 0x6C PUSH2 0x12E JUMP JUMPDEST PUSH1 0x40 MLOAD PUSH2 0x79 SWAP2 SWAP1 PUSH2 0x274 JUMP JUMPDEST PUSH1 0x40 MLOAD DUP1 SWAP2 SUB SWAP1 RETURN JUMPDEST PUSH2 0x8A PUSH2 0x154 JUMP JUMPDEST PUSH1 0x40 MLOAD PUSH2 0x97 SWAP2 SWAP1 PUSH2 0x274 JUMP JUMPDEST PUSH1 0x40 MLOAD DUP1 SWAP2 SUB SWAP1 RETURN JUMPDEST PUSH1 0x1 DUP1 SLOAD PUSH2 0xAD SWAP1 PUSH2 0x2BE JUMP JUMPDEST DUP1 PUSH1 0x1F ADD PUSH1 0x20 DUP1 SWAP2 DIV MUL PUSH1 0x20 ADD PUSH1 0x40 MLOAD SWAP1 DUP2 ADD PUSH1 0x40 MSTORE DUP1 SWAP3 SWAP2 SWAP1 DUP2 DUP2 MSTORE PUSH1 0x20 ADD DUP3 DUP1 SLOAD PUSH2 0xD9 SWAP1 PUSH2 0x2BE JUMP JUMPDEST DUP1 ISZERO PUSH2 0x126 JUMPI DUP1 PUSH1 0x1F LT PUSH2 0xFB JUMPI PUSH2 0x100 DUP1 DUP4 SLOAD DIV MUL DUP4 MSTORE SWAP2 PUSH1 0x20 ADD SWAP2 PUSH2 0x126 JUMP JUMPDEST DUP3 ADD SWAP2 SWAP1 PUSH1 0x0 MSTORE PUSH1 0x20 PUSH1 0x0 KECCAK256 SWAP1 JUMPDEST DUP2 SLOAD DUP2 MSTORE SWAP1 PUSH1 0x1 ADD SWAP1 PUSH1 0x20 ADD DUP1 DUP4 GT PUSH2 0x109 JUMPI DUP3 SWAP1 SUB PUSH1 0x1F AND DUP3 ADD SWAP2 JUMPDEST POP POP POP POP POP DUP2 JUMP JUMPDEST PUSH1 0x2 PUSH1 0x0 SWAP1 SLOAD SWAP1 PUSH2 0x100 EXP SWAP1 DIV PUSH20 0xFFFFFFFFFFFFFFFFFFFFFFFFFFFFFFFFFFFFFFFF AND DUP2 JUMP JUMPDEST PUSH1 0x0 DUP1 SLOAD SWAP1 PUSH2 0x100 EXP SWAP1 DIV PUSH20 0xFFFFFFFFFFFFFFFFFFFFFFFFFFFFFFFFFFFFFFFF AND DUP2 JUMP JUMPDEST PUSH1 0x0 DUP2 MLOAD SWAP1 POP SWAP2 SWAP1 POP JUMP JUMPDEST PUSH1 0x0 DUP3 DUP3 MSTORE PUSH1 0x20 DUP3 ADD SWAP1 POP SWAP3 SWAP2 POP POP JUMP JUMPDEST PUSH1 0x0 JUMPDEST DUP4 DUP2 LT ISZERO PUSH2 0x1B2 JUMPI DUP1 DUP3 ADD MLOAD DUP2 DUP5 ADD MSTORE PUSH1 0x20 DUP2 ADD SWAP1 POP PUSH2 0x197 JUMP JUMPDEST DUP4 DUP2 GT ISZERO PUSH2 0x1C1 JUMPI PUSH1 0x0 DUP5 DUP5 ADD MSTORE JUMPDEST POP POP POP POP JUMP JUMPDEST PUSH1 0x0 PUSH1 0x1F NOT PUSH1 0x1F DUP4 ADD AND SWAP1 POP SWAP2 SWAP1 POP JUMP JUMPDEST PUSH1 0x0 PUSH2 0x1E3 DUP3 PUSH2 0x178 JUMP JUMPDEST PUSH2 0x1ED DUP2 DUP6 PUSH2 0x183 JUMP JUMPDEST SWAP4 POP PUSH2 0x1FD DUP2 DUP6 PUSH1 0x20 DUP7 ADD PUSH2 0x194 JUMP JUMPDEST PUSH2 0x206 DUP2 PUSH2 0x1C7 JUMP JUMPDEST DUP5 ADD SWAP2 POP POP SWAP3 SWAP2 POP POP JUMP JUMPDEST PUSH1 0x0 PUSH1 0x20 DUP3 ADD SWAP1 POP DUP2 DUP2 SUB PUSH1 0x0 DUP4 ADD MSTORE PUSH2 0x22B DUP2 DUP5 PUSH2 0x1D8 JUMP JUMPDEST SWAP1 POP SWAP3 SWAP2 POP POP JUMP JUMPDEST PUSH1 0x0 PUSH20 0xFFFFFFFFFFFFFFFFFFFFFFFFFFFFFFFFFFFFFFFF DUP3 AND SWAP1 POP SWAP2 SWAP1 POP JUMP JUMPDEST PUSH1 0x0 PUSH2 0x25E DUP3 PUSH2 0x233 JUMP JUMPDEST SWAP1 POP SWAP2 SWAP1 POP JUMP JUMPDEST PUSH2 0x26E DUP2 PUSH2 0x253 JUMP JUMPDEST DUP3 MSTORE POP POP JUMP JUMPDEST PUSH1 0x0 PUSH1 0x20 DUP3 ADD SWAP1 POP PUSH2 0x289 PUSH1 0x0 DUP4 ADD DUP5 PUSH2 0x265 JUMP JUMPDEST SWAP3 SWAP2 POP POP JUMP JUMPDEST PUSH32 0x4E487B7100000000000000000000000000000000000000000000000000000000 PUSH1 0x0 MSTORE PUSH1 0x22 PUSH1 0x4 MSTORE PUSH1 0x24 PUSH1 0x0 REVERT JUMPDEST PUSH1 0x0 PUSH1 0x2 DUP3 DIV SWAP1 POP PUSH1 0x1 DUP3 AND DUP1 PUSH2 0x2D6 JUMPI PUSH1 0x7F DUP3 AND SWAP2 POP JUMPDEST PUSH1 0x20 DUP3 LT DUP2 SUB PUSH2 0x2E9 JUMPI PUSH2 0x2E8 PUSH2 0x28F JUMP JUMPDEST JUMPDEST POP SWAP2 SWAP1 POP JUMP INVALID LOG2 PUSH5 0x6970667358 0x22 SLT KECCAK256 0xA8 PUSH28 0xE0ED6578B40ED7C4643FBC7DC6099ADD9AD2F0C599F8C903FCDF791A 0xEE 0xC PUSH5 0x736F6C6343 STOP ADDMOD 0xD STOP CALLER LOG2 PUSH5 0x6970667358 0x22 SLT KECCAK256 DIFFICULTY LT OR 0xD1 0xD0 0xD0 PUSH8 0x635FDC9B9CF0C6EC CALLER BASEFEE 0xB0 SWAP4 BLOCKHASH 0xD1 0x2C DELEGATECALL 0xAE JUMPDEST DUP6 SWAP3 0xA7 0xB1 LOG3 0xD7 0x2E PUSH5 0x736F6C6343 STOP ADDMOD 0xD STOP CALLER "
				},
				"gasEstimates": {
					"creation": {
						"codeDepositCost": "1059400",
						"executionCost": "23214",
						"totalCost": "1082614"
					},
					"external": {
						"cars(uint256)": "infinite",
						"create2AndSendEther(address,string,bytes32)": "infinite",
						"createAndSendEther(address,string)": "infinite",
						"createCar(address,string)": "infinite",
						"createCar2(address,string,bytes32)": "infinite",
						"getCar(uint256)": "infinite",
						"mySalt()": "2452"
					}
				},
				"methodIdentifiers": {
					"cars(uint256)": "f7746e36",
					"create2AndSendEther(address,string,bytes32)": "3d4b3015",
					"createAndSendEther(address,string)": "c33cd615",
					"createCar(address,string)": "a5e57b47",
					"createCar2(address,string,bytes32)": "a429f47d",
					"getCar(uint256)": "5e8be190",
					"mySalt()": "517548e2"
				}
			},
			"userdoc": {
				"kind": "user",
				"methods": {},
				"version": 1
			}
		}
	}
}