{
	"LoopConditionExam.sol": {
		"LoopCondition": {
			"abi": [
				{
					"inputs": [],
					"stateMutability": "nonpayable",
					"type": "constructor"
				},
				{
					"inputs": [],
					"name": "countEvenNumbers",
					"outputs": [
						{
							"internalType": "uint256",
							"name": "",
							"type": "uint256"
						}
					],
					"stateMutability": "view",
					"type": "function"
				},
				{
					"inputs": [],
					"name": "countOddNumbers",
					"outputs": [
						{
							"internalType": "uint256",
							"name": "",
							"type": "uint256"
						}
					],
					"stateMutability": "view",
					"type": "function"
				},
				{
					"inputs": [],
					"name": "isOwner",
					"outputs": [
						{
							"internalType": "bool",
							"name": "",
							"type": "bool"
						}
					],
					"stateMutability": "view",
					"type": "function"
				},
				{
					"inputs": [
						{
							"internalType": "uint256",
							"name": "",
							"type": "uint256"
						}
					],
					"name": "numbers",
					"outputs": [
						{
							"internalType": "uint256",
							"name": "",
							"type": "uint256"
						}
					],
					"stateMutability": "view",
					"type": "function"
				}
			],
			"devdoc": {
				"kind": "dev",
				"methods": {},
				"version": 1
			},
			"evm": {
				"assembly": "    /* \"LoopConditionExam.sol\":69:1300  contract LoopCondition {\r... */\n  mstore(0x40, 0x80)\n    /* \"LoopConditionExam.sol\":99:174  uint[] public numbers = [1, 2, 3, 4, 5, 6, 7, 8, 9, 10, 11, 12, 13, 14, 15] */\n  mload(0x40)\n  dup1\n  0x01e0\n  add\n  0x40\n  mstore\n  dup1\n    /* \"LoopConditionExam.sol\":124:125  1 */\n  0x01\n    /* \"LoopConditionExam.sol\":99:174  uint[] public numbers = [1, 2, 3, 4, 5, 6, 7, 8, 9, 10, 11, 12, 13, 14, 15] */\n  0xff\n  and\n  dup2\n  mstore\n  0x20\n  add\n    /* \"LoopConditionExam.sol\":127:128  2 */\n  0x02\n    /* \"LoopConditionExam.sol\":99:174  uint[] public numbers = [1, 2, 3, 4, 5, 6, 7, 8, 9, 10, 11, 12, 13, 14, 15] */\n  0xff\n  and\n  dup2\n  mstore\n  0x20\n  add\n    /* \"LoopConditionExam.sol\":130:131  3 */\n  0x03\n    /* \"LoopConditionExam.sol\":99:174  uint[] public numbers = [1, 2, 3, 4, 5, 6, 7, 8, 9, 10, 11, 12, 13, 14, 15] */\n  0xff\n  and\n  dup2\n  mstore\n  0x20\n  add\n    /* \"LoopConditionExam.sol\":133:134  4 */\n  0x04\n    /* \"LoopConditionExam.sol\":99:174  uint[] public numbers = [1, 2, 3, 4, 5, 6, 7, 8, 9, 10, 11, 12, 13, 14, 15] */\n  0xff\n  and\n  dup2\n  mstore\n  0x20\n  add\n    /* \"LoopConditionExam.sol\":136:137  5 */\n  0x05\n    /* \"LoopConditionExam.sol\":99:174  uint[] public numbers = [1, 2, 3, 4, 5, 6, 7, 8, 9, 10, 11, 12, 13, 14, 15] */\n  0xff\n  and\n  dup2\n  mstore\n  0x20\n  add\n    /* \"LoopConditionExam.sol\":139:140  6 */\n  0x06\n    /* \"LoopConditionExam.sol\":99:174  uint[] public numbers = [1, 2, 3, 4, 5, 6, 7, 8, 9, 10, 11, 12, 13, 14, 15] */\n  0xff\n  and\n  dup2\n  mstore\n  0x20\n  add\n    /* \"LoopConditionExam.sol\":142:143  7 */\n  0x07\n    /* \"LoopConditionExam.sol\":99:174  uint[] public numbers = [1, 2, 3, 4, 5, 6, 7, 8, 9, 10, 11, 12, 13, 14, 15] */\n  0xff\n  and\n  dup2\n  mstore\n  0x20\n  add\n    /* \"LoopConditionExam.sol\":145:146  8 */\n  0x08\n    /* \"LoopConditionExam.sol\":99:174  uint[] public numbers = [1, 2, 3, 4, 5, 6, 7, 8, 9, 10, 11, 12, 13, 14, 15] */\n  0xff\n  and\n  dup2\n  mstore\n  0x20\n  add\n    /* \"LoopConditionExam.sol\":148:149  9 */\n  0x09\n    /* \"LoopConditionExam.sol\":99:174  uint[] public numbers = [1, 2, 3, 4, 5, 6, 7, 8, 9, 10, 11, 12, 13, 14, 15] */\n  0xff\n  and\n  dup2\n  mstore\n  0x20\n  add\n    /* \"LoopConditionExam.sol\":151:153  10 */\n  0x0a\n    /* \"LoopConditionExam.sol\":99:174  uint[] public numbers = [1, 2, 3, 4, 5, 6, 7, 8, 9, 10, 11, 12, 13, 14, 15] */\n  0xff\n  and\n  dup2\n  mstore\n  0x20\n  add\n    /* \"LoopConditionExam.sol\":155:157  11 */\n  0x0b\n    /* \"LoopConditionExam.sol\":99:174  uint[] public numbers = [1, 2, 3, 4, 5, 6, 7, 8, 9, 10, 11, 12, 13, 14, 15] */\n  0xff\n  and\n  dup2\n  mstore\n  0x20\n  add\n    /* \"LoopConditionExam.sol\":159:161  12 */\n  0x0c\n    /* \"LoopConditionExam.sol\":99:174  uint[] public numbers = [1, 2, 3, 4, 5, 6, 7, 8, 9, 10, 11, 12, 13, 14, 15] */\n  0xff\n  and\n  dup2\n  mstore\n  0x20\n  add\n    /* \"LoopConditionExam.sol\":163:165  13 */\n  0x0d\n    /* \"LoopConditionExam.sol\":99:174  uint[] public numbers = [1, 2, 3, 4, 5, 6, 7, 8, 9, 10, 11, 12, 13, 14, 15] */\n  0xff\n  and\n  dup2\n  mstore\n  0x20\n  add\n    /* \"LoopConditionExam.sol\":167:169  14 */\n  0x0e\n    /* \"LoopConditionExam.sol\":99:174  uint[] public numbers = [1, 2, 3, 4, 5, 6, 7, 8, 9, 10, 11, 12, 13, 14, 15] */\n  0xff\n  and\n  dup2\n  mstore\n  0x20\n  add\n    /* \"LoopConditionExam.sol\":171:173  15 */\n  0x0f\n    /* \"LoopConditionExam.sol\":99:174  uint[] public numbers = [1, 2, 3, 4, 5, 6, 7, 8, 9, 10, 11, 12, 13, 14, 15] */\n  0xff\n  and\n  dup2\n  mstore\n  pop\n  0x00\n  swap1\n  0x0f\n  tag_1\n  swap3\n  swap2\n  swap1\n  tag_2\n  jump\t// in\ntag_1:\n  pop\n    /* \"LoopConditionExam.sol\":211:269  constructor() public {\r... */\n  callvalue\n  dup1\n  iszero\n  tag_3\n  jumpi\n  0x00\n  dup1\n  revert\ntag_3:\n  pop\n    /* \"LoopConditionExam.sol\":251:261  msg.sender */\n  caller\n    /* \"LoopConditionExam.sol\":243:248  owner */\n  0x01\n  0x00\n    /* \"LoopConditionExam.sol\":243:261  owner = msg.sender */\n  0x0100\n  exp\n  dup2\n  sload\n  dup2\n  0xffffffffffffffffffffffffffffffffffffffff\n  mul\n  not\n  and\n  swap1\n  dup4\n  0xffffffffffffffffffffffffffffffffffffffff\n  and\n  mul\n  or\n  swap1\n  sstore\n  pop\n    /* \"LoopConditionExam.sol\":69:1300  contract LoopCondition {\r... */\n  jump(tag_6)\ntag_2:\n  dup3\n  dup1\n  sload\n  dup3\n  dup3\n  sstore\n  swap1\n  0x00\n  mstore\n  keccak256(0x00, 0x20)\n  swap1\n  dup2\n  add\n  swap3\n  dup3\n  iszero\n  tag_7\n  jumpi\n  swap2\n  0x20\n  mul\n  dup3\n  add\ntag_8:\n  dup3\n  dup2\n  gt\n  iszero\n  tag_9\n  jumpi\n  dup3\n  mload\n  dup3\n  swap1\n  0xff\n  and\n  swap1\n  sstore\n  swap2\n  0x20\n  add\n  swap2\n  swap1\n  0x01\n  add\n  swap1\n  jump(tag_8)\ntag_9:\ntag_7:\n  pop\n  swap1\n  pop\n  tag_10\n  swap2\n  swap1\n  tag_11\n  jump\t// in\ntag_10:\n  pop\n  swap1\n  jump\t// out\ntag_11:\ntag_12:\n  dup1\n  dup3\n  gt\n  iszero\n  tag_13\n  jumpi\n  0x00\n  dup2\n  0x00\n  swap1\n  sstore\n  pop\n  0x01\n  add\n  jump(tag_12)\ntag_13:\n  pop\n  swap1\n  jump\t// out\ntag_6:\n  dataSize(sub_0)\n  dup1\n  dataOffset(sub_0)\n  0x00\n  codecopy\n  0x00\n  return\nstop\n\nsub_0: assembly {\n        /* \"LoopConditionExam.sol\":69:1300  contract LoopCondition {\r... */\n      mstore(0x40, 0x80)\n      callvalue\n      dup1\n      iszero\n      tag_1\n      jumpi\n      0x00\n      dup1\n      revert\n    tag_1:\n      pop\n      jumpi(tag_2, lt(calldatasize, 0x04))\n      shr(0xe0, calldataload(0x00))\n      dup1\n      0x306d3e02\n      eq\n      tag_3\n      jumpi\n      dup1\n      0x4fa0e692\n      eq\n      tag_4\n      jumpi\n      dup1\n      0x8f32d59b\n      eq\n      tag_5\n      jumpi\n      dup1\n      0xd39fa233\n      eq\n      tag_6\n      jumpi\n    tag_2:\n      0x00\n      dup1\n      revert\n        /* \"LoopConditionExam.sol\":277:541  function countEvenNumbers() public view returns (uint) {\r... */\n    tag_3:\n      tag_7\n      tag_8\n      jump\t// in\n    tag_7:\n      mload(0x40)\n      dup1\n      dup3\n      dup2\n      mstore\n      0x20\n      add\n      swap2\n      pop\n      pop\n      mload(0x40)\n      dup1\n      swap2\n      sub\n      swap1\n      return\n        /* \"LoopConditionExam.sol\":742:1004  function countOddNumbers() public view returns (uint) {\r... */\n    tag_4:\n      tag_9\n      tag_10\n      jump\t// in\n    tag_9:\n      mload(0x40)\n      dup1\n      dup3\n      dup2\n      mstore\n      0x20\n      add\n      swap2\n      pop\n      pop\n      mload(0x40)\n      dup1\n      swap2\n      sub\n      swap1\n      return\n        /* \"LoopConditionExam.sol\":1204:1297  function isOwner() public view returns (bool) {\r... */\n    tag_5:\n      tag_11\n      tag_12\n      jump\t// in\n    tag_11:\n      mload(0x40)\n      dup1\n      dup3\n      iszero\n      iszero\n      dup2\n      mstore\n      0x20\n      add\n      swap2\n      pop\n      pop\n      mload(0x40)\n      dup1\n      swap2\n      sub\n      swap1\n      return\n        /* \"LoopConditionExam.sol\":99:174  uint[] public numbers = [1, 2, 3, 4, 5, 6, 7, 8, 9, 10, 11, 12, 13, 14, 15] */\n    tag_6:\n      tag_13\n      0x04\n      dup1\n      calldatasize\n      sub\n      0x20\n      dup2\n      lt\n      iszero\n      tag_14\n      jumpi\n      0x00\n      dup1\n      revert\n    tag_14:\n      dup2\n      add\n      swap1\n      dup1\n      dup1\n      calldataload\n      swap1\n      0x20\n      add\n      swap1\n      swap3\n      swap2\n      swap1\n      pop\n      pop\n      pop\n      tag_15\n      jump\t// in\n    tag_13:\n      mload(0x40)\n      dup1\n      dup3\n      dup2\n      mstore\n      0x20\n      add\n      swap2\n      pop\n      pop\n      mload(0x40)\n      dup1\n      swap2\n      sub\n      swap1\n      return\n        /* \"LoopConditionExam.sol\":277:541  function countEvenNumbers() public view returns (uint) {\r... */\n    tag_8:\n        /* \"LoopConditionExam.sol\":326:330  uint */\n      0x00\n        /* \"LoopConditionExam.sol\":343:353  uint count */\n      dup1\n        /* \"LoopConditionExam.sol\":356:357  0 */\n      0x00\n        /* \"LoopConditionExam.sol\":343:357  uint count = 0 */\n      swap1\n      pop\n        /* \"LoopConditionExam.sol\":373:379  uint i */\n      0x00\n        /* \"LoopConditionExam.sol\":368:509  for (uint i = 0; i < numbers.length; i++) {\r... */\n    tag_17:\n        /* \"LoopConditionExam.sol\":389:396  numbers */\n      0x00\n        /* \"LoopConditionExam.sol\":389:403  numbers.length */\n      dup1\n      sload\n      swap1\n      pop\n        /* \"LoopConditionExam.sol\":385:386  i */\n      dup2\n        /* \"LoopConditionExam.sol\":385:403  i < numbers.length */\n      lt\n        /* \"LoopConditionExam.sol\":368:509  for (uint i = 0; i < numbers.length; i++) {\r... */\n      iszero\n      tag_18\n      jumpi\n        /* \"LoopConditionExam.sol\":429:453  isEvenNumber(numbers[i]) */\n      tag_20\n        /* \"LoopConditionExam.sol\":442:449  numbers */\n      0x00\n        /* \"LoopConditionExam.sol\":450:451  i */\n      dup3\n        /* \"LoopConditionExam.sol\":442:452  numbers[i] */\n      dup2\n      sload\n      dup2\n      lt\n      tag_21\n      jumpi\n      invalid\n    tag_21:\n      swap1\n      0x00\n      mstore\n      keccak256(0x00, 0x20)\n      add\n      sload\n        /* \"LoopConditionExam.sol\":429:441  isEvenNumber */\n      tag_23\n        /* \"LoopConditionExam.sol\":429:453  isEvenNumber(numbers[i]) */\n      jump\t// in\n    tag_20:\n        /* \"LoopConditionExam.sol\":425:498  if (isEvenNumber(numbers[i])) {\r... */\n      iszero\n      tag_24\n      jumpi\n        /* \"LoopConditionExam.sol\":474:482  count ++ */\n      dup2\n      dup1\n      0x01\n      add\n      swap3\n      pop\n      pop\n        /* \"LoopConditionExam.sol\":425:498  if (isEvenNumber(numbers[i])) {\r... */\n    tag_24:\n        /* \"LoopConditionExam.sol\":405:408  i++ */\n      dup1\n      dup1\n      0x01\n      add\n      swap2\n      pop\n      pop\n        /* \"LoopConditionExam.sol\":368:509  for (uint i = 0; i < numbers.length; i++) {\r... */\n      jump(tag_17)\n    tag_18:\n      pop\n        /* \"LoopConditionExam.sol\":528:533  count */\n      dup1\n        /* \"LoopConditionExam.sol\":521:533  return count */\n      swap2\n      pop\n      pop\n        /* \"LoopConditionExam.sol\":277:541  function countEvenNumbers() public view returns (uint) {\r... */\n      swap1\n      jump\t// out\n        /* \"LoopConditionExam.sol\":742:1004  function countOddNumbers() public view returns (uint) {\r... */\n    tag_10:\n        /* \"LoopConditionExam.sol\":790:794  uint */\n      0x00\n        /* \"LoopConditionExam.sol\":807:817  uint count */\n      dup1\n        /* \"LoopConditionExam.sol\":820:821  0 */\n      0x00\n        /* \"LoopConditionExam.sol\":807:821  uint count = 0 */\n      swap1\n      pop\n        /* \"LoopConditionExam.sol\":837:843  uint i */\n      0x00\n        /* \"LoopConditionExam.sol\":832:972  for (uint i = 0; i < numbers.length; i++) {\r... */\n    tag_26:\n        /* \"LoopConditionExam.sol\":853:860  numbers */\n      0x00\n        /* \"LoopConditionExam.sol\":853:867  numbers.length */\n      dup1\n      sload\n      swap1\n      pop\n        /* \"LoopConditionExam.sol\":849:850  i */\n      dup2\n        /* \"LoopConditionExam.sol\":849:867  i < numbers.length */\n      lt\n        /* \"LoopConditionExam.sol\":832:972  for (uint i = 0; i < numbers.length; i++) {\r... */\n      iszero\n      tag_27\n      jumpi\n        /* \"LoopConditionExam.sol\":893:916  isOddNumber(numbers[i]) */\n      tag_29\n        /* \"LoopConditionExam.sol\":905:912  numbers */\n      0x00\n        /* \"LoopConditionExam.sol\":913:914  i */\n      dup3\n        /* \"LoopConditionExam.sol\":905:915  numbers[i] */\n      dup2\n      sload\n      dup2\n      lt\n      tag_30\n      jumpi\n      invalid\n    tag_30:\n      swap1\n      0x00\n      mstore\n      keccak256(0x00, 0x20)\n      add\n      sload\n        /* \"LoopConditionExam.sol\":893:904  isOddNumber */\n      tag_32\n        /* \"LoopConditionExam.sol\":893:916  isOddNumber(numbers[i]) */\n      jump\t// in\n    tag_29:\n        /* \"LoopConditionExam.sol\":889:961  if (isOddNumber(numbers[i])) {\r... */\n      iszero\n      tag_33\n      jumpi\n        /* \"LoopConditionExam.sol\":937:945  count ++ */\n      dup2\n      dup1\n      0x01\n      add\n      swap3\n      pop\n      pop\n        /* \"LoopConditionExam.sol\":889:961  if (isOddNumber(numbers[i])) {\r... */\n    tag_33:\n        /* \"LoopConditionExam.sol\":869:872  i++ */\n      dup1\n      dup1\n      0x01\n      add\n      swap2\n      pop\n      pop\n        /* \"LoopConditionExam.sol\":832:972  for (uint i = 0; i < numbers.length; i++) {\r... */\n      jump(tag_26)\n    tag_27:\n      pop\n        /* \"LoopConditionExam.sol\":991:996  count */\n      dup1\n        /* \"LoopConditionExam.sol\":984:996  return count */\n      swap2\n      pop\n      pop\n        /* \"LoopConditionExam.sol\":742:1004  function countOddNumbers() public view returns (uint) {\r... */\n      swap1\n      jump\t// out\n        /* \"LoopConditionExam.sol\":1204:1297  function isOwner() public view returns (bool) {\r... */\n    tag_12:\n        /* \"LoopConditionExam.sol\":1244:1248  bool */\n      0x00\n        /* \"LoopConditionExam.sol\":1283:1288  owner */\n      0x01\n      0x00\n      swap1\n      sload\n      swap1\n      0x0100\n      exp\n      swap1\n      div\n      0xffffffffffffffffffffffffffffffffffffffff\n      and\n        /* \"LoopConditionExam.sol\":1269:1288  msg.sender == owner */\n      0xffffffffffffffffffffffffffffffffffffffff\n      and\n        /* \"LoopConditionExam.sol\":1269:1279  msg.sender */\n      caller\n        /* \"LoopConditionExam.sol\":1269:1288  msg.sender == owner */\n      0xffffffffffffffffffffffffffffffffffffffff\n      and\n      eq\n        /* \"LoopConditionExam.sol\":1261:1289  return (msg.sender == owner) */\n      swap1\n      pop\n        /* \"LoopConditionExam.sol\":1204:1297  function isOwner() public view returns (bool) {\r... */\n      swap1\n      jump\t// out\n        /* \"LoopConditionExam.sol\":99:174  uint[] public numbers = [1, 2, 3, 4, 5, 6, 7, 8, 9, 10, 11, 12, 13, 14, 15] */\n    tag_15:\n      0x00\n      dup2\n      dup2\n      sload\n      dup2\n      lt\n      tag_35\n      jumpi\n      invalid\n    tag_35:\n      swap1\n      0x00\n      mstore\n      keccak256(0x00, 0x20)\n      add\n      0x00\n      swap2\n      pop\n      swap1\n      pop\n      sload\n      dup2\n      jump\t// out\n        /* \"LoopConditionExam.sol\":547:734  function isEvenNumber(uint _number) private pure returns (bool) {\r... */\n    tag_23:\n        /* \"LoopConditionExam.sol\":605:609  bool */\n      0x00\n        /* \"LoopConditionExam.sol\":641:642  0 */\n      dup1\n        /* \"LoopConditionExam.sol\":636:637  2 */\n      0x02\n        /* \"LoopConditionExam.sol\":626:633  _number */\n      dup4\n        /* \"LoopConditionExam.sol\":626:637  _number % 2 */\n      dup2\n      tag_38\n      jumpi\n      invalid\n    tag_38:\n      mod\n        /* \"LoopConditionExam.sol\":626:642  _number % 2 == 0 */\n      eq\n        /* \"LoopConditionExam.sol\":622:727  if (_number % 2 == 0) {\r... */\n      iszero\n      tag_39\n      jumpi\n        /* \"LoopConditionExam.sol\":666:670  true */\n      0x01\n        /* \"LoopConditionExam.sol\":659:670  return true */\n      swap1\n      pop\n      jump(tag_37)\n        /* \"LoopConditionExam.sol\":622:727  if (_number % 2 == 0) {\r... */\n    tag_39:\n        /* \"LoopConditionExam.sol\":710:715  false */\n      0x00\n        /* \"LoopConditionExam.sol\":703:715  return false */\n      swap1\n      pop\n        /* \"LoopConditionExam.sol\":547:734  function isEvenNumber(uint _number) private pure returns (bool) {\r... */\n    tag_37:\n      swap2\n      swap1\n      pop\n      jump\t// out\n        /* \"LoopConditionExam.sol\":1010:1196  function isOddNumber(uint _number) private pure returns (bool) {\r... */\n    tag_32:\n        /* \"LoopConditionExam.sol\":1067:1071  bool */\n      0x00\n        /* \"LoopConditionExam.sol\":1103:1104  1 */\n      0x01\n        /* \"LoopConditionExam.sol\":1098:1099  2 */\n      0x02\n        /* \"LoopConditionExam.sol\":1088:1095  _number */\n      dup4\n        /* \"LoopConditionExam.sol\":1088:1099  _number % 2 */\n      dup2\n      tag_42\n      jumpi\n      invalid\n    tag_42:\n      mod\n        /* \"LoopConditionExam.sol\":1088:1104  _number % 2 == 1 */\n      eq\n        /* \"LoopConditionExam.sol\":1084:1189  if (_number % 2 == 1) {\r... */\n      iszero\n      tag_43\n      jumpi\n        /* \"LoopConditionExam.sol\":1128:1132  true */\n      0x01\n        /* \"LoopConditionExam.sol\":1121:1132  return true */\n      swap1\n      pop\n      jump(tag_41)\n        /* \"LoopConditionExam.sol\":1084:1189  if (_number % 2 == 1) {\r... */\n    tag_43:\n        /* \"LoopConditionExam.sol\":1172:1177  false */\n      0x00\n        /* \"LoopConditionExam.sol\":1165:1177  return false */\n      swap1\n      pop\n        /* \"LoopConditionExam.sol\":1010:1196  function isOddNumber(uint _number) private pure returns (bool) {\r... */\n    tag_41:\n      swap2\n      swap1\n      pop\n      jump\t// out\n\n    auxdata: 0xa26469706673582212205f25d5f0e81cf4ce545467c499193e9332ba9e22c8001be5dc7fd23fe397ec0d64736f6c634300060c0033\n}\n",
				"bytecode": {
					"linkReferences": {},
					"object": "6080604052604051806101e00160405280600160ff168152602001600260ff168152602001600360ff168152602001600460ff168152602001600560ff168152602001600660ff168152602001600760ff168152602001600860ff168152602001600960ff168152602001600a60ff168152602001600b60ff168152602001600c60ff168152602001600d60ff168152602001600e60ff168152602001600f60ff16815250600090600f6100b4929190610108565b503480156100c157600080fd5b5033600160006101000a81548173ffffffffffffffffffffffffffffffffffffffff021916908373ffffffffffffffffffffffffffffffffffffffff160217905550610177565b828054828255906000526020600020908101928215610149579160200282015b82811115610148578251829060ff16905591602001919060010190610128565b5b509050610156919061015a565b5090565b5b8082111561017357600081600090555060010161015b565b5090565b6102a1806101866000396000f3fe608060405234801561001057600080fd5b506004361061004c5760003560e01c8063306d3e02146100515780634fa0e6921461006f5780638f32d59b1461008d578063d39fa233146100ad575b600080fd5b6100596100ef565b6040518082815260200191505060405180910390f35b610077610149565b6040518082815260200191505060405180910390f35b6100956101a3565b60405180821515815260200191505060405180910390f35b6100d9600480360360208110156100c357600080fd5b81019080803590602001909291905050506101fb565b6040518082815260200191505060405180910390f35b6000806000905060005b600080549050811015610141576101266000828154811061011657fe5b906000526020600020015461021c565b156101345781806001019250505b80806001019150506100f9565b508091505090565b6000806000905060005b60008054905081101561019b576101806000828154811061017057fe5b9060005260206000200154610243565b1561018e5781806001019250505b8080600101915050610153565b508091505090565b6000600160009054906101000a900473ffffffffffffffffffffffffffffffffffffffff1673ffffffffffffffffffffffffffffffffffffffff163373ffffffffffffffffffffffffffffffffffffffff1614905090565b6000818154811061020857fe5b906000526020600020016000915090505481565b6000806002838161022957fe5b061415610239576001905061023e565b600090505b919050565b600060016002838161025157fe5b0614156102615760019050610266565b600090505b91905056fea26469706673582212205f25d5f0e81cf4ce545467c499193e9332ba9e22c8001be5dc7fd23fe397ec0d64736f6c634300060c0033",
					"opcodes": "PUSH1 0x80 PUSH1 0x40 MSTORE PUSH1 0x40 MLOAD DUP1 PUSH2 0x1E0 ADD PUSH1 0x40 MSTORE DUP1 PUSH1 0x1 PUSH1 0xFF AND DUP2 MSTORE PUSH1 0x20 ADD PUSH1 0x2 PUSH1 0xFF AND DUP2 MSTORE PUSH1 0x20 ADD PUSH1 0x3 PUSH1 0xFF AND DUP2 MSTORE PUSH1 0x20 ADD PUSH1 0x4 PUSH1 0xFF AND DUP2 MSTORE PUSH1 0x20 ADD PUSH1 0x5 PUSH1 0xFF AND DUP2 MSTORE PUSH1 0x20 ADD PUSH1 0x6 PUSH1 0xFF AND DUP2 MSTORE PUSH1 0x20 ADD PUSH1 0x7 PUSH1 0xFF AND DUP2 MSTORE PUSH1 0x20 ADD PUSH1 0x8 PUSH1 0xFF AND DUP2 MSTORE PUSH1 0x20 ADD PUSH1 0x9 PUSH1 0xFF AND DUP2 MSTORE PUSH1 0x20 ADD PUSH1 0xA PUSH1 0xFF AND DUP2 MSTORE PUSH1 0x20 ADD PUSH1 0xB PUSH1 0xFF AND DUP2 MSTORE PUSH1 0x20 ADD PUSH1 0xC PUSH1 0xFF AND DUP2 MSTORE PUSH1 0x20 ADD PUSH1 0xD PUSH1 0xFF AND DUP2 MSTORE PUSH1 0x20 ADD PUSH1 0xE PUSH1 0xFF AND DUP2 MSTORE PUSH1 0x20 ADD PUSH1 0xF PUSH1 0xFF AND DUP2 MSTORE POP PUSH1 0x0 SWAP1 PUSH1 0xF PUSH2 0xB4 SWAP3 SWAP2 SWAP1 PUSH2 0x108 JUMP JUMPDEST POP CALLVALUE DUP1 ISZERO PUSH2 0xC1 JUMPI PUSH1 0x0 DUP1 REVERT JUMPDEST POP CALLER PUSH1 0x1 PUSH1 0x0 PUSH2 0x100 EXP DUP2 SLOAD DUP2 PUSH20 0xFFFFFFFFFFFFFFFFFFFFFFFFFFFFFFFFFFFFFFFF MUL NOT AND SWAP1 DUP4 PUSH20 0xFFFFFFFFFFFFFFFFFFFFFFFFFFFFFFFFFFFFFFFF AND MUL OR SWAP1 SSTORE POP PUSH2 0x177 JUMP JUMPDEST DUP3 DUP1 SLOAD DUP3 DUP3 SSTORE SWAP1 PUSH1 0x0 MSTORE PUSH1 0x20 PUSH1 0x0 KECCAK256 SWAP1 DUP2 ADD SWAP3 DUP3 ISZERO PUSH2 0x149 JUMPI SWAP2 PUSH1 0x20 MUL DUP3 ADD JUMPDEST DUP3 DUP2 GT ISZERO PUSH2 0x148 JUMPI DUP3 MLOAD DUP3 SWAP1 PUSH1 0xFF AND SWAP1 SSTORE SWAP2 PUSH1 0x20 ADD SWAP2 SWAP1 PUSH1 0x1 ADD SWAP1 PUSH2 0x128 JUMP JUMPDEST JUMPDEST POP SWAP1 POP PUSH2 0x156 SWAP2 SWAP1 PUSH2 0x15A JUMP JUMPDEST POP SWAP1 JUMP JUMPDEST JUMPDEST DUP1 DUP3 GT ISZERO PUSH2 0x173 JUMPI PUSH1 0x0 DUP2 PUSH1 0x0 SWAP1 SSTORE POP PUSH1 0x1 ADD PUSH2 0x15B JUMP JUMPDEST POP SWAP1 JUMP JUMPDEST PUSH2 0x2A1 DUP1 PUSH2 0x186 PUSH1 0x0 CODECOPY PUSH1 0x0 RETURN INVALID PUSH1 0x80 PUSH1 0x40 MSTORE CALLVALUE DUP1 ISZERO PUSH2 0x10 JUMPI PUSH1 0x0 DUP1 REVERT JUMPDEST POP PUSH1 0x4 CALLDATASIZE LT PUSH2 0x4C JUMPI PUSH1 0x0 CALLDATALOAD PUSH1 0xE0 SHR DUP1 PUSH4 0x306D3E02 EQ PUSH2 0x51 JUMPI DUP1 PUSH4 0x4FA0E692 EQ PUSH2 0x6F JUMPI DUP1 PUSH4 0x8F32D59B EQ PUSH2 0x8D JUMPI DUP1 PUSH4 0xD39FA233 EQ PUSH2 0xAD JUMPI JUMPDEST PUSH1 0x0 DUP1 REVERT JUMPDEST PUSH2 0x59 PUSH2 0xEF JUMP JUMPDEST PUSH1 0x40 MLOAD DUP1 DUP3 DUP2 MSTORE PUSH1 0x20 ADD SWAP2 POP POP PUSH1 0x40 MLOAD DUP1 SWAP2 SUB SWAP1 RETURN JUMPDEST PUSH2 0x77 PUSH2 0x149 JUMP JUMPDEST PUSH1 0x40 MLOAD DUP1 DUP3 DUP2 MSTORE PUSH1 0x20 ADD SWAP2 POP POP PUSH1 0x40 MLOAD DUP1 SWAP2 SUB SWAP1 RETURN JUMPDEST PUSH2 0x95 PUSH2 0x1A3 JUMP JUMPDEST PUSH1 0x40 MLOAD DUP1 DUP3 ISZERO ISZERO DUP2 MSTORE PUSH1 0x20 ADD SWAP2 POP POP PUSH1 0x40 MLOAD DUP1 SWAP2 SUB SWAP1 RETURN JUMPDEST PUSH2 0xD9 PUSH1 0x4 DUP1 CALLDATASIZE SUB PUSH1 0x20 DUP2 LT ISZERO PUSH2 0xC3 JUMPI PUSH1 0x0 DUP1 REVERT JUMPDEST DUP2 ADD SWAP1 DUP1 DUP1 CALLDATALOAD SWAP1 PUSH1 0x20 ADD SWAP1 SWAP3 SWAP2 SWAP1 POP POP POP PUSH2 0x1FB JUMP JUMPDEST PUSH1 0x40 MLOAD DUP1 DUP3 DUP2 MSTORE PUSH1 0x20 ADD SWAP2 POP POP PUSH1 0x40 MLOAD DUP1 SWAP2 SUB SWAP1 RETURN JUMPDEST PUSH1 0x0 DUP1 PUSH1 0x0 SWAP1 POP PUSH1 0x0 JUMPDEST PUSH1 0x0 DUP1 SLOAD SWAP1 POP DUP2 LT ISZERO PUSH2 0x141 JUMPI PUSH2 0x126 PUSH1 0x0 DUP3 DUP2 SLOAD DUP2 LT PUSH2 0x116 JUMPI INVALID JUMPDEST SWAP1 PUSH1 0x0 MSTORE PUSH1 0x20 PUSH1 0x0 KECCAK256 ADD SLOAD PUSH2 0x21C JUMP JUMPDEST ISZERO PUSH2 0x134 JUMPI DUP2 DUP1 PUSH1 0x1 ADD SWAP3 POP POP JUMPDEST DUP1 DUP1 PUSH1 0x1 ADD SWAP2 POP POP PUSH2 0xF9 JUMP JUMPDEST POP DUP1 SWAP2 POP POP SWAP1 JUMP JUMPDEST PUSH1 0x0 DUP1 PUSH1 0x0 SWAP1 POP PUSH1 0x0 JUMPDEST PUSH1 0x0 DUP1 SLOAD SWAP1 POP DUP2 LT ISZERO PUSH2 0x19B JUMPI PUSH2 0x180 PUSH1 0x0 DUP3 DUP2 SLOAD DUP2 LT PUSH2 0x170 JUMPI INVALID JUMPDEST SWAP1 PUSH1 0x0 MSTORE PUSH1 0x20 PUSH1 0x0 KECCAK256 ADD SLOAD PUSH2 0x243 JUMP JUMPDEST ISZERO PUSH2 0x18E JUMPI DUP2 DUP1 PUSH1 0x1 ADD SWAP3 POP POP JUMPDEST DUP1 DUP1 PUSH1 0x1 ADD SWAP2 POP POP PUSH2 0x153 JUMP JUMPDEST POP DUP1 SWAP2 POP POP SWAP1 JUMP JUMPDEST PUSH1 0x0 PUSH1 0x1 PUSH1 0x0 SWAP1 SLOAD SWAP1 PUSH2 0x100 EXP SWAP1 DIV PUSH20 0xFFFFFFFFFFFFFFFFFFFFFFFFFFFFFFFFFFFFFFFF AND PUSH20 0xFFFFFFFFFFFFFFFFFFFFFFFFFFFFFFFFFFFFFFFF AND CALLER PUSH20 0xFFFFFFFFFFFFFFFFFFFFFFFFFFFFFFFFFFFFFFFF AND EQ SWAP1 POP SWAP1 JUMP JUMPDEST PUSH1 0x0 DUP2 DUP2 SLOAD DUP2 LT PUSH2 0x208 JUMPI INVALID JUMPDEST SWAP1 PUSH1 0x0 MSTORE PUSH1 0x20 PUSH1 0x0 KECCAK256 ADD PUSH1 0x0 SWAP2 POP SWAP1 POP SLOAD DUP2 JUMP JUMPDEST PUSH1 0x0 DUP1 PUSH1 0x2 DUP4 DUP2 PUSH2 0x229 JUMPI INVALID JUMPDEST MOD EQ ISZERO PUSH2 0x239 JUMPI PUSH1 0x1 SWAP1 POP PUSH2 0x23E JUMP JUMPDEST PUSH1 0x0 SWAP1 POP JUMPDEST SWAP2 SWAP1 POP JUMP JUMPDEST PUSH1 0x0 PUSH1 0x1 PUSH1 0x2 DUP4 DUP2 PUSH2 0x251 JUMPI INVALID JUMPDEST MOD EQ ISZERO PUSH2 0x261 JUMPI PUSH1 0x1 SWAP1 POP PUSH2 0x266 JUMP JUMPDEST PUSH1 0x0 SWAP1 POP JUMPDEST SWAP2 SWAP1 POP JUMP INVALID LOG2 PUSH5 0x6970667358 0x22 SLT KECCAK256 0x5F 0x25 0xD5 CREATE 0xE8 SHR DELEGATECALL 0xCE SLOAD SLOAD PUSH8 0xC499193E9332BA9E 0x22 0xC8 STOP SHL 0xE5 0xDC PUSH32 0xD23FE397EC0D64736F6C634300060C0033000000000000000000000000000000 "
				},
				"gasEstimates": {
					"creation": {
						"codeDepositCost": "134600",
						"executionCost": "infinite",
						"totalCost": "infinite"
					},
					"external": {
						"countEvenNumbers()": "infinite",
						"countOddNumbers()": "infinite",
						"isOwner()": "1094",
						"numbers(uint256)": "2024"
					},
					"internal": {
						"isEvenNumber(uint256)": "90",
						"isOddNumber(uint256)": "90"
					}
				},
				"methodIdentifiers": {
					"countEvenNumbers()": "306d3e02",
					"countOddNumbers()": "4fa0e692",
					"isOwner()": "8f32d59b",
					"numbers(uint256)": "d39fa233"
				}
			},
			"userdoc": {
				"kind": "user",
				"methods": {},
				"version": 1
			}
		}
	}
}