{
	"enumTest.sol": {
		"EnumTest": {
			"abi": [
				{
					"constant": false,
					"inputs": [],
					"name": "setGoStraight",
					"outputs": [],
					"payable": false,
					"stateMutability": "nonpayable",
					"type": "function"
				},
				{
					"constant": true,
					"inputs": [],
					"name": "getChoice",
					"outputs": [
						{
							"name": "",
							"type": "uint8"
						}
					],
					"payable": false,
					"stateMutability": "view",
					"type": "function"
				}
			],
			"devdoc": {
				"methods": {}
			},
			"evm": {
				"assembly": "    /* \"enumTest.sol\":28:387  contract EnumTest {\r... */\n  mstore(0x40, 0x80)\n    /* \"enumTest.sol\":173:196  ActionChoice.GoStraight */\n  0x2\n    /* \"enumTest.sol\":144:196  ActionChoice defaultChoice = ActionChoice.GoStraight */\n  0x0\n  exp(0x100, 0x1)\n  dup2\n  sload\n  dup2\n  0xff\n  mul\n  not\n  and\n  swap1\n  dup4\n  0x3\n  dup2\n  gt\n  iszero\n  tag_1\n  jumpi\n  invalid\ntag_1:\n  mul\n  or\n  swap1\n  sstore\n  pop\n    /* \"enumTest.sol\":28:387  contract EnumTest {\r... */\n  callvalue\n    /* \"--CODEGEN--\":8:17   */\n  dup1\n    /* \"--CODEGEN--\":5:7   */\n  iszero\n  tag_2\n  jumpi\n    /* \"--CODEGEN--\":30:31   */\n  0x0\n    /* \"--CODEGEN--\":27:28   */\n  dup1\n    /* \"--CODEGEN--\":20:32   */\n  revert\n    /* \"--CODEGEN--\":5:7   */\ntag_2:\n    /* \"enumTest.sol\":28:387  contract EnumTest {\r... */\n  pop\n  dataSize(sub_0)\n  dup1\n  dataOffset(sub_0)\n  0x0\n  codecopy\n  0x0\n  return\nstop\n\nsub_0: assembly {\n        /* \"enumTest.sol\":28:387  contract EnumTest {\r... */\n      mstore(0x40, 0x80)\n      jumpi(tag_1, lt(calldatasize, 0x4))\n      calldataload(0x0)\n      0x100000000000000000000000000000000000000000000000000000000\n      swap1\n      div\n      0xffffffff\n      and\n      dup1\n      0x46aadaa5\n      eq\n      tag_2\n      jumpi\n      dup1\n      0x67cb61b6\n      eq\n      tag_3\n      jumpi\n    tag_1:\n      0x0\n      dup1\n      revert\n        /* \"enumTest.sol\":205:288  function setGoStraight() public {\r... */\n    tag_2:\n      callvalue\n        /* \"--CODEGEN--\":8:17   */\n      dup1\n        /* \"--CODEGEN--\":5:7   */\n      iszero\n      tag_4\n      jumpi\n        /* \"--CODEGEN--\":30:31   */\n      0x0\n        /* \"--CODEGEN--\":27:28   */\n      dup1\n        /* \"--CODEGEN--\":20:32   */\n      revert\n        /* \"--CODEGEN--\":5:7   */\n    tag_4:\n        /* \"enumTest.sol\":205:288  function setGoStraight() public {\r... */\n      pop\n      tag_5\n      jump(tag_6)\n    tag_5:\n      stop\n        /* \"enumTest.sol\":296:384  function getChoice() public view returns (ActionChoice) {\r... */\n    tag_3:\n      callvalue\n        /* \"--CODEGEN--\":8:17   */\n      dup1\n        /* \"--CODEGEN--\":5:7   */\n      iszero\n      tag_7\n      jumpi\n        /* \"--CODEGEN--\":30:31   */\n      0x0\n        /* \"--CODEGEN--\":27:28   */\n      dup1\n        /* \"--CODEGEN--\":20:32   */\n      revert\n        /* \"--CODEGEN--\":5:7   */\n    tag_7:\n        /* \"enumTest.sol\":296:384  function getChoice() public view returns (ActionChoice) {\r... */\n      pop\n      tag_8\n      jump(tag_9)\n    tag_8:\n      mload(0x40)\n      dup1\n      dup3\n      0x3\n      dup2\n      gt\n      iszero\n      tag_10\n      jumpi\n      invalid\n    tag_10:\n      0xff\n      and\n      dup2\n      mstore\n      0x20\n      add\n      swap2\n      pop\n      pop\n      mload(0x40)\n      dup1\n      swap2\n      sub\n      swap1\n      return\n        /* \"enumTest.sol\":205:288  function setGoStraight() public {\r... */\n    tag_6:\n        /* \"enumTest.sol\":257:280  ActionChoice.GoStraight */\n      0x2\n        /* \"enumTest.sol\":248:254  choice */\n      0x0\n      dup1\n        /* \"enumTest.sol\":248:280  choice = ActionChoice.GoStraight */\n      0x100\n      exp\n      dup2\n      sload\n      dup2\n      0xff\n      mul\n      not\n      and\n      swap1\n      dup4\n      0x3\n      dup2\n      gt\n      iszero\n      tag_12\n      jumpi\n      invalid\n    tag_12:\n      mul\n      or\n      swap1\n      sstore\n      pop\n        /* \"enumTest.sol\":205:288  function setGoStraight() public {\r... */\n      jump\t// out\n        /* \"enumTest.sol\":296:384  function getChoice() public view returns (ActionChoice) {\r... */\n    tag_9:\n        /* \"enumTest.sol\":338:350  ActionChoice */\n      0x0\n        /* \"enumTest.sol\":370:376  choice */\n      dup1\n      0x0\n      swap1\n      sload\n      swap1\n      0x100\n      exp\n      swap1\n      div\n      0xff\n      and\n        /* \"enumTest.sol\":363:376  return choice */\n      swap1\n      pop\n        /* \"enumTest.sol\":296:384  function getChoice() public view returns (ActionChoice) {\r... */\n      swap1\n      jump\t// out\n\n    auxdata: 0xa165627a7a72305820d9133a881efb9595d0e864acdb9fb0ad051830e85d3eff7cfb8c72d79c74b6080029\n}\n",
				"bytecode": {
					"linkReferences": {},
					"object": "60806040526002600060016101000a81548160ff0219169083600381111561002357fe5b021790555034801561003457600080fd5b5060fd806100436000396000f3006080604052600436106049576000357c0100000000000000000000000000000000000000000000000000000000900463ffffffff16806346aadaa514604e57806367cb61b6146062575b600080fd5b348015605957600080fd5b5060606097565b005b348015606d57600080fd5b50607460bb565b60405180826003811115608357fe5b60ff16815260200191505060405180910390f35b60026000806101000a81548160ff0219169083600381111560b457fe5b0217905550565b60008060009054906101000a900460ff169050905600a165627a7a72305820d9133a881efb9595d0e864acdb9fb0ad051830e85d3eff7cfb8c72d79c74b6080029",
					"opcodes": "PUSH1 0x80 PUSH1 0x40 MSTORE PUSH1 0x2 PUSH1 0x0 PUSH1 0x1 PUSH2 0x100 EXP DUP2 SLOAD DUP2 PUSH1 0xFF MUL NOT AND SWAP1 DUP4 PUSH1 0x3 DUP2 GT ISZERO PUSH2 0x23 JUMPI INVALID JUMPDEST MUL OR SWAP1 SSTORE POP CALLVALUE DUP1 ISZERO PUSH2 0x34 JUMPI PUSH1 0x0 DUP1 REVERT JUMPDEST POP PUSH1 0xFD DUP1 PUSH2 0x43 PUSH1 0x0 CODECOPY PUSH1 0x0 RETURN STOP PUSH1 0x80 PUSH1 0x40 MSTORE PUSH1 0x4 CALLDATASIZE LT PUSH1 0x49 JUMPI PUSH1 0x0 CALLDATALOAD PUSH29 0x100000000000000000000000000000000000000000000000000000000 SWAP1 DIV PUSH4 0xFFFFFFFF AND DUP1 PUSH4 0x46AADAA5 EQ PUSH1 0x4E JUMPI DUP1 PUSH4 0x67CB61B6 EQ PUSH1 0x62 JUMPI JUMPDEST PUSH1 0x0 DUP1 REVERT JUMPDEST CALLVALUE DUP1 ISZERO PUSH1 0x59 JUMPI PUSH1 0x0 DUP1 REVERT JUMPDEST POP PUSH1 0x60 PUSH1 0x97 JUMP JUMPDEST STOP JUMPDEST CALLVALUE DUP1 ISZERO PUSH1 0x6D JUMPI PUSH1 0x0 DUP1 REVERT JUMPDEST POP PUSH1 0x74 PUSH1 0xBB JUMP JUMPDEST PUSH1 0x40 MLOAD DUP1 DUP3 PUSH1 0x3 DUP2 GT ISZERO PUSH1 0x83 JUMPI INVALID JUMPDEST PUSH1 0xFF AND DUP2 MSTORE PUSH1 0x20 ADD SWAP2 POP POP PUSH1 0x40 MLOAD DUP1 SWAP2 SUB SWAP1 RETURN JUMPDEST PUSH1 0x2 PUSH1 0x0 DUP1 PUSH2 0x100 EXP DUP2 SLOAD DUP2 PUSH1 0xFF MUL NOT AND SWAP1 DUP4 PUSH1 0x3 DUP2 GT ISZERO PUSH1 0xB4 JUMPI INVALID JUMPDEST MUL OR SWAP1 SSTORE POP JUMP JUMPDEST PUSH1 0x0 DUP1 PUSH1 0x0 SWAP1 SLOAD SWAP1 PUSH2 0x100 EXP SWAP1 DIV PUSH1 0xFF AND SWAP1 POP SWAP1 JUMP STOP LOG1 PUSH6 0x627A7A723058 KECCAK256 0xd9 SGT GASPRICE DUP9 0x1e CREATE2 SWAP6 SWAP6 0xd0 0xe8 PUSH5 0xACDB9FB0AD SDIV XOR ADDRESS 0xe8 0x5d RETURNDATACOPY SELFDESTRUCT PUSH29 0xFB8C72D79C74B608002900000000000000000000000000000000000000 "
				},
				"gasEstimates": {
					"creation": {
						"codeDepositCost": "50600",
						"executionCost": "20436",
						"totalCost": "71036"
					},
					"external": {
						"getChoice()": "492",
						"setGoStraight()": "20420"
					}
				},
				"methodIdentifiers": {
					"getChoice()": "67cb61b6",
					"setGoStraight()": "46aadaa5"
				}
			},
			"userdoc": {
				"methods": {}
			}
		}
	}
}