{
	"CreateConOtherConExam.sol": {
		"CarFactory": {
			"abi": [
				{
					"inputs": [
						{
							"internalType": "uint256",
							"name": "",
							"type": "uint256"
						}
					],
					"name": "cars",
					"outputs": [
						{
							"internalType": "contract Car",
							"name": "",
							"type": "address"
						}
					],
					"stateMutability": "view",
					"type": "function"
				},
				{
					"inputs": [
						{
							"internalType": "address",
							"name": "_owner",
							"type": "address"
						},
						{
							"internalType": "string",
							"name": "_model",
							"type": "string"
						},
						{
							"internalType": "bytes32",
							"name": "_salt",
							"type": "bytes32"
						}
					],
					"name": "create2AndSendEther",
					"outputs": [],
					"stateMutability": "payable",
					"type": "function"
				},
				{
					"inputs": [
						{
							"internalType": "address",
							"name": "_owner",
							"type": "address"
						},
						{
							"internalType": "string",
							"name": "_model",
							"type": "string"
						}
					],
					"name": "createAndSendEther",
					"outputs": [],
					"stateMutability": "payable",
					"type": "function"
				},
				{
					"inputs": [
						{
							"internalType": "address",
							"name": "_owner",
							"type": "address"
						},
						{
							"internalType": "string",
							"name": "_model",
							"type": "string"
						}
					],
					"name": "createCar",
					"outputs": [],
					"stateMutability": "nonpayable",
					"type": "function"
				},
				{
					"inputs": [
						{
							"internalType": "address",
							"name": "_owner",
							"type": "address"
						},
						{
							"internalType": "string",
							"name": "_model",
							"type": "string"
						},
						{
							"internalType": "bytes32",
							"name": "_salt",
							"type": "bytes32"
						}
					],
					"name": "createCar2",
					"outputs": [],
					"stateMutability": "nonpayable",
					"type": "function"
				},
				{
					"inputs": [
						{
							"internalType": "uint256",
							"name": "_index",
							"type": "uint256"
						}
					],
					"name": "getCar",
					"outputs": [
						{
							"internalType": "address",
							"name": "owner",
							"type": "address"
						},
						{
							"internalType": "string",
							"name": "model",
							"type": "string"
						},
						{
							"internalType": "address",
							"name": "carAddr",
							"type": "address"
						},
						{
							"internalType": "uint256",
							"name": "balance",
							"type": "uint256"
						}
					],
					"stateMutability": "view",
					"type": "function"
				}
			],
			"devdoc": {
				"kind": "dev",
				"methods": {},
				"version": 1
			},
			"evm": {
				"assembly": "    /* \"CreateConOtherConExam.sol\":354:1465  contract CarFactory{... */\n  mstore(0x40, 0x80)\n  callvalue\n  dup1\n  iszero\n  tag_1\n  jumpi\n  0x00\n  dup1\n  revert\ntag_1:\n  pop\n  dataSize(sub_0)\n  dup1\n  dataOffset(sub_0)\n  0x00\n  codecopy\n  0x00\n  return\nstop\n\nsub_0: assembly {\n        /* \"CreateConOtherConExam.sol\":354:1465  contract CarFactory{... */\n      mstore(0x40, 0x80)\n      jumpi(tag_1, lt(calldatasize, 0x04))\n      shr(0xe0, calldataload(0x00))\n      dup1\n      0x3d4b3015\n      eq\n      tag_2\n      jumpi\n      dup1\n      0x5e8be190\n      eq\n      tag_3\n      jumpi\n      dup1\n      0xa429f47d\n      eq\n      tag_4\n      jumpi\n      dup1\n      0xa5e57b47\n      eq\n      tag_5\n      jumpi\n      dup1\n      0xc33cd615\n      eq\n      tag_6\n      jumpi\n      dup1\n      0xf7746e36\n      eq\n      tag_7\n      jumpi\n    tag_1:\n      0x00\n      dup1\n      revert\n        /* \"CreateConOtherConExam.sol\":930:1171  function create2AndSendEther(... */\n    tag_2:\n      tag_8\n      0x04\n      dup1\n      calldatasize\n      sub\n      dup2\n      add\n      swap1\n      tag_9\n      swap2\n      swap1\n      tag_10\n      jump\t// in\n    tag_9:\n      tag_11\n      jump\t// in\n    tag_8:\n      stop\n        /* \"CreateConOtherConExam.sol\":1179:1462  function getCar(uint _index) public view returns(... */\n    tag_3:\n      callvalue\n      dup1\n      iszero\n      tag_12\n      jumpi\n      0x00\n      dup1\n      revert\n    tag_12:\n      pop\n      tag_13\n      0x04\n      dup1\n      calldatasize\n      sub\n      dup2\n      add\n      swap1\n      tag_14\n      swap2\n      swap1\n      tag_15\n      jump\t// in\n    tag_14:\n      tag_16\n      jump\t// in\n    tag_13:\n      mload(0x40)\n      tag_17\n      swap5\n      swap4\n      swap3\n      swap2\n      swap1\n      tag_18\n      jump\t// in\n    tag_17:\n      mload(0x40)\n      dup1\n      swap2\n      sub\n      swap1\n      return\n        /* \"CreateConOtherConExam.sol\":716:922  function createCar2(... */\n    tag_4:\n      callvalue\n      dup1\n      iszero\n      tag_19\n      jumpi\n      0x00\n      dup1\n      revert\n    tag_19:\n      pop\n      tag_20\n      0x04\n      dup1\n      calldatasize\n      sub\n      dup2\n      add\n      swap1\n      tag_21\n      swap2\n      swap1\n      tag_10\n      jump\t// in\n    tag_21:\n      tag_22\n      jump\t// in\n    tag_20:\n      stop\n        /* \"CreateConOtherConExam.sol\":406:547  function createCar(address _owner, string memory _model) public {... */\n    tag_5:\n      callvalue\n      dup1\n      iszero\n      tag_23\n      jumpi\n      0x00\n      dup1\n      revert\n    tag_23:\n      pop\n      tag_24\n      0x04\n      dup1\n      calldatasize\n      sub\n      dup2\n      add\n      swap1\n      tag_25\n      swap2\n      swap1\n      tag_26\n      jump\t// in\n    tag_25:\n      tag_27\n      jump\t// in\n    tag_24:\n      stop\n        /* \"CreateConOtherConExam.sol\":555:708  function createAndSendEther(address _owner, string memory _model) public payable {... */\n    tag_6:\n      tag_28\n      0x04\n      dup1\n      calldatasize\n      sub\n      dup2\n      add\n      swap1\n      tag_29\n      swap2\n      swap1\n      tag_26\n      jump\t// in\n    tag_29:\n      tag_30\n      jump\t// in\n    tag_28:\n      stop\n        /* \"CreateConOtherConExam.sol\":380:397  Car[] public cars */\n    tag_7:\n      callvalue\n      dup1\n      iszero\n      tag_31\n      jumpi\n      0x00\n      dup1\n      revert\n    tag_31:\n      pop\n      tag_32\n      0x04\n      dup1\n      calldatasize\n      sub\n      dup2\n      add\n      swap1\n      tag_33\n      swap2\n      swap1\n      tag_15\n      jump\t// in\n    tag_33:\n      tag_34\n      jump\t// in\n    tag_32:\n      mload(0x40)\n      tag_35\n      swap2\n      swap1\n      tag_36\n      jump\t// in\n    tag_35:\n      mload(0x40)\n      dup1\n      swap2\n      sub\n      swap1\n      return\n        /* \"CreateConOtherConExam.sol\":930:1171  function create2AndSendEther(... */\n    tag_11:\n        /* \"CreateConOtherConExam.sol\":1072:1079  Car car */\n      0x00\n        /* \"CreateConOtherConExam.sol\":1099:1108  msg.value */\n      callvalue\n        /* \"CreateConOtherConExam.sol\":1116:1121  _salt */\n      dup3\n        /* \"CreateConOtherConExam.sol\":1082:1138  (new Car){value: msg.value, salt: _salt}(_owner, _model) */\n      swap1\n        /* \"CreateConOtherConExam.sol\":1123:1129  _owner */\n      dup6\n        /* \"CreateConOtherConExam.sol\":1131:1137  _model */\n      dup6\n        /* \"CreateConOtherConExam.sol\":1082:1138  (new Car){value: msg.value, salt: _salt}(_owner, _model) */\n      mload(0x40)\n      tag_38\n      swap1\n      tag_39\n      jump\t// in\n    tag_38:\n      tag_40\n      swap3\n      swap2\n      swap1\n      tag_41\n      jump\t// in\n    tag_40:\n      dup3\n      swap1\n      mload(0x40)\n      dup1\n      swap2\n      sub\n      swap1\n      dup4\n      create2\n      swap1\n      pop\n      swap1\n      pop\n      dup1\n      iszero\n      dup1\n      iszero\n      tag_42\n      jumpi\n      returndatasize\n      0x00\n      dup1\n      returndatacopy\n      revert(0x00, returndatasize)\n    tag_42:\n      pop\n        /* \"CreateConOtherConExam.sol\":1072:1138  Car car = (new Car){value: msg.value, salt: _salt}(_owner, _model) */\n      swap1\n      pop\n        /* \"CreateConOtherConExam.sol\":1149:1153  cars */\n      0x00\n        /* \"CreateConOtherConExam.sol\":1159:1162  car */\n      dup2\n        /* \"CreateConOtherConExam.sol\":1149:1163  cars.push(car) */\n      swap1\n      dup1\n      0x01\n      dup2\n      sload\n      add\n      dup1\n      dup3\n      sstore\n      dup1\n      swap2\n      pop\n      pop\n      0x01\n      swap1\n      sub\n      swap1\n      0x00\n      mstore\n      keccak256(0x00, 0x20)\n      add\n      0x00\n      swap1\n      swap2\n      swap1\n      swap2\n      swap1\n      swap2\n      0x0100\n      exp\n      dup2\n      sload\n      dup2\n      0xffffffffffffffffffffffffffffffffffffffff\n      mul\n      not\n      and\n      swap1\n      dup4\n      0xffffffffffffffffffffffffffffffffffffffff\n      and\n      mul\n      or\n      swap1\n      sstore\n      pop\n        /* \"CreateConOtherConExam.sol\":1061:1171  {... */\n      pop\n        /* \"CreateConOtherConExam.sol\":930:1171  function create2AndSendEther(... */\n      pop\n      pop\n      pop\n      jump\t// out\n        /* \"CreateConOtherConExam.sol\":1179:1462  function getCar(uint _index) public view returns(... */\n    tag_16:\n        /* \"CreateConOtherConExam.sol\":1238:1251  address owner */\n      0x00\n        /* \"CreateConOtherConExam.sol\":1262:1281  string memory model */\n      0x60\n        /* \"CreateConOtherConExam.sol\":1292:1307  address carAddr */\n      0x00\n        /* \"CreateConOtherConExam.sol\":1318:1330  uint balance */\n      dup1\n        /* \"CreateConOtherConExam.sol\":1349:1356  Car car */\n      0x00\n        /* \"CreateConOtherConExam.sol\":1359:1363  cars */\n      dup1\n        /* \"CreateConOtherConExam.sol\":1364:1370  _index */\n      dup7\n        /* \"CreateConOtherConExam.sol\":1359:1371  cars[_index] */\n      dup2\n      sload\n      dup2\n      lt\n      tag_45\n      jumpi\n      tag_46\n      tag_47\n      jump\t// in\n    tag_46:\n    tag_45:\n      swap1\n      0x00\n      mstore\n      keccak256(0x00, 0x20)\n      add\n      0x00\n      swap1\n      sload\n      swap1\n      0x0100\n      exp\n      swap1\n      div\n      0xffffffffffffffffffffffffffffffffffffffff\n      and\n        /* \"CreateConOtherConExam.sol\":1349:1371  Car car = cars[_index] */\n      swap1\n      pop\n        /* \"CreateConOtherConExam.sol\":1392:1395  car */\n      dup1\n        /* \"CreateConOtherConExam.sol\":1392:1401  car.owner */\n      0xffffffffffffffffffffffffffffffffffffffff\n      and\n      0x8da5cb5b\n        /* \"CreateConOtherConExam.sol\":1392:1403  car.owner() */\n      mload(0x40)\n      dup2\n      0xffffffff\n      and\n      0xe0\n      shl\n      dup2\n      mstore\n      0x04\n      add\n      0x20\n      mload(0x40)\n      dup1\n      dup4\n      sub\n      dup2\n      dup7\n      gas\n      staticcall\n      iszero\n      dup1\n      iszero\n      tag_50\n      jumpi\n      returndatasize\n      0x00\n      dup1\n      returndatacopy\n      revert(0x00, returndatasize)\n    tag_50:\n      pop\n      pop\n      pop\n      pop\n      mload(0x40)\n      returndatasize\n      not(0x1f)\n      0x1f\n      dup3\n      add\n      and\n      dup3\n      add\n      dup1\n      0x40\n      mstore\n      pop\n      dup2\n      add\n      swap1\n      tag_51\n      swap2\n      swap1\n      tag_52\n      jump\t// in\n    tag_51:\n        /* \"CreateConOtherConExam.sol\":1405:1408  car */\n      dup2\n        /* \"CreateConOtherConExam.sol\":1405:1414  car.model */\n      0xffffffffffffffffffffffffffffffffffffffff\n      and\n      0x0ad9d052\n        /* \"CreateConOtherConExam.sol\":1405:1416  car.model() */\n      mload(0x40)\n      dup2\n      0xffffffff\n      and\n      0xe0\n      shl\n      dup2\n      mstore\n      0x04\n      add\n      0x00\n      mload(0x40)\n      dup1\n      dup4\n      sub\n      dup2\n      dup7\n      gas\n      staticcall\n      iszero\n      dup1\n      iszero\n      tag_54\n      jumpi\n      returndatasize\n      0x00\n      dup1\n      returndatacopy\n      revert(0x00, returndatasize)\n    tag_54:\n      pop\n      pop\n      pop\n      pop\n      mload(0x40)\n      returndatasize\n      0x00\n      dup3\n      returndatacopy\n      returndatasize\n      not(0x1f)\n      0x1f\n      dup3\n      add\n      and\n      dup3\n      add\n      dup1\n      0x40\n      mstore\n      pop\n      dup2\n      add\n      swap1\n      tag_55\n      swap2\n      swap1\n      tag_56\n      jump\t// in\n    tag_55:\n        /* \"CreateConOtherConExam.sol\":1418:1421  car */\n      dup3\n        /* \"CreateConOtherConExam.sol\":1418:1429  car.carAddr */\n      0xffffffffffffffffffffffffffffffffffffffff\n      and\n      0x514fa676\n        /* \"CreateConOtherConExam.sol\":1418:1431  car.carAddr() */\n      mload(0x40)\n      dup2\n      0xffffffff\n      and\n      0xe0\n      shl\n      dup2\n      mstore\n      0x04\n      add\n      0x20\n      mload(0x40)\n      dup1\n      dup4\n      sub\n      dup2\n      dup7\n      gas\n      staticcall\n      iszero\n      dup1\n      iszero\n      tag_58\n      jumpi\n      returndatasize\n      0x00\n      dup1\n      returndatacopy\n      revert(0x00, returndatasize)\n    tag_58:\n      pop\n      pop\n      pop\n      pop\n      mload(0x40)\n      returndatasize\n      not(0x1f)\n      0x1f\n      dup3\n      add\n      and\n      dup3\n      add\n      dup1\n      0x40\n      mstore\n      pop\n      dup2\n      add\n      swap1\n      tag_59\n      swap2\n      swap1\n      tag_52\n      jump\t// in\n    tag_59:\n        /* \"CreateConOtherConExam.sol\":1441:1444  car */\n      dup4\n        /* \"CreateConOtherConExam.sol\":1433:1453  address(car).balance */\n      0xffffffffffffffffffffffffffffffffffffffff\n      and\n      balance\n        /* \"CreateConOtherConExam.sol\":1384:1454  return (car.owner(), car.model(), car.carAddr(), address(car).balance) */\n      swap5\n      pop\n      swap5\n      pop\n      swap5\n      pop\n      swap5\n      pop\n      pop\n        /* \"CreateConOtherConExam.sol\":1179:1462  function getCar(uint _index) public view returns(... */\n      swap2\n      swap4\n      pop\n      swap2\n      swap4\n      jump\t// out\n        /* \"CreateConOtherConExam.sol\":716:922  function createCar2(... */\n    tag_22:\n        /* \"CreateConOtherConExam.sol\":841:848  Car car */\n      0x00\n        /* \"CreateConOtherConExam.sol\":867:872  _salt */\n      dup2\n        /* \"CreateConOtherConExam.sol\":874:880  _owner */\n      dup5\n        /* \"CreateConOtherConExam.sol\":882:888  _model */\n      dup5\n        /* \"CreateConOtherConExam.sol\":851:889  (new Car){salt: _salt}(_owner, _model) */\n      mload(0x40)\n      tag_61\n      swap1\n      tag_39\n      jump\t// in\n    tag_61:\n      tag_62\n      swap3\n      swap2\n      swap1\n      tag_41\n      jump\t// in\n    tag_62:\n      dup2\n      swap1\n      mload(0x40)\n      dup1\n      swap2\n      sub\n      swap1\n      0x00\n      create2\n      swap1\n      pop\n      dup1\n      iszero\n      dup1\n      iszero\n      tag_63\n      jumpi\n      returndatasize\n      0x00\n      dup1\n      returndatacopy\n      revert(0x00, returndatasize)\n    tag_63:\n      pop\n        /* \"CreateConOtherConExam.sol\":841:889  Car car = (new Car){salt: _salt}(_owner, _model) */\n      swap1\n      pop\n        /* \"CreateConOtherConExam.sol\":900:904  cars */\n      0x00\n        /* \"CreateConOtherConExam.sol\":910:913  car */\n      dup2\n        /* \"CreateConOtherConExam.sol\":900:914  cars.push(car) */\n      swap1\n      dup1\n      0x01\n      dup2\n      sload\n      add\n      dup1\n      dup3\n      sstore\n      dup1\n      swap2\n      pop\n      pop\n      0x01\n      swap1\n      sub\n      swap1\n      0x00\n      mstore\n      keccak256(0x00, 0x20)\n      add\n      0x00\n      swap1\n      swap2\n      swap1\n      swap2\n      swap1\n      swap2\n      0x0100\n      exp\n      dup2\n      sload\n      dup2\n      0xffffffffffffffffffffffffffffffffffffffff\n      mul\n      not\n      and\n      swap1\n      dup4\n      0xffffffffffffffffffffffffffffffffffffffff\n      and\n      mul\n      or\n      swap1\n      sstore\n      pop\n        /* \"CreateConOtherConExam.sol\":830:922  {... */\n      pop\n        /* \"CreateConOtherConExam.sol\":716:922  function createCar2(... */\n      pop\n      pop\n      pop\n      jump\t// out\n        /* \"CreateConOtherConExam.sol\":406:547  function createCar(address _owner, string memory _model) public {... */\n    tag_27:\n        /* \"CreateConOtherConExam.sol\":481:488  Car car */\n      0x00\n        /* \"CreateConOtherConExam.sol\":499:505  _owner */\n      dup3\n        /* \"CreateConOtherConExam.sol\":507:513  _model */\n      dup3\n        /* \"CreateConOtherConExam.sol\":491:514  new Car(_owner, _model) */\n      mload(0x40)\n      tag_66\n      swap1\n      tag_39\n      jump\t// in\n    tag_66:\n      tag_67\n      swap3\n      swap2\n      swap1\n      tag_41\n      jump\t// in\n    tag_67:\n      mload(0x40)\n      dup1\n      swap2\n      sub\n      swap1\n      0x00\n      create\n      dup1\n      iszero\n      dup1\n      iszero\n      tag_68\n      jumpi\n      returndatasize\n      0x00\n      dup1\n      returndatacopy\n      revert(0x00, returndatasize)\n    tag_68:\n      pop\n        /* \"CreateConOtherConExam.sol\":481:514  Car car = new Car(_owner, _model) */\n      swap1\n      pop\n        /* \"CreateConOtherConExam.sol\":525:529  cars */\n      0x00\n        /* \"CreateConOtherConExam.sol\":535:538  car */\n      dup2\n        /* \"CreateConOtherConExam.sol\":525:539  cars.push(car) */\n      swap1\n      dup1\n      0x01\n      dup2\n      sload\n      add\n      dup1\n      dup3\n      sstore\n      dup1\n      swap2\n      pop\n      pop\n      0x01\n      swap1\n      sub\n      swap1\n      0x00\n      mstore\n      keccak256(0x00, 0x20)\n      add\n      0x00\n      swap1\n      swap2\n      swap1\n      swap2\n      swap1\n      swap2\n      0x0100\n      exp\n      dup2\n      sload\n      dup2\n      0xffffffffffffffffffffffffffffffffffffffff\n      mul\n      not\n      and\n      swap1\n      dup4\n      0xffffffffffffffffffffffffffffffffffffffff\n      and\n      mul\n      or\n      swap1\n      sstore\n      pop\n        /* \"CreateConOtherConExam.sol\":470:547  {... */\n      pop\n        /* \"CreateConOtherConExam.sol\":406:547  function createCar(address _owner, string memory _model) public {... */\n      pop\n      pop\n      jump\t// out\n        /* \"CreateConOtherConExam.sol\":555:708  function createAndSendEther(address _owner, string memory _model) public payable {... */\n    tag_30:\n        /* \"CreateConOtherConExam.sol\":647:654  Car car */\n      0x00\n        /* \"CreateConOtherConExam.sol\":674:683  msg.value */\n      callvalue\n        /* \"CreateConOtherConExam.sol\":685:691  _owner */\n      dup4\n        /* \"CreateConOtherConExam.sol\":693:699  _model */\n      dup4\n        /* \"CreateConOtherConExam.sol\":657:700  (new Car){value: msg.value}(_owner, _model) */\n      mload(0x40)\n      tag_71\n      swap1\n      tag_39\n      jump\t// in\n    tag_71:\n      tag_72\n      swap3\n      swap2\n      swap1\n      tag_41\n      jump\t// in\n    tag_72:\n      mload(0x40)\n      dup1\n      swap2\n      sub\n      swap1\n      dup3\n      create\n      swap1\n      pop\n      dup1\n      iszero\n      dup1\n      iszero\n      tag_73\n      jumpi\n      returndatasize\n      0x00\n      dup1\n      returndatacopy\n      revert(0x00, returndatasize)\n    tag_73:\n      pop\n        /* \"CreateConOtherConExam.sol\":647:700  Car car = (new Car){value: msg.value}(_owner, _model) */\n      swap1\n      pop\n        /* \"CreateConOtherConExam.sol\":636:708  {... */\n      pop\n        /* \"CreateConOtherConExam.sol\":555:708  function createAndSendEther(address _owner, string memory _model) public payable {... */\n      pop\n      pop\n      jump\t// out\n        /* \"CreateConOtherConExam.sol\":380:397  Car[] public cars */\n    tag_34:\n      0x00\n      dup2\n      dup2\n      sload\n      dup2\n      lt\n      tag_74\n      jumpi\n      0x00\n      dup1\n      revert\n    tag_74:\n      swap1\n      0x00\n      mstore\n      keccak256(0x00, 0x20)\n      add\n      0x00\n      swap2\n      pop\n      sload\n      swap1\n      0x0100\n      exp\n      swap1\n      div\n      0xffffffffffffffffffffffffffffffffffffffff\n      and\n      dup2\n      jump\t// out\n    tag_39:\n      dataSize(sub_0)\n      dup1\n      dataOffset(sub_0)\n      dup4\n      codecopy\n      add\n      swap1\n      jump\t// out\n        /* \"#utility.yul\":7:82   */\n    tag_76:\n        /* \"#utility.yul\":40:46   */\n      0x00\n        /* \"#utility.yul\":73:75   */\n      0x40\n        /* \"#utility.yul\":67:76   */\n      mload\n        /* \"#utility.yul\":57:76   */\n      swap1\n      pop\n        /* \"#utility.yul\":7:82   */\n      swap1\n      jump\t// out\n        /* \"#utility.yul\":88:205   */\n    tag_77:\n        /* \"#utility.yul\":197:198   */\n      0x00\n        /* \"#utility.yul\":194:195   */\n      dup1\n        /* \"#utility.yul\":187:199   */\n      revert\n        /* \"#utility.yul\":211:328   */\n    tag_78:\n        /* \"#utility.yul\":320:321   */\n      0x00\n        /* \"#utility.yul\":317:318   */\n      dup1\n        /* \"#utility.yul\":310:322   */\n      revert\n        /* \"#utility.yul\":334:460   */\n    tag_79:\n        /* \"#utility.yul\":371:378   */\n      0x00\n        /* \"#utility.yul\":411:453   */\n      0xffffffffffffffffffffffffffffffffffffffff\n        /* \"#utility.yul\":404:409   */\n      dup3\n        /* \"#utility.yul\":400:454   */\n      and\n        /* \"#utility.yul\":389:454   */\n      swap1\n      pop\n        /* \"#utility.yul\":334:460   */\n      swap2\n      swap1\n      pop\n      jump\t// out\n        /* \"#utility.yul\":466:562   */\n    tag_80:\n        /* \"#utility.yul\":503:510   */\n      0x00\n        /* \"#utility.yul\":532:556   */\n      tag_119\n        /* \"#utility.yul\":550:555   */\n      dup3\n        /* \"#utility.yul\":532:556   */\n      tag_79\n      jump\t// in\n    tag_119:\n        /* \"#utility.yul\":521:556   */\n      swap1\n      pop\n        /* \"#utility.yul\":466:562   */\n      swap2\n      swap1\n      pop\n      jump\t// out\n        /* \"#utility.yul\":568:690   */\n    tag_81:\n        /* \"#utility.yul\":641:665   */\n      tag_121\n        /* \"#utility.yul\":659:664   */\n      dup2\n        /* \"#utility.yul\":641:665   */\n      tag_80\n      jump\t// in\n    tag_121:\n        /* \"#utility.yul\":634:639   */\n      dup2\n        /* \"#utility.yul\":631:666   */\n      eq\n        /* \"#utility.yul\":621:684   */\n      tag_122\n      jumpi\n        /* \"#utility.yul\":680:681   */\n      0x00\n        /* \"#utility.yul\":677:678   */\n      dup1\n        /* \"#utility.yul\":670:682   */\n      revert\n        /* \"#utility.yul\":621:684   */\n    tag_122:\n        /* \"#utility.yul\":568:690   */\n      pop\n      jump\t// out\n        /* \"#utility.yul\":696:835   */\n    tag_82:\n        /* \"#utility.yul\":742:747   */\n      0x00\n        /* \"#utility.yul\":780:786   */\n      dup2\n        /* \"#utility.yul\":767:787   */\n      calldataload\n        /* \"#utility.yul\":758:787   */\n      swap1\n      pop\n        /* \"#utility.yul\":796:829   */\n      tag_124\n        /* \"#utility.yul\":823:828   */\n      dup2\n        /* \"#utility.yul\":796:829   */\n      tag_81\n      jump\t// in\n    tag_124:\n        /* \"#utility.yul\":696:835   */\n      swap3\n      swap2\n      pop\n      pop\n      jump\t// out\n        /* \"#utility.yul\":841:958   */\n    tag_83:\n        /* \"#utility.yul\":950:951   */\n      0x00\n        /* \"#utility.yul\":947:948   */\n      dup1\n        /* \"#utility.yul\":940:952   */\n      revert\n        /* \"#utility.yul\":964:1081   */\n    tag_84:\n        /* \"#utility.yul\":1073:1074   */\n      0x00\n        /* \"#utility.yul\":1070:1071   */\n      dup1\n        /* \"#utility.yul\":1063:1075   */\n      revert\n        /* \"#utility.yul\":1087:1189   */\n    tag_85:\n        /* \"#utility.yul\":1128:1134   */\n      0x00\n        /* \"#utility.yul\":1179:1181   */\n      0x1f\n        /* \"#utility.yul\":1175:1182   */\n      not\n        /* \"#utility.yul\":1170:1172   */\n      0x1f\n        /* \"#utility.yul\":1163:1168   */\n      dup4\n        /* \"#utility.yul\":1159:1173   */\n      add\n        /* \"#utility.yul\":1155:1183   */\n      and\n        /* \"#utility.yul\":1145:1183   */\n      swap1\n      pop\n        /* \"#utility.yul\":1087:1189   */\n      swap2\n      swap1\n      pop\n      jump\t// out\n        /* \"#utility.yul\":1195:1375   */\n    tag_86:\n        /* \"#utility.yul\":1243:1320   */\n      0x4e487b7100000000000000000000000000000000000000000000000000000000\n        /* \"#utility.yul\":1240:1241   */\n      0x00\n        /* \"#utility.yul\":1233:1321   */\n      mstore\n        /* \"#utility.yul\":1340:1344   */\n      0x41\n        /* \"#utility.yul\":1337:1338   */\n      0x04\n        /* \"#utility.yul\":1330:1345   */\n      mstore\n        /* \"#utility.yul\":1364:1368   */\n      0x24\n        /* \"#utility.yul\":1361:1362   */\n      0x00\n        /* \"#utility.yul\":1354:1369   */\n      revert\n        /* \"#utility.yul\":1381:1662   */\n    tag_87:\n        /* \"#utility.yul\":1464:1491   */\n      tag_130\n        /* \"#utility.yul\":1486:1490   */\n      dup3\n        /* \"#utility.yul\":1464:1491   */\n      tag_85\n      jump\t// in\n    tag_130:\n        /* \"#utility.yul\":1456:1462   */\n      dup2\n        /* \"#utility.yul\":1452:1492   */\n      add\n        /* \"#utility.yul\":1594:1600   */\n      dup2\n        /* \"#utility.yul\":1582:1592   */\n      dup2\n        /* \"#utility.yul\":1579:1601   */\n      lt\n        /* \"#utility.yul\":1558:1576   */\n      0xffffffffffffffff\n        /* \"#utility.yul\":1546:1556   */\n      dup3\n        /* \"#utility.yul\":1543:1577   */\n      gt\n        /* \"#utility.yul\":1540:1602   */\n      or\n        /* \"#utility.yul\":1537:1625   */\n      iszero\n      tag_131\n      jumpi\n        /* \"#utility.yul\":1605:1623   */\n      tag_132\n      tag_86\n      jump\t// in\n    tag_132:\n        /* \"#utility.yul\":1537:1625   */\n    tag_131:\n        /* \"#utility.yul\":1645:1655   */\n      dup1\n        /* \"#utility.yul\":1641:1643   */\n      0x40\n        /* \"#utility.yul\":1634:1656   */\n      mstore\n        /* \"#utility.yul\":1424:1662   */\n      pop\n        /* \"#utility.yul\":1381:1662   */\n      pop\n      pop\n      jump\t// out\n        /* \"#utility.yul\":1668:1797   */\n    tag_88:\n        /* \"#utility.yul\":1702:1708   */\n      0x00\n        /* \"#utility.yul\":1729:1749   */\n      tag_134\n      tag_76\n      jump\t// in\n    tag_134:\n        /* \"#utility.yul\":1719:1749   */\n      swap1\n      pop\n        /* \"#utility.yul\":1758:1791   */\n      tag_135\n        /* \"#utility.yul\":1786:1790   */\n      dup3\n        /* \"#utility.yul\":1778:1784   */\n      dup3\n        /* \"#utility.yul\":1758:1791   */\n      tag_87\n      jump\t// in\n    tag_135:\n        /* \"#utility.yul\":1668:1797   */\n      swap2\n      swap1\n      pop\n      jump\t// out\n        /* \"#utility.yul\":1803:2111   */\n    tag_89:\n        /* \"#utility.yul\":1865:1869   */\n      0x00\n        /* \"#utility.yul\":1955:1973   */\n      0xffffffffffffffff\n        /* \"#utility.yul\":1947:1953   */\n      dup3\n        /* \"#utility.yul\":1944:1974   */\n      gt\n        /* \"#utility.yul\":1941:1997   */\n      iszero\n      tag_137\n      jumpi\n        /* \"#utility.yul\":1977:1995   */\n      tag_138\n      tag_86\n      jump\t// in\n    tag_138:\n        /* \"#utility.yul\":1941:1997   */\n    tag_137:\n        /* \"#utility.yul\":2015:2044   */\n      tag_139\n        /* \"#utility.yul\":2037:2043   */\n      dup3\n        /* \"#utility.yul\":2015:2044   */\n      tag_85\n      jump\t// in\n    tag_139:\n        /* \"#utility.yul\":2007:2044   */\n      swap1\n      pop\n        /* \"#utility.yul\":2099:2103   */\n      0x20\n        /* \"#utility.yul\":2093:2097   */\n      dup2\n        /* \"#utility.yul\":2089:2104   */\n      add\n        /* \"#utility.yul\":2081:2104   */\n      swap1\n      pop\n        /* \"#utility.yul\":1803:2111   */\n      swap2\n      swap1\n      pop\n      jump\t// out\n        /* \"#utility.yul\":2117:2271   */\n    tag_90:\n        /* \"#utility.yul\":2201:2207   */\n      dup3\n        /* \"#utility.yul\":2196:2199   */\n      dup2\n        /* \"#utility.yul\":2191:2194   */\n      dup4\n        /* \"#utility.yul\":2178:2208   */\n      calldatacopy\n        /* \"#utility.yul\":2263:2264   */\n      0x00\n        /* \"#utility.yul\":2254:2260   */\n      dup4\n        /* \"#utility.yul\":2249:2252   */\n      dup4\n        /* \"#utility.yul\":2245:2261   */\n      add\n        /* \"#utility.yul\":2238:2265   */\n      mstore\n        /* \"#utility.yul\":2117:2271   */\n      pop\n      pop\n      pop\n      jump\t// out\n        /* \"#utility.yul\":2277:2689   */\n    tag_91:\n        /* \"#utility.yul\":2355:2360   */\n      0x00\n        /* \"#utility.yul\":2380:2446   */\n      tag_142\n        /* \"#utility.yul\":2396:2445   */\n      tag_143\n        /* \"#utility.yul\":2438:2444   */\n      dup5\n        /* \"#utility.yul\":2396:2445   */\n      tag_89\n      jump\t// in\n    tag_143:\n        /* \"#utility.yul\":2380:2446   */\n      tag_88\n      jump\t// in\n    tag_142:\n        /* \"#utility.yul\":2371:2446   */\n      swap1\n      pop\n        /* \"#utility.yul\":2469:2475   */\n      dup3\n        /* \"#utility.yul\":2462:2467   */\n      dup2\n        /* \"#utility.yul\":2455:2476   */\n      mstore\n        /* \"#utility.yul\":2507:2511   */\n      0x20\n        /* \"#utility.yul\":2500:2505   */\n      dup2\n        /* \"#utility.yul\":2496:2512   */\n      add\n        /* \"#utility.yul\":2545:2548   */\n      dup5\n        /* \"#utility.yul\":2536:2542   */\n      dup5\n        /* \"#utility.yul\":2531:2534   */\n      dup5\n        /* \"#utility.yul\":2527:2543   */\n      add\n        /* \"#utility.yul\":2524:2549   */\n      gt\n        /* \"#utility.yul\":2521:2633   */\n      iszero\n      tag_144\n      jumpi\n        /* \"#utility.yul\":2552:2631   */\n      tag_145\n      tag_84\n      jump\t// in\n    tag_145:\n        /* \"#utility.yul\":2521:2633   */\n    tag_144:\n        /* \"#utility.yul\":2642:2683   */\n      tag_146\n        /* \"#utility.yul\":2676:2682   */\n      dup5\n        /* \"#utility.yul\":2671:2674   */\n      dup3\n        /* \"#utility.yul\":2666:2669   */\n      dup6\n        /* \"#utility.yul\":2642:2683   */\n      tag_90\n      jump\t// in\n    tag_146:\n        /* \"#utility.yul\":2361:2689   */\n      pop\n        /* \"#utility.yul\":2277:2689   */\n      swap4\n      swap3\n      pop\n      pop\n      pop\n      jump\t// out\n        /* \"#utility.yul\":2709:3049   */\n    tag_92:\n        /* \"#utility.yul\":2765:2770   */\n      0x00\n        /* \"#utility.yul\":2814:2817   */\n      dup3\n        /* \"#utility.yul\":2807:2811   */\n      0x1f\n        /* \"#utility.yul\":2799:2805   */\n      dup4\n        /* \"#utility.yul\":2795:2812   */\n      add\n        /* \"#utility.yul\":2791:2818   */\n      slt\n        /* \"#utility.yul\":2781:2903   */\n      tag_148\n      jumpi\n        /* \"#utility.yul\":2822:2901   */\n      tag_149\n      tag_83\n      jump\t// in\n    tag_149:\n        /* \"#utility.yul\":2781:2903   */\n    tag_148:\n        /* \"#utility.yul\":2939:2945   */\n      dup2\n        /* \"#utility.yul\":2926:2946   */\n      calldataload\n        /* \"#utility.yul\":2964:3043   */\n      tag_150\n        /* \"#utility.yul\":3039:3042   */\n      dup5\n        /* \"#utility.yul\":3031:3037   */\n      dup3\n        /* \"#utility.yul\":3024:3028   */\n      0x20\n        /* \"#utility.yul\":3016:3022   */\n      dup7\n        /* \"#utility.yul\":3012:3029   */\n      add\n        /* \"#utility.yul\":2964:3043   */\n      tag_91\n      jump\t// in\n    tag_150:\n        /* \"#utility.yul\":2955:3043   */\n      swap2\n      pop\n        /* \"#utility.yul\":2771:3049   */\n      pop\n        /* \"#utility.yul\":2709:3049   */\n      swap3\n      swap2\n      pop\n      pop\n      jump\t// out\n        /* \"#utility.yul\":3055:3132   */\n    tag_93:\n        /* \"#utility.yul\":3092:3099   */\n      0x00\n        /* \"#utility.yul\":3121:3126   */\n      dup2\n        /* \"#utility.yul\":3110:3126   */\n      swap1\n      pop\n        /* \"#utility.yul\":3055:3132   */\n      swap2\n      swap1\n      pop\n      jump\t// out\n        /* \"#utility.yul\":3138:3260   */\n    tag_94:\n        /* \"#utility.yul\":3211:3235   */\n      tag_153\n        /* \"#utility.yul\":3229:3234   */\n      dup2\n        /* \"#utility.yul\":3211:3235   */\n      tag_93\n      jump\t// in\n    tag_153:\n        /* \"#utility.yul\":3204:3209   */\n      dup2\n        /* \"#utility.yul\":3201:3236   */\n      eq\n        /* \"#utility.yul\":3191:3254   */\n      tag_154\n      jumpi\n        /* \"#utility.yul\":3250:3251   */\n      0x00\n        /* \"#utility.yul\":3247:3248   */\n      dup1\n        /* \"#utility.yul\":3240:3252   */\n      revert\n        /* \"#utility.yul\":3191:3254   */\n    tag_154:\n        /* \"#utility.yul\":3138:3260   */\n      pop\n      jump\t// out\n        /* \"#utility.yul\":3266:3405   */\n    tag_95:\n        /* \"#utility.yul\":3312:3317   */\n      0x00\n        /* \"#utility.yul\":3350:3356   */\n      dup2\n        /* \"#utility.yul\":3337:3357   */\n      calldataload\n        /* \"#utility.yul\":3328:3357   */\n      swap1\n      pop\n        /* \"#utility.yul\":3366:3399   */\n      tag_156\n        /* \"#utility.yul\":3393:3398   */\n      dup2\n        /* \"#utility.yul\":3366:3399   */\n      tag_94\n      jump\t// in\n    tag_156:\n        /* \"#utility.yul\":3266:3405   */\n      swap3\n      swap2\n      pop\n      pop\n      jump\t// out\n        /* \"#utility.yul\":3411:4210   */\n    tag_10:\n        /* \"#utility.yul\":3498:3504   */\n      0x00\n        /* \"#utility.yul\":3506:3512   */\n      dup1\n        /* \"#utility.yul\":3514:3520   */\n      0x00\n        /* \"#utility.yul\":3563:3565   */\n      0x60\n        /* \"#utility.yul\":3551:3560   */\n      dup5\n        /* \"#utility.yul\":3542:3549   */\n      dup7\n        /* \"#utility.yul\":3538:3561   */\n      sub\n        /* \"#utility.yul\":3534:3566   */\n      slt\n        /* \"#utility.yul\":3531:3650   */\n      iszero\n      tag_158\n      jumpi\n        /* \"#utility.yul\":3569:3648   */\n      tag_159\n      tag_77\n      jump\t// in\n    tag_159:\n        /* \"#utility.yul\":3531:3650   */\n    tag_158:\n        /* \"#utility.yul\":3689:3690   */\n      0x00\n        /* \"#utility.yul\":3714:3767   */\n      tag_160\n        /* \"#utility.yul\":3759:3766   */\n      dup7\n        /* \"#utility.yul\":3750:3756   */\n      dup3\n        /* \"#utility.yul\":3739:3748   */\n      dup8\n        /* \"#utility.yul\":3735:3757   */\n      add\n        /* \"#utility.yul\":3714:3767   */\n      tag_82\n      jump\t// in\n    tag_160:\n        /* \"#utility.yul\":3704:3767   */\n      swap4\n      pop\n        /* \"#utility.yul\":3660:3777   */\n      pop\n        /* \"#utility.yul\":3844:3846   */\n      0x20\n        /* \"#utility.yul\":3833:3842   */\n      dup5\n        /* \"#utility.yul\":3829:3847   */\n      add\n        /* \"#utility.yul\":3816:3848   */\n      calldataload\n        /* \"#utility.yul\":3875:3893   */\n      0xffffffffffffffff\n        /* \"#utility.yul\":3867:3873   */\n      dup2\n        /* \"#utility.yul\":3864:3894   */\n      gt\n        /* \"#utility.yul\":3861:3978   */\n      iszero\n      tag_161\n      jumpi\n        /* \"#utility.yul\":3897:3976   */\n      tag_162\n      tag_78\n      jump\t// in\n    tag_162:\n        /* \"#utility.yul\":3861:3978   */\n    tag_161:\n        /* \"#utility.yul\":4002:4065   */\n      tag_163\n        /* \"#utility.yul\":4057:4064   */\n      dup7\n        /* \"#utility.yul\":4048:4054   */\n      dup3\n        /* \"#utility.yul\":4037:4046   */\n      dup8\n        /* \"#utility.yul\":4033:4055   */\n      add\n        /* \"#utility.yul\":4002:4065   */\n      tag_92\n      jump\t// in\n    tag_163:\n        /* \"#utility.yul\":3992:4065   */\n      swap3\n      pop\n        /* \"#utility.yul\":3787:4075   */\n      pop\n        /* \"#utility.yul\":4114:4116   */\n      0x40\n        /* \"#utility.yul\":4140:4193   */\n      tag_164\n        /* \"#utility.yul\":4185:4192   */\n      dup7\n        /* \"#utility.yul\":4176:4182   */\n      dup3\n        /* \"#utility.yul\":4165:4174   */\n      dup8\n        /* \"#utility.yul\":4161:4183   */\n      add\n        /* \"#utility.yul\":4140:4193   */\n      tag_95\n      jump\t// in\n    tag_164:\n        /* \"#utility.yul\":4130:4193   */\n      swap2\n      pop\n        /* \"#utility.yul\":4085:4203   */\n      pop\n        /* \"#utility.yul\":3411:4210   */\n      swap3\n      pop\n      swap3\n      pop\n      swap3\n      jump\t// out\n        /* \"#utility.yul\":4216:4293   */\n    tag_96:\n        /* \"#utility.yul\":4253:4260   */\n      0x00\n        /* \"#utility.yul\":4282:4287   */\n      dup2\n        /* \"#utility.yul\":4271:4287   */\n      swap1\n      pop\n        /* \"#utility.yul\":4216:4293   */\n      swap2\n      swap1\n      pop\n      jump\t// out\n        /* \"#utility.yul\":4299:4421   */\n    tag_97:\n        /* \"#utility.yul\":4372:4396   */\n      tag_167\n        /* \"#utility.yul\":4390:4395   */\n      dup2\n        /* \"#utility.yul\":4372:4396   */\n      tag_96\n      jump\t// in\n    tag_167:\n        /* \"#utility.yul\":4365:4370   */\n      dup2\n        /* \"#utility.yul\":4362:4397   */\n      eq\n        /* \"#utility.yul\":4352:4415   */\n      tag_168\n      jumpi\n        /* \"#utility.yul\":4411:4412   */\n      0x00\n        /* \"#utility.yul\":4408:4409   */\n      dup1\n        /* \"#utility.yul\":4401:4413   */\n      revert\n        /* \"#utility.yul\":4352:4415   */\n    tag_168:\n        /* \"#utility.yul\":4299:4421   */\n      pop\n      jump\t// out\n        /* \"#utility.yul\":4427:4566   */\n    tag_98:\n        /* \"#utility.yul\":4473:4478   */\n      0x00\n        /* \"#utility.yul\":4511:4517   */\n      dup2\n        /* \"#utility.yul\":4498:4518   */\n      calldataload\n        /* \"#utility.yul\":4489:4518   */\n      swap1\n      pop\n        /* \"#utility.yul\":4527:4560   */\n      tag_170\n        /* \"#utility.yul\":4554:4559   */\n      dup2\n        /* \"#utility.yul\":4527:4560   */\n      tag_97\n      jump\t// in\n    tag_170:\n        /* \"#utility.yul\":4427:4566   */\n      swap3\n      swap2\n      pop\n      pop\n      jump\t// out\n        /* \"#utility.yul\":4572:4901   */\n    tag_15:\n        /* \"#utility.yul\":4631:4637   */\n      0x00\n        /* \"#utility.yul\":4680:4682   */\n      0x20\n        /* \"#utility.yul\":4668:4677   */\n      dup3\n        /* \"#utility.yul\":4659:4666   */\n      dup5\n        /* \"#utility.yul\":4655:4678   */\n      sub\n        /* \"#utility.yul\":4651:4683   */\n      slt\n        /* \"#utility.yul\":4648:4767   */\n      iszero\n      tag_172\n      jumpi\n        /* \"#utility.yul\":4686:4765   */\n      tag_173\n      tag_77\n      jump\t// in\n    tag_173:\n        /* \"#utility.yul\":4648:4767   */\n    tag_172:\n        /* \"#utility.yul\":4806:4807   */\n      0x00\n        /* \"#utility.yul\":4831:4884   */\n      tag_174\n        /* \"#utility.yul\":4876:4883   */\n      dup5\n        /* \"#utility.yul\":4867:4873   */\n      dup3\n        /* \"#utility.yul\":4856:4865   */\n      dup6\n        /* \"#utility.yul\":4852:4874   */\n      add\n        /* \"#utility.yul\":4831:4884   */\n      tag_98\n      jump\t// in\n    tag_174:\n        /* \"#utility.yul\":4821:4884   */\n      swap2\n      pop\n        /* \"#utility.yul\":4777:4894   */\n      pop\n        /* \"#utility.yul\":4572:4901   */\n      swap3\n      swap2\n      pop\n      pop\n      jump\t// out\n        /* \"#utility.yul\":4907:5025   */\n    tag_99:\n        /* \"#utility.yul\":4994:5018   */\n      tag_176\n        /* \"#utility.yul\":5012:5017   */\n      dup2\n        /* \"#utility.yul\":4994:5018   */\n      tag_80\n      jump\t// in\n    tag_176:\n        /* \"#utility.yul\":4989:4992   */\n      dup3\n        /* \"#utility.yul\":4982:5019   */\n      mstore\n        /* \"#utility.yul\":4907:5025   */\n      pop\n      pop\n      jump\t// out\n        /* \"#utility.yul\":5031:5130   */\n    tag_100:\n        /* \"#utility.yul\":5083:5089   */\n      0x00\n        /* \"#utility.yul\":5117:5122   */\n      dup2\n        /* \"#utility.yul\":5111:5123   */\n      mload\n        /* \"#utility.yul\":5101:5123   */\n      swap1\n      pop\n        /* \"#utility.yul\":5031:5130   */\n      swap2\n      swap1\n      pop\n      jump\t// out\n        /* \"#utility.yul\":5136:5305   */\n    tag_101:\n        /* \"#utility.yul\":5220:5231   */\n      0x00\n        /* \"#utility.yul\":5254:5260   */\n      dup3\n        /* \"#utility.yul\":5249:5252   */\n      dup3\n        /* \"#utility.yul\":5242:5261   */\n      mstore\n        /* \"#utility.yul\":5294:5298   */\n      0x20\n        /* \"#utility.yul\":5289:5292   */\n      dup3\n        /* \"#utility.yul\":5285:5299   */\n      add\n        /* \"#utility.yul\":5270:5299   */\n      swap1\n      pop\n        /* \"#utility.yul\":5136:5305   */\n      swap3\n      swap2\n      pop\n      pop\n      jump\t// out\n        /* \"#utility.yul\":5311:5618   */\n    tag_102:\n        /* \"#utility.yul\":5379:5380   */\n      0x00\n        /* \"#utility.yul\":5389:5502   */\n    tag_180:\n        /* \"#utility.yul\":5403:5409   */\n      dup4\n        /* \"#utility.yul\":5400:5401   */\n      dup2\n        /* \"#utility.yul\":5397:5410   */\n      lt\n        /* \"#utility.yul\":5389:5502   */\n      iszero\n      tag_182\n      jumpi\n        /* \"#utility.yul\":5488:5489   */\n      dup1\n        /* \"#utility.yul\":5483:5486   */\n      dup3\n        /* \"#utility.yul\":5479:5490   */\n      add\n        /* \"#utility.yul\":5473:5491   */\n      mload\n        /* \"#utility.yul\":5469:5470   */\n      dup2\n        /* \"#utility.yul\":5464:5467   */\n      dup5\n        /* \"#utility.yul\":5460:5471   */\n      add\n        /* \"#utility.yul\":5453:5492   */\n      mstore\n        /* \"#utility.yul\":5425:5427   */\n      0x20\n        /* \"#utility.yul\":5422:5423   */\n      dup2\n        /* \"#utility.yul\":5418:5428   */\n      add\n        /* \"#utility.yul\":5413:5428   */\n      swap1\n      pop\n        /* \"#utility.yul\":5389:5502   */\n      jump(tag_180)\n    tag_182:\n        /* \"#utility.yul\":5520:5526   */\n      dup4\n        /* \"#utility.yul\":5517:5518   */\n      dup2\n        /* \"#utility.yul\":5514:5527   */\n      gt\n        /* \"#utility.yul\":5511:5612   */\n      iszero\n      tag_183\n      jumpi\n        /* \"#utility.yul\":5600:5601   */\n      0x00\n        /* \"#utility.yul\":5591:5597   */\n      dup5\n        /* \"#utility.yul\":5586:5589   */\n      dup5\n        /* \"#utility.yul\":5582:5598   */\n      add\n        /* \"#utility.yul\":5575:5602   */\n      mstore\n        /* \"#utility.yul\":5511:5612   */\n    tag_183:\n        /* \"#utility.yul\":5360:5618   */\n      pop\n        /* \"#utility.yul\":5311:5618   */\n      pop\n      pop\n      pop\n      jump\t// out\n        /* \"#utility.yul\":5624:5988   */\n    tag_103:\n        /* \"#utility.yul\":5712:5715   */\n      0x00\n        /* \"#utility.yul\":5740:5779   */\n      tag_185\n        /* \"#utility.yul\":5773:5778   */\n      dup3\n        /* \"#utility.yul\":5740:5779   */\n      tag_100\n      jump\t// in\n    tag_185:\n        /* \"#utility.yul\":5795:5866   */\n      tag_186\n        /* \"#utility.yul\":5859:5865   */\n      dup2\n        /* \"#utility.yul\":5854:5857   */\n      dup6\n        /* \"#utility.yul\":5795:5866   */\n      tag_101\n      jump\t// in\n    tag_186:\n        /* \"#utility.yul\":5788:5866   */\n      swap4\n      pop\n        /* \"#utility.yul\":5875:5927   */\n      tag_187\n        /* \"#utility.yul\":5920:5926   */\n      dup2\n        /* \"#utility.yul\":5915:5918   */\n      dup6\n        /* \"#utility.yul\":5908:5912   */\n      0x20\n        /* \"#utility.yul\":5901:5906   */\n      dup7\n        /* \"#utility.yul\":5897:5913   */\n      add\n        /* \"#utility.yul\":5875:5927   */\n      tag_102\n      jump\t// in\n    tag_187:\n        /* \"#utility.yul\":5952:5981   */\n      tag_188\n        /* \"#utility.yul\":5974:5980   */\n      dup2\n        /* \"#utility.yul\":5952:5981   */\n      tag_85\n      jump\t// in\n    tag_188:\n        /* \"#utility.yul\":5947:5950   */\n      dup5\n        /* \"#utility.yul\":5943:5982   */\n      add\n        /* \"#utility.yul\":5936:5982   */\n      swap2\n      pop\n        /* \"#utility.yul\":5716:5988   */\n      pop\n        /* \"#utility.yul\":5624:5988   */\n      swap3\n      swap2\n      pop\n      pop\n      jump\t// out\n        /* \"#utility.yul\":5994:6112   */\n    tag_104:\n        /* \"#utility.yul\":6081:6105   */\n      tag_190\n        /* \"#utility.yul\":6099:6104   */\n      dup2\n        /* \"#utility.yul\":6081:6105   */\n      tag_96\n      jump\t// in\n    tag_190:\n        /* \"#utility.yul\":6076:6079   */\n      dup3\n        /* \"#utility.yul\":6069:6106   */\n      mstore\n        /* \"#utility.yul\":5994:6112   */\n      pop\n      pop\n      jump\t// out\n        /* \"#utility.yul\":6118:6762   */\n    tag_18:\n        /* \"#utility.yul\":6315:6319   */\n      0x00\n        /* \"#utility.yul\":6353:6356   */\n      0x80\n        /* \"#utility.yul\":6342:6351   */\n      dup3\n        /* \"#utility.yul\":6338:6357   */\n      add\n        /* \"#utility.yul\":6330:6357   */\n      swap1\n      pop\n        /* \"#utility.yul\":6367:6438   */\n      tag_192\n        /* \"#utility.yul\":6435:6436   */\n      0x00\n        /* \"#utility.yul\":6424:6433   */\n      dup4\n        /* \"#utility.yul\":6420:6437   */\n      add\n        /* \"#utility.yul\":6411:6417   */\n      dup8\n        /* \"#utility.yul\":6367:6438   */\n      tag_99\n      jump\t// in\n    tag_192:\n        /* \"#utility.yul\":6485:6494   */\n      dup2\n        /* \"#utility.yul\":6479:6483   */\n      dup2\n        /* \"#utility.yul\":6475:6495   */\n      sub\n        /* \"#utility.yul\":6470:6472   */\n      0x20\n        /* \"#utility.yul\":6459:6468   */\n      dup4\n        /* \"#utility.yul\":6455:6473   */\n      add\n        /* \"#utility.yul\":6448:6496   */\n      mstore\n        /* \"#utility.yul\":6513:6591   */\n      tag_193\n        /* \"#utility.yul\":6586:6590   */\n      dup2\n        /* \"#utility.yul\":6577:6583   */\n      dup7\n        /* \"#utility.yul\":6513:6591   */\n      tag_103\n      jump\t// in\n    tag_193:\n        /* \"#utility.yul\":6505:6591   */\n      swap1\n      pop\n        /* \"#utility.yul\":6601:6673   */\n      tag_194\n        /* \"#utility.yul\":6669:6671   */\n      0x40\n        /* \"#utility.yul\":6658:6667   */\n      dup4\n        /* \"#utility.yul\":6654:6672   */\n      add\n        /* \"#utility.yul\":6645:6651   */\n      dup6\n        /* \"#utility.yul\":6601:6673   */\n      tag_99\n      jump\t// in\n    tag_194:\n        /* \"#utility.yul\":6683:6755   */\n      tag_195\n        /* \"#utility.yul\":6751:6753   */\n      0x60\n        /* \"#utility.yul\":6740:6749   */\n      dup4\n        /* \"#utility.yul\":6736:6754   */\n      add\n        /* \"#utility.yul\":6727:6733   */\n      dup5\n        /* \"#utility.yul\":6683:6755   */\n      tag_104\n      jump\t// in\n    tag_195:\n        /* \"#utility.yul\":6118:6762   */\n      swap6\n      swap5\n      pop\n      pop\n      pop\n      pop\n      pop\n      jump\t// out\n        /* \"#utility.yul\":6768:7422   */\n    tag_26:\n        /* \"#utility.yul\":6846:6852   */\n      0x00\n        /* \"#utility.yul\":6854:6860   */\n      dup1\n        /* \"#utility.yul\":6903:6905   */\n      0x40\n        /* \"#utility.yul\":6891:6900   */\n      dup4\n        /* \"#utility.yul\":6882:6889   */\n      dup6\n        /* \"#utility.yul\":6878:6901   */\n      sub\n        /* \"#utility.yul\":6874:6906   */\n      slt\n        /* \"#utility.yul\":6871:6990   */\n      iszero\n      tag_197\n      jumpi\n        /* \"#utility.yul\":6909:6988   */\n      tag_198\n      tag_77\n      jump\t// in\n    tag_198:\n        /* \"#utility.yul\":6871:6990   */\n    tag_197:\n        /* \"#utility.yul\":7029:7030   */\n      0x00\n        /* \"#utility.yul\":7054:7107   */\n      tag_199\n        /* \"#utility.yul\":7099:7106   */\n      dup6\n        /* \"#utility.yul\":7090:7096   */\n      dup3\n        /* \"#utility.yul\":7079:7088   */\n      dup7\n        /* \"#utility.yul\":7075:7097   */\n      add\n        /* \"#utility.yul\":7054:7107   */\n      tag_82\n      jump\t// in\n    tag_199:\n        /* \"#utility.yul\":7044:7107   */\n      swap3\n      pop\n        /* \"#utility.yul\":7000:7117   */\n      pop\n        /* \"#utility.yul\":7184:7186   */\n      0x20\n        /* \"#utility.yul\":7173:7182   */\n      dup4\n        /* \"#utility.yul\":7169:7187   */\n      add\n        /* \"#utility.yul\":7156:7188   */\n      calldataload\n        /* \"#utility.yul\":7215:7233   */\n      0xffffffffffffffff\n        /* \"#utility.yul\":7207:7213   */\n      dup2\n        /* \"#utility.yul\":7204:7234   */\n      gt\n        /* \"#utility.yul\":7201:7318   */\n      iszero\n      tag_200\n      jumpi\n        /* \"#utility.yul\":7237:7316   */\n      tag_201\n      tag_78\n      jump\t// in\n    tag_201:\n        /* \"#utility.yul\":7201:7318   */\n    tag_200:\n        /* \"#utility.yul\":7342:7405   */\n      tag_202\n        /* \"#utility.yul\":7397:7404   */\n      dup6\n        /* \"#utility.yul\":7388:7394   */\n      dup3\n        /* \"#utility.yul\":7377:7386   */\n      dup7\n        /* \"#utility.yul\":7373:7395   */\n      add\n        /* \"#utility.yul\":7342:7405   */\n      tag_92\n      jump\t// in\n    tag_202:\n        /* \"#utility.yul\":7332:7405   */\n      swap2\n      pop\n        /* \"#utility.yul\":7127:7415   */\n      pop\n        /* \"#utility.yul\":6768:7422   */\n      swap3\n      pop\n      swap3\n      swap1\n      pop\n      jump\t// out\n        /* \"#utility.yul\":7428:7488   */\n    tag_105:\n        /* \"#utility.yul\":7456:7459   */\n      0x00\n        /* \"#utility.yul\":7477:7482   */\n      dup2\n        /* \"#utility.yul\":7470:7482   */\n      swap1\n      pop\n        /* \"#utility.yul\":7428:7488   */\n      swap2\n      swap1\n      pop\n      jump\t// out\n        /* \"#utility.yul\":7494:7636   */\n    tag_106:\n        /* \"#utility.yul\":7544:7553   */\n      0x00\n        /* \"#utility.yul\":7577:7630   */\n      tag_205\n        /* \"#utility.yul\":7595:7629   */\n      tag_206\n        /* \"#utility.yul\":7604:7628   */\n      tag_207\n        /* \"#utility.yul\":7622:7627   */\n      dup5\n        /* \"#utility.yul\":7604:7628   */\n      tag_79\n      jump\t// in\n    tag_207:\n        /* \"#utility.yul\":7595:7629   */\n      tag_105\n      jump\t// in\n    tag_206:\n        /* \"#utility.yul\":7577:7630   */\n      tag_79\n      jump\t// in\n    tag_205:\n        /* \"#utility.yul\":7564:7630   */\n      swap1\n      pop\n        /* \"#utility.yul\":7494:7636   */\n      swap2\n      swap1\n      pop\n      jump\t// out\n        /* \"#utility.yul\":7642:7768   */\n    tag_107:\n        /* \"#utility.yul\":7692:7701   */\n      0x00\n        /* \"#utility.yul\":7725:7762   */\n      tag_209\n        /* \"#utility.yul\":7756:7761   */\n      dup3\n        /* \"#utility.yul\":7725:7762   */\n      tag_106\n      jump\t// in\n    tag_209:\n        /* \"#utility.yul\":7712:7762   */\n      swap1\n      pop\n        /* \"#utility.yul\":7642:7768   */\n      swap2\n      swap1\n      pop\n      jump\t// out\n        /* \"#utility.yul\":7774:7910   */\n    tag_108:\n        /* \"#utility.yul\":7834:7843   */\n      0x00\n        /* \"#utility.yul\":7867:7904   */\n      tag_211\n        /* \"#utility.yul\":7898:7903   */\n      dup3\n        /* \"#utility.yul\":7867:7904   */\n      tag_107\n      jump\t// in\n    tag_211:\n        /* \"#utility.yul\":7854:7904   */\n      swap1\n      pop\n        /* \"#utility.yul\":7774:7910   */\n      swap2\n      swap1\n      pop\n      jump\t// out\n        /* \"#utility.yul\":7916:8067   */\n    tag_109:\n        /* \"#utility.yul\":8013:8060   */\n      tag_213\n        /* \"#utility.yul\":8054:8059   */\n      dup2\n        /* \"#utility.yul\":8013:8060   */\n      tag_108\n      jump\t// in\n    tag_213:\n        /* \"#utility.yul\":8008:8011   */\n      dup3\n        /* \"#utility.yul\":8001:8061   */\n      mstore\n        /* \"#utility.yul\":7916:8067   */\n      pop\n      pop\n      jump\t// out\n        /* \"#utility.yul\":8073:8315   */\n    tag_36:\n        /* \"#utility.yul\":8176:8180   */\n      0x00\n        /* \"#utility.yul\":8214:8216   */\n      0x20\n        /* \"#utility.yul\":8203:8212   */\n      dup3\n        /* \"#utility.yul\":8199:8217   */\n      add\n        /* \"#utility.yul\":8191:8217   */\n      swap1\n      pop\n        /* \"#utility.yul\":8227:8308   */\n      tag_215\n        /* \"#utility.yul\":8305:8306   */\n      0x00\n        /* \"#utility.yul\":8294:8303   */\n      dup4\n        /* \"#utility.yul\":8290:8307   */\n      add\n        /* \"#utility.yul\":8281:8287   */\n      dup5\n        /* \"#utility.yul\":8227:8308   */\n      tag_109\n      jump\t// in\n    tag_215:\n        /* \"#utility.yul\":8073:8315   */\n      swap3\n      swap2\n      pop\n      pop\n      jump\t// out\n        /* \"#utility.yul\":8321:8744   */\n    tag_41:\n        /* \"#utility.yul\":8462:8466   */\n      0x00\n        /* \"#utility.yul\":8500:8502   */\n      0x40\n        /* \"#utility.yul\":8489:8498   */\n      dup3\n        /* \"#utility.yul\":8485:8503   */\n      add\n        /* \"#utility.yul\":8477:8503   */\n      swap1\n      pop\n        /* \"#utility.yul\":8513:8584   */\n      tag_217\n        /* \"#utility.yul\":8581:8582   */\n      0x00\n        /* \"#utility.yul\":8570:8579   */\n      dup4\n        /* \"#utility.yul\":8566:8583   */\n      add\n        /* \"#utility.yul\":8557:8563   */\n      dup6\n        /* \"#utility.yul\":8513:8584   */\n      tag_99\n      jump\t// in\n    tag_217:\n        /* \"#utility.yul\":8631:8640   */\n      dup2\n        /* \"#utility.yul\":8625:8629   */\n      dup2\n        /* \"#utility.yul\":8621:8641   */\n      sub\n        /* \"#utility.yul\":8616:8618   */\n      0x20\n        /* \"#utility.yul\":8605:8614   */\n      dup4\n        /* \"#utility.yul\":8601:8619   */\n      add\n        /* \"#utility.yul\":8594:8642   */\n      mstore\n        /* \"#utility.yul\":8659:8737   */\n      tag_218\n        /* \"#utility.yul\":8732:8736   */\n      dup2\n        /* \"#utility.yul\":8723:8729   */\n      dup5\n        /* \"#utility.yul\":8659:8737   */\n      tag_103\n      jump\t// in\n    tag_218:\n        /* \"#utility.yul\":8651:8737   */\n      swap1\n      pop\n        /* \"#utility.yul\":8321:8744   */\n      swap4\n      swap3\n      pop\n      pop\n      pop\n      jump\t// out\n        /* \"#utility.yul\":8750:8930   */\n    tag_47:\n        /* \"#utility.yul\":8798:8875   */\n      0x4e487b7100000000000000000000000000000000000000000000000000000000\n        /* \"#utility.yul\":8795:8796   */\n      0x00\n        /* \"#utility.yul\":8788:8876   */\n      mstore\n        /* \"#utility.yul\":8895:8899   */\n      0x32\n        /* \"#utility.yul\":8892:8893   */\n      0x04\n        /* \"#utility.yul\":8885:8900   */\n      mstore\n        /* \"#utility.yul\":8919:8923   */\n      0x24\n        /* \"#utility.yul\":8916:8917   */\n      0x00\n        /* \"#utility.yul\":8909:8924   */\n      revert\n        /* \"#utility.yul\":8936:9079   */\n    tag_110:\n        /* \"#utility.yul\":8993:8998   */\n      0x00\n        /* \"#utility.yul\":9024:9030   */\n      dup2\n        /* \"#utility.yul\":9018:9031   */\n      mload\n        /* \"#utility.yul\":9009:9031   */\n      swap1\n      pop\n        /* \"#utility.yul\":9040:9073   */\n      tag_221\n        /* \"#utility.yul\":9067:9072   */\n      dup2\n        /* \"#utility.yul\":9040:9073   */\n      tag_81\n      jump\t// in\n    tag_221:\n        /* \"#utility.yul\":8936:9079   */\n      swap3\n      swap2\n      pop\n      pop\n      jump\t// out\n        /* \"#utility.yul\":9085:9436   */\n    tag_52:\n        /* \"#utility.yul\":9155:9161   */\n      0x00\n        /* \"#utility.yul\":9204:9206   */\n      0x20\n        /* \"#utility.yul\":9192:9201   */\n      dup3\n        /* \"#utility.yul\":9183:9190   */\n      dup5\n        /* \"#utility.yul\":9179:9202   */\n      sub\n        /* \"#utility.yul\":9175:9207   */\n      slt\n        /* \"#utility.yul\":9172:9291   */\n      iszero\n      tag_223\n      jumpi\n        /* \"#utility.yul\":9210:9289   */\n      tag_224\n      tag_77\n      jump\t// in\n    tag_224:\n        /* \"#utility.yul\":9172:9291   */\n    tag_223:\n        /* \"#utility.yul\":9330:9331   */\n      0x00\n        /* \"#utility.yul\":9355:9419   */\n      tag_225\n        /* \"#utility.yul\":9411:9418   */\n      dup5\n        /* \"#utility.yul\":9402:9408   */\n      dup3\n        /* \"#utility.yul\":9391:9400   */\n      dup6\n        /* \"#utility.yul\":9387:9409   */\n      add\n        /* \"#utility.yul\":9355:9419   */\n      tag_110\n      jump\t// in\n    tag_225:\n        /* \"#utility.yul\":9345:9419   */\n      swap2\n      pop\n        /* \"#utility.yul\":9301:9429   */\n      pop\n        /* \"#utility.yul\":9085:9436   */\n      swap3\n      swap2\n      pop\n      pop\n      jump\t// out\n        /* \"#utility.yul\":9442:9863   */\n    tag_111:\n        /* \"#utility.yul\":9531:9536   */\n      0x00\n        /* \"#utility.yul\":9556:9622   */\n      tag_227\n        /* \"#utility.yul\":9572:9621   */\n      tag_228\n        /* \"#utility.yul\":9614:9620   */\n      dup5\n        /* \"#utility.yul\":9572:9621   */\n      tag_89\n      jump\t// in\n    tag_228:\n        /* \"#utility.yul\":9556:9622   */\n      tag_88\n      jump\t// in\n    tag_227:\n        /* \"#utility.yul\":9547:9622   */\n      swap1\n      pop\n        /* \"#utility.yul\":9645:9651   */\n      dup3\n        /* \"#utility.yul\":9638:9643   */\n      dup2\n        /* \"#utility.yul\":9631:9652   */\n      mstore\n        /* \"#utility.yul\":9683:9687   */\n      0x20\n        /* \"#utility.yul\":9676:9681   */\n      dup2\n        /* \"#utility.yul\":9672:9688   */\n      add\n        /* \"#utility.yul\":9721:9724   */\n      dup5\n        /* \"#utility.yul\":9712:9718   */\n      dup5\n        /* \"#utility.yul\":9707:9710   */\n      dup5\n        /* \"#utility.yul\":9703:9719   */\n      add\n        /* \"#utility.yul\":9700:9725   */\n      gt\n        /* \"#utility.yul\":9697:9809   */\n      iszero\n      tag_229\n      jumpi\n        /* \"#utility.yul\":9728:9807   */\n      tag_230\n      tag_84\n      jump\t// in\n    tag_230:\n        /* \"#utility.yul\":9697:9809   */\n    tag_229:\n        /* \"#utility.yul\":9818:9857   */\n      tag_231\n        /* \"#utility.yul\":9850:9856   */\n      dup5\n        /* \"#utility.yul\":9845:9848   */\n      dup3\n        /* \"#utility.yul\":9840:9843   */\n      dup6\n        /* \"#utility.yul\":9818:9857   */\n      tag_102\n      jump\t// in\n    tag_231:\n        /* \"#utility.yul\":9537:9863   */\n      pop\n        /* \"#utility.yul\":9442:9863   */\n      swap4\n      swap3\n      pop\n      pop\n      pop\n      jump\t// out\n        /* \"#utility.yul\":9883:10238   */\n    tag_112:\n        /* \"#utility.yul\":9950:9955   */\n      0x00\n        /* \"#utility.yul\":9999:10002   */\n      dup3\n        /* \"#utility.yul\":9992:9996   */\n      0x1f\n        /* \"#utility.yul\":9984:9990   */\n      dup4\n        /* \"#utility.yul\":9980:9997   */\n      add\n        /* \"#utility.yul\":9976:10003   */\n      slt\n        /* \"#utility.yul\":9966:10088   */\n      tag_233\n      jumpi\n        /* \"#utility.yul\":10007:10086   */\n      tag_234\n      tag_83\n      jump\t// in\n    tag_234:\n        /* \"#utility.yul\":9966:10088   */\n    tag_233:\n        /* \"#utility.yul\":10117:10123   */\n      dup2\n        /* \"#utility.yul\":10111:10124   */\n      mload\n        /* \"#utility.yul\":10142:10232   */\n      tag_235\n        /* \"#utility.yul\":10228:10231   */\n      dup5\n        /* \"#utility.yul\":10220:10226   */\n      dup3\n        /* \"#utility.yul\":10213:10217   */\n      0x20\n        /* \"#utility.yul\":10205:10211   */\n      dup7\n        /* \"#utility.yul\":10201:10218   */\n      add\n        /* \"#utility.yul\":10142:10232   */\n      tag_111\n      jump\t// in\n    tag_235:\n        /* \"#utility.yul\":10133:10232   */\n      swap2\n      pop\n        /* \"#utility.yul\":9956:10238   */\n      pop\n        /* \"#utility.yul\":9883:10238   */\n      swap3\n      swap2\n      pop\n      pop\n      jump\t// out\n        /* \"#utility.yul\":10244:10768   */\n    tag_56:\n        /* \"#utility.yul\":10324:10330   */\n      0x00\n        /* \"#utility.yul\":10373:10375   */\n      0x20\n        /* \"#utility.yul\":10361:10370   */\n      dup3\n        /* \"#utility.yul\":10352:10359   */\n      dup5\n        /* \"#utility.yul\":10348:10371   */\n      sub\n        /* \"#utility.yul\":10344:10376   */\n      slt\n        /* \"#utility.yul\":10341:10460   */\n      iszero\n      tag_237\n      jumpi\n        /* \"#utility.yul\":10379:10458   */\n      tag_238\n      tag_77\n      jump\t// in\n    tag_238:\n        /* \"#utility.yul\":10341:10460   */\n    tag_237:\n        /* \"#utility.yul\":10520:10521   */\n      0x00\n        /* \"#utility.yul\":10509:10518   */\n      dup3\n        /* \"#utility.yul\":10505:10522   */\n      add\n        /* \"#utility.yul\":10499:10523   */\n      mload\n        /* \"#utility.yul\":10550:10568   */\n      0xffffffffffffffff\n        /* \"#utility.yul\":10542:10548   */\n      dup2\n        /* \"#utility.yul\":10539:10569   */\n      gt\n        /* \"#utility.yul\":10536:10653   */\n      iszero\n      tag_239\n      jumpi\n        /* \"#utility.yul\":10572:10651   */\n      tag_240\n      tag_78\n      jump\t// in\n    tag_240:\n        /* \"#utility.yul\":10536:10653   */\n    tag_239:\n        /* \"#utility.yul\":10677:10751   */\n      tag_241\n        /* \"#utility.yul\":10743:10750   */\n      dup5\n        /* \"#utility.yul\":10734:10740   */\n      dup3\n        /* \"#utility.yul\":10723:10732   */\n      dup6\n        /* \"#utility.yul\":10719:10741   */\n      add\n        /* \"#utility.yul\":10677:10751   */\n      tag_112\n      jump\t// in\n    tag_241:\n        /* \"#utility.yul\":10667:10751   */\n      swap2\n      pop\n        /* \"#utility.yul\":10470:10761   */\n      pop\n        /* \"#utility.yul\":10244:10768   */\n      swap3\n      swap2\n      pop\n      pop\n      jump\t// out\n    stop\n\n    sub_0: assembly {\n            /* \"CreateConOtherConExam.sol\":62:350  contract Car {... */\n          mstore(0x40, 0x80)\n            /* \"CreateConOtherConExam.sol\":166:347  constructor(address _owner, string memory _model) payable {... */\n          mload(0x40)\n          sub(codesize, bytecodeSize)\n          dup1\n          bytecodeSize\n          dup4\n          codecopy\n          dup2\n          dup2\n          add\n          0x40\n          mstore\n          dup2\n          add\n          swap1\n          tag_1\n          swap2\n          swap1\n          tag_2\n          jump\t// in\n        tag_1:\n            /* \"CreateConOtherConExam.sol\":243:249  _owner */\n          dup2\n            /* \"CreateConOtherConExam.sol\":235:240  owner */\n          0x00\n          dup1\n            /* \"CreateConOtherConExam.sol\":235:249  owner = _owner */\n          0x0100\n          exp\n          dup2\n          sload\n          dup2\n          0xffffffffffffffffffffffffffffffffffffffff\n          mul\n          not\n          and\n          swap1\n          dup4\n          0xffffffffffffffffffffffffffffffffffffffff\n          and\n          mul\n          or\n          swap1\n          sstore\n          pop\n            /* \"CreateConOtherConExam.sol\":268:274  _model */\n          dup1\n            /* \"CreateConOtherConExam.sol\":260:265  model */\n          0x01\n            /* \"CreateConOtherConExam.sol\":260:274  model = _model */\n          swap1\n          dup1\n          mload\n          swap1\n          0x20\n          add\n          swap1\n          tag_5\n          swap3\n          swap2\n          swap1\n          tag_6\n          jump\t// in\n        tag_5:\n          pop\n            /* \"CreateConOtherConExam.sol\":303:313  msg.sender */\n          caller\n            /* \"CreateConOtherConExam.sol\":285:292  carAddr */\n          0x02\n          0x00\n            /* \"CreateConOtherConExam.sol\":285:314  carAddr = address(msg.sender) */\n          0x0100\n          exp\n          dup2\n          sload\n          dup2\n          0xffffffffffffffffffffffffffffffffffffffff\n          mul\n          not\n          and\n          swap1\n          dup4\n          0xffffffffffffffffffffffffffffffffffffffff\n          and\n          mul\n          or\n          swap1\n          sstore\n          pop\n            /* \"CreateConOtherConExam.sol\":166:347  constructor(address _owner, string memory _model) payable {... */\n          pop\n          pop\n            /* \"CreateConOtherConExam.sol\":62:350  contract Car {... */\n          jump(tag_7)\n        tag_6:\n          dup3\n          dup1\n          sload\n          tag_8\n          swap1\n          tag_9\n          jump\t// in\n        tag_8:\n          swap1\n          0x00\n          mstore\n          keccak256(0x00, 0x20)\n          swap1\n          0x1f\n          add\n          0x20\n          swap1\n          div\n          dup2\n          add\n          swap3\n          dup3\n          tag_11\n          jumpi\n          0x00\n          dup6\n          sstore\n          jump(tag_10)\n        tag_11:\n          dup3\n          0x1f\n          lt\n          tag_12\n          jumpi\n          dup1\n          mload\n          not(0xff)\n          and\n          dup4\n          dup1\n          add\n          or\n          dup6\n          sstore\n          jump(tag_10)\n        tag_12:\n          dup3\n          dup1\n          add\n          0x01\n          add\n          dup6\n          sstore\n          dup3\n          iszero\n          tag_10\n          jumpi\n          swap2\n          dup3\n          add\n        tag_13:\n          dup3\n          dup2\n          gt\n          iszero\n          tag_14\n          jumpi\n          dup3\n          mload\n          dup3\n          sstore\n          swap2\n          0x20\n          add\n          swap2\n          swap1\n          0x01\n          add\n          swap1\n          jump(tag_13)\n        tag_14:\n        tag_10:\n          pop\n          swap1\n          pop\n          tag_15\n          swap2\n          swap1\n          tag_16\n          jump\t// in\n        tag_15:\n          pop\n          swap1\n          jump\t// out\n        tag_16:\n        tag_17:\n          dup1\n          dup3\n          gt\n          iszero\n          tag_18\n          jumpi\n          0x00\n          dup2\n          0x00\n          swap1\n          sstore\n          pop\n          0x01\n          add\n          jump(tag_17)\n        tag_18:\n          pop\n          swap1\n          jump\t// out\n            /* \"#utility.yul\":7:82   */\n        tag_19:\n            /* \"#utility.yul\":40:46   */\n          0x00\n            /* \"#utility.yul\":73:75   */\n          0x40\n            /* \"#utility.yul\":67:76   */\n          mload\n            /* \"#utility.yul\":57:76   */\n          swap1\n          pop\n            /* \"#utility.yul\":7:82   */\n          swap1\n          jump\t// out\n            /* \"#utility.yul\":88:205   */\n        tag_20:\n            /* \"#utility.yul\":197:198   */\n          0x00\n            /* \"#utility.yul\":194:195   */\n          dup1\n            /* \"#utility.yul\":187:199   */\n          revert\n            /* \"#utility.yul\":211:328   */\n        tag_21:\n            /* \"#utility.yul\":320:321   */\n          0x00\n            /* \"#utility.yul\":317:318   */\n          dup1\n            /* \"#utility.yul\":310:322   */\n          revert\n            /* \"#utility.yul\":334:460   */\n        tag_22:\n            /* \"#utility.yul\":371:378   */\n          0x00\n            /* \"#utility.yul\":411:453   */\n          0xffffffffffffffffffffffffffffffffffffffff\n            /* \"#utility.yul\":404:409   */\n          dup3\n            /* \"#utility.yul\":400:454   */\n          and\n            /* \"#utility.yul\":389:454   */\n          swap1\n          pop\n            /* \"#utility.yul\":334:460   */\n          swap2\n          swap1\n          pop\n          jump\t// out\n            /* \"#utility.yul\":466:562   */\n        tag_23:\n            /* \"#utility.yul\":503:510   */\n          0x00\n            /* \"#utility.yul\":532:556   */\n          tag_43\n            /* \"#utility.yul\":550:555   */\n          dup3\n            /* \"#utility.yul\":532:556   */\n          tag_22\n          jump\t// in\n        tag_43:\n            /* \"#utility.yul\":521:556   */\n          swap1\n          pop\n            /* \"#utility.yul\":466:562   */\n          swap2\n          swap1\n          pop\n          jump\t// out\n            /* \"#utility.yul\":568:690   */\n        tag_24:\n            /* \"#utility.yul\":641:665   */\n          tag_45\n            /* \"#utility.yul\":659:664   */\n          dup2\n            /* \"#utility.yul\":641:665   */\n          tag_23\n          jump\t// in\n        tag_45:\n            /* \"#utility.yul\":634:639   */\n          dup2\n            /* \"#utility.yul\":631:666   */\n          eq\n            /* \"#utility.yul\":621:684   */\n          tag_46\n          jumpi\n            /* \"#utility.yul\":680:681   */\n          0x00\n            /* \"#utility.yul\":677:678   */\n          dup1\n            /* \"#utility.yul\":670:682   */\n          revert\n            /* \"#utility.yul\":621:684   */\n        tag_46:\n            /* \"#utility.yul\":568:690   */\n          pop\n          jump\t// out\n            /* \"#utility.yul\":696:839   */\n        tag_25:\n            /* \"#utility.yul\":753:758   */\n          0x00\n            /* \"#utility.yul\":784:790   */\n          dup2\n            /* \"#utility.yul\":778:791   */\n          mload\n            /* \"#utility.yul\":769:791   */\n          swap1\n          pop\n            /* \"#utility.yul\":800:833   */\n          tag_48\n            /* \"#utility.yul\":827:832   */\n          dup2\n            /* \"#utility.yul\":800:833   */\n          tag_24\n          jump\t// in\n        tag_48:\n            /* \"#utility.yul\":696:839   */\n          swap3\n          swap2\n          pop\n          pop\n          jump\t// out\n            /* \"#utility.yul\":845:962   */\n        tag_26:\n            /* \"#utility.yul\":954:955   */\n          0x00\n            /* \"#utility.yul\":951:952   */\n          dup1\n            /* \"#utility.yul\":944:956   */\n          revert\n            /* \"#utility.yul\":968:1085   */\n        tag_27:\n            /* \"#utility.yul\":1077:1078   */\n          0x00\n            /* \"#utility.yul\":1074:1075   */\n          dup1\n            /* \"#utility.yul\":1067:1079   */\n          revert\n            /* \"#utility.yul\":1091:1193   */\n        tag_28:\n            /* \"#utility.yul\":1132:1138   */\n          0x00\n            /* \"#utility.yul\":1183:1185   */\n          0x1f\n            /* \"#utility.yul\":1179:1186   */\n          not\n            /* \"#utility.yul\":1174:1176   */\n          0x1f\n            /* \"#utility.yul\":1167:1172   */\n          dup4\n            /* \"#utility.yul\":1163:1177   */\n          add\n            /* \"#utility.yul\":1159:1187   */\n          and\n            /* \"#utility.yul\":1149:1187   */\n          swap1\n          pop\n            /* \"#utility.yul\":1091:1193   */\n          swap2\n          swap1\n          pop\n          jump\t// out\n            /* \"#utility.yul\":1199:1379   */\n        tag_29:\n            /* \"#utility.yul\":1247:1324   */\n          0x4e487b7100000000000000000000000000000000000000000000000000000000\n            /* \"#utility.yul\":1244:1245   */\n          0x00\n            /* \"#utility.yul\":1237:1325   */\n          mstore\n            /* \"#utility.yul\":1344:1348   */\n          0x41\n            /* \"#utility.yul\":1341:1342   */\n          0x04\n            /* \"#utility.yul\":1334:1349   */\n          mstore\n            /* \"#utility.yul\":1368:1372   */\n          0x24\n            /* \"#utility.yul\":1365:1366   */\n          0x00\n            /* \"#utility.yul\":1358:1373   */\n          revert\n            /* \"#utility.yul\":1385:1666   */\n        tag_30:\n            /* \"#utility.yul\":1468:1495   */\n          tag_54\n            /* \"#utility.yul\":1490:1494   */\n          dup3\n            /* \"#utility.yul\":1468:1495   */\n          tag_28\n          jump\t// in\n        tag_54:\n            /* \"#utility.yul\":1460:1466   */\n          dup2\n            /* \"#utility.yul\":1456:1496   */\n          add\n            /* \"#utility.yul\":1598:1604   */\n          dup2\n            /* \"#utility.yul\":1586:1596   */\n          dup2\n            /* \"#utility.yul\":1583:1605   */\n          lt\n            /* \"#utility.yul\":1562:1580   */\n          0xffffffffffffffff\n            /* \"#utility.yul\":1550:1560   */\n          dup3\n            /* \"#utility.yul\":1547:1581   */\n          gt\n            /* \"#utility.yul\":1544:1606   */\n          or\n            /* \"#utility.yul\":1541:1629   */\n          iszero\n          tag_55\n          jumpi\n            /* \"#utility.yul\":1609:1627   */\n          tag_56\n          tag_29\n          jump\t// in\n        tag_56:\n            /* \"#utility.yul\":1541:1629   */\n        tag_55:\n            /* \"#utility.yul\":1649:1659   */\n          dup1\n            /* \"#utility.yul\":1645:1647   */\n          0x40\n            /* \"#utility.yul\":1638:1660   */\n          mstore\n            /* \"#utility.yul\":1428:1666   */\n          pop\n            /* \"#utility.yul\":1385:1666   */\n          pop\n          pop\n          jump\t// out\n            /* \"#utility.yul\":1672:1801   */\n        tag_31:\n            /* \"#utility.yul\":1706:1712   */\n          0x00\n            /* \"#utility.yul\":1733:1753   */\n          tag_58\n          tag_19\n          jump\t// in\n        tag_58:\n            /* \"#utility.yul\":1723:1753   */\n          swap1\n          pop\n            /* \"#utility.yul\":1762:1795   */\n          tag_59\n            /* \"#utility.yul\":1790:1794   */\n          dup3\n            /* \"#utility.yul\":1782:1788   */\n          dup3\n            /* \"#utility.yul\":1762:1795   */\n          tag_30\n          jump\t// in\n        tag_59:\n            /* \"#utility.yul\":1672:1801   */\n          swap2\n          swap1\n          pop\n          jump\t// out\n            /* \"#utility.yul\":1807:2115   */\n        tag_32:\n            /* \"#utility.yul\":1869:1873   */\n          0x00\n            /* \"#utility.yul\":1959:1977   */\n          0xffffffffffffffff\n            /* \"#utility.yul\":1951:1957   */\n          dup3\n            /* \"#utility.yul\":1948:1978   */\n          gt\n            /* \"#utility.yul\":1945:2001   */\n          iszero\n          tag_61\n          jumpi\n            /* \"#utility.yul\":1981:1999   */\n          tag_62\n          tag_29\n          jump\t// in\n        tag_62:\n            /* \"#utility.yul\":1945:2001   */\n        tag_61:\n            /* \"#utility.yul\":2019:2048   */\n          tag_63\n            /* \"#utility.yul\":2041:2047   */\n          dup3\n            /* \"#utility.yul\":2019:2048   */\n          tag_28\n          jump\t// in\n        tag_63:\n            /* \"#utility.yul\":2011:2048   */\n          swap1\n          pop\n            /* \"#utility.yul\":2103:2107   */\n          0x20\n            /* \"#utility.yul\":2097:2101   */\n          dup2\n            /* \"#utility.yul\":2093:2108   */\n          add\n            /* \"#utility.yul\":2085:2108   */\n          swap1\n          pop\n            /* \"#utility.yul\":1807:2115   */\n          swap2\n          swap1\n          pop\n          jump\t// out\n            /* \"#utility.yul\":2121:2428   */\n        tag_33:\n            /* \"#utility.yul\":2189:2190   */\n          0x00\n            /* \"#utility.yul\":2199:2312   */\n        tag_65:\n            /* \"#utility.yul\":2213:2219   */\n          dup4\n            /* \"#utility.yul\":2210:2211   */\n          dup2\n            /* \"#utility.yul\":2207:2220   */\n          lt\n            /* \"#utility.yul\":2199:2312   */\n          iszero\n          tag_67\n          jumpi\n            /* \"#utility.yul\":2298:2299   */\n          dup1\n            /* \"#utility.yul\":2293:2296   */\n          dup3\n            /* \"#utility.yul\":2289:2300   */\n          add\n            /* \"#utility.yul\":2283:2301   */\n          mload\n            /* \"#utility.yul\":2279:2280   */\n          dup2\n            /* \"#utility.yul\":2274:2277   */\n          dup5\n            /* \"#utility.yul\":2270:2281   */\n          add\n            /* \"#utility.yul\":2263:2302   */\n          mstore\n            /* \"#utility.yul\":2235:2237   */\n          0x20\n            /* \"#utility.yul\":2232:2233   */\n          dup2\n            /* \"#utility.yul\":2228:2238   */\n          add\n            /* \"#utility.yul\":2223:2238   */\n          swap1\n          pop\n            /* \"#utility.yul\":2199:2312   */\n          jump(tag_65)\n        tag_67:\n            /* \"#utility.yul\":2330:2336   */\n          dup4\n            /* \"#utility.yul\":2327:2328   */\n          dup2\n            /* \"#utility.yul\":2324:2337   */\n          gt\n            /* \"#utility.yul\":2321:2422   */\n          iszero\n          tag_68\n          jumpi\n            /* \"#utility.yul\":2410:2411   */\n          0x00\n            /* \"#utility.yul\":2401:2407   */\n          dup5\n            /* \"#utility.yul\":2396:2399   */\n          dup5\n            /* \"#utility.yul\":2392:2408   */\n          add\n            /* \"#utility.yul\":2385:2412   */\n          mstore\n            /* \"#utility.yul\":2321:2422   */\n        tag_68:\n            /* \"#utility.yul\":2170:2428   */\n          pop\n            /* \"#utility.yul\":2121:2428   */\n          pop\n          pop\n          pop\n          jump\t// out\n            /* \"#utility.yul\":2434:2855   */\n        tag_34:\n            /* \"#utility.yul\":2523:2528   */\n          0x00\n            /* \"#utility.yul\":2548:2614   */\n          tag_70\n            /* \"#utility.yul\":2564:2613   */\n          tag_71\n            /* \"#utility.yul\":2606:2612   */\n          dup5\n            /* \"#utility.yul\":2564:2613   */\n          tag_32\n          jump\t// in\n        tag_71:\n            /* \"#utility.yul\":2548:2614   */\n          tag_31\n          jump\t// in\n        tag_70:\n            /* \"#utility.yul\":2539:2614   */\n          swap1\n          pop\n            /* \"#utility.yul\":2637:2643   */\n          dup3\n            /* \"#utility.yul\":2630:2635   */\n          dup2\n            /* \"#utility.yul\":2623:2644   */\n          mstore\n            /* \"#utility.yul\":2675:2679   */\n          0x20\n            /* \"#utility.yul\":2668:2673   */\n          dup2\n            /* \"#utility.yul\":2664:2680   */\n          add\n            /* \"#utility.yul\":2713:2716   */\n          dup5\n            /* \"#utility.yul\":2704:2710   */\n          dup5\n            /* \"#utility.yul\":2699:2702   */\n          dup5\n            /* \"#utility.yul\":2695:2711   */\n          add\n            /* \"#utility.yul\":2692:2717   */\n          gt\n            /* \"#utility.yul\":2689:2801   */\n          iszero\n          tag_72\n          jumpi\n            /* \"#utility.yul\":2720:2799   */\n          tag_73\n          tag_27\n          jump\t// in\n        tag_73:\n            /* \"#utility.yul\":2689:2801   */\n        tag_72:\n            /* \"#utility.yul\":2810:2849   */\n          tag_74\n            /* \"#utility.yul\":2842:2848   */\n          dup5\n            /* \"#utility.yul\":2837:2840   */\n          dup3\n            /* \"#utility.yul\":2832:2835   */\n          dup6\n            /* \"#utility.yul\":2810:2849   */\n          tag_33\n          jump\t// in\n        tag_74:\n            /* \"#utility.yul\":2529:2855   */\n          pop\n            /* \"#utility.yul\":2434:2855   */\n          swap4\n          swap3\n          pop\n          pop\n          pop\n          jump\t// out\n            /* \"#utility.yul\":2875:3230   */\n        tag_35:\n            /* \"#utility.yul\":2942:2947   */\n          0x00\n            /* \"#utility.yul\":2991:2994   */\n          dup3\n            /* \"#utility.yul\":2984:2988   */\n          0x1f\n            /* \"#utility.yul\":2976:2982   */\n          dup4\n            /* \"#utility.yul\":2972:2989   */\n          add\n            /* \"#utility.yul\":2968:2995   */\n          slt\n            /* \"#utility.yul\":2958:3080   */\n          tag_76\n          jumpi\n            /* \"#utility.yul\":2999:3078   */\n          tag_77\n          tag_26\n          jump\t// in\n        tag_77:\n            /* \"#utility.yul\":2958:3080   */\n        tag_76:\n            /* \"#utility.yul\":3109:3115   */\n          dup2\n            /* \"#utility.yul\":3103:3116   */\n          mload\n            /* \"#utility.yul\":3134:3224   */\n          tag_78\n            /* \"#utility.yul\":3220:3223   */\n          dup5\n            /* \"#utility.yul\":3212:3218   */\n          dup3\n            /* \"#utility.yul\":3205:3209   */\n          0x20\n            /* \"#utility.yul\":3197:3203   */\n          dup7\n            /* \"#utility.yul\":3193:3210   */\n          add\n            /* \"#utility.yul\":3134:3224   */\n          tag_34\n          jump\t// in\n        tag_78:\n            /* \"#utility.yul\":3125:3224   */\n          swap2\n          pop\n            /* \"#utility.yul\":2948:3230   */\n          pop\n            /* \"#utility.yul\":2875:3230   */\n          swap3\n          swap2\n          pop\n          pop\n          jump\t// out\n            /* \"#utility.yul\":3236:3916   */\n        tag_2:\n            /* \"#utility.yul\":3325:3331   */\n          0x00\n            /* \"#utility.yul\":3333:3339   */\n          dup1\n            /* \"#utility.yul\":3382:3384   */\n          0x40\n            /* \"#utility.yul\":3370:3379   */\n          dup4\n            /* \"#utility.yul\":3361:3368   */\n          dup6\n            /* \"#utility.yul\":3357:3380   */\n          sub\n            /* \"#utility.yul\":3353:3385   */\n          slt\n            /* \"#utility.yul\":3350:3469   */\n          iszero\n          tag_80\n          jumpi\n            /* \"#utility.yul\":3388:3467   */\n          tag_81\n          tag_20\n          jump\t// in\n        tag_81:\n            /* \"#utility.yul\":3350:3469   */\n        tag_80:\n            /* \"#utility.yul\":3508:3509   */\n          0x00\n            /* \"#utility.yul\":3533:3597   */\n          tag_82\n            /* \"#utility.yul\":3589:3596   */\n          dup6\n            /* \"#utility.yul\":3580:3586   */\n          dup3\n            /* \"#utility.yul\":3569:3578   */\n          dup7\n            /* \"#utility.yul\":3565:3587   */\n          add\n            /* \"#utility.yul\":3533:3597   */\n          tag_25\n          jump\t// in\n        tag_82:\n            /* \"#utility.yul\":3523:3597   */\n          swap3\n          pop\n            /* \"#utility.yul\":3479:3607   */\n          pop\n            /* \"#utility.yul\":3667:3669   */\n          0x20\n            /* \"#utility.yul\":3656:3665   */\n          dup4\n            /* \"#utility.yul\":3652:3670   */\n          add\n            /* \"#utility.yul\":3646:3671   */\n          mload\n            /* \"#utility.yul\":3698:3716   */\n          0xffffffffffffffff\n            /* \"#utility.yul\":3690:3696   */\n          dup2\n            /* \"#utility.yul\":3687:3717   */\n          gt\n            /* \"#utility.yul\":3684:3801   */\n          iszero\n          tag_83\n          jumpi\n            /* \"#utility.yul\":3720:3799   */\n          tag_84\n          tag_21\n          jump\t// in\n        tag_84:\n            /* \"#utility.yul\":3684:3801   */\n        tag_83:\n            /* \"#utility.yul\":3825:3899   */\n          tag_85\n            /* \"#utility.yul\":3891:3898   */\n          dup6\n            /* \"#utility.yul\":3882:3888   */\n          dup3\n            /* \"#utility.yul\":3871:3880   */\n          dup7\n            /* \"#utility.yul\":3867:3889   */\n          add\n            /* \"#utility.yul\":3825:3899   */\n          tag_35\n          jump\t// in\n        tag_85:\n            /* \"#utility.yul\":3815:3899   */\n          swap2\n          pop\n            /* \"#utility.yul\":3617:3909   */\n          pop\n            /* \"#utility.yul\":3236:3916   */\n          swap3\n          pop\n          swap3\n          swap1\n          pop\n          jump\t// out\n            /* \"#utility.yul\":3922:4102   */\n        tag_36:\n            /* \"#utility.yul\":3970:4047   */\n          0x4e487b7100000000000000000000000000000000000000000000000000000000\n            /* \"#utility.yul\":3967:3968   */\n          0x00\n            /* \"#utility.yul\":3960:4048   */\n          mstore\n            /* \"#utility.yul\":4067:4071   */\n          0x22\n            /* \"#utility.yul\":4064:4065   */\n          0x04\n            /* \"#utility.yul\":4057:4072   */\n          mstore\n            /* \"#utility.yul\":4091:4095   */\n          0x24\n            /* \"#utility.yul\":4088:4089   */\n          0x00\n            /* \"#utility.yul\":4081:4096   */\n          revert\n            /* \"#utility.yul\":4108:4428   */\n        tag_9:\n            /* \"#utility.yul\":4152:4158   */\n          0x00\n            /* \"#utility.yul\":4189:4190   */\n          0x02\n            /* \"#utility.yul\":4183:4187   */\n          dup3\n            /* \"#utility.yul\":4179:4191   */\n          div\n            /* \"#utility.yul\":4169:4191   */\n          swap1\n          pop\n            /* \"#utility.yul\":4236:4237   */\n          0x01\n            /* \"#utility.yul\":4230:4234   */\n          dup3\n            /* \"#utility.yul\":4226:4238   */\n          and\n            /* \"#utility.yul\":4257:4275   */\n          dup1\n            /* \"#utility.yul\":4247:4328   */\n          tag_88\n          jumpi\n            /* \"#utility.yul\":4313:4317   */\n          0x7f\n            /* \"#utility.yul\":4305:4311   */\n          dup3\n            /* \"#utility.yul\":4301:4318   */\n          and\n            /* \"#utility.yul\":4291:4318   */\n          swap2\n          pop\n            /* \"#utility.yul\":4247:4328   */\n        tag_88:\n            /* \"#utility.yul\":4375:4377   */\n          0x20\n            /* \"#utility.yul\":4367:4373   */\n          dup3\n            /* \"#utility.yul\":4364:4378   */\n          lt\n            /* \"#utility.yul\":4344:4362   */\n          dup2\n            /* \"#utility.yul\":4341:4379   */\n          sub\n            /* \"#utility.yul\":4338:4422   */\n          tag_89\n          jumpi\n            /* \"#utility.yul\":4394:4412   */\n          tag_90\n          tag_36\n          jump\t// in\n        tag_90:\n            /* \"#utility.yul\":4338:4422   */\n        tag_89:\n            /* \"#utility.yul\":4159:4428   */\n          pop\n            /* \"#utility.yul\":4108:4428   */\n          swap2\n          swap1\n          pop\n          jump\t// out\n            /* \"CreateConOtherConExam.sol\":62:350  contract Car {... */\n        tag_7:\n          dataSize(sub_0)\n          dup1\n          dataOffset(sub_0)\n          0x00\n          codecopy\n          0x00\n          return\n        stop\n\n        sub_0: assembly {\n                /* \"CreateConOtherConExam.sol\":62:350  contract Car {... */\n              mstore(0x40, 0x80)\n              callvalue\n              dup1\n              iszero\n              tag_1\n              jumpi\n              0x00\n              dup1\n              revert\n            tag_1:\n              pop\n              jumpi(tag_2, lt(calldatasize, 0x04))\n              shr(0xe0, calldataload(0x00))\n              dup1\n              0x0ad9d052\n              eq\n              tag_3\n              jumpi\n              dup1\n              0x514fa676\n              eq\n              tag_4\n              jumpi\n              dup1\n              0x8da5cb5b\n              eq\n              tag_5\n              jumpi\n            tag_2:\n              0x00\n              dup1\n              revert\n                /* \"CreateConOtherConExam.sol\":109:128  string public model */\n            tag_3:\n              tag_6\n              tag_7\n              jump\t// in\n            tag_6:\n              mload(0x40)\n              tag_8\n              swap2\n              swap1\n              tag_9\n              jump\t// in\n            tag_8:\n              mload(0x40)\n              dup1\n              swap2\n              sub\n              swap1\n              return\n                /* \"CreateConOtherConExam.sol\":135:157  address public carAddr */\n            tag_4:\n              tag_10\n              tag_11\n              jump\t// in\n            tag_10:\n              mload(0x40)\n              tag_12\n              swap2\n              swap1\n              tag_13\n              jump\t// in\n            tag_12:\n              mload(0x40)\n              dup1\n              swap2\n              sub\n              swap1\n              return\n                /* \"CreateConOtherConExam.sol\":82:102  address public owner */\n            tag_5:\n              tag_14\n              tag_15\n              jump\t// in\n            tag_14:\n              mload(0x40)\n              tag_16\n              swap2\n              swap1\n              tag_13\n              jump\t// in\n            tag_16:\n              mload(0x40)\n              dup1\n              swap2\n              sub\n              swap1\n              return\n                /* \"CreateConOtherConExam.sol\":109:128  string public model */\n            tag_7:\n              0x01\n              dup1\n              sload\n              tag_17\n              swap1\n              tag_18\n              jump\t// in\n            tag_17:\n              dup1\n              0x1f\n              add\n              0x20\n              dup1\n              swap2\n              div\n              mul\n              0x20\n              add\n              mload(0x40)\n              swap1\n              dup2\n              add\n              0x40\n              mstore\n              dup1\n              swap3\n              swap2\n              swap1\n              dup2\n              dup2\n              mstore\n              0x20\n              add\n              dup3\n              dup1\n              sload\n              tag_19\n              swap1\n              tag_18\n              jump\t// in\n            tag_19:\n              dup1\n              iszero\n              tag_20\n              jumpi\n              dup1\n              0x1f\n              lt\n              tag_21\n              jumpi\n              0x0100\n              dup1\n              dup4\n              sload\n              div\n              mul\n              dup4\n              mstore\n              swap2\n              0x20\n              add\n              swap2\n              jump(tag_20)\n            tag_21:\n              dup3\n              add\n              swap2\n              swap1\n              0x00\n              mstore\n              keccak256(0x00, 0x20)\n              swap1\n            tag_22:\n              dup2\n              sload\n              dup2\n              mstore\n              swap1\n              0x01\n              add\n              swap1\n              0x20\n              add\n              dup1\n              dup4\n              gt\n              tag_22\n              jumpi\n              dup3\n              swap1\n              sub\n              0x1f\n              and\n              dup3\n              add\n              swap2\n            tag_20:\n              pop\n              pop\n              pop\n              pop\n              pop\n              dup2\n              jump\t// out\n                /* \"CreateConOtherConExam.sol\":135:157  address public carAddr */\n            tag_11:\n              0x02\n              0x00\n              swap1\n              sload\n              swap1\n              0x0100\n              exp\n              swap1\n              div\n              0xffffffffffffffffffffffffffffffffffffffff\n              and\n              dup2\n              jump\t// out\n                /* \"CreateConOtherConExam.sol\":82:102  address public owner */\n            tag_15:\n              0x00\n              dup1\n              sload\n              swap1\n              0x0100\n              exp\n              swap1\n              div\n              0xffffffffffffffffffffffffffffffffffffffff\n              and\n              dup2\n              jump\t// out\n                /* \"#utility.yul\":7:106   */\n            tag_23:\n                /* \"#utility.yul\":59:65   */\n              0x00\n                /* \"#utility.yul\":93:98   */\n              dup2\n                /* \"#utility.yul\":87:99   */\n              mload\n                /* \"#utility.yul\":77:99   */\n              swap1\n              pop\n                /* \"#utility.yul\":7:106   */\n              swap2\n              swap1\n              pop\n              jump\t// out\n                /* \"#utility.yul\":112:281   */\n            tag_24:\n                /* \"#utility.yul\":196:207   */\n              0x00\n                /* \"#utility.yul\":230:236   */\n              dup3\n                /* \"#utility.yul\":225:228   */\n              dup3\n                /* \"#utility.yul\":218:237   */\n              mstore\n                /* \"#utility.yul\":270:274   */\n              0x20\n                /* \"#utility.yul\":265:268   */\n              dup3\n                /* \"#utility.yul\":261:275   */\n              add\n                /* \"#utility.yul\":246:275   */\n              swap1\n              pop\n                /* \"#utility.yul\":112:281   */\n              swap3\n              swap2\n              pop\n              pop\n              jump\t// out\n                /* \"#utility.yul\":287:594   */\n            tag_25:\n                /* \"#utility.yul\":355:356   */\n              0x00\n                /* \"#utility.yul\":365:478   */\n            tag_36:\n                /* \"#utility.yul\":379:385   */\n              dup4\n                /* \"#utility.yul\":376:377   */\n              dup2\n                /* \"#utility.yul\":373:386   */\n              lt\n                /* \"#utility.yul\":365:478   */\n              iszero\n              tag_38\n              jumpi\n                /* \"#utility.yul\":464:465   */\n              dup1\n                /* \"#utility.yul\":459:462   */\n              dup3\n                /* \"#utility.yul\":455:466   */\n              add\n                /* \"#utility.yul\":449:467   */\n              mload\n                /* \"#utility.yul\":445:446   */\n              dup2\n                /* \"#utility.yul\":440:443   */\n              dup5\n                /* \"#utility.yul\":436:447   */\n              add\n                /* \"#utility.yul\":429:468   */\n              mstore\n                /* \"#utility.yul\":401:403   */\n              0x20\n                /* \"#utility.yul\":398:399   */\n              dup2\n                /* \"#utility.yul\":394:404   */\n              add\n                /* \"#utility.yul\":389:404   */\n              swap1\n              pop\n                /* \"#utility.yul\":365:478   */\n              jump(tag_36)\n            tag_38:\n                /* \"#utility.yul\":496:502   */\n              dup4\n                /* \"#utility.yul\":493:494   */\n              dup2\n                /* \"#utility.yul\":490:503   */\n              gt\n                /* \"#utility.yul\":487:588   */\n              iszero\n              tag_39\n              jumpi\n                /* \"#utility.yul\":576:577   */\n              0x00\n                /* \"#utility.yul\":567:573   */\n              dup5\n                /* \"#utility.yul\":562:565   */\n              dup5\n                /* \"#utility.yul\":558:574   */\n              add\n                /* \"#utility.yul\":551:578   */\n              mstore\n                /* \"#utility.yul\":487:588   */\n            tag_39:\n                /* \"#utility.yul\":336:594   */\n              pop\n                /* \"#utility.yul\":287:594   */\n              pop\n              pop\n              pop\n              jump\t// out\n                /* \"#utility.yul\":600:702   */\n            tag_26:\n                /* \"#utility.yul\":641:647   */\n              0x00\n                /* \"#utility.yul\":692:694   */\n              0x1f\n                /* \"#utility.yul\":688:695   */\n              not\n                /* \"#utility.yul\":683:685   */\n              0x1f\n                /* \"#utility.yul\":676:681   */\n              dup4\n                /* \"#utility.yul\":672:686   */\n              add\n                /* \"#utility.yul\":668:696   */\n              and\n                /* \"#utility.yul\":658:696   */\n              swap1\n              pop\n                /* \"#utility.yul\":600:702   */\n              swap2\n              swap1\n              pop\n              jump\t// out\n                /* \"#utility.yul\":708:1072   */\n            tag_27:\n                /* \"#utility.yul\":796:799   */\n              0x00\n                /* \"#utility.yul\":824:863   */\n              tag_42\n                /* \"#utility.yul\":857:862   */\n              dup3\n                /* \"#utility.yul\":824:863   */\n              tag_23\n              jump\t// in\n            tag_42:\n                /* \"#utility.yul\":879:950   */\n              tag_43\n                /* \"#utility.yul\":943:949   */\n              dup2\n                /* \"#utility.yul\":938:941   */\n              dup6\n                /* \"#utility.yul\":879:950   */\n              tag_24\n              jump\t// in\n            tag_43:\n                /* \"#utility.yul\":872:950   */\n              swap4\n              pop\n                /* \"#utility.yul\":959:1011   */\n              tag_44\n                /* \"#utility.yul\":1004:1010   */\n              dup2\n                /* \"#utility.yul\":999:1002   */\n              dup6\n                /* \"#utility.yul\":992:996   */\n              0x20\n                /* \"#utility.yul\":985:990   */\n              dup7\n                /* \"#utility.yul\":981:997   */\n              add\n                /* \"#utility.yul\":959:1011   */\n              tag_25\n              jump\t// in\n            tag_44:\n                /* \"#utility.yul\":1036:1065   */\n              tag_45\n                /* \"#utility.yul\":1058:1064   */\n              dup2\n                /* \"#utility.yul\":1036:1065   */\n              tag_26\n              jump\t// in\n            tag_45:\n                /* \"#utility.yul\":1031:1034   */\n              dup5\n                /* \"#utility.yul\":1027:1066   */\n              add\n                /* \"#utility.yul\":1020:1066   */\n              swap2\n              pop\n                /* \"#utility.yul\":800:1072   */\n              pop\n                /* \"#utility.yul\":708:1072   */\n              swap3\n              swap2\n              pop\n              pop\n              jump\t// out\n                /* \"#utility.yul\":1078:1391   */\n            tag_9:\n                /* \"#utility.yul\":1191:1195   */\n              0x00\n                /* \"#utility.yul\":1229:1231   */\n              0x20\n                /* \"#utility.yul\":1218:1227   */\n              dup3\n                /* \"#utility.yul\":1214:1232   */\n              add\n                /* \"#utility.yul\":1206:1232   */\n              swap1\n              pop\n                /* \"#utility.yul\":1278:1287   */\n              dup2\n                /* \"#utility.yul\":1272:1276   */\n              dup2\n                /* \"#utility.yul\":1268:1288   */\n              sub\n                /* \"#utility.yul\":1264:1265   */\n              0x00\n                /* \"#utility.yul\":1253:1262   */\n              dup4\n                /* \"#utility.yul\":1249:1266   */\n              add\n                /* \"#utility.yul\":1242:1289   */\n              mstore\n                /* \"#utility.yul\":1306:1384   */\n              tag_47\n                /* \"#utility.yul\":1379:1383   */\n              dup2\n                /* \"#utility.yul\":1370:1376   */\n              dup5\n                /* \"#utility.yul\":1306:1384   */\n              tag_27\n              jump\t// in\n            tag_47:\n                /* \"#utility.yul\":1298:1384   */\n              swap1\n              pop\n                /* \"#utility.yul\":1078:1391   */\n              swap3\n              swap2\n              pop\n              pop\n              jump\t// out\n                /* \"#utility.yul\":1397:1523   */\n            tag_28:\n                /* \"#utility.yul\":1434:1441   */\n              0x00\n                /* \"#utility.yul\":1474:1516   */\n              0xffffffffffffffffffffffffffffffffffffffff\n                /* \"#utility.yul\":1467:1472   */\n              dup3\n                /* \"#utility.yul\":1463:1517   */\n              and\n                /* \"#utility.yul\":1452:1517   */\n              swap1\n              pop\n                /* \"#utility.yul\":1397:1523   */\n              swap2\n              swap1\n              pop\n              jump\t// out\n                /* \"#utility.yul\":1529:1625   */\n            tag_29:\n                /* \"#utility.yul\":1566:1573   */\n              0x00\n                /* \"#utility.yul\":1595:1619   */\n              tag_50\n                /* \"#utility.yul\":1613:1618   */\n              dup3\n                /* \"#utility.yul\":1595:1619   */\n              tag_28\n              jump\t// in\n            tag_50:\n                /* \"#utility.yul\":1584:1619   */\n              swap1\n              pop\n                /* \"#utility.yul\":1529:1625   */\n              swap2\n              swap1\n              pop\n              jump\t// out\n                /* \"#utility.yul\":1631:1749   */\n            tag_30:\n                /* \"#utility.yul\":1718:1742   */\n              tag_52\n                /* \"#utility.yul\":1736:1741   */\n              dup2\n                /* \"#utility.yul\":1718:1742   */\n              tag_29\n              jump\t// in\n            tag_52:\n                /* \"#utility.yul\":1713:1716   */\n              dup3\n                /* \"#utility.yul\":1706:1743   */\n              mstore\n                /* \"#utility.yul\":1631:1749   */\n              pop\n              pop\n              jump\t// out\n                /* \"#utility.yul\":1755:1977   */\n            tag_13:\n                /* \"#utility.yul\":1848:1852   */\n              0x00\n                /* \"#utility.yul\":1886:1888   */\n              0x20\n                /* \"#utility.yul\":1875:1884   */\n              dup3\n                /* \"#utility.yul\":1871:1889   */\n              add\n                /* \"#utility.yul\":1863:1889   */\n              swap1\n              pop\n                /* \"#utility.yul\":1899:1970   */\n              tag_54\n                /* \"#utility.yul\":1967:1968   */\n              0x00\n                /* \"#utility.yul\":1956:1965   */\n              dup4\n                /* \"#utility.yul\":1952:1969   */\n              add\n                /* \"#utility.yul\":1943:1949   */\n              dup5\n                /* \"#utility.yul\":1899:1970   */\n              tag_30\n              jump\t// in\n            tag_54:\n                /* \"#utility.yul\":1755:1977   */\n              swap3\n              swap2\n              pop\n              pop\n              jump\t// out\n                /* \"#utility.yul\":1983:2163   */\n            tag_31:\n                /* \"#utility.yul\":2031:2108   */\n              0x4e487b7100000000000000000000000000000000000000000000000000000000\n                /* \"#utility.yul\":2028:2029   */\n              0x00\n                /* \"#utility.yul\":2021:2109   */\n              mstore\n                /* \"#utility.yul\":2128:2132   */\n              0x22\n                /* \"#utility.yul\":2125:2126   */\n              0x04\n                /* \"#utility.yul\":2118:2133   */\n              mstore\n                /* \"#utility.yul\":2152:2156   */\n              0x24\n                /* \"#utility.yul\":2149:2150   */\n              0x00\n                /* \"#utility.yul\":2142:2157   */\n              revert\n                /* \"#utility.yul\":2169:2489   */\n            tag_18:\n                /* \"#utility.yul\":2213:2219   */\n              0x00\n                /* \"#utility.yul\":2250:2251   */\n              0x02\n                /* \"#utility.yul\":2244:2248   */\n              dup3\n                /* \"#utility.yul\":2240:2252   */\n              div\n                /* \"#utility.yul\":2230:2252   */\n              swap1\n              pop\n                /* \"#utility.yul\":2297:2298   */\n              0x01\n                /* \"#utility.yul\":2291:2295   */\n              dup3\n                /* \"#utility.yul\":2287:2299   */\n              and\n                /* \"#utility.yul\":2318:2336   */\n              dup1\n                /* \"#utility.yul\":2308:2389   */\n              tag_57\n              jumpi\n                /* \"#utility.yul\":2374:2378   */\n              0x7f\n                /* \"#utility.yul\":2366:2372   */\n              dup3\n                /* \"#utility.yul\":2362:2379   */\n              and\n                /* \"#utility.yul\":2352:2379   */\n              swap2\n              pop\n                /* \"#utility.yul\":2308:2389   */\n            tag_57:\n                /* \"#utility.yul\":2436:2438   */\n              0x20\n                /* \"#utility.yul\":2428:2434   */\n              dup3\n                /* \"#utility.yul\":2425:2439   */\n              lt\n                /* \"#utility.yul\":2405:2423   */\n              dup2\n                /* \"#utility.yul\":2402:2440   */\n              sub\n                /* \"#utility.yul\":2399:2483   */\n              tag_58\n              jumpi\n                /* \"#utility.yul\":2455:2473   */\n              tag_59\n              tag_31\n              jump\t// in\n            tag_59:\n                /* \"#utility.yul\":2399:2483   */\n            tag_58:\n                /* \"#utility.yul\":2220:2489   */\n              pop\n                /* \"#utility.yul\":2169:2489   */\n              swap2\n              swap1\n              pop\n              jump\t// out\n\n            auxdata: 0xa264697066735822122036d8ec5f6e8d0f1eb690256b5da082f8af9a60013d107e1248f7406a00d591ed64736f6c634300080d0033\n        }\n    }\n\n    auxdata: 0xa264697066735822122034a776b4cccac3b4bc27e38713f8b534b5732583f78190eb96ca649bc3e3dd0964736f6c634300080d0033\n}\n",
				"bytecode": {
					"linkReferences": {},
					"object": "608060405234801561001057600080fd5b506113c8806100206000396000f3fe6080604052600436106200005c5760003560e01c80633d4b301514620000615780635e8be1901462000081578063a429f47d14620000c8578063a5e57b4714620000f6578063c33cd6151462000124578063f7746e361462000144575b600080fd5b6200007f600480360381019062000079919062000805565b62000188565b005b3480156200008e57600080fd5b50620000ad6004803603810190620000a79190620008bb565b62000238565b604051620000bf9493929190620009a2565b60405180910390f35b348015620000d557600080fd5b50620000f46004803603810190620000ee919062000805565b62000407565b005b3480156200010357600080fd5b506200012260048036038101906200011c9190620009f6565b620004b4565b005b6200014260048036038101906200013c9190620009f6565b6200055b565b005b3480156200015157600080fd5b506200017060048036038101906200016a9190620008bb565b620005a1565b6040516200017f919062000ac7565b60405180910390f35b600034829085856040516200019d90620005e1565b620001aa92919062000ae4565b82906040518091039083f59050905080158015620001cc573d6000803e3d6000fd5b5090506000819080600181540180825580915050600190039060005260206000200160009091909190916101000a81548173ffffffffffffffffffffffffffffffffffffffff021916908373ffffffffffffffffffffffffffffffffffffffff16021790555050505050565b60006060600080600080868154811062000257576200025662000b18565b5b9060005260206000200160009054906101000a900473ffffffffffffffffffffffffffffffffffffffff1690508073ffffffffffffffffffffffffffffffffffffffff16638da5cb5b6040518163ffffffff1660e01b8152600401602060405180830381865afa158015620002d0573d6000803e3d6000fd5b505050506040513d601f19601f82011682018060405250810190620002f6919062000b5e565b8173ffffffffffffffffffffffffffffffffffffffff16630ad9d0526040518163ffffffff1660e01b8152600401600060405180830381865afa15801562000342573d6000803e3d6000fd5b505050506040513d6000823e3d601f19601f820116820180604052508101906200036d919062000c0e565b8273ffffffffffffffffffffffffffffffffffffffff1663514fa6766040518163ffffffff1660e01b8152600401602060405180830381865afa158015620003b9573d6000803e3d6000fd5b505050506040513d601f19601f82011682018060405250810190620003df919062000b5e565b8373ffffffffffffffffffffffffffffffffffffffff16319450945094509450509193509193565b60008184846040516200041a90620005e1565b6200042792919062000ae4565b8190604051809103906000f590508015801562000448573d6000803e3d6000fd5b5090506000819080600181540180825580915050600190039060005260206000200160009091909190916101000a81548173ffffffffffffffffffffffffffffffffffffffff021916908373ffffffffffffffffffffffffffffffffffffffff16021790555050505050565b60008282604051620004c690620005e1565b620004d392919062000ae4565b604051809103906000f080158015620004f0573d6000803e3d6000fd5b5090506000819080600181540180825580915050600190039060005260206000200160009091909190916101000a81548173ffffffffffffffffffffffffffffffffffffffff021916908373ffffffffffffffffffffffffffffffffffffffff160217905550505050565b60003483836040516200056e90620005e1565b6200057b92919062000ae4565b6040518091039082f090508015801562000599573d6000803e3d6000fd5b509050505050565b60008181548110620005b257600080fd5b906000526020600020016000915054906101000a900473ffffffffffffffffffffffffffffffffffffffff1681565b6107338062000c6083390190565b6000604051905090565b600080fd5b600080fd5b600073ffffffffffffffffffffffffffffffffffffffff82169050919050565b6000620006308262000603565b9050919050565b620006428162000623565b81146200064e57600080fd5b50565b600081359050620006628162000637565b92915050565b600080fd5b600080fd5b6000601f19601f8301169050919050565b7f4e487b7100000000000000000000000000000000000000000000000000000000600052604160045260246000fd5b620006bd8262000672565b810181811067ffffffffffffffff82111715620006df57620006de62000683565b5b80604052505050565b6000620006f4620005ef565b9050620007028282620006b2565b919050565b600067ffffffffffffffff82111562000725576200072462000683565b5b620007308262000672565b9050602081019050919050565b82818337600083830152505050565b6000620007636200075d8462000707565b620006e8565b9050828152602081018484840111156200078257620007816200066d565b5b6200078f8482856200073d565b509392505050565b600082601f830112620007af57620007ae62000668565b5b8135620007c18482602086016200074c565b91505092915050565b6000819050919050565b620007df81620007ca565b8114620007eb57600080fd5b50565b600081359050620007ff81620007d4565b92915050565b600080600060608486031215620008215762000820620005f9565b5b6000620008318682870162000651565b935050602084013567ffffffffffffffff811115620008555762000854620005fe565b5b620008638682870162000797565b92505060406200087686828701620007ee565b9150509250925092565b6000819050919050565b620008958162000880565b8114620008a157600080fd5b50565b600081359050620008b5816200088a565b92915050565b600060208284031215620008d457620008d3620005f9565b5b6000620008e484828501620008a4565b91505092915050565b620008f88162000623565b82525050565b600081519050919050565b600082825260208201905092915050565b60005b838110156200093a5780820151818401526020810190506200091d565b838111156200094a576000848401525b50505050565b60006200095d82620008fe565b62000969818562000909565b93506200097b8185602086016200091a565b620009868162000672565b840191505092915050565b6200099c8162000880565b82525050565b6000608082019050620009b96000830187620008ed565b8181036020830152620009cd818662000950565b9050620009de6040830185620008ed565b620009ed606083018462000991565b95945050505050565b6000806040838503121562000a105762000a0f620005f9565b5b600062000a208582860162000651565b925050602083013567ffffffffffffffff81111562000a445762000a43620005fe565b5b62000a528582860162000797565b9150509250929050565b6000819050919050565b600062000a8762000a8162000a7b8462000603565b62000a5c565b62000603565b9050919050565b600062000a9b8262000a66565b9050919050565b600062000aaf8262000a8e565b9050919050565b62000ac18162000aa2565b82525050565b600060208201905062000ade600083018462000ab6565b92915050565b600060408201905062000afb6000830185620008ed565b818103602083015262000b0f818462000950565b90509392505050565b7f4e487b7100000000000000000000000000000000000000000000000000000000600052603260045260246000fd5b60008151905062000b588162000637565b92915050565b60006020828403121562000b775762000b76620005f9565b5b600062000b878482850162000b47565b91505092915050565b600062000ba762000ba18462000707565b620006e8565b90508281526020810184848401111562000bc65762000bc56200066d565b5b62000bd38482856200091a565b509392505050565b600082601f83011262000bf35762000bf262000668565b5b815162000c0584826020860162000b90565b91505092915050565b60006020828403121562000c275762000c26620005f9565b5b600082015167ffffffffffffffff81111562000c485762000c47620005fe565b5b62000c568482850162000bdb565b9150509291505056fe608060405260405161073338038061073383398181016040528101906100259190610343565b816000806101000a81548173ffffffffffffffffffffffffffffffffffffffff021916908373ffffffffffffffffffffffffffffffffffffffff160217905550806001908051906020019061007b9291906100c4565b5033600260006101000a81548173ffffffffffffffffffffffffffffffffffffffff021916908373ffffffffffffffffffffffffffffffffffffffff16021790555050506103ff565b8280546100d0906103ce565b90600052602060002090601f0160209004810192826100f25760008555610139565b82601f1061010b57805160ff1916838001178555610139565b82800160010185558215610139579182015b8281111561013857825182559160200191906001019061011d565b5b509050610146919061014a565b5090565b5b8082111561016357600081600090555060010161014b565b5090565b6000604051905090565b600080fd5b600080fd5b600073ffffffffffffffffffffffffffffffffffffffff82169050919050565b60006101a68261017b565b9050919050565b6101b68161019b565b81146101c157600080fd5b50565b6000815190506101d3816101ad565b92915050565b600080fd5b600080fd5b6000601f19601f8301169050919050565b7f4e487b7100000000000000000000000000000000000000000000000000000000600052604160045260246000fd5b61022c826101e3565b810181811067ffffffffffffffff8211171561024b5761024a6101f4565b5b80604052505050565b600061025e610167565b905061026a8282610223565b919050565b600067ffffffffffffffff82111561028a576102896101f4565b5b610293826101e3565b9050602081019050919050565b60005b838110156102be5780820151818401526020810190506102a3565b838111156102cd576000848401525b50505050565b60006102e66102e18461026f565b610254565b905082815260208101848484011115610302576103016101de565b5b61030d8482856102a0565b509392505050565b600082601f83011261032a576103296101d9565b5b815161033a8482602086016102d3565b91505092915050565b6000806040838503121561035a57610359610171565b5b6000610368858286016101c4565b925050602083015167ffffffffffffffff81111561038957610388610176565b5b61039585828601610315565b9150509250929050565b7f4e487b7100000000000000000000000000000000000000000000000000000000600052602260045260246000fd5b600060028204905060018216806103e657607f821691505b6020821081036103f9576103f861039f565b5b50919050565b6103258061040e6000396000f3fe608060405234801561001057600080fd5b50600436106100415760003560e01c80630ad9d05214610046578063514fa676146100645780638da5cb5b14610082575b600080fd5b61004e6100a0565b60405161005b9190610211565b60405180910390f35b61006c61012e565b6040516100799190610274565b60405180910390f35b61008a610154565b6040516100979190610274565b60405180910390f35b600180546100ad906102be565b80601f01602080910402602001604051908101604052809291908181526020018280546100d9906102be565b80156101265780601f106100fb57610100808354040283529160200191610126565b820191906000526020600020905b81548152906001019060200180831161010957829003601f168201915b505050505081565b600260009054906101000a900473ffffffffffffffffffffffffffffffffffffffff1681565b60008054906101000a900473ffffffffffffffffffffffffffffffffffffffff1681565b600081519050919050565b600082825260208201905092915050565b60005b838110156101b2578082015181840152602081019050610197565b838111156101c1576000848401525b50505050565b6000601f19601f8301169050919050565b60006101e382610178565b6101ed8185610183565b93506101fd818560208601610194565b610206816101c7565b840191505092915050565b6000602082019050818103600083015261022b81846101d8565b905092915050565b600073ffffffffffffffffffffffffffffffffffffffff82169050919050565b600061025e82610233565b9050919050565b61026e81610253565b82525050565b60006020820190506102896000830184610265565b92915050565b7f4e487b7100000000000000000000000000000000000000000000000000000000600052602260045260246000fd5b600060028204905060018216806102d657607f821691505b6020821081036102e9576102e861028f565b5b5091905056fea264697066735822122036d8ec5f6e8d0f1eb690256b5da082f8af9a60013d107e1248f7406a00d591ed64736f6c634300080d0033a264697066735822122034a776b4cccac3b4bc27e38713f8b534b5732583f78190eb96ca649bc3e3dd0964736f6c634300080d0033",
					"opcodes": "PUSH1 0x80 PUSH1 0x40 MSTORE CALLVALUE DUP1 ISZERO PUSH2 0x10 JUMPI PUSH1 0x0 DUP1 REVERT JUMPDEST POP PUSH2 0x13C8 DUP1 PUSH2 0x20 PUSH1 0x0 CODECOPY PUSH1 0x0 RETURN INVALID PUSH1 0x80 PUSH1 0x40 MSTORE PUSH1 0x4 CALLDATASIZE LT PUSH3 0x5C JUMPI PUSH1 0x0 CALLDATALOAD PUSH1 0xE0 SHR DUP1 PUSH4 0x3D4B3015 EQ PUSH3 0x61 JUMPI DUP1 PUSH4 0x5E8BE190 EQ PUSH3 0x81 JUMPI DUP1 PUSH4 0xA429F47D EQ PUSH3 0xC8 JUMPI DUP1 PUSH4 0xA5E57B47 EQ PUSH3 0xF6 JUMPI DUP1 PUSH4 0xC33CD615 EQ PUSH3 0x124 JUMPI DUP1 PUSH4 0xF7746E36 EQ PUSH3 0x144 JUMPI JUMPDEST PUSH1 0x0 DUP1 REVERT JUMPDEST PUSH3 0x7F PUSH1 0x4 DUP1 CALLDATASIZE SUB DUP2 ADD SWAP1 PUSH3 0x79 SWAP2 SWAP1 PUSH3 0x805 JUMP JUMPDEST PUSH3 0x188 JUMP JUMPDEST STOP JUMPDEST CALLVALUE DUP1 ISZERO PUSH3 0x8E JUMPI PUSH1 0x0 DUP1 REVERT JUMPDEST POP PUSH3 0xAD PUSH1 0x4 DUP1 CALLDATASIZE SUB DUP2 ADD SWAP1 PUSH3 0xA7 SWAP2 SWAP1 PUSH3 0x8BB JUMP JUMPDEST PUSH3 0x238 JUMP JUMPDEST PUSH1 0x40 MLOAD PUSH3 0xBF SWAP5 SWAP4 SWAP3 SWAP2 SWAP1 PUSH3 0x9A2 JUMP JUMPDEST PUSH1 0x40 MLOAD DUP1 SWAP2 SUB SWAP1 RETURN JUMPDEST CALLVALUE DUP1 ISZERO PUSH3 0xD5 JUMPI PUSH1 0x0 DUP1 REVERT JUMPDEST POP PUSH3 0xF4 PUSH1 0x4 DUP1 CALLDATASIZE SUB DUP2 ADD SWAP1 PUSH3 0xEE SWAP2 SWAP1 PUSH3 0x805 JUMP JUMPDEST PUSH3 0x407 JUMP JUMPDEST STOP JUMPDEST CALLVALUE DUP1 ISZERO PUSH3 0x103 JUMPI PUSH1 0x0 DUP1 REVERT JUMPDEST POP PUSH3 0x122 PUSH1 0x4 DUP1 CALLDATASIZE SUB DUP2 ADD SWAP1 PUSH3 0x11C SWAP2 SWAP1 PUSH3 0x9F6 JUMP JUMPDEST PUSH3 0x4B4 JUMP JUMPDEST STOP JUMPDEST PUSH3 0x142 PUSH1 0x4 DUP1 CALLDATASIZE SUB DUP2 ADD SWAP1 PUSH3 0x13C SWAP2 SWAP1 PUSH3 0x9F6 JUMP JUMPDEST PUSH3 0x55B JUMP JUMPDEST STOP JUMPDEST CALLVALUE DUP1 ISZERO PUSH3 0x151 JUMPI PUSH1 0x0 DUP1 REVERT JUMPDEST POP PUSH3 0x170 PUSH1 0x4 DUP1 CALLDATASIZE SUB DUP2 ADD SWAP1 PUSH3 0x16A SWAP2 SWAP1 PUSH3 0x8BB JUMP JUMPDEST PUSH3 0x5A1 JUMP JUMPDEST PUSH1 0x40 MLOAD PUSH3 0x17F SWAP2 SWAP1 PUSH3 0xAC7 JUMP JUMPDEST PUSH1 0x40 MLOAD DUP1 SWAP2 SUB SWAP1 RETURN JUMPDEST PUSH1 0x0 CALLVALUE DUP3 SWAP1 DUP6 DUP6 PUSH1 0x40 MLOAD PUSH3 0x19D SWAP1 PUSH3 0x5E1 JUMP JUMPDEST PUSH3 0x1AA SWAP3 SWAP2 SWAP1 PUSH3 0xAE4 JUMP JUMPDEST DUP3 SWAP1 PUSH1 0x40 MLOAD DUP1 SWAP2 SUB SWAP1 DUP4 CREATE2 SWAP1 POP SWAP1 POP DUP1 ISZERO DUP1 ISZERO PUSH3 0x1CC JUMPI RETURNDATASIZE PUSH1 0x0 DUP1 RETURNDATACOPY RETURNDATASIZE PUSH1 0x0 REVERT JUMPDEST POP SWAP1 POP PUSH1 0x0 DUP2 SWAP1 DUP1 PUSH1 0x1 DUP2 SLOAD ADD DUP1 DUP3 SSTORE DUP1 SWAP2 POP POP PUSH1 0x1 SWAP1 SUB SWAP1 PUSH1 0x0 MSTORE PUSH1 0x20 PUSH1 0x0 KECCAK256 ADD PUSH1 0x0 SWAP1 SWAP2 SWAP1 SWAP2 SWAP1 SWAP2 PUSH2 0x100 EXP DUP2 SLOAD DUP2 PUSH20 0xFFFFFFFFFFFFFFFFFFFFFFFFFFFFFFFFFFFFFFFF MUL NOT AND SWAP1 DUP4 PUSH20 0xFFFFFFFFFFFFFFFFFFFFFFFFFFFFFFFFFFFFFFFF AND MUL OR SWAP1 SSTORE POP POP POP POP POP JUMP JUMPDEST PUSH1 0x0 PUSH1 0x60 PUSH1 0x0 DUP1 PUSH1 0x0 DUP1 DUP7 DUP2 SLOAD DUP2 LT PUSH3 0x257 JUMPI PUSH3 0x256 PUSH3 0xB18 JUMP JUMPDEST JUMPDEST SWAP1 PUSH1 0x0 MSTORE PUSH1 0x20 PUSH1 0x0 KECCAK256 ADD PUSH1 0x0 SWAP1 SLOAD SWAP1 PUSH2 0x100 EXP SWAP1 DIV PUSH20 0xFFFFFFFFFFFFFFFFFFFFFFFFFFFFFFFFFFFFFFFF AND SWAP1 POP DUP1 PUSH20 0xFFFFFFFFFFFFFFFFFFFFFFFFFFFFFFFFFFFFFFFF AND PUSH4 0x8DA5CB5B PUSH1 0x40 MLOAD DUP2 PUSH4 0xFFFFFFFF AND PUSH1 0xE0 SHL DUP2 MSTORE PUSH1 0x4 ADD PUSH1 0x20 PUSH1 0x40 MLOAD DUP1 DUP4 SUB DUP2 DUP7 GAS STATICCALL ISZERO DUP1 ISZERO PUSH3 0x2D0 JUMPI RETURNDATASIZE PUSH1 0x0 DUP1 RETURNDATACOPY RETURNDATASIZE PUSH1 0x0 REVERT JUMPDEST POP POP POP POP PUSH1 0x40 MLOAD RETURNDATASIZE PUSH1 0x1F NOT PUSH1 0x1F DUP3 ADD AND DUP3 ADD DUP1 PUSH1 0x40 MSTORE POP DUP2 ADD SWAP1 PUSH3 0x2F6 SWAP2 SWAP1 PUSH3 0xB5E JUMP JUMPDEST DUP2 PUSH20 0xFFFFFFFFFFFFFFFFFFFFFFFFFFFFFFFFFFFFFFFF AND PUSH4 0xAD9D052 PUSH1 0x40 MLOAD DUP2 PUSH4 0xFFFFFFFF AND PUSH1 0xE0 SHL DUP2 MSTORE PUSH1 0x4 ADD PUSH1 0x0 PUSH1 0x40 MLOAD DUP1 DUP4 SUB DUP2 DUP7 GAS STATICCALL ISZERO DUP1 ISZERO PUSH3 0x342 JUMPI RETURNDATASIZE PUSH1 0x0 DUP1 RETURNDATACOPY RETURNDATASIZE PUSH1 0x0 REVERT JUMPDEST POP POP POP POP PUSH1 0x40 MLOAD RETURNDATASIZE PUSH1 0x0 DUP3 RETURNDATACOPY RETURNDATASIZE PUSH1 0x1F NOT PUSH1 0x1F DUP3 ADD AND DUP3 ADD DUP1 PUSH1 0x40 MSTORE POP DUP2 ADD SWAP1 PUSH3 0x36D SWAP2 SWAP1 PUSH3 0xC0E JUMP JUMPDEST DUP3 PUSH20 0xFFFFFFFFFFFFFFFFFFFFFFFFFFFFFFFFFFFFFFFF AND PUSH4 0x514FA676 PUSH1 0x40 MLOAD DUP2 PUSH4 0xFFFFFFFF AND PUSH1 0xE0 SHL DUP2 MSTORE PUSH1 0x4 ADD PUSH1 0x20 PUSH1 0x40 MLOAD DUP1 DUP4 SUB DUP2 DUP7 GAS STATICCALL ISZERO DUP1 ISZERO PUSH3 0x3B9 JUMPI RETURNDATASIZE PUSH1 0x0 DUP1 RETURNDATACOPY RETURNDATASIZE PUSH1 0x0 REVERT JUMPDEST POP POP POP POP PUSH1 0x40 MLOAD RETURNDATASIZE PUSH1 0x1F NOT PUSH1 0x1F DUP3 ADD AND DUP3 ADD DUP1 PUSH1 0x40 MSTORE POP DUP2 ADD SWAP1 PUSH3 0x3DF SWAP2 SWAP1 PUSH3 0xB5E JUMP JUMPDEST DUP4 PUSH20 0xFFFFFFFFFFFFFFFFFFFFFFFFFFFFFFFFFFFFFFFF AND BALANCE SWAP5 POP SWAP5 POP SWAP5 POP SWAP5 POP POP SWAP2 SWAP4 POP SWAP2 SWAP4 JUMP JUMPDEST PUSH1 0x0 DUP2 DUP5 DUP5 PUSH1 0x40 MLOAD PUSH3 0x41A SWAP1 PUSH3 0x5E1 JUMP JUMPDEST PUSH3 0x427 SWAP3 SWAP2 SWAP1 PUSH3 0xAE4 JUMP JUMPDEST DUP2 SWAP1 PUSH1 0x40 MLOAD DUP1 SWAP2 SUB SWAP1 PUSH1 0x0 CREATE2 SWAP1 POP DUP1 ISZERO DUP1 ISZERO PUSH3 0x448 JUMPI RETURNDATASIZE PUSH1 0x0 DUP1 RETURNDATACOPY RETURNDATASIZE PUSH1 0x0 REVERT JUMPDEST POP SWAP1 POP PUSH1 0x0 DUP2 SWAP1 DUP1 PUSH1 0x1 DUP2 SLOAD ADD DUP1 DUP3 SSTORE DUP1 SWAP2 POP POP PUSH1 0x1 SWAP1 SUB SWAP1 PUSH1 0x0 MSTORE PUSH1 0x20 PUSH1 0x0 KECCAK256 ADD PUSH1 0x0 SWAP1 SWAP2 SWAP1 SWAP2 SWAP1 SWAP2 PUSH2 0x100 EXP DUP2 SLOAD DUP2 PUSH20 0xFFFFFFFFFFFFFFFFFFFFFFFFFFFFFFFFFFFFFFFF MUL NOT AND SWAP1 DUP4 PUSH20 0xFFFFFFFFFFFFFFFFFFFFFFFFFFFFFFFFFFFFFFFF AND MUL OR SWAP1 SSTORE POP POP POP POP POP JUMP JUMPDEST PUSH1 0x0 DUP3 DUP3 PUSH1 0x40 MLOAD PUSH3 0x4C6 SWAP1 PUSH3 0x5E1 JUMP JUMPDEST PUSH3 0x4D3 SWAP3 SWAP2 SWAP1 PUSH3 0xAE4 JUMP JUMPDEST PUSH1 0x40 MLOAD DUP1 SWAP2 SUB SWAP1 PUSH1 0x0 CREATE DUP1 ISZERO DUP1 ISZERO PUSH3 0x4F0 JUMPI RETURNDATASIZE PUSH1 0x0 DUP1 RETURNDATACOPY RETURNDATASIZE PUSH1 0x0 REVERT JUMPDEST POP SWAP1 POP PUSH1 0x0 DUP2 SWAP1 DUP1 PUSH1 0x1 DUP2 SLOAD ADD DUP1 DUP3 SSTORE DUP1 SWAP2 POP POP PUSH1 0x1 SWAP1 SUB SWAP1 PUSH1 0x0 MSTORE PUSH1 0x20 PUSH1 0x0 KECCAK256 ADD PUSH1 0x0 SWAP1 SWAP2 SWAP1 SWAP2 SWAP1 SWAP2 PUSH2 0x100 EXP DUP2 SLOAD DUP2 PUSH20 0xFFFFFFFFFFFFFFFFFFFFFFFFFFFFFFFFFFFFFFFF MUL NOT AND SWAP1 DUP4 PUSH20 0xFFFFFFFFFFFFFFFFFFFFFFFFFFFFFFFFFFFFFFFF AND MUL OR SWAP1 SSTORE POP POP POP POP JUMP JUMPDEST PUSH1 0x0 CALLVALUE DUP4 DUP4 PUSH1 0x40 MLOAD PUSH3 0x56E SWAP1 PUSH3 0x5E1 JUMP JUMPDEST PUSH3 0x57B SWAP3 SWAP2 SWAP1 PUSH3 0xAE4 JUMP JUMPDEST PUSH1 0x40 MLOAD DUP1 SWAP2 SUB SWAP1 DUP3 CREATE SWAP1 POP DUP1 ISZERO DUP1 ISZERO PUSH3 0x599 JUMPI RETURNDATASIZE PUSH1 0x0 DUP1 RETURNDATACOPY RETURNDATASIZE PUSH1 0x0 REVERT JUMPDEST POP SWAP1 POP POP POP POP JUMP JUMPDEST PUSH1 0x0 DUP2 DUP2 SLOAD DUP2 LT PUSH3 0x5B2 JUMPI PUSH1 0x0 DUP1 REVERT JUMPDEST SWAP1 PUSH1 0x0 MSTORE PUSH1 0x20 PUSH1 0x0 KECCAK256 ADD PUSH1 0x0 SWAP2 POP SLOAD SWAP1 PUSH2 0x100 EXP SWAP1 DIV PUSH20 0xFFFFFFFFFFFFFFFFFFFFFFFFFFFFFFFFFFFFFFFF AND DUP2 JUMP JUMPDEST PUSH2 0x733 DUP1 PUSH3 0xC60 DUP4 CODECOPY ADD SWAP1 JUMP JUMPDEST PUSH1 0x0 PUSH1 0x40 MLOAD SWAP1 POP SWAP1 JUMP JUMPDEST PUSH1 0x0 DUP1 REVERT JUMPDEST PUSH1 0x0 DUP1 REVERT JUMPDEST PUSH1 0x0 PUSH20 0xFFFFFFFFFFFFFFFFFFFFFFFFFFFFFFFFFFFFFFFF DUP3 AND SWAP1 POP SWAP2 SWAP1 POP JUMP JUMPDEST PUSH1 0x0 PUSH3 0x630 DUP3 PUSH3 0x603 JUMP JUMPDEST SWAP1 POP SWAP2 SWAP1 POP JUMP JUMPDEST PUSH3 0x642 DUP2 PUSH3 0x623 JUMP JUMPDEST DUP2 EQ PUSH3 0x64E JUMPI PUSH1 0x0 DUP1 REVERT JUMPDEST POP JUMP JUMPDEST PUSH1 0x0 DUP2 CALLDATALOAD SWAP1 POP PUSH3 0x662 DUP2 PUSH3 0x637 JUMP JUMPDEST SWAP3 SWAP2 POP POP JUMP JUMPDEST PUSH1 0x0 DUP1 REVERT JUMPDEST PUSH1 0x0 DUP1 REVERT JUMPDEST PUSH1 0x0 PUSH1 0x1F NOT PUSH1 0x1F DUP4 ADD AND SWAP1 POP SWAP2 SWAP1 POP JUMP JUMPDEST PUSH32 0x4E487B7100000000000000000000000000000000000000000000000000000000 PUSH1 0x0 MSTORE PUSH1 0x41 PUSH1 0x4 MSTORE PUSH1 0x24 PUSH1 0x0 REVERT JUMPDEST PUSH3 0x6BD DUP3 PUSH3 0x672 JUMP JUMPDEST DUP2 ADD DUP2 DUP2 LT PUSH8 0xFFFFFFFFFFFFFFFF DUP3 GT OR ISZERO PUSH3 0x6DF JUMPI PUSH3 0x6DE PUSH3 0x683 JUMP JUMPDEST JUMPDEST DUP1 PUSH1 0x40 MSTORE POP POP POP JUMP JUMPDEST PUSH1 0x0 PUSH3 0x6F4 PUSH3 0x5EF JUMP JUMPDEST SWAP1 POP PUSH3 0x702 DUP3 DUP3 PUSH3 0x6B2 JUMP JUMPDEST SWAP2 SWAP1 POP JUMP JUMPDEST PUSH1 0x0 PUSH8 0xFFFFFFFFFFFFFFFF DUP3 GT ISZERO PUSH3 0x725 JUMPI PUSH3 0x724 PUSH3 0x683 JUMP JUMPDEST JUMPDEST PUSH3 0x730 DUP3 PUSH3 0x672 JUMP JUMPDEST SWAP1 POP PUSH1 0x20 DUP2 ADD SWAP1 POP SWAP2 SWAP1 POP JUMP JUMPDEST DUP3 DUP2 DUP4 CALLDATACOPY PUSH1 0x0 DUP4 DUP4 ADD MSTORE POP POP POP JUMP JUMPDEST PUSH1 0x0 PUSH3 0x763 PUSH3 0x75D DUP5 PUSH3 0x707 JUMP JUMPDEST PUSH3 0x6E8 JUMP JUMPDEST SWAP1 POP DUP3 DUP2 MSTORE PUSH1 0x20 DUP2 ADD DUP5 DUP5 DUP5 ADD GT ISZERO PUSH3 0x782 JUMPI PUSH3 0x781 PUSH3 0x66D JUMP JUMPDEST JUMPDEST PUSH3 0x78F DUP5 DUP3 DUP6 PUSH3 0x73D JUMP JUMPDEST POP SWAP4 SWAP3 POP POP POP JUMP JUMPDEST PUSH1 0x0 DUP3 PUSH1 0x1F DUP4 ADD SLT PUSH3 0x7AF JUMPI PUSH3 0x7AE PUSH3 0x668 JUMP JUMPDEST JUMPDEST DUP2 CALLDATALOAD PUSH3 0x7C1 DUP5 DUP3 PUSH1 0x20 DUP7 ADD PUSH3 0x74C JUMP JUMPDEST SWAP2 POP POP SWAP3 SWAP2 POP POP JUMP JUMPDEST PUSH1 0x0 DUP2 SWAP1 POP SWAP2 SWAP1 POP JUMP JUMPDEST PUSH3 0x7DF DUP2 PUSH3 0x7CA JUMP JUMPDEST DUP2 EQ PUSH3 0x7EB JUMPI PUSH1 0x0 DUP1 REVERT JUMPDEST POP JUMP JUMPDEST PUSH1 0x0 DUP2 CALLDATALOAD SWAP1 POP PUSH3 0x7FF DUP2 PUSH3 0x7D4 JUMP JUMPDEST SWAP3 SWAP2 POP POP JUMP JUMPDEST PUSH1 0x0 DUP1 PUSH1 0x0 PUSH1 0x60 DUP5 DUP7 SUB SLT ISZERO PUSH3 0x821 JUMPI PUSH3 0x820 PUSH3 0x5F9 JUMP JUMPDEST JUMPDEST PUSH1 0x0 PUSH3 0x831 DUP7 DUP3 DUP8 ADD PUSH3 0x651 JUMP JUMPDEST SWAP4 POP POP PUSH1 0x20 DUP5 ADD CALLDATALOAD PUSH8 0xFFFFFFFFFFFFFFFF DUP2 GT ISZERO PUSH3 0x855 JUMPI PUSH3 0x854 PUSH3 0x5FE JUMP JUMPDEST JUMPDEST PUSH3 0x863 DUP7 DUP3 DUP8 ADD PUSH3 0x797 JUMP JUMPDEST SWAP3 POP POP PUSH1 0x40 PUSH3 0x876 DUP7 DUP3 DUP8 ADD PUSH3 0x7EE JUMP JUMPDEST SWAP2 POP POP SWAP3 POP SWAP3 POP SWAP3 JUMP JUMPDEST PUSH1 0x0 DUP2 SWAP1 POP SWAP2 SWAP1 POP JUMP JUMPDEST PUSH3 0x895 DUP2 PUSH3 0x880 JUMP JUMPDEST DUP2 EQ PUSH3 0x8A1 JUMPI PUSH1 0x0 DUP1 REVERT JUMPDEST POP JUMP JUMPDEST PUSH1 0x0 DUP2 CALLDATALOAD SWAP1 POP PUSH3 0x8B5 DUP2 PUSH3 0x88A JUMP JUMPDEST SWAP3 SWAP2 POP POP JUMP JUMPDEST PUSH1 0x0 PUSH1 0x20 DUP3 DUP5 SUB SLT ISZERO PUSH3 0x8D4 JUMPI PUSH3 0x8D3 PUSH3 0x5F9 JUMP JUMPDEST JUMPDEST PUSH1 0x0 PUSH3 0x8E4 DUP5 DUP3 DUP6 ADD PUSH3 0x8A4 JUMP JUMPDEST SWAP2 POP POP SWAP3 SWAP2 POP POP JUMP JUMPDEST PUSH3 0x8F8 DUP2 PUSH3 0x623 JUMP JUMPDEST DUP3 MSTORE POP POP JUMP JUMPDEST PUSH1 0x0 DUP2 MLOAD SWAP1 POP SWAP2 SWAP1 POP JUMP JUMPDEST PUSH1 0x0 DUP3 DUP3 MSTORE PUSH1 0x20 DUP3 ADD SWAP1 POP SWAP3 SWAP2 POP POP JUMP JUMPDEST PUSH1 0x0 JUMPDEST DUP4 DUP2 LT ISZERO PUSH3 0x93A JUMPI DUP1 DUP3 ADD MLOAD DUP2 DUP5 ADD MSTORE PUSH1 0x20 DUP2 ADD SWAP1 POP PUSH3 0x91D JUMP JUMPDEST DUP4 DUP2 GT ISZERO PUSH3 0x94A JUMPI PUSH1 0x0 DUP5 DUP5 ADD MSTORE JUMPDEST POP POP POP POP JUMP JUMPDEST PUSH1 0x0 PUSH3 0x95D DUP3 PUSH3 0x8FE JUMP JUMPDEST PUSH3 0x969 DUP2 DUP6 PUSH3 0x909 JUMP JUMPDEST SWAP4 POP PUSH3 0x97B DUP2 DUP6 PUSH1 0x20 DUP7 ADD PUSH3 0x91A JUMP JUMPDEST PUSH3 0x986 DUP2 PUSH3 0x672 JUMP JUMPDEST DUP5 ADD SWAP2 POP POP SWAP3 SWAP2 POP POP JUMP JUMPDEST PUSH3 0x99C DUP2 PUSH3 0x880 JUMP JUMPDEST DUP3 MSTORE POP POP JUMP JUMPDEST PUSH1 0x0 PUSH1 0x80 DUP3 ADD SWAP1 POP PUSH3 0x9B9 PUSH1 0x0 DUP4 ADD DUP8 PUSH3 0x8ED JUMP JUMPDEST DUP2 DUP2 SUB PUSH1 0x20 DUP4 ADD MSTORE PUSH3 0x9CD DUP2 DUP7 PUSH3 0x950 JUMP JUMPDEST SWAP1 POP PUSH3 0x9DE PUSH1 0x40 DUP4 ADD DUP6 PUSH3 0x8ED JUMP JUMPDEST PUSH3 0x9ED PUSH1 0x60 DUP4 ADD DUP5 PUSH3 0x991 JUMP JUMPDEST SWAP6 SWAP5 POP POP POP POP POP JUMP JUMPDEST PUSH1 0x0 DUP1 PUSH1 0x40 DUP4 DUP6 SUB SLT ISZERO PUSH3 0xA10 JUMPI PUSH3 0xA0F PUSH3 0x5F9 JUMP JUMPDEST JUMPDEST PUSH1 0x0 PUSH3 0xA20 DUP6 DUP3 DUP7 ADD PUSH3 0x651 JUMP JUMPDEST SWAP3 POP POP PUSH1 0x20 DUP4 ADD CALLDATALOAD PUSH8 0xFFFFFFFFFFFFFFFF DUP2 GT ISZERO PUSH3 0xA44 JUMPI PUSH3 0xA43 PUSH3 0x5FE JUMP JUMPDEST JUMPDEST PUSH3 0xA52 DUP6 DUP3 DUP7 ADD PUSH3 0x797 JUMP JUMPDEST SWAP2 POP POP SWAP3 POP SWAP3 SWAP1 POP JUMP JUMPDEST PUSH1 0x0 DUP2 SWAP1 POP SWAP2 SWAP1 POP JUMP JUMPDEST PUSH1 0x0 PUSH3 0xA87 PUSH3 0xA81 PUSH3 0xA7B DUP5 PUSH3 0x603 JUMP JUMPDEST PUSH3 0xA5C JUMP JUMPDEST PUSH3 0x603 JUMP JUMPDEST SWAP1 POP SWAP2 SWAP1 POP JUMP JUMPDEST PUSH1 0x0 PUSH3 0xA9B DUP3 PUSH3 0xA66 JUMP JUMPDEST SWAP1 POP SWAP2 SWAP1 POP JUMP JUMPDEST PUSH1 0x0 PUSH3 0xAAF DUP3 PUSH3 0xA8E JUMP JUMPDEST SWAP1 POP SWAP2 SWAP1 POP JUMP JUMPDEST PUSH3 0xAC1 DUP2 PUSH3 0xAA2 JUMP JUMPDEST DUP3 MSTORE POP POP JUMP JUMPDEST PUSH1 0x0 PUSH1 0x20 DUP3 ADD SWAP1 POP PUSH3 0xADE PUSH1 0x0 DUP4 ADD DUP5 PUSH3 0xAB6 JUMP JUMPDEST SWAP3 SWAP2 POP POP JUMP JUMPDEST PUSH1 0x0 PUSH1 0x40 DUP3 ADD SWAP1 POP PUSH3 0xAFB PUSH1 0x0 DUP4 ADD DUP6 PUSH3 0x8ED JUMP JUMPDEST DUP2 DUP2 SUB PUSH1 0x20 DUP4 ADD MSTORE PUSH3 0xB0F DUP2 DUP5 PUSH3 0x950 JUMP JUMPDEST SWAP1 POP SWAP4 SWAP3 POP POP POP JUMP JUMPDEST PUSH32 0x4E487B7100000000000000000000000000000000000000000000000000000000 PUSH1 0x0 MSTORE PUSH1 0x32 PUSH1 0x4 MSTORE PUSH1 0x24 PUSH1 0x0 REVERT JUMPDEST PUSH1 0x0 DUP2 MLOAD SWAP1 POP PUSH3 0xB58 DUP2 PUSH3 0x637 JUMP JUMPDEST SWAP3 SWAP2 POP POP JUMP JUMPDEST PUSH1 0x0 PUSH1 0x20 DUP3 DUP5 SUB SLT ISZERO PUSH3 0xB77 JUMPI PUSH3 0xB76 PUSH3 0x5F9 JUMP JUMPDEST JUMPDEST PUSH1 0x0 PUSH3 0xB87 DUP5 DUP3 DUP6 ADD PUSH3 0xB47 JUMP JUMPDEST SWAP2 POP POP SWAP3 SWAP2 POP POP JUMP JUMPDEST PUSH1 0x0 PUSH3 0xBA7 PUSH3 0xBA1 DUP5 PUSH3 0x707 JUMP JUMPDEST PUSH3 0x6E8 JUMP JUMPDEST SWAP1 POP DUP3 DUP2 MSTORE PUSH1 0x20 DUP2 ADD DUP5 DUP5 DUP5 ADD GT ISZERO PUSH3 0xBC6 JUMPI PUSH3 0xBC5 PUSH3 0x66D JUMP JUMPDEST JUMPDEST PUSH3 0xBD3 DUP5 DUP3 DUP6 PUSH3 0x91A JUMP JUMPDEST POP SWAP4 SWAP3 POP POP POP JUMP JUMPDEST PUSH1 0x0 DUP3 PUSH1 0x1F DUP4 ADD SLT PUSH3 0xBF3 JUMPI PUSH3 0xBF2 PUSH3 0x668 JUMP JUMPDEST JUMPDEST DUP2 MLOAD PUSH3 0xC05 DUP5 DUP3 PUSH1 0x20 DUP7 ADD PUSH3 0xB90 JUMP JUMPDEST SWAP2 POP POP SWAP3 SWAP2 POP POP JUMP JUMPDEST PUSH1 0x0 PUSH1 0x20 DUP3 DUP5 SUB SLT ISZERO PUSH3 0xC27 JUMPI PUSH3 0xC26 PUSH3 0x5F9 JUMP JUMPDEST JUMPDEST PUSH1 0x0 DUP3 ADD MLOAD PUSH8 0xFFFFFFFFFFFFFFFF DUP2 GT ISZERO PUSH3 0xC48 JUMPI PUSH3 0xC47 PUSH3 0x5FE JUMP JUMPDEST JUMPDEST PUSH3 0xC56 DUP5 DUP3 DUP6 ADD PUSH3 0xBDB JUMP JUMPDEST SWAP2 POP POP SWAP3 SWAP2 POP POP JUMP INVALID PUSH1 0x80 PUSH1 0x40 MSTORE PUSH1 0x40 MLOAD PUSH2 0x733 CODESIZE SUB DUP1 PUSH2 0x733 DUP4 CODECOPY DUP2 DUP2 ADD PUSH1 0x40 MSTORE DUP2 ADD SWAP1 PUSH2 0x25 SWAP2 SWAP1 PUSH2 0x343 JUMP JUMPDEST DUP2 PUSH1 0x0 DUP1 PUSH2 0x100 EXP DUP2 SLOAD DUP2 PUSH20 0xFFFFFFFFFFFFFFFFFFFFFFFFFFFFFFFFFFFFFFFF MUL NOT AND SWAP1 DUP4 PUSH20 0xFFFFFFFFFFFFFFFFFFFFFFFFFFFFFFFFFFFFFFFF AND MUL OR SWAP1 SSTORE POP DUP1 PUSH1 0x1 SWAP1 DUP1 MLOAD SWAP1 PUSH1 0x20 ADD SWAP1 PUSH2 0x7B SWAP3 SWAP2 SWAP1 PUSH2 0xC4 JUMP JUMPDEST POP CALLER PUSH1 0x2 PUSH1 0x0 PUSH2 0x100 EXP DUP2 SLOAD DUP2 PUSH20 0xFFFFFFFFFFFFFFFFFFFFFFFFFFFFFFFFFFFFFFFF MUL NOT AND SWAP1 DUP4 PUSH20 0xFFFFFFFFFFFFFFFFFFFFFFFFFFFFFFFFFFFFFFFF AND MUL OR SWAP1 SSTORE POP POP POP PUSH2 0x3FF JUMP JUMPDEST DUP3 DUP1 SLOAD PUSH2 0xD0 SWAP1 PUSH2 0x3CE JUMP JUMPDEST SWAP1 PUSH1 0x0 MSTORE PUSH1 0x20 PUSH1 0x0 KECCAK256 SWAP1 PUSH1 0x1F ADD PUSH1 0x20 SWAP1 DIV DUP2 ADD SWAP3 DUP3 PUSH2 0xF2 JUMPI PUSH1 0x0 DUP6 SSTORE PUSH2 0x139 JUMP JUMPDEST DUP3 PUSH1 0x1F LT PUSH2 0x10B JUMPI DUP1 MLOAD PUSH1 0xFF NOT AND DUP4 DUP1 ADD OR DUP6 SSTORE PUSH2 0x139 JUMP JUMPDEST DUP3 DUP1 ADD PUSH1 0x1 ADD DUP6 SSTORE DUP3 ISZERO PUSH2 0x139 JUMPI SWAP2 DUP3 ADD JUMPDEST DUP3 DUP2 GT ISZERO PUSH2 0x138 JUMPI DUP3 MLOAD DUP3 SSTORE SWAP2 PUSH1 0x20 ADD SWAP2 SWAP1 PUSH1 0x1 ADD SWAP1 PUSH2 0x11D JUMP JUMPDEST JUMPDEST POP SWAP1 POP PUSH2 0x146 SWAP2 SWAP1 PUSH2 0x14A JUMP JUMPDEST POP SWAP1 JUMP JUMPDEST JUMPDEST DUP1 DUP3 GT ISZERO PUSH2 0x163 JUMPI PUSH1 0x0 DUP2 PUSH1 0x0 SWAP1 SSTORE POP PUSH1 0x1 ADD PUSH2 0x14B JUMP JUMPDEST POP SWAP1 JUMP JUMPDEST PUSH1 0x0 PUSH1 0x40 MLOAD SWAP1 POP SWAP1 JUMP JUMPDEST PUSH1 0x0 DUP1 REVERT JUMPDEST PUSH1 0x0 DUP1 REVERT JUMPDEST PUSH1 0x0 PUSH20 0xFFFFFFFFFFFFFFFFFFFFFFFFFFFFFFFFFFFFFFFF DUP3 AND SWAP1 POP SWAP2 SWAP1 POP JUMP JUMPDEST PUSH1 0x0 PUSH2 0x1A6 DUP3 PUSH2 0x17B JUMP JUMPDEST SWAP1 POP SWAP2 SWAP1 POP JUMP JUMPDEST PUSH2 0x1B6 DUP2 PUSH2 0x19B JUMP JUMPDEST DUP2 EQ PUSH2 0x1C1 JUMPI PUSH1 0x0 DUP1 REVERT JUMPDEST POP JUMP JUMPDEST PUSH1 0x0 DUP2 MLOAD SWAP1 POP PUSH2 0x1D3 DUP2 PUSH2 0x1AD JUMP JUMPDEST SWAP3 SWAP2 POP POP JUMP JUMPDEST PUSH1 0x0 DUP1 REVERT JUMPDEST PUSH1 0x0 DUP1 REVERT JUMPDEST PUSH1 0x0 PUSH1 0x1F NOT PUSH1 0x1F DUP4 ADD AND SWAP1 POP SWAP2 SWAP1 POP JUMP JUMPDEST PUSH32 0x4E487B7100000000000000000000000000000000000000000000000000000000 PUSH1 0x0 MSTORE PUSH1 0x41 PUSH1 0x4 MSTORE PUSH1 0x24 PUSH1 0x0 REVERT JUMPDEST PUSH2 0x22C DUP3 PUSH2 0x1E3 JUMP JUMPDEST DUP2 ADD DUP2 DUP2 LT PUSH8 0xFFFFFFFFFFFFFFFF DUP3 GT OR ISZERO PUSH2 0x24B JUMPI PUSH2 0x24A PUSH2 0x1F4 JUMP JUMPDEST JUMPDEST DUP1 PUSH1 0x40 MSTORE POP POP POP JUMP JUMPDEST PUSH1 0x0 PUSH2 0x25E PUSH2 0x167 JUMP JUMPDEST SWAP1 POP PUSH2 0x26A DUP3 DUP3 PUSH2 0x223 JUMP JUMPDEST SWAP2 SWAP1 POP JUMP JUMPDEST PUSH1 0x0 PUSH8 0xFFFFFFFFFFFFFFFF DUP3 GT ISZERO PUSH2 0x28A JUMPI PUSH2 0x289 PUSH2 0x1F4 JUMP JUMPDEST JUMPDEST PUSH2 0x293 DUP3 PUSH2 0x1E3 JUMP JUMPDEST SWAP1 POP PUSH1 0x20 DUP2 ADD SWAP1 POP SWAP2 SWAP1 POP JUMP JUMPDEST PUSH1 0x0 JUMPDEST DUP4 DUP2 LT ISZERO PUSH2 0x2BE JUMPI DUP1 DUP3 ADD MLOAD DUP2 DUP5 ADD MSTORE PUSH1 0x20 DUP2 ADD SWAP1 POP PUSH2 0x2A3 JUMP JUMPDEST DUP4 DUP2 GT ISZERO PUSH2 0x2CD JUMPI PUSH1 0x0 DUP5 DUP5 ADD MSTORE JUMPDEST POP POP POP POP JUMP JUMPDEST PUSH1 0x0 PUSH2 0x2E6 PUSH2 0x2E1 DUP5 PUSH2 0x26F JUMP JUMPDEST PUSH2 0x254 JUMP JUMPDEST SWAP1 POP DUP3 DUP2 MSTORE PUSH1 0x20 DUP2 ADD DUP5 DUP5 DUP5 ADD GT ISZERO PUSH2 0x302 JUMPI PUSH2 0x301 PUSH2 0x1DE JUMP JUMPDEST JUMPDEST PUSH2 0x30D DUP5 DUP3 DUP6 PUSH2 0x2A0 JUMP JUMPDEST POP SWAP4 SWAP3 POP POP POP JUMP JUMPDEST PUSH1 0x0 DUP3 PUSH1 0x1F DUP4 ADD SLT PUSH2 0x32A JUMPI PUSH2 0x329 PUSH2 0x1D9 JUMP JUMPDEST JUMPDEST DUP2 MLOAD PUSH2 0x33A DUP5 DUP3 PUSH1 0x20 DUP7 ADD PUSH2 0x2D3 JUMP JUMPDEST SWAP2 POP POP SWAP3 SWAP2 POP POP JUMP JUMPDEST PUSH1 0x0 DUP1 PUSH1 0x40 DUP4 DUP6 SUB SLT ISZERO PUSH2 0x35A JUMPI PUSH2 0x359 PUSH2 0x171 JUMP JUMPDEST JUMPDEST PUSH1 0x0 PUSH2 0x368 DUP6 DUP3 DUP7 ADD PUSH2 0x1C4 JUMP JUMPDEST SWAP3 POP POP PUSH1 0x20 DUP4 ADD MLOAD PUSH8 0xFFFFFFFFFFFFFFFF DUP2 GT ISZERO PUSH2 0x389 JUMPI PUSH2 0x388 PUSH2 0x176 JUMP JUMPDEST JUMPDEST PUSH2 0x395 DUP6 DUP3 DUP7 ADD PUSH2 0x315 JUMP JUMPDEST SWAP2 POP POP SWAP3 POP SWAP3 SWAP1 POP JUMP JUMPDEST PUSH32 0x4E487B7100000000000000000000000000000000000000000000000000000000 PUSH1 0x0 MSTORE PUSH1 0x22 PUSH1 0x4 MSTORE PUSH1 0x24 PUSH1 0x0 REVERT JUMPDEST PUSH1 0x0 PUSH1 0x2 DUP3 DIV SWAP1 POP PUSH1 0x1 DUP3 AND DUP1 PUSH2 0x3E6 JUMPI PUSH1 0x7F DUP3 AND SWAP2 POP JUMPDEST PUSH1 0x20 DUP3 LT DUP2 SUB PUSH2 0x3F9 JUMPI PUSH2 0x3F8 PUSH2 0x39F JUMP JUMPDEST JUMPDEST POP SWAP2 SWAP1 POP JUMP JUMPDEST PUSH2 0x325 DUP1 PUSH2 0x40E PUSH1 0x0 CODECOPY PUSH1 0x0 RETURN INVALID PUSH1 0x80 PUSH1 0x40 MSTORE CALLVALUE DUP1 ISZERO PUSH2 0x10 JUMPI PUSH1 0x0 DUP1 REVERT JUMPDEST POP PUSH1 0x4 CALLDATASIZE LT PUSH2 0x41 JUMPI PUSH1 0x0 CALLDATALOAD PUSH1 0xE0 SHR DUP1 PUSH4 0xAD9D052 EQ PUSH2 0x46 JUMPI DUP1 PUSH4 0x514FA676 EQ PUSH2 0x64 JUMPI DUP1 PUSH4 0x8DA5CB5B EQ PUSH2 0x82 JUMPI JUMPDEST PUSH1 0x0 DUP1 REVERT JUMPDEST PUSH2 0x4E PUSH2 0xA0 JUMP JUMPDEST PUSH1 0x40 MLOAD PUSH2 0x5B SWAP2 SWAP1 PUSH2 0x211 JUMP JUMPDEST PUSH1 0x40 MLOAD DUP1 SWAP2 SUB SWAP1 RETURN JUMPDEST PUSH2 0x6C PUSH2 0x12E JUMP JUMPDEST PUSH1 0x40 MLOAD PUSH2 0x79 SWAP2 SWAP1 PUSH2 0x274 JUMP JUMPDEST PUSH1 0x40 MLOAD DUP1 SWAP2 SUB SWAP1 RETURN JUMPDEST PUSH2 0x8A PUSH2 0x154 JUMP JUMPDEST PUSH1 0x40 MLOAD PUSH2 0x97 SWAP2 SWAP1 PUSH2 0x274 JUMP JUMPDEST PUSH1 0x40 MLOAD DUP1 SWAP2 SUB SWAP1 RETURN JUMPDEST PUSH1 0x1 DUP1 SLOAD PUSH2 0xAD SWAP1 PUSH2 0x2BE JUMP JUMPDEST DUP1 PUSH1 0x1F ADD PUSH1 0x20 DUP1 SWAP2 DIV MUL PUSH1 0x20 ADD PUSH1 0x40 MLOAD SWAP1 DUP2 ADD PUSH1 0x40 MSTORE DUP1 SWAP3 SWAP2 SWAP1 DUP2 DUP2 MSTORE PUSH1 0x20 ADD DUP3 DUP1 SLOAD PUSH2 0xD9 SWAP1 PUSH2 0x2BE JUMP JUMPDEST DUP1 ISZERO PUSH2 0x126 JUMPI DUP1 PUSH1 0x1F LT PUSH2 0xFB JUMPI PUSH2 0x100 DUP1 DUP4 SLOAD DIV MUL DUP4 MSTORE SWAP2 PUSH1 0x20 ADD SWAP2 PUSH2 0x126 JUMP JUMPDEST DUP3 ADD SWAP2 SWAP1 PUSH1 0x0 MSTORE PUSH1 0x20 PUSH1 0x0 KECCAK256 SWAP1 JUMPDEST DUP2 SLOAD DUP2 MSTORE SWAP1 PUSH1 0x1 ADD SWAP1 PUSH1 0x20 ADD DUP1 DUP4 GT PUSH2 0x109 JUMPI DUP3 SWAP1 SUB PUSH1 0x1F AND DUP3 ADD SWAP2 JUMPDEST POP POP POP POP POP DUP2 JUMP JUMPDEST PUSH1 0x2 PUSH1 0x0 SWAP1 SLOAD SWAP1 PUSH2 0x100 EXP SWAP1 DIV PUSH20 0xFFFFFFFFFFFFFFFFFFFFFFFFFFFFFFFFFFFFFFFF AND DUP2 JUMP JUMPDEST PUSH1 0x0 DUP1 SLOAD SWAP1 PUSH2 0x100 EXP SWAP1 DIV PUSH20 0xFFFFFFFFFFFFFFFFFFFFFFFFFFFFFFFFFFFFFFFF AND DUP2 JUMP JUMPDEST PUSH1 0x0 DUP2 MLOAD SWAP1 POP SWAP2 SWAP1 POP JUMP JUMPDEST PUSH1 0x0 DUP3 DUP3 MSTORE PUSH1 0x20 DUP3 ADD SWAP1 POP SWAP3 SWAP2 POP POP JUMP JUMPDEST PUSH1 0x0 JUMPDEST DUP4 DUP2 LT ISZERO PUSH2 0x1B2 JUMPI DUP1 DUP3 ADD MLOAD DUP2 DUP5 ADD MSTORE PUSH1 0x20 DUP2 ADD SWAP1 POP PUSH2 0x197 JUMP JUMPDEST DUP4 DUP2 GT ISZERO PUSH2 0x1C1 JUMPI PUSH1 0x0 DUP5 DUP5 ADD MSTORE JUMPDEST POP POP POP POP JUMP JUMPDEST PUSH1 0x0 PUSH1 0x1F NOT PUSH1 0x1F DUP4 ADD AND SWAP1 POP SWAP2 SWAP1 POP JUMP JUMPDEST PUSH1 0x0 PUSH2 0x1E3 DUP3 PUSH2 0x178 JUMP JUMPDEST PUSH2 0x1ED DUP2 DUP6 PUSH2 0x183 JUMP JUMPDEST SWAP4 POP PUSH2 0x1FD DUP2 DUP6 PUSH1 0x20 DUP7 ADD PUSH2 0x194 JUMP JUMPDEST PUSH2 0x206 DUP2 PUSH2 0x1C7 JUMP JUMPDEST DUP5 ADD SWAP2 POP POP SWAP3 SWAP2 POP POP JUMP JUMPDEST PUSH1 0x0 PUSH1 0x20 DUP3 ADD SWAP1 POP DUP2 DUP2 SUB PUSH1 0x0 DUP4 ADD MSTORE PUSH2 0x22B DUP2 DUP5 PUSH2 0x1D8 JUMP JUMPDEST SWAP1 POP SWAP3 SWAP2 POP POP JUMP JUMPDEST PUSH1 0x0 PUSH20 0xFFFFFFFFFFFFFFFFFFFFFFFFFFFFFFFFFFFFFFFF DUP3 AND SWAP1 POP SWAP2 SWAP1 POP JUMP JUMPDEST PUSH1 0x0 PUSH2 0x25E DUP3 PUSH2 0x233 JUMP JUMPDEST SWAP1 POP SWAP2 SWAP1 POP JUMP JUMPDEST PUSH2 0x26E DUP2 PUSH2 0x253 JUMP JUMPDEST DUP3 MSTORE POP POP JUMP JUMPDEST PUSH1 0x0 PUSH1 0x20 DUP3 ADD SWAP1 POP PUSH2 0x289 PUSH1 0x0 DUP4 ADD DUP5 PUSH2 0x265 JUMP JUMPDEST SWAP3 SWAP2 POP POP JUMP JUMPDEST PUSH32 0x4E487B7100000000000000000000000000000000000000000000000000000000 PUSH1 0x0 MSTORE PUSH1 0x22 PUSH1 0x4 MSTORE PUSH1 0x24 PUSH1 0x0 REVERT JUMPDEST PUSH1 0x0 PUSH1 0x2 DUP3 DIV SWAP1 POP PUSH1 0x1 DUP3 AND DUP1 PUSH2 0x2D6 JUMPI PUSH1 0x7F DUP3 AND SWAP2 POP JUMPDEST PUSH1 0x20 DUP3 LT DUP2 SUB PUSH2 0x2E9 JUMPI PUSH2 0x2E8 PUSH2 0x28F JUMP JUMPDEST JUMPDEST POP SWAP2 SWAP1 POP JUMP INVALID LOG2 PUSH5 0x6970667358 0x22 SLT KECCAK256 CALLDATASIZE 0xD8 0xEC 0x5F PUSH15 0x8D0F1EB690256B5DA082F8AF9A6001 RETURNDATASIZE LT PUSH31 0x1248F7406A00D591ED64736F6C634300080D0033A264697066735822122034 0xA7 PUSH23 0xB4CCCAC3B4BC27E38713F8B534B5732583F78190EB96CA PUSH5 0x9BC3E3DD09 PUSH5 0x736F6C6343 STOP ADDMOD 0xD STOP CALLER "
				},
				"gasEstimates": {
					"creation": {
						"codeDepositCost": "1012800",
						"executionCost": "1054",
						"totalCost": "1013854"
					},
					"external": {
						"cars(uint256)": "infinite",
						"create2AndSendEther(address,string,bytes32)": "infinite",
						"createAndSendEther(address,string)": "infinite",
						"createCar(address,string)": "infinite",
						"createCar2(address,string,bytes32)": "infinite",
						"getCar(uint256)": "infinite"
					}
				},
				"methodIdentifiers": {
					"cars(uint256)": "f7746e36",
					"create2AndSendEther(address,string,bytes32)": "3d4b3015",
					"createAndSendEther(address,string)": "c33cd615",
					"createCar(address,string)": "a5e57b47",
					"createCar2(address,string,bytes32)": "a429f47d",
					"getCar(uint256)": "5e8be190"
				}
			},
			"userdoc": {
				"kind": "user",
				"methods": {},
				"version": 1
			}
		}
	}
}