{
	"LoopConditionExam.sol": {
		"LoopCondition": {
			"abi": [
				{
					"inputs": [],
					"stateMutability": "nonpayable",
					"type": "constructor"
				},
				{
					"inputs": [],
					"name": "countEvenNumbers",
					"outputs": [
						{
							"internalType": "uint256",
							"name": "",
							"type": "uint256"
						}
					],
					"stateMutability": "view",
					"type": "function"
				},
				{
					"inputs": [],
					"name": "countOddNumbers",
					"outputs": [
						{
							"internalType": "uint256",
							"name": "",
							"type": "uint256"
						}
					],
					"stateMutability": "view",
					"type": "function"
				},
				{
					"inputs": [],
					"name": "isOwner",
					"outputs": [
						{
							"internalType": "bool",
							"name": "",
							"type": "bool"
						}
					],
					"stateMutability": "view",
					"type": "function"
				},
				{
					"inputs": [
						{
							"internalType": "uint256",
							"name": "",
							"type": "uint256"
						}
					],
					"name": "numbers",
					"outputs": [
						{
							"internalType": "uint256",
							"name": "",
							"type": "uint256"
						}
					],
					"stateMutability": "view",
					"type": "function"
				},
				{
					"inputs": [],
					"name": "owner",
					"outputs": [
						{
							"internalType": "address",
							"name": "",
							"type": "address"
						}
					],
					"stateMutability": "view",
					"type": "function"
				}
			],
			"devdoc": {
				"kind": "dev",
				"methods": {},
				"version": 1
			},
			"evm": {
				"assembly": "    /* \"LoopConditionExam.sol\":69:1299  contract LoopCondition {\r... */\n  mstore(0x40, 0x80)\n    /* \"LoopConditionExam.sol\":99:174  uint[] public numbers = [1, 2, 3, 4, 5, 6, 7, 8, 9, 10, 11, 12, 13, 14, 15] */\n  mload(0x40)\n  dup1\n  0x01e0\n  add\n  0x40\n  mstore\n  dup1\n    /* \"LoopConditionExam.sol\":124:125  1 */\n  0x01\n    /* \"LoopConditionExam.sol\":99:174  uint[] public numbers = [1, 2, 3, 4, 5, 6, 7, 8, 9, 10, 11, 12, 13, 14, 15] */\n  0xff\n  and\n  dup2\n  mstore\n  0x20\n  add\n    /* \"LoopConditionExam.sol\":127:128  2 */\n  0x02\n    /* \"LoopConditionExam.sol\":99:174  uint[] public numbers = [1, 2, 3, 4, 5, 6, 7, 8, 9, 10, 11, 12, 13, 14, 15] */\n  0xff\n  and\n  dup2\n  mstore\n  0x20\n  add\n    /* \"LoopConditionExam.sol\":130:131  3 */\n  0x03\n    /* \"LoopConditionExam.sol\":99:174  uint[] public numbers = [1, 2, 3, 4, 5, 6, 7, 8, 9, 10, 11, 12, 13, 14, 15] */\n  0xff\n  and\n  dup2\n  mstore\n  0x20\n  add\n    /* \"LoopConditionExam.sol\":133:134  4 */\n  0x04\n    /* \"LoopConditionExam.sol\":99:174  uint[] public numbers = [1, 2, 3, 4, 5, 6, 7, 8, 9, 10, 11, 12, 13, 14, 15] */\n  0xff\n  and\n  dup2\n  mstore\n  0x20\n  add\n    /* \"LoopConditionExam.sol\":136:137  5 */\n  0x05\n    /* \"LoopConditionExam.sol\":99:174  uint[] public numbers = [1, 2, 3, 4, 5, 6, 7, 8, 9, 10, 11, 12, 13, 14, 15] */\n  0xff\n  and\n  dup2\n  mstore\n  0x20\n  add\n    /* \"LoopConditionExam.sol\":139:140  6 */\n  0x06\n    /* \"LoopConditionExam.sol\":99:174  uint[] public numbers = [1, 2, 3, 4, 5, 6, 7, 8, 9, 10, 11, 12, 13, 14, 15] */\n  0xff\n  and\n  dup2\n  mstore\n  0x20\n  add\n    /* \"LoopConditionExam.sol\":142:143  7 */\n  0x07\n    /* \"LoopConditionExam.sol\":99:174  uint[] public numbers = [1, 2, 3, 4, 5, 6, 7, 8, 9, 10, 11, 12, 13, 14, 15] */\n  0xff\n  and\n  dup2\n  mstore\n  0x20\n  add\n    /* \"LoopConditionExam.sol\":145:146  8 */\n  0x08\n    /* \"LoopConditionExam.sol\":99:174  uint[] public numbers = [1, 2, 3, 4, 5, 6, 7, 8, 9, 10, 11, 12, 13, 14, 15] */\n  0xff\n  and\n  dup2\n  mstore\n  0x20\n  add\n    /* \"LoopConditionExam.sol\":148:149  9 */\n  0x09\n    /* \"LoopConditionExam.sol\":99:174  uint[] public numbers = [1, 2, 3, 4, 5, 6, 7, 8, 9, 10, 11, 12, 13, 14, 15] */\n  0xff\n  and\n  dup2\n  mstore\n  0x20\n  add\n    /* \"LoopConditionExam.sol\":151:153  10 */\n  0x0a\n    /* \"LoopConditionExam.sol\":99:174  uint[] public numbers = [1, 2, 3, 4, 5, 6, 7, 8, 9, 10, 11, 12, 13, 14, 15] */\n  0xff\n  and\n  dup2\n  mstore\n  0x20\n  add\n    /* \"LoopConditionExam.sol\":155:157  11 */\n  0x0b\n    /* \"LoopConditionExam.sol\":99:174  uint[] public numbers = [1, 2, 3, 4, 5, 6, 7, 8, 9, 10, 11, 12, 13, 14, 15] */\n  0xff\n  and\n  dup2\n  mstore\n  0x20\n  add\n    /* \"LoopConditionExam.sol\":159:161  12 */\n  0x0c\n    /* \"LoopConditionExam.sol\":99:174  uint[] public numbers = [1, 2, 3, 4, 5, 6, 7, 8, 9, 10, 11, 12, 13, 14, 15] */\n  0xff\n  and\n  dup2\n  mstore\n  0x20\n  add\n    /* \"LoopConditionExam.sol\":163:165  13 */\n  0x0d\n    /* \"LoopConditionExam.sol\":99:174  uint[] public numbers = [1, 2, 3, 4, 5, 6, 7, 8, 9, 10, 11, 12, 13, 14, 15] */\n  0xff\n  and\n  dup2\n  mstore\n  0x20\n  add\n    /* \"LoopConditionExam.sol\":167:169  14 */\n  0x0e\n    /* \"LoopConditionExam.sol\":99:174  uint[] public numbers = [1, 2, 3, 4, 5, 6, 7, 8, 9, 10, 11, 12, 13, 14, 15] */\n  0xff\n  and\n  dup2\n  mstore\n  0x20\n  add\n    /* \"LoopConditionExam.sol\":171:173  15 */\n  0x0f\n    /* \"LoopConditionExam.sol\":99:174  uint[] public numbers = [1, 2, 3, 4, 5, 6, 7, 8, 9, 10, 11, 12, 13, 14, 15] */\n  0xff\n  and\n  dup2\n  mstore\n  pop\n  0x00\n  swap1\n  0x0f\n  tag_1\n  swap3\n  swap2\n  swap1\n  tag_2\n  jump\t// in\ntag_1:\n  pop\n    /* \"LoopConditionExam.sol\":210:268  constructor() public {\r... */\n  callvalue\n  dup1\n  iszero\n  tag_3\n  jumpi\n  0x00\n  dup1\n  revert\ntag_3:\n  pop\n    /* \"LoopConditionExam.sol\":250:260  msg.sender */\n  caller\n    /* \"LoopConditionExam.sol\":242:247  owner */\n  0x01\n  0x00\n    /* \"LoopConditionExam.sol\":242:260  owner = msg.sender */\n  0x0100\n  exp\n  dup2\n  sload\n  dup2\n  0xffffffffffffffffffffffffffffffffffffffff\n  mul\n  not\n  and\n  swap1\n  dup4\n  0xffffffffffffffffffffffffffffffffffffffff\n  and\n  mul\n  or\n  swap1\n  sstore\n  pop\n    /* \"LoopConditionExam.sol\":69:1299  contract LoopCondition {\r... */\n  jump(tag_6)\ntag_2:\n  dup3\n  dup1\n  sload\n  dup3\n  dup3\n  sstore\n  swap1\n  0x00\n  mstore\n  keccak256(0x00, 0x20)\n  swap1\n  dup2\n  add\n  swap3\n  dup3\n  iszero\n  tag_7\n  jumpi\n  swap2\n  0x20\n  mul\n  dup3\n  add\ntag_8:\n  dup3\n  dup2\n  gt\n  iszero\n  tag_9\n  jumpi\n  dup3\n  mload\n  dup3\n  swap1\n  0xff\n  and\n  swap1\n  sstore\n  swap2\n  0x20\n  add\n  swap2\n  swap1\n  0x01\n  add\n  swap1\n  jump(tag_8)\ntag_9:\ntag_7:\n  pop\n  swap1\n  pop\n  tag_10\n  swap2\n  swap1\n  tag_11\n  jump\t// in\ntag_10:\n  pop\n  swap1\n  jump\t// out\ntag_11:\ntag_12:\n  dup1\n  dup3\n  gt\n  iszero\n  tag_13\n  jumpi\n  0x00\n  dup2\n  0x00\n  swap1\n  sstore\n  pop\n  0x01\n  add\n  jump(tag_12)\ntag_13:\n  pop\n  swap1\n  jump\t// out\ntag_6:\n  dataSize(sub_0)\n  dup1\n  dataOffset(sub_0)\n  0x00\n  codecopy\n  0x00\n  return\nstop\n\nsub_0: assembly {\n        /* \"LoopConditionExam.sol\":69:1299  contract LoopCondition {\r... */\n      mstore(0x40, 0x80)\n      callvalue\n      dup1\n      iszero\n      tag_1\n      jumpi\n      0x00\n      dup1\n      revert\n    tag_1:\n      pop\n      jumpi(tag_2, lt(calldatasize, 0x04))\n      shr(0xe0, calldataload(0x00))\n      dup1\n      0x306d3e02\n      eq\n      tag_3\n      jumpi\n      dup1\n      0x4fa0e692\n      eq\n      tag_4\n      jumpi\n      dup1\n      0x8da5cb5b\n      eq\n      tag_5\n      jumpi\n      dup1\n      0x8f32d59b\n      eq\n      tag_6\n      jumpi\n      dup1\n      0xd39fa233\n      eq\n      tag_7\n      jumpi\n    tag_2:\n      0x00\n      dup1\n      revert\n        /* \"LoopConditionExam.sol\":276:540  function countEvenNumbers() public view returns (uint) {\r... */\n    tag_3:\n      tag_8\n      tag_9\n      jump\t// in\n    tag_8:\n      mload(0x40)\n      dup1\n      dup3\n      dup2\n      mstore\n      0x20\n      add\n      swap2\n      pop\n      pop\n      mload(0x40)\n      dup1\n      swap2\n      sub\n      swap1\n      return\n        /* \"LoopConditionExam.sol\":741:1003  function countOddNumbers() public view returns (uint) {\r... */\n    tag_4:\n      tag_10\n      tag_11\n      jump\t// in\n    tag_10:\n      mload(0x40)\n      dup1\n      dup3\n      dup2\n      mstore\n      0x20\n      add\n      swap2\n      pop\n      pop\n      mload(0x40)\n      dup1\n      swap2\n      sub\n      swap1\n      return\n        /* \"LoopConditionExam.sol\":181:201  address public owner */\n    tag_5:\n      tag_12\n      tag_13\n      jump\t// in\n    tag_12:\n      mload(0x40)\n      dup1\n      dup3\n      0xffffffffffffffffffffffffffffffffffffffff\n      and\n      dup2\n      mstore\n      0x20\n      add\n      swap2\n      pop\n      pop\n      mload(0x40)\n      dup1\n      swap2\n      sub\n      swap1\n      return\n        /* \"LoopConditionExam.sol\":1203:1296  function isOwner() public view returns (bool) {\r... */\n    tag_6:\n      tag_14\n      tag_15\n      jump\t// in\n    tag_14:\n      mload(0x40)\n      dup1\n      dup3\n      iszero\n      iszero\n      dup2\n      mstore\n      0x20\n      add\n      swap2\n      pop\n      pop\n      mload(0x40)\n      dup1\n      swap2\n      sub\n      swap1\n      return\n        /* \"LoopConditionExam.sol\":99:174  uint[] public numbers = [1, 2, 3, 4, 5, 6, 7, 8, 9, 10, 11, 12, 13, 14, 15] */\n    tag_7:\n      tag_16\n      0x04\n      dup1\n      calldatasize\n      sub\n      0x20\n      dup2\n      lt\n      iszero\n      tag_17\n      jumpi\n      0x00\n      dup1\n      revert\n    tag_17:\n      dup2\n      add\n      swap1\n      dup1\n      dup1\n      calldataload\n      swap1\n      0x20\n      add\n      swap1\n      swap3\n      swap2\n      swap1\n      pop\n      pop\n      pop\n      tag_18\n      jump\t// in\n    tag_16:\n      mload(0x40)\n      dup1\n      dup3\n      dup2\n      mstore\n      0x20\n      add\n      swap2\n      pop\n      pop\n      mload(0x40)\n      dup1\n      swap2\n      sub\n      swap1\n      return\n        /* \"LoopConditionExam.sol\":276:540  function countEvenNumbers() public view returns (uint) {\r... */\n    tag_9:\n        /* \"LoopConditionExam.sol\":325:329  uint */\n      0x00\n        /* \"LoopConditionExam.sol\":342:352  uint count */\n      dup1\n        /* \"LoopConditionExam.sol\":355:356  0 */\n      0x00\n        /* \"LoopConditionExam.sol\":342:356  uint count = 0 */\n      swap1\n      pop\n        /* \"LoopConditionExam.sol\":372:378  uint i */\n      0x00\n        /* \"LoopConditionExam.sol\":367:508  for (uint i = 0; i < numbers.length; i++) {\r... */\n    tag_20:\n        /* \"LoopConditionExam.sol\":388:395  numbers */\n      0x00\n        /* \"LoopConditionExam.sol\":388:402  numbers.length */\n      dup1\n      sload\n      swap1\n      pop\n        /* \"LoopConditionExam.sol\":384:385  i */\n      dup2\n        /* \"LoopConditionExam.sol\":384:402  i < numbers.length */\n      lt\n        /* \"LoopConditionExam.sol\":367:508  for (uint i = 0; i < numbers.length; i++) {\r... */\n      iszero\n      tag_21\n      jumpi\n        /* \"LoopConditionExam.sol\":428:452  isEvenNumber(numbers[i]) */\n      tag_23\n        /* \"LoopConditionExam.sol\":441:448  numbers */\n      0x00\n        /* \"LoopConditionExam.sol\":449:450  i */\n      dup3\n        /* \"LoopConditionExam.sol\":441:451  numbers[i] */\n      dup2\n      sload\n      dup2\n      lt\n      tag_24\n      jumpi\n      invalid\n    tag_24:\n      swap1\n      0x00\n      mstore\n      keccak256(0x00, 0x20)\n      add\n      sload\n        /* \"LoopConditionExam.sol\":428:440  isEvenNumber */\n      tag_26\n        /* \"LoopConditionExam.sol\":428:452  isEvenNumber(numbers[i]) */\n      jump\t// in\n    tag_23:\n        /* \"LoopConditionExam.sol\":424:497  if (isEvenNumber(numbers[i])) {\r... */\n      iszero\n      tag_27\n      jumpi\n        /* \"LoopConditionExam.sol\":473:481  count ++ */\n      dup2\n      dup1\n      0x01\n      add\n      swap3\n      pop\n      pop\n        /* \"LoopConditionExam.sol\":424:497  if (isEvenNumber(numbers[i])) {\r... */\n    tag_27:\n        /* \"LoopConditionExam.sol\":404:407  i++ */\n      dup1\n      dup1\n      0x01\n      add\n      swap2\n      pop\n      pop\n        /* \"LoopConditionExam.sol\":367:508  for (uint i = 0; i < numbers.length; i++) {\r... */\n      jump(tag_20)\n    tag_21:\n      pop\n        /* \"LoopConditionExam.sol\":527:532  count */\n      dup1\n        /* \"LoopConditionExam.sol\":520:532  return count */\n      swap2\n      pop\n      pop\n        /* \"LoopConditionExam.sol\":276:540  function countEvenNumbers() public view returns (uint) {\r... */\n      swap1\n      jump\t// out\n        /* \"LoopConditionExam.sol\":741:1003  function countOddNumbers() public view returns (uint) {\r... */\n    tag_11:\n        /* \"LoopConditionExam.sol\":789:793  uint */\n      0x00\n        /* \"LoopConditionExam.sol\":806:816  uint count */\n      dup1\n        /* \"LoopConditionExam.sol\":819:820  0 */\n      0x00\n        /* \"LoopConditionExam.sol\":806:820  uint count = 0 */\n      swap1\n      pop\n        /* \"LoopConditionExam.sol\":836:842  uint i */\n      0x00\n        /* \"LoopConditionExam.sol\":831:971  for (uint i = 0; i < numbers.length; i++) {\r... */\n    tag_29:\n        /* \"LoopConditionExam.sol\":852:859  numbers */\n      0x00\n        /* \"LoopConditionExam.sol\":852:866  numbers.length */\n      dup1\n      sload\n      swap1\n      pop\n        /* \"LoopConditionExam.sol\":848:849  i */\n      dup2\n        /* \"LoopConditionExam.sol\":848:866  i < numbers.length */\n      lt\n        /* \"LoopConditionExam.sol\":831:971  for (uint i = 0; i < numbers.length; i++) {\r... */\n      iszero\n      tag_30\n      jumpi\n        /* \"LoopConditionExam.sol\":892:915  isOddNumber(numbers[i]) */\n      tag_32\n        /* \"LoopConditionExam.sol\":904:911  numbers */\n      0x00\n        /* \"LoopConditionExam.sol\":912:913  i */\n      dup3\n        /* \"LoopConditionExam.sol\":904:914  numbers[i] */\n      dup2\n      sload\n      dup2\n      lt\n      tag_33\n      jumpi\n      invalid\n    tag_33:\n      swap1\n      0x00\n      mstore\n      keccak256(0x00, 0x20)\n      add\n      sload\n        /* \"LoopConditionExam.sol\":892:903  isOddNumber */\n      tag_35\n        /* \"LoopConditionExam.sol\":892:915  isOddNumber(numbers[i]) */\n      jump\t// in\n    tag_32:\n        /* \"LoopConditionExam.sol\":888:960  if (isOddNumber(numbers[i])) {\r... */\n      iszero\n      tag_36\n      jumpi\n        /* \"LoopConditionExam.sol\":936:944  count ++ */\n      dup2\n      dup1\n      0x01\n      add\n      swap3\n      pop\n      pop\n        /* \"LoopConditionExam.sol\":888:960  if (isOddNumber(numbers[i])) {\r... */\n    tag_36:\n        /* \"LoopConditionExam.sol\":868:871  i++ */\n      dup1\n      dup1\n      0x01\n      add\n      swap2\n      pop\n      pop\n        /* \"LoopConditionExam.sol\":831:971  for (uint i = 0; i < numbers.length; i++) {\r... */\n      jump(tag_29)\n    tag_30:\n      pop\n        /* \"LoopConditionExam.sol\":990:995  count */\n      dup1\n        /* \"LoopConditionExam.sol\":983:995  return count */\n      swap2\n      pop\n      pop\n        /* \"LoopConditionExam.sol\":741:1003  function countOddNumbers() public view returns (uint) {\r... */\n      swap1\n      jump\t// out\n        /* \"LoopConditionExam.sol\":181:201  address public owner */\n    tag_13:\n      0x01\n      0x00\n      swap1\n      sload\n      swap1\n      0x0100\n      exp\n      swap1\n      div\n      0xffffffffffffffffffffffffffffffffffffffff\n      and\n      dup2\n      jump\t// out\n        /* \"LoopConditionExam.sol\":1203:1296  function isOwner() public view returns (bool) {\r... */\n    tag_15:\n        /* \"LoopConditionExam.sol\":1243:1247  bool */\n      0x00\n        /* \"LoopConditionExam.sol\":1282:1287  owner */\n      0x01\n      0x00\n      swap1\n      sload\n      swap1\n      0x0100\n      exp\n      swap1\n      div\n      0xffffffffffffffffffffffffffffffffffffffff\n      and\n        /* \"LoopConditionExam.sol\":1268:1287  msg.sender == owner */\n      0xffffffffffffffffffffffffffffffffffffffff\n      and\n        /* \"LoopConditionExam.sol\":1268:1278  msg.sender */\n      caller\n        /* \"LoopConditionExam.sol\":1268:1287  msg.sender == owner */\n      0xffffffffffffffffffffffffffffffffffffffff\n      and\n      eq\n        /* \"LoopConditionExam.sol\":1260:1288  return (msg.sender == owner) */\n      swap1\n      pop\n        /* \"LoopConditionExam.sol\":1203:1296  function isOwner() public view returns (bool) {\r... */\n      swap1\n      jump\t// out\n        /* \"LoopConditionExam.sol\":99:174  uint[] public numbers = [1, 2, 3, 4, 5, 6, 7, 8, 9, 10, 11, 12, 13, 14, 15] */\n    tag_18:\n      0x00\n      dup2\n      dup2\n      sload\n      dup2\n      lt\n      tag_38\n      jumpi\n      invalid\n    tag_38:\n      swap1\n      0x00\n      mstore\n      keccak256(0x00, 0x20)\n      add\n      0x00\n      swap2\n      pop\n      swap1\n      pop\n      sload\n      dup2\n      jump\t// out\n        /* \"LoopConditionExam.sol\":546:733  function isEvenNumber(uint _number) private pure returns (bool) {\r... */\n    tag_26:\n        /* \"LoopConditionExam.sol\":604:608  bool */\n      0x00\n        /* \"LoopConditionExam.sol\":640:641  0 */\n      dup1\n        /* \"LoopConditionExam.sol\":635:636  2 */\n      0x02\n        /* \"LoopConditionExam.sol\":625:632  _number */\n      dup4\n        /* \"LoopConditionExam.sol\":625:636  _number % 2 */\n      dup2\n      tag_41\n      jumpi\n      invalid\n    tag_41:\n      mod\n        /* \"LoopConditionExam.sol\":625:641  _number % 2 == 0 */\n      eq\n        /* \"LoopConditionExam.sol\":621:726  if (_number % 2 == 0) {\r... */\n      iszero\n      tag_42\n      jumpi\n        /* \"LoopConditionExam.sol\":665:669  true */\n      0x01\n        /* \"LoopConditionExam.sol\":658:669  return true */\n      swap1\n      pop\n      jump(tag_40)\n        /* \"LoopConditionExam.sol\":621:726  if (_number % 2 == 0) {\r... */\n    tag_42:\n        /* \"LoopConditionExam.sol\":709:714  false */\n      0x00\n        /* \"LoopConditionExam.sol\":702:714  return false */\n      swap1\n      pop\n        /* \"LoopConditionExam.sol\":546:733  function isEvenNumber(uint _number) private pure returns (bool) {\r... */\n    tag_40:\n      swap2\n      swap1\n      pop\n      jump\t// out\n        /* \"LoopConditionExam.sol\":1009:1195  function isOddNumber(uint _number) private pure returns (bool) {\r... */\n    tag_35:\n        /* \"LoopConditionExam.sol\":1066:1070  bool */\n      0x00\n        /* \"LoopConditionExam.sol\":1102:1103  1 */\n      0x01\n        /* \"LoopConditionExam.sol\":1097:1098  2 */\n      0x02\n        /* \"LoopConditionExam.sol\":1087:1094  _number */\n      dup4\n        /* \"LoopConditionExam.sol\":1087:1098  _number % 2 */\n      dup2\n      tag_45\n      jumpi\n      invalid\n    tag_45:\n      mod\n        /* \"LoopConditionExam.sol\":1087:1103  _number % 2 == 1 */\n      eq\n        /* \"LoopConditionExam.sol\":1083:1188  if (_number % 2 == 1) {\r... */\n      iszero\n      tag_46\n      jumpi\n        /* \"LoopConditionExam.sol\":1127:1131  true */\n      0x01\n        /* \"LoopConditionExam.sol\":1120:1131  return true */\n      swap1\n      pop\n      jump(tag_44)\n        /* \"LoopConditionExam.sol\":1083:1188  if (_number % 2 == 1) {\r... */\n    tag_46:\n        /* \"LoopConditionExam.sol\":1171:1176  false */\n      0x00\n        /* \"LoopConditionExam.sol\":1164:1176  return false */\n      swap1\n      pop\n        /* \"LoopConditionExam.sol\":1009:1195  function isOddNumber(uint _number) private pure returns (bool) {\r... */\n    tag_44:\n      swap2\n      swap1\n      pop\n      jump\t// out\n\n    auxdata: 0xa2646970667358221220d3333ee9b58c4d357100c285f259be4d06e0365ff046c3217e74152926c662a164736f6c634300060c0033\n}\n",
				"bytecode": {
					"linkReferences": {},
					"object": "6080604052604051806101e00160405280600160ff168152602001600260ff168152602001600360ff168152602001600460ff168152602001600560ff168152602001600660ff168152602001600760ff168152602001600860ff168152602001600960ff168152602001600a60ff168152602001600b60ff168152602001600c60ff168152602001600d60ff168152602001600e60ff168152602001600f60ff16815250600090600f6100b4929190610108565b503480156100c157600080fd5b5033600160006101000a81548173ffffffffffffffffffffffffffffffffffffffff021916908373ffffffffffffffffffffffffffffffffffffffff160217905550610177565b828054828255906000526020600020908101928215610149579160200282015b82811115610148578251829060ff16905591602001919060010190610128565b5b509050610156919061015a565b5090565b5b8082111561017357600081600090555060010161015b565b5090565b610306806101866000396000f3fe608060405234801561001057600080fd5b50600436106100575760003560e01c8063306d3e021461005c5780634fa0e6921461007a5780638da5cb5b146100985780638f32d59b146100cc578063d39fa233146100ec575b600080fd5b61006461012e565b6040518082815260200191505060405180910390f35b610082610188565b6040518082815260200191505060405180910390f35b6100a06101e2565b604051808273ffffffffffffffffffffffffffffffffffffffff16815260200191505060405180910390f35b6100d4610208565b60405180821515815260200191505060405180910390f35b6101186004803603602081101561010257600080fd5b8101908080359060200190929190505050610260565b6040518082815260200191505060405180910390f35b6000806000905060005b600080549050811015610180576101656000828154811061015557fe5b9060005260206000200154610281565b156101735781806001019250505b8080600101915050610138565b508091505090565b6000806000905060005b6000805490508110156101da576101bf600082815481106101af57fe5b90600052602060002001546102a8565b156101cd5781806001019250505b8080600101915050610192565b508091505090565b600160009054906101000a900473ffffffffffffffffffffffffffffffffffffffff1681565b6000600160009054906101000a900473ffffffffffffffffffffffffffffffffffffffff1673ffffffffffffffffffffffffffffffffffffffff163373ffffffffffffffffffffffffffffffffffffffff1614905090565b6000818154811061026d57fe5b906000526020600020016000915090505481565b6000806002838161028e57fe5b06141561029e57600190506102a3565b600090505b919050565b60006001600283816102b657fe5b0614156102c657600190506102cb565b600090505b91905056fea2646970667358221220d3333ee9b58c4d357100c285f259be4d06e0365ff046c3217e74152926c662a164736f6c634300060c0033",
					"opcodes": "PUSH1 0x80 PUSH1 0x40 MSTORE PUSH1 0x40 MLOAD DUP1 PUSH2 0x1E0 ADD PUSH1 0x40 MSTORE DUP1 PUSH1 0x1 PUSH1 0xFF AND DUP2 MSTORE PUSH1 0x20 ADD PUSH1 0x2 PUSH1 0xFF AND DUP2 MSTORE PUSH1 0x20 ADD PUSH1 0x3 PUSH1 0xFF AND DUP2 MSTORE PUSH1 0x20 ADD PUSH1 0x4 PUSH1 0xFF AND DUP2 MSTORE PUSH1 0x20 ADD PUSH1 0x5 PUSH1 0xFF AND DUP2 MSTORE PUSH1 0x20 ADD PUSH1 0x6 PUSH1 0xFF AND DUP2 MSTORE PUSH1 0x20 ADD PUSH1 0x7 PUSH1 0xFF AND DUP2 MSTORE PUSH1 0x20 ADD PUSH1 0x8 PUSH1 0xFF AND DUP2 MSTORE PUSH1 0x20 ADD PUSH1 0x9 PUSH1 0xFF AND DUP2 MSTORE PUSH1 0x20 ADD PUSH1 0xA PUSH1 0xFF AND DUP2 MSTORE PUSH1 0x20 ADD PUSH1 0xB PUSH1 0xFF AND DUP2 MSTORE PUSH1 0x20 ADD PUSH1 0xC PUSH1 0xFF AND DUP2 MSTORE PUSH1 0x20 ADD PUSH1 0xD PUSH1 0xFF AND DUP2 MSTORE PUSH1 0x20 ADD PUSH1 0xE PUSH1 0xFF AND DUP2 MSTORE PUSH1 0x20 ADD PUSH1 0xF PUSH1 0xFF AND DUP2 MSTORE POP PUSH1 0x0 SWAP1 PUSH1 0xF PUSH2 0xB4 SWAP3 SWAP2 SWAP1 PUSH2 0x108 JUMP JUMPDEST POP CALLVALUE DUP1 ISZERO PUSH2 0xC1 JUMPI PUSH1 0x0 DUP1 REVERT JUMPDEST POP CALLER PUSH1 0x1 PUSH1 0x0 PUSH2 0x100 EXP DUP2 SLOAD DUP2 PUSH20 0xFFFFFFFFFFFFFFFFFFFFFFFFFFFFFFFFFFFFFFFF MUL NOT AND SWAP1 DUP4 PUSH20 0xFFFFFFFFFFFFFFFFFFFFFFFFFFFFFFFFFFFFFFFF AND MUL OR SWAP1 SSTORE POP PUSH2 0x177 JUMP JUMPDEST DUP3 DUP1 SLOAD DUP3 DUP3 SSTORE SWAP1 PUSH1 0x0 MSTORE PUSH1 0x20 PUSH1 0x0 KECCAK256 SWAP1 DUP2 ADD SWAP3 DUP3 ISZERO PUSH2 0x149 JUMPI SWAP2 PUSH1 0x20 MUL DUP3 ADD JUMPDEST DUP3 DUP2 GT ISZERO PUSH2 0x148 JUMPI DUP3 MLOAD DUP3 SWAP1 PUSH1 0xFF AND SWAP1 SSTORE SWAP2 PUSH1 0x20 ADD SWAP2 SWAP1 PUSH1 0x1 ADD SWAP1 PUSH2 0x128 JUMP JUMPDEST JUMPDEST POP SWAP1 POP PUSH2 0x156 SWAP2 SWAP1 PUSH2 0x15A JUMP JUMPDEST POP SWAP1 JUMP JUMPDEST JUMPDEST DUP1 DUP3 GT ISZERO PUSH2 0x173 JUMPI PUSH1 0x0 DUP2 PUSH1 0x0 SWAP1 SSTORE POP PUSH1 0x1 ADD PUSH2 0x15B JUMP JUMPDEST POP SWAP1 JUMP JUMPDEST PUSH2 0x306 DUP1 PUSH2 0x186 PUSH1 0x0 CODECOPY PUSH1 0x0 RETURN INVALID PUSH1 0x80 PUSH1 0x40 MSTORE CALLVALUE DUP1 ISZERO PUSH2 0x10 JUMPI PUSH1 0x0 DUP1 REVERT JUMPDEST POP PUSH1 0x4 CALLDATASIZE LT PUSH2 0x57 JUMPI PUSH1 0x0 CALLDATALOAD PUSH1 0xE0 SHR DUP1 PUSH4 0x306D3E02 EQ PUSH2 0x5C JUMPI DUP1 PUSH4 0x4FA0E692 EQ PUSH2 0x7A JUMPI DUP1 PUSH4 0x8DA5CB5B EQ PUSH2 0x98 JUMPI DUP1 PUSH4 0x8F32D59B EQ PUSH2 0xCC JUMPI DUP1 PUSH4 0xD39FA233 EQ PUSH2 0xEC JUMPI JUMPDEST PUSH1 0x0 DUP1 REVERT JUMPDEST PUSH2 0x64 PUSH2 0x12E JUMP JUMPDEST PUSH1 0x40 MLOAD DUP1 DUP3 DUP2 MSTORE PUSH1 0x20 ADD SWAP2 POP POP PUSH1 0x40 MLOAD DUP1 SWAP2 SUB SWAP1 RETURN JUMPDEST PUSH2 0x82 PUSH2 0x188 JUMP JUMPDEST PUSH1 0x40 MLOAD DUP1 DUP3 DUP2 MSTORE PUSH1 0x20 ADD SWAP2 POP POP PUSH1 0x40 MLOAD DUP1 SWAP2 SUB SWAP1 RETURN JUMPDEST PUSH2 0xA0 PUSH2 0x1E2 JUMP JUMPDEST PUSH1 0x40 MLOAD DUP1 DUP3 PUSH20 0xFFFFFFFFFFFFFFFFFFFFFFFFFFFFFFFFFFFFFFFF AND DUP2 MSTORE PUSH1 0x20 ADD SWAP2 POP POP PUSH1 0x40 MLOAD DUP1 SWAP2 SUB SWAP1 RETURN JUMPDEST PUSH2 0xD4 PUSH2 0x208 JUMP JUMPDEST PUSH1 0x40 MLOAD DUP1 DUP3 ISZERO ISZERO DUP2 MSTORE PUSH1 0x20 ADD SWAP2 POP POP PUSH1 0x40 MLOAD DUP1 SWAP2 SUB SWAP1 RETURN JUMPDEST PUSH2 0x118 PUSH1 0x4 DUP1 CALLDATASIZE SUB PUSH1 0x20 DUP2 LT ISZERO PUSH2 0x102 JUMPI PUSH1 0x0 DUP1 REVERT JUMPDEST DUP2 ADD SWAP1 DUP1 DUP1 CALLDATALOAD SWAP1 PUSH1 0x20 ADD SWAP1 SWAP3 SWAP2 SWAP1 POP POP POP PUSH2 0x260 JUMP JUMPDEST PUSH1 0x40 MLOAD DUP1 DUP3 DUP2 MSTORE PUSH1 0x20 ADD SWAP2 POP POP PUSH1 0x40 MLOAD DUP1 SWAP2 SUB SWAP1 RETURN JUMPDEST PUSH1 0x0 DUP1 PUSH1 0x0 SWAP1 POP PUSH1 0x0 JUMPDEST PUSH1 0x0 DUP1 SLOAD SWAP1 POP DUP2 LT ISZERO PUSH2 0x180 JUMPI PUSH2 0x165 PUSH1 0x0 DUP3 DUP2 SLOAD DUP2 LT PUSH2 0x155 JUMPI INVALID JUMPDEST SWAP1 PUSH1 0x0 MSTORE PUSH1 0x20 PUSH1 0x0 KECCAK256 ADD SLOAD PUSH2 0x281 JUMP JUMPDEST ISZERO PUSH2 0x173 JUMPI DUP2 DUP1 PUSH1 0x1 ADD SWAP3 POP POP JUMPDEST DUP1 DUP1 PUSH1 0x1 ADD SWAP2 POP POP PUSH2 0x138 JUMP JUMPDEST POP DUP1 SWAP2 POP POP SWAP1 JUMP JUMPDEST PUSH1 0x0 DUP1 PUSH1 0x0 SWAP1 POP PUSH1 0x0 JUMPDEST PUSH1 0x0 DUP1 SLOAD SWAP1 POP DUP2 LT ISZERO PUSH2 0x1DA JUMPI PUSH2 0x1BF PUSH1 0x0 DUP3 DUP2 SLOAD DUP2 LT PUSH2 0x1AF JUMPI INVALID JUMPDEST SWAP1 PUSH1 0x0 MSTORE PUSH1 0x20 PUSH1 0x0 KECCAK256 ADD SLOAD PUSH2 0x2A8 JUMP JUMPDEST ISZERO PUSH2 0x1CD JUMPI DUP2 DUP1 PUSH1 0x1 ADD SWAP3 POP POP JUMPDEST DUP1 DUP1 PUSH1 0x1 ADD SWAP2 POP POP PUSH2 0x192 JUMP JUMPDEST POP DUP1 SWAP2 POP POP SWAP1 JUMP JUMPDEST PUSH1 0x1 PUSH1 0x0 SWAP1 SLOAD SWAP1 PUSH2 0x100 EXP SWAP1 DIV PUSH20 0xFFFFFFFFFFFFFFFFFFFFFFFFFFFFFFFFFFFFFFFF AND DUP2 JUMP JUMPDEST PUSH1 0x0 PUSH1 0x1 PUSH1 0x0 SWAP1 SLOAD SWAP1 PUSH2 0x100 EXP SWAP1 DIV PUSH20 0xFFFFFFFFFFFFFFFFFFFFFFFFFFFFFFFFFFFFFFFF AND PUSH20 0xFFFFFFFFFFFFFFFFFFFFFFFFFFFFFFFFFFFFFFFF AND CALLER PUSH20 0xFFFFFFFFFFFFFFFFFFFFFFFFFFFFFFFFFFFFFFFF AND EQ SWAP1 POP SWAP1 JUMP JUMPDEST PUSH1 0x0 DUP2 DUP2 SLOAD DUP2 LT PUSH2 0x26D JUMPI INVALID JUMPDEST SWAP1 PUSH1 0x0 MSTORE PUSH1 0x20 PUSH1 0x0 KECCAK256 ADD PUSH1 0x0 SWAP2 POP SWAP1 POP SLOAD DUP2 JUMP JUMPDEST PUSH1 0x0 DUP1 PUSH1 0x2 DUP4 DUP2 PUSH2 0x28E JUMPI INVALID JUMPDEST MOD EQ ISZERO PUSH2 0x29E JUMPI PUSH1 0x1 SWAP1 POP PUSH2 0x2A3 JUMP JUMPDEST PUSH1 0x0 SWAP1 POP JUMPDEST SWAP2 SWAP1 POP JUMP JUMPDEST PUSH1 0x0 PUSH1 0x1 PUSH1 0x2 DUP4 DUP2 PUSH2 0x2B6 JUMPI INVALID JUMPDEST MOD EQ ISZERO PUSH2 0x2C6 JUMPI PUSH1 0x1 SWAP1 POP PUSH2 0x2CB JUMP JUMPDEST PUSH1 0x0 SWAP1 POP JUMPDEST SWAP2 SWAP1 POP JUMP INVALID LOG2 PUSH5 0x6970667358 0x22 SLT KECCAK256 0xD3 CALLER RETURNDATACOPY 0xE9 0xB5 DUP13 0x4D CALLDATALOAD PUSH18 0xC285F259BE4D06E0365FF046C3217E7415 0x29 0x26 0xC6 PUSH3 0xA16473 PUSH16 0x6C634300060C00330000000000000000 "
				},
				"gasEstimates": {
					"creation": {
						"codeDepositCost": "154800",
						"executionCost": "infinite",
						"totalCost": "infinite"
					},
					"external": {
						"countEvenNumbers()": "infinite",
						"countOddNumbers()": "infinite",
						"isOwner()": "1116",
						"numbers(uint256)": "2046",
						"owner()": "1069"
					},
					"internal": {
						"isEvenNumber(uint256)": "90",
						"isOddNumber(uint256)": "90"
					}
				},
				"methodIdentifiers": {
					"countEvenNumbers()": "306d3e02",
					"countOddNumbers()": "4fa0e692",
					"isOwner()": "8f32d59b",
					"numbers(uint256)": "d39fa233",
					"owner()": "8da5cb5b"
				}
			},
			"userdoc": {
				"kind": "user",
				"methods": {},
				"version": 1
			}
		}
	}
}