{
	"LoopConditionExam.sol": {
		"LoopCondition": {
			"abi": [
				{
					"inputs": [],
					"stateMutability": "nonpayable",
					"type": "constructor"
				},
				{
					"inputs": [],
					"name": "countEvenNumbers",
					"outputs": [
						{
							"internalType": "uint256",
							"name": "",
							"type": "uint256"
						}
					],
					"stateMutability": "view",
					"type": "function"
				},
				{
					"inputs": [],
					"name": "countOddNumbers",
					"outputs": [
						{
							"internalType": "uint256",
							"name": "",
							"type": "uint256"
						}
					],
					"stateMutability": "view",
					"type": "function"
				},
				{
					"inputs": [
						{
							"internalType": "uint256",
							"name": "_number",
							"type": "uint256"
						}
					],
					"name": "isEvenNumber",
					"outputs": [
						{
							"internalType": "bool",
							"name": "",
							"type": "bool"
						}
					],
					"stateMutability": "pure",
					"type": "function"
				},
				{
					"inputs": [
						{
							"internalType": "uint256",
							"name": "_number",
							"type": "uint256"
						}
					],
					"name": "isOddNumber",
					"outputs": [
						{
							"internalType": "bool",
							"name": "",
							"type": "bool"
						}
					],
					"stateMutability": "pure",
					"type": "function"
				},
				{
					"inputs": [],
					"name": "isOwner",
					"outputs": [
						{
							"internalType": "bool",
							"name": "",
							"type": "bool"
						}
					],
					"stateMutability": "view",
					"type": "function"
				},
				{
					"inputs": [
						{
							"internalType": "uint256",
							"name": "",
							"type": "uint256"
						}
					],
					"name": "numbers",
					"outputs": [
						{
							"internalType": "uint256",
							"name": "",
							"type": "uint256"
						}
					],
					"stateMutability": "view",
					"type": "function"
				},
				{
					"inputs": [],
					"name": "owner",
					"outputs": [
						{
							"internalType": "address",
							"name": "",
							"type": "address"
						}
					],
					"stateMutability": "view",
					"type": "function"
				}
			],
			"devdoc": {
				"kind": "dev",
				"methods": {},
				"version": 1
			},
			"evm": {
				"assembly": "    /* \"LoopConditionExam.sol\":69:1297  contract LoopCondition {\r... */\n  mstore(0x40, 0x80)\n    /* \"LoopConditionExam.sol\":99:174  uint[] public numbers = [1, 2, 3, 4, 5, 6, 7, 8, 9, 10, 11, 12, 13, 14, 15] */\n  mload(0x40)\n  dup1\n  0x01e0\n  add\n  0x40\n  mstore\n  dup1\n    /* \"LoopConditionExam.sol\":124:125  1 */\n  0x01\n    /* \"LoopConditionExam.sol\":99:174  uint[] public numbers = [1, 2, 3, 4, 5, 6, 7, 8, 9, 10, 11, 12, 13, 14, 15] */\n  0xff\n  and\n  dup2\n  mstore\n  0x20\n  add\n    /* \"LoopConditionExam.sol\":127:128  2 */\n  0x02\n    /* \"LoopConditionExam.sol\":99:174  uint[] public numbers = [1, 2, 3, 4, 5, 6, 7, 8, 9, 10, 11, 12, 13, 14, 15] */\n  0xff\n  and\n  dup2\n  mstore\n  0x20\n  add\n    /* \"LoopConditionExam.sol\":130:131  3 */\n  0x03\n    /* \"LoopConditionExam.sol\":99:174  uint[] public numbers = [1, 2, 3, 4, 5, 6, 7, 8, 9, 10, 11, 12, 13, 14, 15] */\n  0xff\n  and\n  dup2\n  mstore\n  0x20\n  add\n    /* \"LoopConditionExam.sol\":133:134  4 */\n  0x04\n    /* \"LoopConditionExam.sol\":99:174  uint[] public numbers = [1, 2, 3, 4, 5, 6, 7, 8, 9, 10, 11, 12, 13, 14, 15] */\n  0xff\n  and\n  dup2\n  mstore\n  0x20\n  add\n    /* \"LoopConditionExam.sol\":136:137  5 */\n  0x05\n    /* \"LoopConditionExam.sol\":99:174  uint[] public numbers = [1, 2, 3, 4, 5, 6, 7, 8, 9, 10, 11, 12, 13, 14, 15] */\n  0xff\n  and\n  dup2\n  mstore\n  0x20\n  add\n    /* \"LoopConditionExam.sol\":139:140  6 */\n  0x06\n    /* \"LoopConditionExam.sol\":99:174  uint[] public numbers = [1, 2, 3, 4, 5, 6, 7, 8, 9, 10, 11, 12, 13, 14, 15] */\n  0xff\n  and\n  dup2\n  mstore\n  0x20\n  add\n    /* \"LoopConditionExam.sol\":142:143  7 */\n  0x07\n    /* \"LoopConditionExam.sol\":99:174  uint[] public numbers = [1, 2, 3, 4, 5, 6, 7, 8, 9, 10, 11, 12, 13, 14, 15] */\n  0xff\n  and\n  dup2\n  mstore\n  0x20\n  add\n    /* \"LoopConditionExam.sol\":145:146  8 */\n  0x08\n    /* \"LoopConditionExam.sol\":99:174  uint[] public numbers = [1, 2, 3, 4, 5, 6, 7, 8, 9, 10, 11, 12, 13, 14, 15] */\n  0xff\n  and\n  dup2\n  mstore\n  0x20\n  add\n    /* \"LoopConditionExam.sol\":148:149  9 */\n  0x09\n    /* \"LoopConditionExam.sol\":99:174  uint[] public numbers = [1, 2, 3, 4, 5, 6, 7, 8, 9, 10, 11, 12, 13, 14, 15] */\n  0xff\n  and\n  dup2\n  mstore\n  0x20\n  add\n    /* \"LoopConditionExam.sol\":151:153  10 */\n  0x0a\n    /* \"LoopConditionExam.sol\":99:174  uint[] public numbers = [1, 2, 3, 4, 5, 6, 7, 8, 9, 10, 11, 12, 13, 14, 15] */\n  0xff\n  and\n  dup2\n  mstore\n  0x20\n  add\n    /* \"LoopConditionExam.sol\":155:157  11 */\n  0x0b\n    /* \"LoopConditionExam.sol\":99:174  uint[] public numbers = [1, 2, 3, 4, 5, 6, 7, 8, 9, 10, 11, 12, 13, 14, 15] */\n  0xff\n  and\n  dup2\n  mstore\n  0x20\n  add\n    /* \"LoopConditionExam.sol\":159:161  12 */\n  0x0c\n    /* \"LoopConditionExam.sol\":99:174  uint[] public numbers = [1, 2, 3, 4, 5, 6, 7, 8, 9, 10, 11, 12, 13, 14, 15] */\n  0xff\n  and\n  dup2\n  mstore\n  0x20\n  add\n    /* \"LoopConditionExam.sol\":163:165  13 */\n  0x0d\n    /* \"LoopConditionExam.sol\":99:174  uint[] public numbers = [1, 2, 3, 4, 5, 6, 7, 8, 9, 10, 11, 12, 13, 14, 15] */\n  0xff\n  and\n  dup2\n  mstore\n  0x20\n  add\n    /* \"LoopConditionExam.sol\":167:169  14 */\n  0x0e\n    /* \"LoopConditionExam.sol\":99:174  uint[] public numbers = [1, 2, 3, 4, 5, 6, 7, 8, 9, 10, 11, 12, 13, 14, 15] */\n  0xff\n  and\n  dup2\n  mstore\n  0x20\n  add\n    /* \"LoopConditionExam.sol\":171:173  15 */\n  0x0f\n    /* \"LoopConditionExam.sol\":99:174  uint[] public numbers = [1, 2, 3, 4, 5, 6, 7, 8, 9, 10, 11, 12, 13, 14, 15] */\n  0xff\n  and\n  dup2\n  mstore\n  pop\n  0x00\n  swap1\n  0x0f\n  tag_1\n  swap3\n  swap2\n  swap1\n  tag_2\n  jump\t// in\ntag_1:\n  pop\n    /* \"LoopConditionExam.sol\":210:268  constructor() public {\r... */\n  callvalue\n  dup1\n  iszero\n  tag_3\n  jumpi\n  0x00\n  dup1\n  revert\ntag_3:\n  pop\n    /* \"LoopConditionExam.sol\":250:260  msg.sender */\n  caller\n    /* \"LoopConditionExam.sol\":242:247  owner */\n  0x01\n  0x00\n    /* \"LoopConditionExam.sol\":242:260  owner = msg.sender */\n  0x0100\n  exp\n  dup2\n  sload\n  dup2\n  0xffffffffffffffffffffffffffffffffffffffff\n  mul\n  not\n  and\n  swap1\n  dup4\n  0xffffffffffffffffffffffffffffffffffffffff\n  and\n  mul\n  or\n  swap1\n  sstore\n  pop\n    /* \"LoopConditionExam.sol\":69:1297  contract LoopCondition {\r... */\n  jump(tag_6)\ntag_2:\n  dup3\n  dup1\n  sload\n  dup3\n  dup3\n  sstore\n  swap1\n  0x00\n  mstore\n  keccak256(0x00, 0x20)\n  swap1\n  dup2\n  add\n  swap3\n  dup3\n  iszero\n  tag_7\n  jumpi\n  swap2\n  0x20\n  mul\n  dup3\n  add\ntag_8:\n  dup3\n  dup2\n  gt\n  iszero\n  tag_9\n  jumpi\n  dup3\n  mload\n  dup3\n  swap1\n  0xff\n  and\n  swap1\n  sstore\n  swap2\n  0x20\n  add\n  swap2\n  swap1\n  0x01\n  add\n  swap1\n  jump(tag_8)\ntag_9:\ntag_7:\n  pop\n  swap1\n  pop\n  tag_10\n  swap2\n  swap1\n  tag_11\n  jump\t// in\ntag_10:\n  pop\n  swap1\n  jump\t// out\ntag_11:\ntag_12:\n  dup1\n  dup3\n  gt\n  iszero\n  tag_13\n  jumpi\n  0x00\n  dup2\n  0x00\n  swap1\n  sstore\n  pop\n  0x01\n  add\n  jump(tag_12)\ntag_13:\n  pop\n  swap1\n  jump\t// out\ntag_6:\n  dataSize(sub_0)\n  dup1\n  dataOffset(sub_0)\n  0x00\n  codecopy\n  0x00\n  return\nstop\n\nsub_0: assembly {\n        /* \"LoopConditionExam.sol\":69:1297  contract LoopCondition {\r... */\n      mstore(0x40, 0x80)\n      callvalue\n      dup1\n      iszero\n      tag_1\n      jumpi\n      0x00\n      dup1\n      revert\n    tag_1:\n      pop\n      jumpi(tag_2, lt(calldatasize, 0x04))\n      shr(0xe0, calldataload(0x00))\n      dup1\n      0x8f32d59b\n      gt\n      tag_10\n      jumpi\n      dup1\n      0x8f32d59b\n      eq\n      tag_6\n      jumpi\n      dup1\n      0xd39fa233\n      eq\n      tag_7\n      jumpi\n      dup1\n      0xe5054c69\n      eq\n      tag_8\n      jumpi\n      dup1\n      0xed2cfc9c\n      eq\n      tag_9\n      jumpi\n      jump(tag_2)\n    tag_10:\n      dup1\n      0x306d3e02\n      eq\n      tag_3\n      jumpi\n      dup1\n      0x4fa0e692\n      eq\n      tag_4\n      jumpi\n      dup1\n      0x8da5cb5b\n      eq\n      tag_5\n      jumpi\n    tag_2:\n      0x00\n      dup1\n      revert\n        /* \"LoopConditionExam.sol\":276:540  function countEvenNumbers() public view returns (uint) {\r... */\n    tag_3:\n      tag_11\n      tag_12\n      jump\t// in\n    tag_11:\n      mload(0x40)\n      dup1\n      dup3\n      dup2\n      mstore\n      0x20\n      add\n      swap2\n      pop\n      pop\n      mload(0x40)\n      dup1\n      swap2\n      sub\n      swap1\n      return\n        /* \"LoopConditionExam.sol\":740:1002  function countOddNumbers() public view returns (uint) {\r... */\n    tag_4:\n      tag_13\n      tag_14\n      jump\t// in\n    tag_13:\n      mload(0x40)\n      dup1\n      dup3\n      dup2\n      mstore\n      0x20\n      add\n      swap2\n      pop\n      pop\n      mload(0x40)\n      dup1\n      swap2\n      sub\n      swap1\n      return\n        /* \"LoopConditionExam.sol\":181:201  address public owner */\n    tag_5:\n      tag_15\n      tag_16\n      jump\t// in\n    tag_15:\n      mload(0x40)\n      dup1\n      dup3\n      0xffffffffffffffffffffffffffffffffffffffff\n      and\n      dup2\n      mstore\n      0x20\n      add\n      swap2\n      pop\n      pop\n      mload(0x40)\n      dup1\n      swap2\n      sub\n      swap1\n      return\n        /* \"LoopConditionExam.sol\":1201:1294  function isOwner() public view returns (bool) {\r... */\n    tag_6:\n      tag_17\n      tag_18\n      jump\t// in\n    tag_17:\n      mload(0x40)\n      dup1\n      dup3\n      iszero\n      iszero\n      dup2\n      mstore\n      0x20\n      add\n      swap2\n      pop\n      pop\n      mload(0x40)\n      dup1\n      swap2\n      sub\n      swap1\n      return\n        /* \"LoopConditionExam.sol\":99:174  uint[] public numbers = [1, 2, 3, 4, 5, 6, 7, 8, 9, 10, 11, 12, 13, 14, 15] */\n    tag_7:\n      tag_19\n      0x04\n      dup1\n      calldatasize\n      sub\n      0x20\n      dup2\n      lt\n      iszero\n      tag_20\n      jumpi\n      0x00\n      dup1\n      revert\n    tag_20:\n      dup2\n      add\n      swap1\n      dup1\n      dup1\n      calldataload\n      swap1\n      0x20\n      add\n      swap1\n      swap3\n      swap2\n      swap1\n      pop\n      pop\n      pop\n      tag_21\n      jump\t// in\n    tag_19:\n      mload(0x40)\n      dup1\n      dup3\n      dup2\n      mstore\n      0x20\n      add\n      swap2\n      pop\n      pop\n      mload(0x40)\n      dup1\n      swap2\n      sub\n      swap1\n      return\n        /* \"LoopConditionExam.sol\":546:732  function isEvenNumber(uint _number) public pure returns (bool) {\r... */\n    tag_8:\n      tag_22\n      0x04\n      dup1\n      calldatasize\n      sub\n      0x20\n      dup2\n      lt\n      iszero\n      tag_23\n      jumpi\n      0x00\n      dup1\n      revert\n    tag_23:\n      dup2\n      add\n      swap1\n      dup1\n      dup1\n      calldataload\n      swap1\n      0x20\n      add\n      swap1\n      swap3\n      swap2\n      swap1\n      pop\n      pop\n      pop\n      tag_24\n      jump\t// in\n    tag_22:\n      mload(0x40)\n      dup1\n      dup3\n      iszero\n      iszero\n      dup2\n      mstore\n      0x20\n      add\n      swap2\n      pop\n      pop\n      mload(0x40)\n      dup1\n      swap2\n      sub\n      swap1\n      return\n        /* \"LoopConditionExam.sol\":1008:1193  function isOddNumber(uint _number) public pure returns (bool) {\r... */\n    tag_9:\n      tag_25\n      0x04\n      dup1\n      calldatasize\n      sub\n      0x20\n      dup2\n      lt\n      iszero\n      tag_26\n      jumpi\n      0x00\n      dup1\n      revert\n    tag_26:\n      dup2\n      add\n      swap1\n      dup1\n      dup1\n      calldataload\n      swap1\n      0x20\n      add\n      swap1\n      swap3\n      swap2\n      swap1\n      pop\n      pop\n      pop\n      tag_27\n      jump\t// in\n    tag_25:\n      mload(0x40)\n      dup1\n      dup3\n      iszero\n      iszero\n      dup2\n      mstore\n      0x20\n      add\n      swap2\n      pop\n      pop\n      mload(0x40)\n      dup1\n      swap2\n      sub\n      swap1\n      return\n        /* \"LoopConditionExam.sol\":276:540  function countEvenNumbers() public view returns (uint) {\r... */\n    tag_12:\n        /* \"LoopConditionExam.sol\":325:329  uint */\n      0x00\n        /* \"LoopConditionExam.sol\":342:352  uint count */\n      dup1\n        /* \"LoopConditionExam.sol\":355:356  0 */\n      0x00\n        /* \"LoopConditionExam.sol\":342:356  uint count = 0 */\n      swap1\n      pop\n        /* \"LoopConditionExam.sol\":372:378  uint i */\n      0x00\n        /* \"LoopConditionExam.sol\":367:508  for (uint i = 0; i < numbers.length; i++) {\r... */\n    tag_29:\n        /* \"LoopConditionExam.sol\":388:395  numbers */\n      0x00\n        /* \"LoopConditionExam.sol\":388:402  numbers.length */\n      dup1\n      sload\n      swap1\n      pop\n        /* \"LoopConditionExam.sol\":384:385  i */\n      dup2\n        /* \"LoopConditionExam.sol\":384:402  i < numbers.length */\n      lt\n        /* \"LoopConditionExam.sol\":367:508  for (uint i = 0; i < numbers.length; i++) {\r... */\n      iszero\n      tag_30\n      jumpi\n        /* \"LoopConditionExam.sol\":428:452  isEvenNumber(numbers[i]) */\n      tag_32\n        /* \"LoopConditionExam.sol\":441:448  numbers */\n      0x00\n        /* \"LoopConditionExam.sol\":449:450  i */\n      dup3\n        /* \"LoopConditionExam.sol\":441:451  numbers[i] */\n      dup2\n      sload\n      dup2\n      lt\n      tag_33\n      jumpi\n      invalid\n    tag_33:\n      swap1\n      0x00\n      mstore\n      keccak256(0x00, 0x20)\n      add\n      sload\n        /* \"LoopConditionExam.sol\":428:440  isEvenNumber */\n      tag_24\n        /* \"LoopConditionExam.sol\":428:452  isEvenNumber(numbers[i]) */\n      jump\t// in\n    tag_32:\n        /* \"LoopConditionExam.sol\":424:497  if (isEvenNumber(numbers[i])) {\r... */\n      iszero\n      tag_35\n      jumpi\n        /* \"LoopConditionExam.sol\":473:481  count ++ */\n      dup2\n      dup1\n      0x01\n      add\n      swap3\n      pop\n      pop\n        /* \"LoopConditionExam.sol\":424:497  if (isEvenNumber(numbers[i])) {\r... */\n    tag_35:\n        /* \"LoopConditionExam.sol\":404:407  i++ */\n      dup1\n      dup1\n      0x01\n      add\n      swap2\n      pop\n      pop\n        /* \"LoopConditionExam.sol\":367:508  for (uint i = 0; i < numbers.length; i++) {\r... */\n      jump(tag_29)\n    tag_30:\n      pop\n        /* \"LoopConditionExam.sol\":527:532  count */\n      dup1\n        /* \"LoopConditionExam.sol\":520:532  return count */\n      swap2\n      pop\n      pop\n        /* \"LoopConditionExam.sol\":276:540  function countEvenNumbers() public view returns (uint) {\r... */\n      swap1\n      jump\t// out\n        /* \"LoopConditionExam.sol\":740:1002  function countOddNumbers() public view returns (uint) {\r... */\n    tag_14:\n        /* \"LoopConditionExam.sol\":788:792  uint */\n      0x00\n        /* \"LoopConditionExam.sol\":805:815  uint count */\n      dup1\n        /* \"LoopConditionExam.sol\":818:819  0 */\n      0x00\n        /* \"LoopConditionExam.sol\":805:819  uint count = 0 */\n      swap1\n      pop\n        /* \"LoopConditionExam.sol\":835:841  uint i */\n      0x00\n        /* \"LoopConditionExam.sol\":830:970  for (uint i = 0; i < numbers.length; i++) {\r... */\n    tag_37:\n        /* \"LoopConditionExam.sol\":851:858  numbers */\n      0x00\n        /* \"LoopConditionExam.sol\":851:865  numbers.length */\n      dup1\n      sload\n      swap1\n      pop\n        /* \"LoopConditionExam.sol\":847:848  i */\n      dup2\n        /* \"LoopConditionExam.sol\":847:865  i < numbers.length */\n      lt\n        /* \"LoopConditionExam.sol\":830:970  for (uint i = 0; i < numbers.length; i++) {\r... */\n      iszero\n      tag_38\n      jumpi\n        /* \"LoopConditionExam.sol\":891:914  isOddNumber(numbers[i]) */\n      tag_40\n        /* \"LoopConditionExam.sol\":903:910  numbers */\n      0x00\n        /* \"LoopConditionExam.sol\":911:912  i */\n      dup3\n        /* \"LoopConditionExam.sol\":903:913  numbers[i] */\n      dup2\n      sload\n      dup2\n      lt\n      tag_41\n      jumpi\n      invalid\n    tag_41:\n      swap1\n      0x00\n      mstore\n      keccak256(0x00, 0x20)\n      add\n      sload\n        /* \"LoopConditionExam.sol\":891:902  isOddNumber */\n      tag_27\n        /* \"LoopConditionExam.sol\":891:914  isOddNumber(numbers[i]) */\n      jump\t// in\n    tag_40:\n        /* \"LoopConditionExam.sol\":887:959  if (isOddNumber(numbers[i])) {\r... */\n      iszero\n      tag_43\n      jumpi\n        /* \"LoopConditionExam.sol\":935:943  count ++ */\n      dup2\n      dup1\n      0x01\n      add\n      swap3\n      pop\n      pop\n        /* \"LoopConditionExam.sol\":887:959  if (isOddNumber(numbers[i])) {\r... */\n    tag_43:\n        /* \"LoopConditionExam.sol\":867:870  i++ */\n      dup1\n      dup1\n      0x01\n      add\n      swap2\n      pop\n      pop\n        /* \"LoopConditionExam.sol\":830:970  for (uint i = 0; i < numbers.length; i++) {\r... */\n      jump(tag_37)\n    tag_38:\n      pop\n        /* \"LoopConditionExam.sol\":989:994  count */\n      dup1\n        /* \"LoopConditionExam.sol\":982:994  return count */\n      swap2\n      pop\n      pop\n        /* \"LoopConditionExam.sol\":740:1002  function countOddNumbers() public view returns (uint) {\r... */\n      swap1\n      jump\t// out\n        /* \"LoopConditionExam.sol\":181:201  address public owner */\n    tag_16:\n      0x01\n      0x00\n      swap1\n      sload\n      swap1\n      0x0100\n      exp\n      swap1\n      div\n      0xffffffffffffffffffffffffffffffffffffffff\n      and\n      dup2\n      jump\t// out\n        /* \"LoopConditionExam.sol\":1201:1294  function isOwner() public view returns (bool) {\r... */\n    tag_18:\n        /* \"LoopConditionExam.sol\":1241:1245  bool */\n      0x00\n        /* \"LoopConditionExam.sol\":1280:1285  owner */\n      0x01\n      0x00\n      swap1\n      sload\n      swap1\n      0x0100\n      exp\n      swap1\n      div\n      0xffffffffffffffffffffffffffffffffffffffff\n      and\n        /* \"LoopConditionExam.sol\":1266:1285  msg.sender == owner */\n      0xffffffffffffffffffffffffffffffffffffffff\n      and\n        /* \"LoopConditionExam.sol\":1266:1276  msg.sender */\n      caller\n        /* \"LoopConditionExam.sol\":1266:1285  msg.sender == owner */\n      0xffffffffffffffffffffffffffffffffffffffff\n      and\n      eq\n        /* \"LoopConditionExam.sol\":1258:1286  return (msg.sender == owner) */\n      swap1\n      pop\n        /* \"LoopConditionExam.sol\":1201:1294  function isOwner() public view returns (bool) {\r... */\n      swap1\n      jump\t// out\n        /* \"LoopConditionExam.sol\":99:174  uint[] public numbers = [1, 2, 3, 4, 5, 6, 7, 8, 9, 10, 11, 12, 13, 14, 15] */\n    tag_21:\n      0x00\n      dup2\n      dup2\n      sload\n      dup2\n      lt\n      tag_45\n      jumpi\n      invalid\n    tag_45:\n      swap1\n      0x00\n      mstore\n      keccak256(0x00, 0x20)\n      add\n      0x00\n      swap2\n      pop\n      swap1\n      pop\n      sload\n      dup2\n      jump\t// out\n        /* \"LoopConditionExam.sol\":546:732  function isEvenNumber(uint _number) public pure returns (bool) {\r... */\n    tag_24:\n        /* \"LoopConditionExam.sol\":603:607  bool */\n      0x00\n        /* \"LoopConditionExam.sol\":639:640  0 */\n      dup1\n        /* \"LoopConditionExam.sol\":634:635  2 */\n      0x02\n        /* \"LoopConditionExam.sol\":624:631  _number */\n      dup4\n        /* \"LoopConditionExam.sol\":624:635  _number % 2 */\n      dup2\n      tag_48\n      jumpi\n      invalid\n    tag_48:\n      mod\n        /* \"LoopConditionExam.sol\":624:640  _number % 2 == 0 */\n      eq\n        /* \"LoopConditionExam.sol\":620:725  if (_number % 2 == 0) {\r... */\n      iszero\n      tag_49\n      jumpi\n        /* \"LoopConditionExam.sol\":664:668  true */\n      0x01\n        /* \"LoopConditionExam.sol\":657:668  return true */\n      swap1\n      pop\n      jump(tag_47)\n        /* \"LoopConditionExam.sol\":620:725  if (_number % 2 == 0) {\r... */\n    tag_49:\n        /* \"LoopConditionExam.sol\":708:713  false */\n      0x00\n        /* \"LoopConditionExam.sol\":701:713  return false */\n      swap1\n      pop\n        /* \"LoopConditionExam.sol\":546:732  function isEvenNumber(uint _number) public pure returns (bool) {\r... */\n    tag_47:\n      swap2\n      swap1\n      pop\n      jump\t// out\n        /* \"LoopConditionExam.sol\":1008:1193  function isOddNumber(uint _number) public pure returns (bool) {\r... */\n    tag_27:\n        /* \"LoopConditionExam.sol\":1064:1068  bool */\n      0x00\n        /* \"LoopConditionExam.sol\":1100:1101  1 */\n      0x01\n        /* \"LoopConditionExam.sol\":1095:1096  2 */\n      0x02\n        /* \"LoopConditionExam.sol\":1085:1092  _number */\n      dup4\n        /* \"LoopConditionExam.sol\":1085:1096  _number % 2 */\n      dup2\n      tag_52\n      jumpi\n      invalid\n    tag_52:\n      mod\n        /* \"LoopConditionExam.sol\":1085:1101  _number % 2 == 1 */\n      eq\n        /* \"LoopConditionExam.sol\":1081:1186  if (_number % 2 == 1) {\r... */\n      iszero\n      tag_53\n      jumpi\n        /* \"LoopConditionExam.sol\":1125:1129  true */\n      0x01\n        /* \"LoopConditionExam.sol\":1118:1129  return true */\n      swap1\n      pop\n      jump(tag_51)\n        /* \"LoopConditionExam.sol\":1081:1186  if (_number % 2 == 1) {\r... */\n    tag_53:\n        /* \"LoopConditionExam.sol\":1169:1174  false */\n      0x00\n        /* \"LoopConditionExam.sol\":1162:1174  return false */\n      swap1\n      pop\n        /* \"LoopConditionExam.sol\":1008:1193  function isOddNumber(uint _number) public pure returns (bool) {\r... */\n    tag_51:\n      swap2\n      swap1\n      pop\n      jump\t// out\n\n    auxdata: 0xa26469706673582212205e2cc1c64c22e4b7a59b79dabbd3cfe182a19a19d2294f5cf0f2ff9b2efdc76764736f6c634300060c0033\n}\n",
				"bytecode": {
					"linkReferences": {},
					"object": "6080604052604051806101e00160405280600160ff168152602001600260ff168152602001600360ff168152602001600460ff168152602001600560ff168152602001600660ff168152602001600760ff168152602001600860ff168152602001600960ff168152602001600a60ff168152602001600b60ff168152602001600c60ff168152602001600d60ff168152602001600e60ff168152602001600f60ff16815250600090600f6100b4929190610108565b503480156100c157600080fd5b5033600160006101000a81548173ffffffffffffffffffffffffffffffffffffffff021916908373ffffffffffffffffffffffffffffffffffffffff160217905550610177565b828054828255906000526020600020908101928215610149579160200282015b82811115610148578251829060ff16905591602001919060010190610128565b5b509050610156919061015a565b5090565b5b8082111561017357600081600090555060010161015b565b5090565b6103b4806101866000396000f3fe608060405234801561001057600080fd5b506004361061007d5760003560e01c80638f32d59b1161005b5780638f32d59b146100f2578063d39fa23314610112578063e5054c6914610154578063ed2cfc9c146101985761007d565b8063306d3e02146100825780634fa0e692146100a05780638da5cb5b146100be575b600080fd5b61008a6101dc565b6040518082815260200191505060405180910390f35b6100a8610236565b6040518082815260200191505060405180910390f35b6100c6610290565b604051808273ffffffffffffffffffffffffffffffffffffffff16815260200191505060405180910390f35b6100fa6102b6565b60405180821515815260200191505060405180910390f35b61013e6004803603602081101561012857600080fd5b810190808035906020019092919050505061030e565b6040518082815260200191505060405180910390f35b6101806004803603602081101561016a57600080fd5b810190808035906020019092919050505061032f565b60405180821515815260200191505060405180910390f35b6101c4600480360360208110156101ae57600080fd5b8101908080359060200190929190505050610356565b60405180821515815260200191505060405180910390f35b6000806000905060005b60008054905081101561022e576102136000828154811061020357fe5b906000526020600020015461032f565b156102215781806001019250505b80806001019150506101e6565b508091505090565b6000806000905060005b6000805490508110156102885761026d6000828154811061025d57fe5b9060005260206000200154610356565b1561027b5781806001019250505b8080600101915050610240565b508091505090565b600160009054906101000a900473ffffffffffffffffffffffffffffffffffffffff1681565b6000600160009054906101000a900473ffffffffffffffffffffffffffffffffffffffff1673ffffffffffffffffffffffffffffffffffffffff163373ffffffffffffffffffffffffffffffffffffffff1614905090565b6000818154811061031b57fe5b906000526020600020016000915090505481565b6000806002838161033c57fe5b06141561034c5760019050610351565b600090505b919050565b600060016002838161036457fe5b0614156103745760019050610379565b600090505b91905056fea26469706673582212205e2cc1c64c22e4b7a59b79dabbd3cfe182a19a19d2294f5cf0f2ff9b2efdc76764736f6c634300060c0033",
					"opcodes": "PUSH1 0x80 PUSH1 0x40 MSTORE PUSH1 0x40 MLOAD DUP1 PUSH2 0x1E0 ADD PUSH1 0x40 MSTORE DUP1 PUSH1 0x1 PUSH1 0xFF AND DUP2 MSTORE PUSH1 0x20 ADD PUSH1 0x2 PUSH1 0xFF AND DUP2 MSTORE PUSH1 0x20 ADD PUSH1 0x3 PUSH1 0xFF AND DUP2 MSTORE PUSH1 0x20 ADD PUSH1 0x4 PUSH1 0xFF AND DUP2 MSTORE PUSH1 0x20 ADD PUSH1 0x5 PUSH1 0xFF AND DUP2 MSTORE PUSH1 0x20 ADD PUSH1 0x6 PUSH1 0xFF AND DUP2 MSTORE PUSH1 0x20 ADD PUSH1 0x7 PUSH1 0xFF AND DUP2 MSTORE PUSH1 0x20 ADD PUSH1 0x8 PUSH1 0xFF AND DUP2 MSTORE PUSH1 0x20 ADD PUSH1 0x9 PUSH1 0xFF AND DUP2 MSTORE PUSH1 0x20 ADD PUSH1 0xA PUSH1 0xFF AND DUP2 MSTORE PUSH1 0x20 ADD PUSH1 0xB PUSH1 0xFF AND DUP2 MSTORE PUSH1 0x20 ADD PUSH1 0xC PUSH1 0xFF AND DUP2 MSTORE PUSH1 0x20 ADD PUSH1 0xD PUSH1 0xFF AND DUP2 MSTORE PUSH1 0x20 ADD PUSH1 0xE PUSH1 0xFF AND DUP2 MSTORE PUSH1 0x20 ADD PUSH1 0xF PUSH1 0xFF AND DUP2 MSTORE POP PUSH1 0x0 SWAP1 PUSH1 0xF PUSH2 0xB4 SWAP3 SWAP2 SWAP1 PUSH2 0x108 JUMP JUMPDEST POP CALLVALUE DUP1 ISZERO PUSH2 0xC1 JUMPI PUSH1 0x0 DUP1 REVERT JUMPDEST POP CALLER PUSH1 0x1 PUSH1 0x0 PUSH2 0x100 EXP DUP2 SLOAD DUP2 PUSH20 0xFFFFFFFFFFFFFFFFFFFFFFFFFFFFFFFFFFFFFFFF MUL NOT AND SWAP1 DUP4 PUSH20 0xFFFFFFFFFFFFFFFFFFFFFFFFFFFFFFFFFFFFFFFF AND MUL OR SWAP1 SSTORE POP PUSH2 0x177 JUMP JUMPDEST DUP3 DUP1 SLOAD DUP3 DUP3 SSTORE SWAP1 PUSH1 0x0 MSTORE PUSH1 0x20 PUSH1 0x0 KECCAK256 SWAP1 DUP2 ADD SWAP3 DUP3 ISZERO PUSH2 0x149 JUMPI SWAP2 PUSH1 0x20 MUL DUP3 ADD JUMPDEST DUP3 DUP2 GT ISZERO PUSH2 0x148 JUMPI DUP3 MLOAD DUP3 SWAP1 PUSH1 0xFF AND SWAP1 SSTORE SWAP2 PUSH1 0x20 ADD SWAP2 SWAP1 PUSH1 0x1 ADD SWAP1 PUSH2 0x128 JUMP JUMPDEST JUMPDEST POP SWAP1 POP PUSH2 0x156 SWAP2 SWAP1 PUSH2 0x15A JUMP JUMPDEST POP SWAP1 JUMP JUMPDEST JUMPDEST DUP1 DUP3 GT ISZERO PUSH2 0x173 JUMPI PUSH1 0x0 DUP2 PUSH1 0x0 SWAP1 SSTORE POP PUSH1 0x1 ADD PUSH2 0x15B JUMP JUMPDEST POP SWAP1 JUMP JUMPDEST PUSH2 0x3B4 DUP1 PUSH2 0x186 PUSH1 0x0 CODECOPY PUSH1 0x0 RETURN INVALID PUSH1 0x80 PUSH1 0x40 MSTORE CALLVALUE DUP1 ISZERO PUSH2 0x10 JUMPI PUSH1 0x0 DUP1 REVERT JUMPDEST POP PUSH1 0x4 CALLDATASIZE LT PUSH2 0x7D JUMPI PUSH1 0x0 CALLDATALOAD PUSH1 0xE0 SHR DUP1 PUSH4 0x8F32D59B GT PUSH2 0x5B JUMPI DUP1 PUSH4 0x8F32D59B EQ PUSH2 0xF2 JUMPI DUP1 PUSH4 0xD39FA233 EQ PUSH2 0x112 JUMPI DUP1 PUSH4 0xE5054C69 EQ PUSH2 0x154 JUMPI DUP1 PUSH4 0xED2CFC9C EQ PUSH2 0x198 JUMPI PUSH2 0x7D JUMP JUMPDEST DUP1 PUSH4 0x306D3E02 EQ PUSH2 0x82 JUMPI DUP1 PUSH4 0x4FA0E692 EQ PUSH2 0xA0 JUMPI DUP1 PUSH4 0x8DA5CB5B EQ PUSH2 0xBE JUMPI JUMPDEST PUSH1 0x0 DUP1 REVERT JUMPDEST PUSH2 0x8A PUSH2 0x1DC JUMP JUMPDEST PUSH1 0x40 MLOAD DUP1 DUP3 DUP2 MSTORE PUSH1 0x20 ADD SWAP2 POP POP PUSH1 0x40 MLOAD DUP1 SWAP2 SUB SWAP1 RETURN JUMPDEST PUSH2 0xA8 PUSH2 0x236 JUMP JUMPDEST PUSH1 0x40 MLOAD DUP1 DUP3 DUP2 MSTORE PUSH1 0x20 ADD SWAP2 POP POP PUSH1 0x40 MLOAD DUP1 SWAP2 SUB SWAP1 RETURN JUMPDEST PUSH2 0xC6 PUSH2 0x290 JUMP JUMPDEST PUSH1 0x40 MLOAD DUP1 DUP3 PUSH20 0xFFFFFFFFFFFFFFFFFFFFFFFFFFFFFFFFFFFFFFFF AND DUP2 MSTORE PUSH1 0x20 ADD SWAP2 POP POP PUSH1 0x40 MLOAD DUP1 SWAP2 SUB SWAP1 RETURN JUMPDEST PUSH2 0xFA PUSH2 0x2B6 JUMP JUMPDEST PUSH1 0x40 MLOAD DUP1 DUP3 ISZERO ISZERO DUP2 MSTORE PUSH1 0x20 ADD SWAP2 POP POP PUSH1 0x40 MLOAD DUP1 SWAP2 SUB SWAP1 RETURN JUMPDEST PUSH2 0x13E PUSH1 0x4 DUP1 CALLDATASIZE SUB PUSH1 0x20 DUP2 LT ISZERO PUSH2 0x128 JUMPI PUSH1 0x0 DUP1 REVERT JUMPDEST DUP2 ADD SWAP1 DUP1 DUP1 CALLDATALOAD SWAP1 PUSH1 0x20 ADD SWAP1 SWAP3 SWAP2 SWAP1 POP POP POP PUSH2 0x30E JUMP JUMPDEST PUSH1 0x40 MLOAD DUP1 DUP3 DUP2 MSTORE PUSH1 0x20 ADD SWAP2 POP POP PUSH1 0x40 MLOAD DUP1 SWAP2 SUB SWAP1 RETURN JUMPDEST PUSH2 0x180 PUSH1 0x4 DUP1 CALLDATASIZE SUB PUSH1 0x20 DUP2 LT ISZERO PUSH2 0x16A JUMPI PUSH1 0x0 DUP1 REVERT JUMPDEST DUP2 ADD SWAP1 DUP1 DUP1 CALLDATALOAD SWAP1 PUSH1 0x20 ADD SWAP1 SWAP3 SWAP2 SWAP1 POP POP POP PUSH2 0x32F JUMP JUMPDEST PUSH1 0x40 MLOAD DUP1 DUP3 ISZERO ISZERO DUP2 MSTORE PUSH1 0x20 ADD SWAP2 POP POP PUSH1 0x40 MLOAD DUP1 SWAP2 SUB SWAP1 RETURN JUMPDEST PUSH2 0x1C4 PUSH1 0x4 DUP1 CALLDATASIZE SUB PUSH1 0x20 DUP2 LT ISZERO PUSH2 0x1AE JUMPI PUSH1 0x0 DUP1 REVERT JUMPDEST DUP2 ADD SWAP1 DUP1 DUP1 CALLDATALOAD SWAP1 PUSH1 0x20 ADD SWAP1 SWAP3 SWAP2 SWAP1 POP POP POP PUSH2 0x356 JUMP JUMPDEST PUSH1 0x40 MLOAD DUP1 DUP3 ISZERO ISZERO DUP2 MSTORE PUSH1 0x20 ADD SWAP2 POP POP PUSH1 0x40 MLOAD DUP1 SWAP2 SUB SWAP1 RETURN JUMPDEST PUSH1 0x0 DUP1 PUSH1 0x0 SWAP1 POP PUSH1 0x0 JUMPDEST PUSH1 0x0 DUP1 SLOAD SWAP1 POP DUP2 LT ISZERO PUSH2 0x22E JUMPI PUSH2 0x213 PUSH1 0x0 DUP3 DUP2 SLOAD DUP2 LT PUSH2 0x203 JUMPI INVALID JUMPDEST SWAP1 PUSH1 0x0 MSTORE PUSH1 0x20 PUSH1 0x0 KECCAK256 ADD SLOAD PUSH2 0x32F JUMP JUMPDEST ISZERO PUSH2 0x221 JUMPI DUP2 DUP1 PUSH1 0x1 ADD SWAP3 POP POP JUMPDEST DUP1 DUP1 PUSH1 0x1 ADD SWAP2 POP POP PUSH2 0x1E6 JUMP JUMPDEST POP DUP1 SWAP2 POP POP SWAP1 JUMP JUMPDEST PUSH1 0x0 DUP1 PUSH1 0x0 SWAP1 POP PUSH1 0x0 JUMPDEST PUSH1 0x0 DUP1 SLOAD SWAP1 POP DUP2 LT ISZERO PUSH2 0x288 JUMPI PUSH2 0x26D PUSH1 0x0 DUP3 DUP2 SLOAD DUP2 LT PUSH2 0x25D JUMPI INVALID JUMPDEST SWAP1 PUSH1 0x0 MSTORE PUSH1 0x20 PUSH1 0x0 KECCAK256 ADD SLOAD PUSH2 0x356 JUMP JUMPDEST ISZERO PUSH2 0x27B JUMPI DUP2 DUP1 PUSH1 0x1 ADD SWAP3 POP POP JUMPDEST DUP1 DUP1 PUSH1 0x1 ADD SWAP2 POP POP PUSH2 0x240 JUMP JUMPDEST POP DUP1 SWAP2 POP POP SWAP1 JUMP JUMPDEST PUSH1 0x1 PUSH1 0x0 SWAP1 SLOAD SWAP1 PUSH2 0x100 EXP SWAP1 DIV PUSH20 0xFFFFFFFFFFFFFFFFFFFFFFFFFFFFFFFFFFFFFFFF AND DUP2 JUMP JUMPDEST PUSH1 0x0 PUSH1 0x1 PUSH1 0x0 SWAP1 SLOAD SWAP1 PUSH2 0x100 EXP SWAP1 DIV PUSH20 0xFFFFFFFFFFFFFFFFFFFFFFFFFFFFFFFFFFFFFFFF AND PUSH20 0xFFFFFFFFFFFFFFFFFFFFFFFFFFFFFFFFFFFFFFFF AND CALLER PUSH20 0xFFFFFFFFFFFFFFFFFFFFFFFFFFFFFFFFFFFFFFFF AND EQ SWAP1 POP SWAP1 JUMP JUMPDEST PUSH1 0x0 DUP2 DUP2 SLOAD DUP2 LT PUSH2 0x31B JUMPI INVALID JUMPDEST SWAP1 PUSH1 0x0 MSTORE PUSH1 0x20 PUSH1 0x0 KECCAK256 ADD PUSH1 0x0 SWAP2 POP SWAP1 POP SLOAD DUP2 JUMP JUMPDEST PUSH1 0x0 DUP1 PUSH1 0x2 DUP4 DUP2 PUSH2 0x33C JUMPI INVALID JUMPDEST MOD EQ ISZERO PUSH2 0x34C JUMPI PUSH1 0x1 SWAP1 POP PUSH2 0x351 JUMP JUMPDEST PUSH1 0x0 SWAP1 POP JUMPDEST SWAP2 SWAP1 POP JUMP JUMPDEST PUSH1 0x0 PUSH1 0x1 PUSH1 0x2 DUP4 DUP2 PUSH2 0x364 JUMPI INVALID JUMPDEST MOD EQ ISZERO PUSH2 0x374 JUMPI PUSH1 0x1 SWAP1 POP PUSH2 0x379 JUMP JUMPDEST PUSH1 0x0 SWAP1 POP JUMPDEST SWAP2 SWAP1 POP JUMP INVALID LOG2 PUSH5 0x6970667358 0x22 SLT KECCAK256 0x5E 0x2C 0xC1 0xC6 0x4C 0x22 0xE4 0xB7 0xA5 SWAP12 PUSH26 0xDABBD3CFE182A19A19D2294F5CF0F2FF9B2EFDC76764736F6C63 NUMBER STOP MOD 0xC STOP CALLER "
				},
				"gasEstimates": {
					"creation": {
						"codeDepositCost": "189600",
						"executionCost": "infinite",
						"totalCost": "infinite"
					},
					"external": {
						"countEvenNumbers()": "infinite",
						"countOddNumbers()": "infinite",
						"isEvenNumber(uint256)": "412",
						"isOddNumber(uint256)": "434",
						"isOwner()": "1072",
						"numbers(uint256)": "2002",
						"owner()": "1092"
					}
				},
				"methodIdentifiers": {
					"countEvenNumbers()": "306d3e02",
					"countOddNumbers()": "4fa0e692",
					"isEvenNumber(uint256)": "e5054c69",
					"isOddNumber(uint256)": "ed2cfc9c",
					"isOwner()": "8f32d59b",
					"numbers(uint256)": "d39fa233",
					"owner()": "8da5cb5b"
				}
			},
			"userdoc": {
				"kind": "user",
				"methods": {},
				"version": 1
			}
		}
	}
}