{
  "contractName": "Test",
  "abi": [
    {
      "inputs": [],
      "name": "INITIAL_SUPPLY",
      "outputs": [
        {
          "internalType": "uint256",
          "name": "",
          "type": "uint256"
        }
      ],
      "stateMutability": "view",
      "type": "function"
    },
    {
      "inputs": [],
      "name": "decimals",
      "outputs": [
        {
          "internalType": "uint256",
          "name": "",
          "type": "uint256"
        }
      ],
      "stateMutability": "view",
      "type": "function"
    },
    {
      "inputs": [],
      "name": "name",
      "outputs": [
        {
          "internalType": "string",
          "name": "",
          "type": "string"
        }
      ],
      "stateMutability": "view",
      "type": "function"
    },
    {
      "inputs": [],
      "name": "symbol",
      "outputs": [
        {
          "internalType": "string",
          "name": "",
          "type": "string"
        }
      ],
      "stateMutability": "view",
      "type": "function"
    }
  ],
  "bytecode": "0x608060405234801561001057600080fd5b5061048a806100206000396000f3fe608060405234801561001057600080fd5b506004361061004c5760003560e01c806306fdde03146100515780632ff2e9dc1461006f578063313ce5671461008d57806395d89b41146100ab575b600080fd5b6100596100c9565b60405161006691906101f7565b60405180910390f35b610077610102565b6040516100849190610232565b60405180910390f35b610095610120565b6040516100a29190610232565b60405180910390f35b6100b3610125565b6040516100c091906101f7565b60405180910390f35b6040518060400160405280600a81526020017f5445535420544f4b454e0000000000000000000000000000000000000000000081525081565b6012600a61011091906103af565b61271061011d91906103fa565b81565b601281565b6040518060400160405280600481526020017f544553540000000000000000000000000000000000000000000000000000000081525081565b600081519050919050565b600082825260208201905092915050565b60005b8381101561019857808201518184015260208101905061017d565b838111156101a7576000848401525b50505050565b6000601f19601f8301169050919050565b60006101c98261015e565b6101d38185610169565b93506101e381856020860161017a565b6101ec816101ad565b840191505092915050565b6000602082019050818103600083015261021181846101be565b905092915050565b6000819050919050565b61022c81610219565b82525050565b60006020820190506102476000830184610223565b92915050565b7f4e487b7100000000000000000000000000000000000000000000000000000000600052601160045260246000fd5b60008160011c9050919050565b6000808291508390505b60018511156102d3578086048111156102af576102ae61024d565b5b60018516156102be5780820291505b80810290506102cc8561027c565b9450610293565b94509492505050565b6000826102ec57600190506103a8565b816102fa57600090506103a8565b8160018114610310576002811461031a57610349565b60019150506103a8565b60ff84111561032c5761032b61024d565b5b8360020a9150848211156103435761034261024d565b5b506103a8565b5060208310610133831016604e8410600b841016171561037e5782820a9050838111156103795761037861024d565b5b6103a8565b61038b8484846001610289565b925090508184048111156103a2576103a161024d565b5b81810290505b9392505050565b60006103ba82610219565b91506103c583610219565b92506103f27fffffffffffffffffffffffffffffffffffffffffffffffffffffffffffffffff84846102dc565b905092915050565b600061040582610219565b915061041083610219565b9250817fffffffffffffffffffffffffffffffffffffffffffffffffffffffffffffffff04831182151516156104495761044861024d565b5b82820290509291505056fea26469706673582212208aeada2fcd230321e3c931889eacd9b13a077892053feda10db63209a4b2c76164736f6c634300080d0033",
  "immutableReferences": {},
  "source": "// SPDX-License-Identifier: MIT\npragma solidity >=0.4.22 <0.9.0;\n\ncontract Test {\n  string public constant name = \"TEST TOKEN\";\n  string public constant symbol = \"TEST\";\n  uint public constant decimals = 18;\n  // initial supply : 10000.000000000000000000\n  uint public constant INITIAL_SUPPLY = 10000 * 10 ** decimals;\n  string constant teststring = \"you cant see this string\";\n}",
  "sourcePath": "/mnt/d/Blockchain_based_Fintech/solidity/smartContractExam/contracts/Test.sol",
  "compiler": {
    "name": "solc",
    "version": "0.8.13+commit.abaa5c0e.Emscripten.clang"
  },
  "schemaVersion": "3.4.7",
  "updatedAt": "2022-04-11T02:39:06.514Z",
  "devdoc": {
    "kind": "dev",
    "methods": {},
    "version": 1
  },
  "userdoc": {
    "kind": "user",
    "methods": {},
    "version": 1
  }
}